:100000000C944A000C94901C0C94C71C0C94FE1C7D
:100010000C94730B0C94AA0B0C94920F0C9400107C
:100020000C94C90F0C94550F0C944E130C9485131B
:100030000C94D1150C944C080C9490080C94150851
:100040000C940B220C9467000C9467000C946700CE
:100050000C946700640ABF0A640ABF0ABF0ABF0A99
:10006000640ABF0ABF0A930A640A930ABF0A660AAF
:10007000640A660AEA124513EA124513451345134A
:10008000EA12451345131913EA1219134513EC121A
:10009000EA12EC1211241FBECFE5D8E0DEBFCDBFBF
:1000A00010E0A0E6B0E0EAE4F8E702C005900D92A7
:1000B000A03DB107D9F721E0A0EDB0E001C01D924D
:1000C000A033B207E1F70E9415350C94233C0C9441
:1000D0000000CF93DF93CDB7DEB727970FB6F89424
:1000E000DEBF0FBECDBF6A837B838C839D835F831E
:1000F0004E8319828E819F81892B19F481E0898337
:100100001DC08D818F938C818F938B818F938A817A
:100110008F9380EB90E0892F8F9380EB90E08F930B
:100120008F818F938E818F930E9439398DB79EB7BF
:1001300008960FB6F894DEBF0FBECDBF8981279613
:100140000FB6F894DEBF0FBECDBFDF91CF910895FB
:10015000CF93DF93CDB7DEB765970FB6F894DEBFC8
:100160000FBECDBF688B798B8A8B9B8B5D8B4C8B45
:1001700019821F861E868C899D89892B19F481E03E
:10018000898378C020E030E0A901688979898A896B
:100190009B890E94683788235CF488899989AA8999
:1001A000BB89B058888B998BAA8BBB8B8DE28E87CD
:1001B000688979898A899B890E94DF37DC01CB01B4
:1001C0008A839B83AC83BD836A817B818C819D8183
:1001D0000E941738DC01CB019C01AD016889798947
:1001E0008A899B890E94FB36DC01CB018E839F8329
:1001F000A887B98720E030E44CE156E46E817F8126
:10020000888599850E94CC38DC01CB01BC01CD01E9
:100210000E94DF37DC01CB018A879B87AC87BD87D3
:100220008D858F938C858F938B858F938A858F9304
:100230008D818F938C818F938B818F938A818F9304
:10024000CE010E96292F2F938F9384EB90E0892F68
:100250008F9384EB90E08F938D898F938C898F930C
:100260000E9439398DB79EB70E960FB6F894DEBF4F
:100270000FBECDBF898165960FB6F894DEBF0FBE65
:10028000CDBFDF91CF9108952F923F924F925F9211
:100290006F927F928F929F92AF92BF92CF92DF9296
:1002A000EF92FF920F931F93CF93DF93CDB7DEB7FB
:1002B0006E970FB6F894DEBF0FBECDBF9C878B87BD
:1002C0007E876D8719821A821B821C821D821E8284
:1002D0001F82188619861A868D859E85892B21F0A6
:1002E0008B859C85892B19F481E089839FC01A82B4
:1002F0008CC02B813C814D815E816F8178858985A1
:100300009A85222E332E442E552E662E772E882E39
:10031000992E222D332D442D552D662D772D882D88
:10032000992D01E00E94CA36A22EB32EC42ED52EDE
:10033000E62EF72E082F192F2A2C3B2C4C2C5D2C47
:100340006E2C7F2C802E912E222D332D442D552D59
:10035000662D772D882D992D02E00E94CA362F8BAD
:10036000388F498F5A8F6B8F7C8F8D8F9E8F222D68
:10037000332D442D552D662D772D882D992DAF8841
:10038000B88CC98CDA8CEB8CFC8C0D8D1E8D0E9488
:10039000E336A22EB32EC42ED52EE62EF72E082F2E
:1003A000192F8A81882F90E02D853E85820F931F1B
:1003B000FC018081882F90E0C097988B8F87892FD0
:1003C000880F880B898B8A8B8B8B8C8B8D8B8E8B7C
:1003D0002A2D3B2D4C2D5D2D6E2D7F2D802F912FA5
:1003E000AF84B888C988DA88EB88FC880D891E89B3
:1003F0000E94E3362B833C834D835E836F83788733
:1004000089879A878A818F5F8A838A81882F90E083
:100410002D853E85820F931FFC018081882309F082
:1004200068CF2B818B859C85FC01208389816E960A
:100430000FB6F894DEBF0FBECDBFDF91CF911F91F5
:100440000F91FF90EF90DF90CF90BF90AF909F9073
:100450008F907F906F905F904F903F902F90089576
:100460002F923F924F925F926F927F928F929F92C4
:10047000AF92BF92CF92DF92EF92FF920F931F93B2
:10048000CF93DF93CDB7DEB76E970FB6F894DEBF8C
:100490000FBECDBF9C878B877E876D8719821A829E
:1004A0001B821C821D821E821F82188619861A8654
:1004B0008D859E85892B21F08B859C85892B19F450
:1004C00081E08983A1C01A828CC02B813C814D813F
:1004D0005E816F81788589859A85222E332E442E00
:1004E000552E662E772E882E992E222D332D442DB3
:1004F000552D662D772D882D992D01E00E94CA3645
:10050000A22EB32EC42ED52EE62EF72E082F192F8D
:100510002A2C3B2C4C2C5D2C6E2C7F2C802E912E6B
:10052000222D332D442D552D662D772D882D992D77
:1005300002E00E94CA362F8B388F498F5A8F6B8FFB
:100540007C8F8D8F9E8F222D332D442D552D662D22
:10055000772D882D992DAF88B88CC98CDA8CEB8CCF
:10056000FC8C0D8D1E8D0E94E336A22EB32EC42E60
:10057000D52EE62EF72E082F192F8A81882F90E08E
:100580002D853E85820F931FFC018081882F90E08E
:10059000C097988B8F87892F880F880B898B8A8BC0
:1005A0008B8B8C8B8D8B8E8B2A2D3B2D4C2D5D2D2B
:1005B0006E2D7F2D802F912FAF84B888C988DA885F
:1005C000EB88FC880D891E890E94E3362B833C83CF
:1005D0004D835E836F83788789879A878A818F5F4F
:1005E0008A838A81882F90E02D853E85820F931F14
:1005F000FC018081882309F068CF2B813C818B85A9
:100600009C85FC013183208389816E960FB6F89416
:10061000DEBF0FBECDBFDF91CF911F910F91FF9035
:10062000EF90DF90CF90BF90AF909F908F907F9092
:100630006F905F904F903F902F9008952F923F9230
:100640004F925F926F927F928F929F92AF92BF92E2
:10065000CF92DF92EF92FF920F931F93CF93DF938E
:10066000CDB7DEB76E970FB6F894DEBF0FBECDBF25
:100670009C878B877E876D8719821A821B821C82DA
:100680001D821E821F82188619861A868D859E8578
:10069000892B21F08B859C85892B19F481E0898336
:1006A000A5C01A828CC02B813C814D815E816F81F7
:1006B000788589859A85222E332E442E552E662ED6
:1006C000772E882E992E222D332D442D552D662DD3
:1006D000772D882D992D01E00E94CA36A22EB32EC7
:1006E000C42ED52EE62EF72E082F192F2A2C3B2CA0
:1006F0004C2C5D2C6E2C7F2C802E912E222D332D98
:10070000442D552D662D772D882D992D02E00E94C0
:10071000CA362F8B388F498F5A8F6B8F7C8F8D8F76
:100720009E8F222D332D442D552D662D772D882D0E
:10073000992DAF88B88CC98CDA8CEB8CFC8C0D8D24
:100740001E8D0E94E336A22EB32EC42ED52EE62E89
:10075000F72E082F192F8A81882F90E02D853E854E
:10076000820F931FFC018081882F90E0C097988BA7
:100770008F87892F880F880B898B8A8B8B8B8C8B2B
:100780008D8B8E8B2A2D3B2D4C2D5D2D6E2D7F2D2F
:10079000802F912FAF84B888C988DA88EB88FC88CD
:1007A0000D891E890E94E3362B833C834D835E8333
:1007B0006F83788789879A878A818F5F8A838A8106
:1007C000882F90E02D853E85820F931FFC0180814C
:1007D000882309F068CF8B819C81AD81BE812B85F8
:1007E0003C85F90180839183A283B38389816E96CE
:1007F0000FB6F894DEBF0FBECDBFDF91CF911F9132
:100800000F91FF90EF90DF90CF90BF90AF909F90AF
:100810008F907F906F905F904F903F902F900895B2
:100820002F923F924F925F926F927F928F929F9200
:10083000AF92BF92CF92DF92EF92FF920F931F93EE
:10084000CF93DF93CDB7DEB76E970FB6F894DEBFC8
:100850000FBECDBF9C878B877E876D8719821A82DA
:100860001B821C821D821E821F82188619861A8690
:100870008D859E85892B21F08B859C85892B19F48C
:1008800081E08983B4C01A828CC02B813C814D8168
:100890005E816F81788589859A85222E332E442E3C
:1008A000552E662E772E882E992E222D332D442DEF
:1008B000552D662D772D882D992D01E00E94CA3681
:1008C000A22EB32EC42ED52EE62EF72E082F192FCA
:1008D0002A2C3B2C4C2C5D2C6E2C7F2C802E912EA8
:1008E000222D332D442D552D662D772D882D992DB4
:1008F00002E00E94CA362F8B388F498F5A8F6B8F38
:100900007C8F8D8F9E8F222D332D442D552D662D5E
:10091000772D882D992DAF88B88CC98CDA8CEB8C0B
:10092000FC8C0D8D1E8D0E94E336A22EB32EC42E9C
:10093000D52EE62EF72E082F192F8A81882F90E0CA
:100940002D853E85820F931FFC018081882F90E0CA
:10095000C097988B8F87892F880F880B898B8A8BFC
:100960008B8B8C8B8D8B8E8B2A2D3B2D4C2D5D2D67
:100970006E2D7F2D802F912FAF84B888C988DA889B
:10098000EB88FC880D891E890E94E3362B833C830B
:100990004D835E836F83788789879A878A818F5F8B
:1009A0008A838A81882F90E02D853E85820F931F50
:1009B000FC018081882309F068CF8B859C852B8181
:1009C000FC0120832C81FC0121832D81FC012283E9
:1009D0002E81FC0123832F81FC0124832885FC01C7
:1009E00025832985FC0126832A85FC0127838981AB
:1009F0006E960FB6F894DEBF0FBECDBFDF91CF91DC
:100A00001F910F91FF90EF90DF90CF90BF90AF902C
:100A10009F908F907F906F905F904F903F902F901E
:100A20000895CF93DF9300D000D01F92CDB7DEB7EB
:100A30008B837D836C83198281E08A838C819D8185
:100A4000892B19F481E089831DC08C819D81FC0173
:100A500010828B81282F22952F708C819D81FC0123
:100A600020838C819D81FC018081880F982F990FB4
:100A7000990F980F8B818F70292F280F8C819D8162
:100A8000FC01208389810F900F900F900F900F90A1
:100A9000DF91CF910895CF93DF93CDB7DEB727973E
:100AA0000FB6F894DEBF0FBECDBF6A837B838C8305
:100AB0009D835F834E8319828E819F81892B19F4D8
:100AC00081E0898318C020E030E048EC52E46A817C
:100AD0007B818C819D810E94CC38DC01CB01BC01E3
:100AE000CD010E94E637DC01CB019C018E819F8104
:100AF000FC0131832083898127960FB6F894DEBFED
:100B00000FBECDBFDF91CF910895CF93DF9300D07B
:100B1000CDB7DEB78A8381E0898381E490E021E468
:100B200030E0F9012081322F307E2A81232B28608A
:100B3000FC01208389810F900F90DF91CF91089560
:100B4000CF93DF931F92CDB7DEB781E0898381E435
:100B500090E021E430E0F9012081207E2861FC0151
:100B6000208381E490E0FC01108289810F90DF9165
:100B7000CF910895CF93DF9300D000D01F92CDB7CF
:100B8000DEB79D838C8381E089838C819D81892B55
:100B900019F482E08983BCC08AE290E02AE230E066
:100BA000F90120812061FC0120838AE290E02AE2A1
:100BB00030E0F90120812860FC01208380E490E08E
:100BC00020E430E0F90120812068FC01208380E4EA
:100BD00090E020E430E0F9012081422F497F2C8110
:100BE0003D81F9012081222F30E0220F331F267032
:100BF000242BFC0120838AE290E02AE230E0F90114
:100C00002081422F4B7F2C813D81F901208124706E
:100C1000242BFC01208380E490E020E430E0F90103
:100C20002081422F4F7C2C813D81F9012381222F8D
:100C300030E022953295307F3227207F3227242BD7
:100C4000FC01208380E490E020E430E0F901208181
:100C5000422F477F2C813D81F9012281222F30E0F4
:100C6000220F331F220F331F220F331F242BFC01AF
:100C7000208380E490E020E430E0F9012081422FDD
:100C8000477F2C813D81F9012281222F30E0220F04
:100C9000331F220F331F220F331F242BFC0120830D
:100CA0008C819D81FC018181882F90E0892B79F5D1
:100CB0008C819D81FC0184819581A681B781BC01D5
:100CC000CD010E941538DC01CB019C01AD0160E033
:100CD00074E284E799E40E946D37DC01CB0120E0E7
:100CE00030E040E85FE3BC01CD010E94FB36DC014F
:100CF000CB01BC01CD010E94E637DC01CB019B8317
:100D00008A8389E290E02A81FC01208301C00000EF
:100D100089810F900F900F900F900F90DF91CF91DE
:100D20000895CF93DF9300D000D01F92CDB7DEB7E8
:100D30009B838A837D836C8381E089838A819B8105
:100D4000892B19F482E0898313C000008BE290E0C4
:100D5000FC018081829586958770882F90E0817054
:100D60009927892B99F38CE290E02C81FC01208358
:100D700089810F900F900F900F900F90DF91CF917E
:100D80000895CF93DF9300D000D01F92CDB7DEB788
:100D90009B838A837D836C8381E089838A819B81A5
:100DA000892B21F08C819D81892B19F482E0898324
:100DB00019C000008BE290E0FC018081881F882729
:100DC000881F882F90E081709927892B99F38CE2F6
:100DD00090E0FC018081282F30E08C819D81FC0116
:100DE0003183208389810F900F900F900F900F9087
:100DF000DF91CF910895CF93DF9300D000D000D042
:100E0000CDB7DEB79C838B837E836D8381E089833E
:100E10001A828B819C81892B21F08D819E81892B67
:100E2000B9F482E089831FC08A8191E0980F9A8388
:100E3000882F90E02D813E81820F931FFC018081DD
:100E4000282F30E08B819C81B9010E949106898313
:100E50008A81882F90E02D813E81820F931FFC01B3
:100E60008081882309F7898126960FB6F894DEBF22
:100E70000FBECDBFDF91CF910895CF93DF931F9227
:100E8000CDB7DEB781E089838AE290E02AE230E0E4
:100E9000F90120812068FC01208389810F90DF9176
:100EA000CF910895CF93DF931F92CDB7DEB781E046
:100EB00089838AE290E02AE230E0F90120812F77ED
:100EC000FC01208389810F90DF91CF910895CF930A
:100ED000DF9300D01F92CDB7DEB79B838A8381E07A
:100EE00089838A819B81892B19F482E0898306C0DA
:100EF0008A819B819093D1008093D00089810F904B
:100F00000F900F90DF91CF910895CF93DF931F92B1
:100F1000CDB7DEB781E089838AE290E02AE230E053
:100F2000F90120812064FC01208389810F90DF91E9
:100F3000CF910895CF93DF931F92CDB7DEB781E0B5
:100F400089838AE290E02AE230E0F90120812F7B58
:100F5000FC01208389810F90DF91CF910895CF9379
:100F6000DF9300D01F92CDB7DEB79B838A8381E0E9
:100F700089838A819B81892B19F482E0898306C049
:100F80008A819B819093D3008093D20089810F90B6
:100F90000F900F90DF91CF910895CF93DF931F9221
:100FA000CDB7DEB781E089838AE290E02AE230E0C3
:100FB000F90120812062FC01208389810F90DF915B
:100FC000CF910895CF93DF931F92CDB7DEB781E025
:100FD00089838AE290E02AE230E0F90120812F7DC6
:100FE000FC01208389810F90DF91CF910895CF93E9
:100FF000DF9300D01F92CDB7DEB79B838A8381E059
:1010000089838A819B81892B19F482E0898306C0B8
:101010008A819B819093D5008093D40089810F9021
:101020000F900F90DF91CF9108951F920F92009033
:101030005F000F9211242F933F934F935F936F9311
:101040007F938F939F93AF93BF93EF93FF93CF9330
:10105000DF93CDB7DEB78091D2009091D300892B7A
:1010600031F08091D2009091D300FC0109950000ED
:10107000DF91CF91FF91EF91BF91AF919F918F91B0
:101080007F916F915F914F913F912F910F900092BF
:101090005F000F901F9018951F920F9200905F00B5
:1010A0000F9211242F933F934F935F936F937F93EE
:1010B0008F939F93AF93BF93EF93FF93CF93DF9360
:1010C00000D0CDB7DEB78CE290E0FC018081882FA4
:1010D00090E09A8389838091D0009091D100892BF0
:1010E00041F02091D0003091D10089819A81F9019D
:1010F000099500000F900F90DF91CF91FF91EF9134
:10110000BF91AF919F918F917F916F915F914F911F
:101110003F912F910F9000925F000F901F901895B4
:101120001F920F9200905F000F9211242F933F9314
:101130004F935F936F937F938F939F93AF93BF93DF
:10114000EF93FF93CF93DF93CDB7DEB78091D400B9
:101150009091D500892B31F08091D4009091D500E9
:10116000FC0109950000DF91CF91FF91EF91BF91B4
:10117000AF919F918F917F916F915F914F913F912F
:101180002F910F9000925F000F901F901895CF93B2
:10119000DF9300D01F92CDB7DEB79B838A8381E0B7
:1011A00089838A819B81892B19F482E089839AC083
:1011B00085E490E025E430E0F9012081287FFC01FE
:1011C000208385E490E025E430E0F9012081422F7E
:1011D0004F7B2A813B81F9012181222F30E0217050
:1011E000332700243695279507943695279507943D
:1011F000322F202D242BFC01208385E490E025E470
:1012000030E0F9012081422F477F2A813B81F9019B
:1012100021812695222F30E021703327220F331FA2
:10122000220F331F220F331F242BFC01208385E460
:1012300090E025E430E0F9012081422F4F7E2A81A1
:101240003B81F901218126952695222F30E02170DE
:10125000332722953295307F3227207F3227242B67
:10126000FC01208385E490E025E430E0F901208151
:10127000422F4F7D2A813B81F901218126952695B8
:101280002695222F30E021703327220F331F22951D
:101290003295307F3227207F3227242BFC01208398
:1012A0008A819B81FC0182818093DA008A819B8103
:1012B000FC0181818093DB008A819B81FC0182811A
:1012C0000E94C60A898385E490E025E430E0F901B4
:1012D0002081422F487F2A813B81F9012081242BE4
:1012E000FC01208389810F900F900F90DF91CF91A7
:1012F0000895CF93DF9300D01F92CDB7DEB79B83C5
:101300008A8381E089838A819B81892B19F482E019
:10131000898309C085E490E025E430E0F90120816B
:10132000287FFC01208389810F900F900F90DF911F
:10133000CF910895CF93DF931F92CDB7DEB781E0B1
:10134000898389E590E029E530E0F9012081206476
:10135000FC01208389810F90DF91CF910895CF9375
:10136000DF931F92CDB7DEB781E0898389E590E0F6
:1013700029E530E0F90120812068FC012083898182
:101380000F90DF91CF910895CF93DF931F92CDB748
:10139000DEB781E0898389E590E029E530E0F90155
:1013A00020812F7BFC01208389810F90DF91CF91D9
:1013B0000895CF93DF931F92CDB7DEB781E0898385
:1013C00089E590E029E530E0F90120812F77FC01E3
:1013D000208389810F90DF91CF910895CF93DF9380
:1013E00000D01F92CDB7DEB79B838A8381E08983CB
:1013F0008A819B81892B19F482E0898306C08A81C6
:101400009B819093D7008093D60089810F900F9095
:101410000F90DF91CF910895CF93DF9300D01F926B
:10142000CDB7DEB79B838A8381E089838A819B81E4
:10143000892B19F482E0898306C08A819B8190936D
:10144000D9008093D80089810F900F900F90DF9181
:10145000CF910895CF93DF931F92CDB7DEB781E090
:10146000898385E490E025E430E0F901208120685B
:10147000FC01208389810F90DF91CF910895CF9354
:10148000DF9300D01F92CDB7DEB78B8381E08983D5
:101490008B81853608F084E68B838091DB00882F72
:1014A00090E0092E000CAA0BBB0B40E050E02FE0AF
:1014B00030E0841B950B2817390708F460C0865D5F
:1014C0009F4FFC010C94B936198259C08B81882F2B
:1014D00090E0A0E0B0E0BC01CD010E941538DC0135
:1014E000CB0120E030E048EC52E4BC01CD010E9489
:1014F0006D37DC01CB0120E030E04FE753E4BC0165
:10150000CD010E94CC38DC01CB01BC01CD010E9491
:10151000E637DC01CB0180958A8383E490E02A8161
:10152000FC0120832CC08B81882F90E0A0E0B0E0EC
:10153000BC01CD010E941538DC01CB0120E030E078
:1015400048EC52E4BC01CD010E946D37DC01CB01B7
:1015500020E030E04FE753E4BC01CD010E94CC38DD
:10156000DC01CB01BC01CD010E94E637DC01CB01DF
:101570008A8383E490E02A81FC0120830000898132
:101580000F900F900F90DF91CF910895CF93DF933D
:1015900000D0CDB7DEB78A8381E0898384E490E010
:1015A0002A81FC01208389810F900F90DF91CF91D8
:1015B0000895CF93DF9300D01F92CDB7DEB79B8302
:1015C0008A8381E089838A819B81892B19F482E057
:1015D000898308C084E490E0FC0120818A819B819A
:1015E000FC01208389810F900F900F90DF91CF91A4
:1015F0000895CF93DF9300D01F92CDB7DEB79B83C2
:101600008A8381E089838A819B81892B19F482E016
:1016100089830AC084E490E0FC018081282F209512
:101620008A819B81FC01208389810F900F900F900C
:10163000DF91CF910895CF93DF9300D0CDB7DEB780
:101640008A8381E0898383E490E02A81FC012083FE
:1016500089810F900F90DF91CF910895CF93DF9301
:1016600000D01F92CDB7DEB79B838A8381E0898348
:101670008A819B81892B19F482E0898308C084E4E4
:1016800090E0FC0120818A819B81FC01208389817B
:101690000F900F900F90DF91CF910895CF93DF932C
:1016A00000D01F92CDB7DEB79B838A8381E0898308
:1016B0008A819B81892B19F482E089830DC083E4A0
:1016C00090E0FC01208184E490E0FC018081281BF3
:1016D0008A819B81FC01208389810F900F900F905C
:1016E000DF91CF9108951F920F9200905F000F92AB
:1016F00011242F933F934F935F936F937F938F9317
:101700009F93AF93BF93EF93FF93CF93DF93CDB7A7
:10171000DEB78091D8009091D900892B31F080916B
:10172000D8009091D900FC0109950000DF91CF917C
:10173000FF91EF91BF91AF919F918F917F916F91A9
:101740005F914F913F912F910F9000925F000F900A
:101750001F9018951F920F9200905F000F92112416
:101760002F933F934F935F936F937F938F939F93A9
:10177000AF93BF93EF93FF93CF93DF93CDB7DEB7D4
:101780008091D6009091D700892B61F084E490E09D
:101790002091DA00FC0120838091D6009091D7003F
:1017A000FC0109950000DF91CF91FF91EF91BF916E
:1017B000AF919F918F917F916F915F914F913F91E9
:1017C0002F910F9000925F000F901F901895CF936C
:1017D000DF9300D01F92CDB7DEB79B838A83198237
:1017E0008A819B81892B19F482E089837CC08EE4F5
:1017F00090E02EE430E0F9012081287FFC01208375
:101800008FE490E02FE430E0F9012081422F4C7FFB
:101810002A813B81F9012181242BFC0120838EE464
:1018200090E02EE430E0F9012081422F477E2A81AA
:101830003B81F9012181222F30E0220F331F242B1D
:10184000FC0120838FE490E02FE430E0F901208157
:10185000422F4F732A813B81F9012281222F30E0F0
:101860000024369527950794369527950794322FAF
:10187000202D242BFC0120838FE490E02FE430E026
:10188000F9012081422F4F7C2A813B81F90123817C
:10189000222F30E022953295307F3227207F322769
:1018A000242BFC0120838A819B81FC01848195810A
:1018B0009093E5008093E4008A819B81FC01848100
:1018C00095810E94AE0D89838EE490E02EE430E095
:1018D000F9012081422F487F2A813B81F901208133
:1018E000242BFC01208389810F900F900F90DF91B2
:1018F000CF910895CF93DF9300D01F92CDB7DEB77D
:101900009B838A8319828A819B81892B19F482E0C7
:10191000898309C08EE490E02EE430E0F901208153
:10192000287FFC01208389810F900F900F90DF9119
:10193000CF910895CF93DF931F92CDB7DEB7198271
:1019400089E590E029E530E0F90120812460FC017F
:10195000208389810F90DF91CF910895CF93DF93FA
:101960001F92CDB7DEB7198289E590E029E530E016
:10197000F90120812B7FFC01208389810F90DF9169
:10198000CF910895CF93DF931F92CDB7DEB7198221
:1019900089E590E029E530E0F90120812860FC012B
:1019A000208389810F90DF91CF910895CF93DF93AA
:1019B0001F92CDB7DEB7198289E590E029E530E0C6
:1019C000F9012081277FFC01208389810F90DF911D
:1019D000CF910895CF93DF931F92CDB7DEB71982D1
:1019E00089E590E029E530E0F90120812061FC01E2
:1019F000208389810F90DF91CF910895CF93DF935A
:101A00001F92CDB7DEB7198289E590E029E530E075
:101A1000F90120812F7EFC01208389810F90DF91C5
:101A2000CF910895CF93DF931F92CDB7DEB7198280
:101A300089E590E029E530E0F90120812062FC0190
:101A4000208389810F90DF91CF910895CF93DF9309
:101A50001F92CDB7DEB7198289E590E029E530E025
:101A6000F90120812F7DFC01208389810F90DF9176
:101A7000CF910895CF93DF9300D01F92CDB7DEB7FB
:101A80009B838A8319828A819B81892B19F482E046
:101A9000898306C08A819B819093DD008093DC005E
:101AA00089810F900F900F90DF91CF910895CF9380
:101AB000DF9300D01F92CDB7DEB79B838A83198254
:101AC0008A819B81892B19F482E0898306C08A81EF
:101AD0009B819093DF008093DE0089810F900F90AF
:101AE0000F90DF91CF910895CF93DF9300D01F9295
:101AF000CDB7DEB79B838A8319828A819B81892B2C
:101B000019F482E0898306C08A819B819093E10069
:101B10008093E00089810F900F900F90DF91CF911B
:101B20000895CF93DF9300D01F92CDB7DEB79B838C
:101B30008A8319828A819B81892B19F482E08983A7
:101B400006C08A819B819093E3008093E2008981A3
:101B50000F900F900F90DF91CF910895CF93DF9367
:101B600000D01F92CDB7DEB79B838A8319828DE4A4
:101B700090E02A813B81232F3327FC0120838CE4D2
:101B800090E02A812F70FC01208389810F900F90B3
:101B90000F90DF91CF910895CF93DF9300D01F92E4
:101BA000CDB7DEB79B838A8319828BE490E02A81CC
:101BB0003B81232F3327FC0120838AE490E02A8194
:101BC0002F70FC01208389810F900F900F90DF917F
:101BD000CF910895CF93DF9300D01F92CDB7DEB79A
:101BE0009B838A83198288E490E02A813B81FC01EF
:101BF0003183208389810F900F900F90DF91CF91D7
:101C00000895CF93DF9300D01F92CDB7DEB79B83AB
:101C10008A83198286E490E02A813B81FC0131832A
:101C2000208389810F900F900F90DF91CF910895BD
:101C3000CF93DF9300D01F92CDB7DEB79B838A830B
:101C400019828A819B81892B19F482E089831FC0C4
:101C50008CE490E0FC018081282F30E08A819B8118
:101C6000FC01318320838DE490E0FC018081882F8A
:101C700090E0382F22278A819B81FC01808191810D
:101C8000282B392B8A819B81FC0131832083898118
:101C90000F900F900F90DF91CF910895CF93DF9326
:101CA00000D01F92CDB7DEB79B838A8319828A81C9
:101CB0009B81892B19F482E089831FC08AE490E01C
:101CC000FC018081282F30E08A819B81FC013183D7
:101CD00020838BE490E0FC018081882F90E0382FF6
:101CE00022278A819B81FC0180819181282B392BBD
:101CF0008A819B81FC013183208389810F900F9021
:101D00000F90DF91CF910895CF93DF9300D01F9272
:101D1000CDB7DEB79B838A8319828A819B81892B09
:101D200019F482E089831FC088E490E0FC0180817F
:101D3000282F30E08A819B81FC013183208389E454
:101D400090E0FC018081882F90E0382F22278A8143
:101D50009B81FC0180819181282B392B8A819B8179
:101D6000FC013183208389810F900F900F90DF91C8
:101D7000CF910895CF93DF9300D01F92CDB7DEB7F8
:101D80009B838A8319828A819B81892B19F482E043
:101D900089831FC086E490E0FC018081282F30E019
:101DA0008A819B81FC013183208387E490E0FC01E0
:101DB0008081882F90E0382F22278A819B81FC0127
:101DC00080819181282B392B8A819B81FC01318371
:101DD000208389810F900F900F90DF91CF9108950C
:101DE000CF93DF931F92CDB7DEB719828FE490E0D7
:101DF0002FE430E0F90120812860FC0120838981F3
:101E00000F90DF91CF910895CF93DF931F92CDB7BD
:101E1000DEB719828FE490E02FE430E0F9012081F1
:101E20002460FC01208389810F90DF91CF91089578
:101E3000CF93DF931F92CDB7DEB719828EE490E087
:101E40002EE430E0F90120812064FC0120838981A7
:101E50000F90DF91CF910895CF93DF931F92CDB76D
:101E6000DEB719828EE490E02EE430E0F9012081A3
:101E70002F7BFC01208389810F90DF91CF91089502
:101E8000CF93DF931F92CDB7DEB719828EE490E037
:101E90002EE430E0F901308120E42327FC01208387
:101EA00089810F90DF91CF9108951F920F9200903A
:101EB0005F000F9211242F933F934F935F936F9383
:101EC0007F938F939F93AF93BF93EF93FF93CF93A2
:101ED000DF93CDB7DEB78091DC009091DD00892BD8
:101EE00061F08091E4009091E5000E94AE0D809138
:101EF000DC009091DD00FC0109950000DF91CF919D
:101F0000FF91EF91BF91AF919F918F917F916F91D1
:101F10005F914F913F912F910F9000925F000F9032
:101F20001F9018951F920F9200905F000F9211243E
:101F30002F933F934F935F936F937F938F939F93D1
:101F4000AF93BF93EF93FF93CF93DF93CDB7DEB7FC
:101F50008091E2009091E300892B31F08091E200C2
:101F60009091E300FC0109950000DF91CF91FF9172
:101F7000EF91BF91AF919F918F917F916F915F9101
:101F80004F913F912F910F9000925F000F901F9003
:101F900018951F920F9200905F000F9211242F93BB
:101FA0003F934F935F936F937F938F939F93AF93E1
:101FB000BF93EF93FF93CF93DF93CDB7DEB78091BD
:101FC000E0009091E100892B31F08091E000909148
:101FD000E100FC0109950000DF91CF91FF91EF91A5
:101FE000BF91AF919F918F917F916F915F914F9131
:101FF0003F912F910F9000925F000F901F901895C6
:102000001F920F9200905F000F9211242F933F9325
:102010004F935F936F937F938F939F93AF93BF93F0
:10202000EF93FF93CF93DF93CDB7DEB78091DE00C0
:102030009091DF00892B31F08091DE009091DF00DC
:10204000FC0109950000DF91CF91FF91EF91BF91C5
:10205000AF919F918F917F916F915F914F913F9140
:102060002F910F9000925F000F901F901895CF93C3
:10207000DF9300D01F92CDB7DEB79B838A8381E0C8
:1020800089838A819B81892B19F482E0898397C097
:1020900083E590E023E530E0F9012081287FFC0111
:1020A000208383E590E023E530E0F9012081422F91
:1020B0004F7B2A813B81F9012181222F30E0217061
:1020C000332700243695279507943695279507944E
:1020D000322F202D242BFC01208383E590E023E583
:1020E00030E0F9012081422F477F2A813B81F901AD
:1020F00021812695222F30E021703327220F331FB4
:10210000220F331F220F331F242BFC01208383E572
:1021100090E023E530E0F9012081422F4F7E2A81B3
:102120003B81F901218126952695222F30E02170EF
:10213000332722953295307F3227207F3227242B78
:10214000FC01208383E590E023E530E0F901208164
:10215000422F4F7D2A813B81F901218126952695C9
:102160002695222F30E021703327220F331F22952E
:102170003295307F3227207F3227242BFC012083A9
:102180008A819B81FC0182818093EA008A819B8104
:10219000FC0122818A819B81622F0E9469118983BF
:1021A00083E590E023E530E0F9012081422F487F6C
:1021B0002A813B81F9012081242BFC012083898124
:1021C0000F900F900F90DF91CF910895CF93DF93F1
:1021D00000D01F92CDB7DEB79B838A8381E08983CD
:1021E0008A819B81892B19F482E0898309C083E568
:1021F00090E023E530E0F9012081287FFC01208375
:1022000089810F900F900F90DF91CF910895CF9318
:10221000DF9300D01F92CDB7DEB79B838A8381E026
:1022200089838A819B81892B19F482E0898319C073
:102230008A819B81FC018181882351F489E590E0AA
:1022400029E530E0F90120812160FC01208309C0EB
:1022500089E590E029E530E0F90120812260FC0168
:10226000208389810F900F900F90DF91CF91089577
:10227000CF93DF9300D01F92CDB7DEB79B838A83C5
:1022800081E089838A819B81892B19F482E089838B
:1022900019C08A819B81FC018181882351F489E5E1
:1022A00090E029E530E0F90120812E7FFC012083B8
:1022B00009C089E590E029E530E0F90120812D7F12
:1022C000FC01208389810F900F900F90DF91CF91B7
:1022D0000895CF93DF9300D000D0CDB7DEB79B83B6
:1022E0008A836C8381E089838A819B81892B19F49D
:1022F00082E0898311C08A819B81FC0181818823CE
:1023000031F482E590E02C81FC01208305C08CE54E
:1023100090E02C81FC01208389810F900F900F9019
:102320000F90DF91CF910895CF93DF9300D000D02D
:102330001F92CDB7DEB79B838A837D836C8381E058
:1023400089838A819B81892B19F482E089830BC060
:1023500082E590E0FC018081282F30E08C819D8116
:10236000FC013183208389810F900F900F900F9093
:102370000F90DF91CF910895CF93DF9300D000D0DD
:102380001F92CDB7DEB79B838A837D836C8381E008
:1023900089838A819B81892B11F482E089838981D9
:1023A0000F900F900F900F900F90DF91CF910895A5
:1023B000CF93DF9300D000D01F92CDB7DEB79B83C1
:1023C0008A837D836C8381E089838A819B81892BC9
:1023D00019F482E0898313C08A819B81FC01818189
:1023E000882339F48C819D819093E7008093E600E7
:1023F00006C08C819D819093E9008093E8008981DB
:102400000F900F900F900F900F90DF91CF91089544
:10241000CF93DF931F92CDB7DEB781E0898389E543
:1024200090E029E530E0F90120812160FC01208362
:1024300089810F90DF91CF910895CF93DF931F9201
:10244000CDB7DEB781E0898389E590E029E530E00A
:10245000F90120812260FC01208389810F90DF91A6
:10246000CF910895CF93DF9300D01F92CDB7DEB701
:102470009B838A8381E089838A819B81892B19F4DC
:1024800082E0898306C08A819B819093E7008093D4
:10249000E60089810F900F900F90DF91CF91089502
:1024A000CF93DF9300D01F92CDB7DEB79B838A8393
:1024B00081E089838A819B81892B19F482E0898359
:1024C00006C08A819B819093E9008093E80089810E
:1024D0000F900F900F90DF91CF910895CF93DF93DE
:1024E0001F92CDB7DEB781E0898389E590E029E5C9
:1024F00030E0F90120812E7FFC01208389810F903B
:10250000DF91CF910895CF93DF931F92CDB7DEB7C0
:1025100081E0898389E590E029E530E0F9012081B7
:102520002D7FFC01208389810F90DF91CF91089549
:10253000CF93DF9300D01F92CDB7DEB79B838A8302
:1025400081E089838A819B81892B19F482E08983C8
:1025500009C083E590E023E530E0F901208120689F
:10256000FC01208389810F900F900F90DF91CF9114
:102570000895CF93DF9300D000D01F92CDB7DEB780
:102580009C838B836D8381E089838B819C81892BE4
:1025900019F482E0898379C08D81853608F084E65C
:1025A0008D838B819C81FC018181882F90E0092E95
:1025B000000CAA0BBB0B40E050E02FE030E0841B86
:1025C000950B2817390708F460C0865C9F4FFC0103
:1025D0000C94B936198259C08D81882F90E0A0E003
:1025E000B0E0BC01CD010E941538DC01CB0120E038
:1025F00030E048EC52E4BC01CD010E946D37DC01B3
:10260000CB0120E030E04FE753E4BC01CD010E9454
:10261000CC38DC01CB01BC01CD010E94E637DC01E6
:10262000CB0180958A838CE590E02A81FC01208390
:102630002CC08D81882F90E0A0E0B0E0BC01CD01DE
:102640000E941538DC01CB0120E030E048EC52E478
:10265000BC01CD010E946D37DC01CB0120E030E0F0
:102660004FE753E4BC01CD010E94CC38DC01CB0123
:10267000BC01CD010E94E637DC01CB018A838CE5E9
:1026800090E02A81FC012083000089810F900F9047
:102690000F900F900F90DF91CF9108951F920F929E
:1026A00000905F000F9211242F933F934F935F93FD
:1026B0006F937F938F939F93AF93BF93EF93FF930A
:1026C000CF93DF93CDB7DEB78091E8009091E9001A
:1026D000892B31F08091E8009091E900FC01099587
:1026E0000000DF91CF91FF91EF91BF91AF919F914A
:1026F0008F917F916F915F914F913F912F910F90AB
:1027000000925F000F901F9018951F920F920090FB
:102710005F000F9211242F933F934F935F936F931A
:102720007F938F939F93AF93BF93EF93FF93CF9339
:10273000DF93CDB7DEB78091E6009091E700892B5B
:1027400061F082E590E02091EA00FC012083809115
:10275000E6009091E700FC0109950000DF91CF9120
:10276000FF91EF91BF91AF919F918F917F916F9169
:102770005F914F913F912F910F9000925F000F90CA
:102780001F901895CF93DF9300D01F92CDB7DEB77F
:102790009B838A8381E089838A819B81892B19F4B9
:1027A00082E089838FC08DE290E02DE230E0F90174
:1027B00020812F7BFC0120838DE290E02DE230E030
:1027C000F9012081422F4F7E2A813B81F90120812E
:1027D000222F30E022953295307F3227207F32271A
:1027E000242BFC0120838DE290E02DE230E0F90102
:1027F0002081422F4F7D2A813B81F9012181222FA7
:1028000030E0220F331F22953295307F3227207F10
:102810003227242BFC0120838DE290E02DE230E072
:10282000F9012081422F477F2A813B81F9012281D2
:10283000222F30E0220F331F220F331F220F331FAE
:10284000242BFC0120838DE290E02DE230E0F901A1
:102850002081422F4B7F2A813B81F9012381222F46
:1028600030E0220F331F220F331F242BFC01208363
:102870008DE290E02DE230E0F9012081422F4C7F83
:102880002A813B81F90124812370242BFC012083C0
:102890008EE290E02EE230E0F9012081422F4E7F5F
:1028A0002A813B81F901248126952695242BFC0160
:1028B00020838DE290E02DE230E0F9012081206458
:1028C000FC01208389810F900F900F90DF91CF91B1
:1028D0000895CF93DF931F92CDB7DEB781E0898350
:1028E0008DE290E02DE230E0F90120812F7BFC01A8
:1028F000208389810F90DF91CF910895CF93DF934B
:102900001F92CDB7DEB781E089838DE290E02DE2A2
:1029100030E0F90120812068FC01208389810F903B
:10292000DF91CF910895CF93DF931F92CDB7DEB79C
:1029300081E089838DE290E02DE230E0F901208191
:102940002F77FC01208389810F90DF91CF9108952B
:10295000CF93DF9300D01F92CDB7DEB79B838A83DE
:1029600081E089838A819B81892B19F482E08983A4
:1029700006C08A819B819093EC008093EB00898153
:102980000F900F900F90DF91CF910895CF93DF9329
:1029900000D0CDB7DEB78A8381E089838DE290E0F5
:1029A0002DE230E0F90120812F7BFC0120838DE2B4
:1029B00090E02DE230E0F9012081322F3C7F2A8126
:1029C0002370232BFC0120838EE290E02EE230E086
:1029D000F90120812E7F3A8136953695232BFC0113
:1029E00020838DE290E02DE230E0F9012081206427
:1029F000FC01208389810F900F90DF91CF91089582
:102A0000CF93DF9300D01F92CDB7DEB79B838A832D
:102A100081E089838A819B81892B19F482E08983F3
:102A200014C08EE290E0FC018081829586958695A7
:102A30008370882F90E08170992721E0892B09F419
:102A400020E08A819B81FC01208389810F900F9077
:102A50000F90DF91CF910895CF93DF9300D000D0F6
:102A6000CDB7DEB79B838A836C8381E089838A81BB
:102A70009B81892B19F482E089831BC08FE290E04F
:102A80002C81FC01208300008EE290E0FC0180811B
:102A9000881F8827881F882F90E081709927892BAD
:102AA00099F38FE290E0FC0120818A819B81FC01F7
:102AB000208389810F900F900F900F90DF91CF911D
:102AC0000895CF93DF9300D000D01F92CDB7DEB72B
:102AD0008A836B835D834C8381E089838C819D81B4
:102AE000892B19F482E0898323C060E08A810E94E7
:102AF000351D8FE290E02B81FC01208300008EE2E7
:102B000090E0FC018081881F8827881F882F90E033
:102B100081709927892B99F38FE290E0FC01208145
:102B20008C819D81FC01208361E08A810E94351D9A
:102B300089810F900F900F900F900F90DF91CF91A0
:102B40000895CF93DF9300D01F92CDB7DEB78A836D
:102B50006B8381E0898360E08A810E94351D8A81D0
:102B60008093ED008FE290E02B81FC01208389812E
:102B70000F900F900F90DF91CF910895CF93DF9337
:102B800000D0CDB7DEB78A8381E089838FE290E001
:102B90002A81FC01208389810F900F90DF91CF91D2
:102BA00008951F920F9200905F000F9211242F93AF
:102BB0003F934F935F936F937F938F939F93AF93C5
:102BC000BF93EF93FF93CF93DF931F92CDB7DEB701
:102BD0008091EB009091EC00892BC9F08FE290E09E
:102BE000FC01808189832091EB003091EC00898188
:102BF000F90109958091EE00882F90E0019709F086
:102C000006C08091ED0061E00E94351D00000000CB
:102C10000F90DF91CF91FF91EF91BF91AF919F9175
:102C20008F917F916F915F914F913F912F910F9075
:102C300000925F000F901F901895CF93DF93CDB750
:102C4000DEB78AE390E02EEFFC01208387E390E07B
:102C500027EAFC01208384E390E02FEFFC0120832E
:102C600081E390E02FE3FC0120838BE390E0FC0103
:102C7000108288E390E028E1FC01208385E390E066
:102C8000FC01108282E390E020E8FC012083000038
:102C9000DF91CF910895CF93DF9300D000D01F92A2
:102CA000CDB7DEB78C836D8319828C8187708A8360
:102CB0008C818695869586958B838C81803218F0E1
:102CC00082E0898359C08D81823018F081E0898348
:102CD00053C08D81882F90E0009741F1019709F052
:102CE0004BC08B81882F90E0880F991F805A9F4F8F
:102CF000FC01808191812B81222F30E0220F331F34
:102D0000205A3F4FF90120813181F9012081622F42
:102D10002A81422F50E021E030E002C0220F331F11
:102D20004A95E2F7262BFC01208326C08B81882F51
:102D300090E0880F991F805A9F4FFC0180819181FC
:102D40002B81222F30E0220F331F205A3F4FF901F1
:102D500020813181F9012081622F2A81422F50E0A8
:102D600021E030E002C0220F331F4A95E2F72095A0
:102D70002623FC012083000089810F900F900F9083
:102D80000F900F90DF91CF910895CF93DF9300D0F4
:102D900000D01F92CDB7DEB78C836D8319828C81F2
:102DA00087708A838C818695869586958B838C81A6
:102DB000803218F082E0898343C18D81843018F01D
:102DC00081E089833DC18D81882F90E0813091051C
:102DD00009F457C0823091051CF4892B49F030C1A9
:102DE0008230910509F497C0039709F4DFC028C128
:102DF0008B81882F90E0880F991F805A9F4FFC018C
:102E0000808191812B81222F30E0220F331F205AA5
:102E10003F4FF90120813181F9012081622F2A8100
:102E2000422F50E021E030E002C0220F331F4A95CC
:102E3000E2F7262BFC0120838B81882F90E0880FFE
:102E4000991F88599F4FFC01808191812B81222FEE
:102E500030E0220F331F28593F4FF9012081318183
:102E6000F9012081622F2A81422F50E021E030E0D9
:102E700002C0220F331F4A95E2F7262BFC01208364
:102E8000DFC08B81882F90E0880F991F805A9F4F59
:102E9000FC01808191812B81222F30E0220F331F92
:102EA000205A3F4FF90120813181F9012081622FA1
:102EB0002A81422F50E021E030E002C0220F331F70
:102EC0004A95E2F7262BFC0120838B81882F90E026
:102ED000880F991F88599F4FFC01808191812B8118
:102EE000222F30E0220F331F28593F4FF901208154
:102EF0003181F9012081622F2A81422F50E021E0A7
:102F000030E002C0220F331F4A95E2F720952623B6
:102F1000FC01208395C08B81882F90E0880F991F3A
:102F2000805A9F4FFC01808191812B81222F30E0BC
:102F3000220F331F205A3F4FF90120813181F901BF
:102F40002081622F2A81422F50E021E030E002C030
:102F5000220F331F4A95E2F720952623FC01208398
:102F60008B81882F90E0880F991F88599F4FFC0113
:102F7000808191812B81222F30E0220F331F28592D
:102F80003F4FF90120813181F9012081622F2A818F
:102F9000422F50E021E030E002C0220F331F4A955B
:102FA000E2F720952623FC0120834AC08B81882FDD
:102FB00090E0880F991F805A9F4FFC01808191817A
:102FC0002B81222F30E0220F331F205A3F4FF9016F
:102FD00020813181F9012081622F2A81422F50E026
:102FE00021E030E002C0220F331F4A95E2F720951E
:102FF0002623FC0120838B81882F90E0880F991F66
:1030000088599F4FFC01808191812B81222F30E0D4
:10301000220F331F28593F4FF90120813181F901D7
:103020002081622F2A81422F50E021E030E002C04F
:10303000220F331F4A95E2F7262BFC012083000064
:1030400089810F900F900F900F900F90DF91CF918B
:103050000895CF92DF92EF92FF920F931F93CF9339
:10306000DF9300D01F92CDB7DEB79B838A8381E0C8
:1030700089838A819B81892B19F484E089838FC09D
:1030800086E590E026E530E0F90120812B7FFC0108
:10309000208381E290E02A813B81F9012481FC01B7
:1030A00020836894CC24C5F8D12C8A819B81FC01B3
:1030B000208131814281538180E090E0DC01821BDC
:1030C000930BA40BB50B880F991FAA1FBB1F880F6A
:1030D000991FAA1FBB1F880F991FAA1FBB1F880F0C
:1030E000991FAA1FBB1F7C018D01FCEDFF1A0B402D
:1030F0001F4F8A819B81FC01208131814281538154
:103100008A819B81FC018481882F90E0880F991F20
:10311000BC016F5F7F4F81E090E002C0880F991F74
:103120006A95E2F7092E000CAA0BBB0BBC01CD017E
:103130000E9487369B01AC01C801B7010E949736F7
:10314000DA01C901F60180838A819B81FC018581B6
:103150009681019691F082E290E022E230E0F9015E
:103160002081422F41702A813B81F90125813681DE
:10317000220F331F242BFC01208386E590E026E5F7
:1031800030E0F90120812460FC01208386E590E095
:1031900026E530E0F90120812068FC012083898147
:1031A0000F900F900F90DF91CF911F910F91FF9093
:1031B000EF90DF90CF900895CF93DF9300D01F92D0
:1031C000CDB7DEB79B838A8381E089838A819B8127
:1031D000892B19F484E0898309C086E590E026E50F
:1031E00030E0F90120812B7FFC01208389810F9041
:1031F0000F900F90DF91CF910895CF93DF931F929F
:10320000CDB7DEB781E0898386E590E026E530E042
:10321000F90120812160FC01208389810F90DF91D9
:10322000CF910895CF93DF931F92CDB7DEB781E0A2
:10323000898386E590E026E530E0F90120812E7F44
:10324000FC01208389810F90DF91CF910895CF9366
:10325000DF9300D01F92CDB7DEB79B838A8381E0D6
:1032600089838A819B81892B19F484E0898306C034
:103270008A819B819093F0008093EF0089810F9069
:103280000F900F90DF91CF910895CF93DF9300D0EF
:103290001F92CDB7DEB79B838A8381E089838A81C1
:1032A0009B81892B19F484E0898313C086E590E023
:1032B000FC018081869586958695882F90E08170A7
:1032C000992721E0892B09F420E08A819B81FC0168
:1032D000208389810F900F900F90DF91CF910895F7
:1032E000CF93DF931F92CDB7DEB781E0898386E568
:1032F00090E024EAFC012083000086E590E0FC01D8
:103300008081881F8827881F882F90E081709927E7
:10331000892B99F389810F90DF91CF910895CF93F5
:10332000DF931F92CDB7DEB781E0898386E590E019
:1033300024E8FC01208386E590E024E9FC01208359
:1033400089810F90DF91CF910895CF93DF931F92E2
:10335000CDB7DEB781E0898386E590E024EAFC0101
:103360002083000086E590E0FC018081881F88278B
:10337000881F882F90E081709927892B99F3898184
:103380000F90DF91CF910895CF93DF9300D000D0BD
:10339000CDB7DEB78A837C836B8381E089838B81A1
:1033A0009C81892B19F484E0898318C083E290E022
:1033B0002A81FC01208386E590E024E8FC0120833B
:1033C000000086E590E0FC018081881F8827881F27
:1033D000882F90E081709927892B99F389810F902C
:1033E0000F900F900F90DF91CF910895CF93DF93BF
:1033F00000D000D0CDB7DEB78A837C836B8381E0B9
:1034000089838B819C81892B19F484E089831DC079
:1034100083E290E02A81222F30E0220F331F2160C7
:10342000FC01208386E590E024E8FC012083000075
:1034300086E590E0FC018081881F8827881F882FFF
:1034400090E081709927892B99F389810F900F90D3
:103450000F900F90DF91CF910895CF93DF9300D01D
:1034600000D0CDB7DEB78A837C836B8381E089830C
:103470008B819C81892B19F484E0898319C083E2B4
:1034800090E02A81220FFC01208386E590E024E869
:10349000FC012083000086E590E0FC018081881F0C
:1034A0008827881F882F90E081709927892B99F3AE
:1034B00089810F900F900F900F90DF91CF91089519
:1034C000CF93DF9300D000D0CDB7DEB79B838A8344
:1034D0006C8381E089838A819B81892B19F484E044
:1034E000898332C086E590E024E8FC012083000057
:1034F00086E590E0FC018081881F8827881F882F3F
:1035000090E081709927892B99F383E290E0FC0188
:1035100020818A819B81FC01208386E590E026E55D
:1035200030E0F9012081422F4F7B2C81222F30E0A7
:103530000024369527950794369527950794322FC2
:10354000202D242BFC01208389810F900F900F9058
:103550000F90DF91CF910895CF93DF9300D000D0EB
:10356000CDB7DEB78A837C836B8381E089838B81CF
:103570009C81892B19F484E0898318C083E290E050
:103580002A81FC01208386E590E024E8FC01208369
:10359000000086E590E0FC018081881F8827881F55
:1035A000882F90E081709927892B99F389810F905A
:1035B0000F900F900F90DF91CF910895CF93DF93ED
:1035C00000D000D0CDB7DEB79B838A836C8381E0C7
:1035D00089838A819B81892B19F484E089831BC0AC
:1035E00086E590E024E8FC012083000086E590E079
:1035F000FC018081881F8827881F882F90E08170B8
:103600009927892B99F383E290E0FC0120818A813C
:103610009B81FC01208389810F900F900F900F9068
:10362000DF91CF910895CF93DF931F92CDB7DEB78F
:1036300019828FE590E02FE530E0F90120812068C4
:10364000FC01208389810F90DF91CF910895CF9362
:10365000DF931F92CDB7DEB719828FE590E02FE59B
:1036600030E0F90120812F77FC01208389810F90C0
:10367000DF91CF910895CF93DF9300D0CDB7DEB720
:103680008A8319828FE590E02FE530E0F9012081EF
:10369000422F4F772A81222F30E03695322F222772
:1036A00037952795242BFC01208389810F900F905B
:1036B000DF91CF910895CF93DF9300D000D0CDB7A5
:1036C000DEB78A837C836B8319828B819C81892BF3
:1036D00019F482E089830CC08FE590E0FC018081C1
:1036E000282F221F2227221F8B819C81FC012083EF
:1036F00089810F900F900F900F90DF91CF910895D7
:10370000CF93DF9300D01F92CDB7DEB78A836B8350
:1037100081E089838A81833018F083E089838FC0B8
:103720008A81882F90E08130910589F1823091055E
:1037300009F462C0892B09F082C085E590E025E597
:1037400030E0F9012081322F3E7F2B812170232B25
:10375000FC01208385E590E025E530E0F90120813A
:10376000422F4D7F2B812695222F30E02170332769
:10377000220F331F242BFC0120838BE590E02BE5E7
:1037800030E0F90120812064FC01208358C085E5E8
:1037900090E025E530E0F9012081422F4B7F2B811D
:1037A000222F30E021703327220F331F220F331FC7
:1037B000242BFC01208385E590E025E530E0F9012C
:1037C0002081422F477F2B812695222F30E02170C8
:1037D0003327220F331F220F331F220F331F242BB7
:1037E000FC0120838BE590E02BE530E0F90120819E
:1037F0002068FC01208323C084E590E024E530E0CC
:10380000F9012081422F4F7B2B81222F30E0217044
:1038100033270024369527950794369527950794E6
:10382000322F202D242BFC0120838BE590E02BE50B
:1038300030E0F90120812062FC01208300008981B1
:103840000F900F900F90DF91CF910895CF93DF935A
:1038500000D0CDB7DEB78A8381E089838A81833047
:1038600018F083E089832AC08A81882F90E0813014
:10387000910581F082309105B9F0892B09F01EC0C5
:103880008BE590E02BE530E0F90120812F7BFC01F6
:10389000208314C08BE590E02BE530E0F901208116
:1038A0002F77FC0120830AC08BE590E02BE530E008
:1038B000F90120812F7DFC012083000089810F9078
:1038C0000F90DF91CF910895CF93DF9300D000D078
:1038D000CDB7DEB78A837C836B8381E089838A815D
:1038E000833018F083E0898313C08B819C81892BFE
:1038F00019F482E089830CC08A81882F90E0880FB8
:10390000991F8F509F4F2B813C81FC013183208375
:1039100089810F900F900F900F90DF91CF910895B4
:103920001F920F9200905F000F9211242F933F93EC
:103930004F935F936F937F938F939F93AF93BF93B7
:10394000EF93FF93CF93DF93CDB7DEB78091F10074
:103950009091F200892B31F08091F1009091F2006A
:10396000FC0109950000DF91CF91FF91EF91BF918C
:10397000AF919F918F917F916F915F914F913F9107
:103980002F910F9000925F000F901F9018951F923B
:103990000F9200905F000F9211242F933F934F934B
:1039A0005F936F937F938F939F93AF93BF93EF93A7
:1039B000FF93CF93DF93CDB7DEB78091F300909163
:1039C000F400892B31F08091F3009091F400FC0118
:1039D00009950000DF91CF91FF91EF91BF91AF91D9
:1039E0009F918F917F916F915F914F913F912F9117
:1039F0000F9000925F000F901F9018951F920F92EA
:103A000000905F000F9211242F933F934F935F9389
:103A10006F937F938F939F93AF93BF93EF93FF9396
:103A2000CF93DF93CDB7DEB78091F5009091F6008C
:103A3000892B31F08091F5009091F600FC010995F9
:103A40000000DF91CF91FF91EF91BF91AF919F91D6
:103A50008F917F916F915F914F913F912F910F9037
:103A600000925F000F901F901895CF93DF9300D0C6
:103A700000D01F92CDB7DEB78C836D8319828C8105
:103A800087708A838C818695869586958B838C81B9
:103A9000803218F082E089834EC08B81882F90E0BD
:103AA000880F991F80599F4FFC0180819181FC01F3
:103AB0008081882F90E02A81222F30E002C09595E6
:103AC00087952A95E2F781709927892B19F481E06F
:103AD000898331C08B81882F90E0880F991F885887
:103AE0009F4FFC01808191812B81222F30E0220F9A
:103AF000331F28583F4FF90120813181F90120817E
:103B0000622F2A81422F50E021E030E002C0220FD4
:103B1000331F4A95E2F7209562232D81222F30E052
:103B20004A81442F50E002C0220F331F4A95E2F72A
:103B3000262BFC01208389810F900F900F900F900E
:103B40000F90DF91CF910895CF93DF9300D000D0F5
:103B500000D0CDB7DEB78C837E836D8319828C81D4
:103B600087708A838C818695869586958B838C81D8
:103B7000803218F082E0898340C08B81882F90E0EA
:103B8000880F991F80599F4FFC0180819181FC0112
:103B90008081882F90E02A81222F30E002C0959505
:103BA00087952A95E2F781709927892B19F081E092
:103BB000898323C08D819E81892B19F484E08983B8
:103BC0001CC08B81882F90E0880F991F80589F4FD1
:103BD000FC0180819181FC018081882F90E02A8105
:103BE000222F30E002C0959587952A95E2F7282F7D
:103BF00021708D819E81FC012083898126960FB6DC
:103C0000F894DEBF0FBECDBFDF91CF910895CF9363
:103C1000DF9300D01F92CDB7DEB78A836B83198202
:103C20008A81843018F083E089831EC08A81882FBE
:103C300090E0880F991F80599F4FFC0180819181EE
:103C4000FC0180818F3F19F081E089830DC08A815A
:103C5000882F90E0880F991F88589F4FFC01808122
:103C600091812B81FC01208389810F900F900F900F
:103C7000DF91CF910895CF93DF9300D000D0CDB7DF
:103C8000DEB78A837C836B8319828A81843018F043
:103C900083E0898328C08A81882F90E0880F991F4C
:103CA00080599F4FFC0180819181FC018081882394
:103CB00019F081E0898317C08B819C81892B19F4CD
:103CC00084E0898310C08A81882F90E0880F991F33
:103CD00080589F4FFC0180819181FC0120818B8164
:103CE0009C81FC01208389810F900F900F900F9091
:103CF000DF91CF910895CF93DF9300D000D0CDB75F
:103D0000DEB78C8319828C8187708A838C8186953B
:103D1000869586958B838C81803218F082E089832A
:103D200041C08B81882F90E0880F991F80599F4F49
:103D3000FC0180819181FC018081882F90E02A81A3
:103D4000222F30E002C0959587952A95E2F7817081
:103D50009927892B19F481E0898324C08B81882FCE
:103D600090E0880F991F88589F4FFC0180819181B6
:103D70002B81222F30E0220F331F28583F4FF901AB
:103D800020813181F9012081622F2A81422F50E068
:103D900021E030E002C0220F331F4A95E2F72627C8
:103DA000FC01208389810F900F900F900F90DF917D
:103DB000CF910895CF93DF9300D01F92CDB7DEB798
:103DC0009B838A8381E089838A819B81892B19F473
:103DD00082E0898365C086E290E026E230E0F90166
:103DE00020812F77FC01208386E290E026E230E0FC
:103DF000F9012081422F40772A813B81F9012381FB
:103E00002770242BFC01208387E290E027E230E03A
:103E1000F9012081422F487F2A813B81F9012081CD
:103E20002770242BFC01208387E290E027E230E01A
:103E3000F9012081422F4F7D2A813B81F9012281A6
:103E4000222F30E0220F331F22953295307F322708
:103E5000207F3227242BFC01208387E290E027E299
:103E600030E0F9012081422F4F732A813B81F90113
:103E70002181222F30E0002436952795079436952E
:103E800027950794322F202D242BFC01208386E2D6
:103E900090E026E230E0F90120812068FC012083D7
:103EA00089810F900F900F90DF91CF910895CF935C
:103EB000DF931F92CDB7DEB781E0898386E290E081
:103EC00026E230E0F90120812F77FC0120838981EF
:103ED0000F90DF91CF910895CF93DF93CDB7DEB7E9
:103EE000A6970FB6F894DEBF0FBECDBF9CA38BA3E1
:103EF0007EA36DA381E089831A828BA19CA1892B6B
:103F000021F08DA19EA1892B19F482E0898354C1EF
:103F100086E290E0FC018081869586958695817089
:103F20008A8387E290E027E230E0F9012081422F86
:103F3000487F2BA13CA1F90120812770242BFC0193
:103F4000208386E290E026E230E0F9012081277F9D
:103F5000FC01208386E290E026E230E0F901208136
:103F60002064FC012083000086E290E0FC01808157
:103F70008295869586958370882F90E08170992729
:103F8000892B91F780E090E0A0E2B1E48B839C83E1
:103F9000AD83BE832BEA3AEA4AEA50E46B817C8126
:103FA0008D819E810E94CC38DC01CB018F83988764
:103FB000A987BA8720E030E040E850E46B817C813B
:103FC0008D819E810E94CC38DC01CB018B879C8740
:103FD000AD87BE8720E030E040E85FE36F81788501
:103FE00089859A850E94683788231CF481E08F8731
:103FF000B2C020E03FEF4FE757E46B857C858D85AD
:104000009E850E94C73818160CF07BC020E030E077
:104010004AE754E46B817C818D819E810E946D37DB
:10402000DC01CB01888B998BAA8BBB8B20E030E025
:104030004AE755E4688979898A899B890E94CC3846
:10404000DC01CB018C8B9D8BAE8BBF8B20E030E0F5
:1040500040E85FE36C897D898E899F890E9468377B
:1040600088232CF481E090E0998F888F3FC020E076
:104070003FEF4FE757E46C897D898E899F890E94C5
:10408000C73818164CF520E030E040E251E468896A
:1040900079898A899B890E94CC38DC01CB01BC01DB
:1040A000CD010E94E637DC01CB01998F888F0FC0CC
:1040B00080E991E09B8F8A8F8A8D9B8D0197F1F724
:1040C0009B8F8A8F888D998D0197998F888F888D86
:1040D000998D892B69F73FC06C897D898E899F896D
:1040E0000E94E637DC01CB01998F888F888D998DEE
:1040F0009D8F8C8F8C8D9D8D0197F1F79D8F8C8F6F
:104100002AC020E030E04FE753E46F81788589854D
:104110009A850E94C7381816ACF46B857C858D850E
:104120009E850E94E637DC01CB019F8F8E8F8E8D9E
:104130009F8D99A388A388A199A10197F1F799A3CD
:1041400088A30FC06F81788589859A850E94E6379C
:10415000DC01CB018F878F858AA38AA18A95F1F72D
:104160008AA38BA19CA1FC0122818DA19EA1BC01EF
:10417000822F0E949521982F89818923898386E245
:1041800090E026E230E0F90120812061FC012083EB
:1041900086E290E026E230E0F9012081422F477F5D
:1041A0002A81222F30E0220F331F220F331F220FCC
:1041B000331F242BFC0120838981A6960FB6F89427
:1041C000DEBF0FBECDBFDF91CF910895CF93DF93B8
:1041D00000D000D01F92CDB7DEB79B838A837D834A
:1041E0006C8381E089838C819D81892B19F482E025
:1041F00089831CC08A819B81CC01A0E0B0E0BC0116
:10420000CD010E941538DC01CB0123E931E040EA01
:104210005BE3BC01CD010E94CC38DC01CB012C81D9
:104220003D81F90180839183A283B38389810F90BB
:104230000F900F900F900F90DF91CF910895CF9333
:10424000DF9300D01F92CDB7DEB79B838A8381E0D6
:1042500089838A819B81892B19F482E0898334C008
:10426000000086E290E0FC0180818295869586952B
:104270008370882F90E081709927892B91F78A812C
:104280009B81FC018081809308018A819B81FC01D4
:1042900082818093070187E290E027E230E0F90114
:1042A0002081422F487F2A813B81F901208127709C
:1042B000242BFC01208386E290E026E230E0F90125
:1042C00020812064FC01208389810F900F900F9042
:1042D000DF91CF910895CF93DF931F92CDB7DEB7D3
:1042E00081E0898386E290E026E230E0F9012081D6
:1042F0002860FC01208389810F90DF91CF91089580
:10430000CF93DF931F92CDB7DEB781E0898386E23A
:1043100090E026E230E0F9012081277FFC01208334
:1043200089810F90DF91CF910895CF93DF9300D0D3
:1043300000D0CDB7DEB78A837C836B8381E089832D
:104340008B819C81892B19F482E0898330C08A811A
:10435000882F90E0892BB9F484E290E0FC01808101
:10436000282F30E085E290E0FC018081882F90E0EA
:10437000982F8827822B932B9C018B819C81FC0199
:104380003183208314C084E290E0FC01808191811C
:104390009C010024220F331F001C220F331F001C1E
:1043A000232F302D8B819C81FC01318320838981D7
:1043B0000F900F900F900F90DF91CF910895CF93B2
:1043C000DF9300D000D01F92CDB7DEB79B838A83E6
:1043D0007D836C8381E089838A819B81892B19F499
:1043E00082E089830FC08A819B81FC018081882FB4
:1043F00090E0880F991F89509F4F2C813D81FC01CF
:104400003183208389810F900F900F900F900F9030
:10441000DF91CF9108951F920F9200905F000F924D
:1044200011242F933F934F935F936F937F938F93B9
:104430009F93AF93BF93EF93FF93CF93DF9300D0FE
:104440001F92CDB7DEB781E0898320910701CE01AD
:104450000296BC01822F0E949521898380910801D8
:10446000882F90E0880F991F89509F4FFC01808111
:104470009181892B79F080910801882F90E0880F35
:10448000991F89509F4FFC01208131818A819B8136
:10449000F901099500000F900F900F90DF91CF91D7
:1044A000FF91EF91BF91AF919F918F917F916F910C
:1044B0005F914F913F912F910F9000925F000F906D
:1044C0001F901895CF93DF93CDB7DEB763970FB6E4
:1044D000F894DEBF0FBECDBF898B7B8B6A8B1982B0
:1044E0008A899B89892B19F482E089838FC00E9475
:1044F0007019CE014096BC0189890E942D1ACE0107
:104500004096BC0180E00E94C4190E947019CE013F
:104510004096BC0189890E94F6198A899B8960E0CE
:104520000E94601A0E948F1980E090E0A0E8BFE32B
:104530008A839B83AC83BD8320E030E04AE755E467
:104540006A817B818C819D810E94CC38DC01CB010A
:104550008E839F83A887B98720E030E040E85FE33F
:104560006E817F81888599850E94683788232CF425
:1045700081E090E09B878A873FC020E03FEF4FE7D4
:1045800057E46E817F81888599850E94C738181607
:104590004CF520E030E040E251E46A817B818C817F
:1045A0009D810E94CC38DC01CB01BC01CD010E9471
:1045B000E637DC01CB019B878A870FC080E991E059
:1045C0009D878C878C859D850197F1F79D878C87CA
:1045D0008A859B8501979B878A878A859B85892BFE
:1045E00069F714C06E817F81888599850E94E637BE
:1045F000DC01CB019B878A878A859B859F878E8775
:104600008E859F850197F1F79F878E8789816396B5
:104610000FB6F894DEBF0FBECDBFDF91CF910895E6
:10462000CF93DF93CDB7DEB727970FB6F894DEBFF1
:104630000FBECDBF9E838D836F8319821B821C8228
:104640001A828D819E81892B19F482E0898322C090
:104650001A821DC08F81882F90E02A81222F30E09E
:1046600002C0959587952A95E2F781708C838A819F
:10467000882F90E02D813E81820F931FFC01808165
:104680006C810E94351D8B838A818F5F8A838A812A
:10469000843000F3898127960FB6F894DEBF0FBEF1
:1046A000CDBFDF91CF910895CF93DF931F92CDB708
:1046B000DEB7198280E990E00E94E70B87E391E082
:1046C0000E94010E80E090E00E94EA0D89810F9027
:1046D000DF91CF910895CF93DF9300D0CDB7DEB7B0
:1046E0008A8319828A81853B08F084EB8A838A81D8
:1046F000282F30E049E1429FC001439F900D1124D3
:10470000092E000CAA0BBB0BBC01CD010E9417386F
:10471000DC01CB0120E030E040E953E4BC01CD01F5
:104720000E946D37DC01CB0120E030E04AE751E424
:10473000BC01CD010E94FC36DC01CB01BC01CD01E6
:104740000E94E637DC01CB010E94EA0D89810F90BF
:104750000F90DF91CF910895CF93DF93CDB7DEB760
:1047600063970FB6F894DEBF0FBECDBF9B8B8A8BCD
:1047700019828A899B89892B19F481E0898396C0E3
:104780000E947019CE014096BC0188E60E942D1A45
:10479000CE014096BC0180E00E94C4190E947019AD
:1047A000CE014096BC0188E60E94F619CE014196E2
:1047B00060E00E94601A0E948F1929898A899B896A
:1047C000BC01822F0E94110580E090E0A0E8BFE3C9
:1047D0008A839B83AC83BD8320E030E04AE755E4C5
:1047E0006A817B818C819D810E94CC38DC01CB0168
:1047F0008E839F83A887B98720E030E040E85FE39D
:104800006E817F81888599850E94683788232CF482
:1048100081E090E09B878A873FC020E03FEF4FE731
:1048200057E46E817F81888599850E94C738181664
:104830004CF520E030E040E251E46A817B818C81DC
:104840009D810E94CC38DC01CB01BC01CD010E94CE
:10485000E637DC01CB019B878A870FC080E991E0B6
:104860009D878C878C859D850197F1F79D878C8727
:104870008A859B8501979B878A878A859B85892B5B
:1048800069F714C06E817F81888599850E94E6371B
:10489000DC01CB019B878A878A859B859F878E87D2
:1048A0008E859F850197F1F79F878E878981639613
:1048B0000FB6F894DEBF0FBECDBFDF91CF91089544
:1048C000CF93DF93CDB7DEB763970FB6F894DEBF13
:1048D0000FBECDBF9B8B8A8B19828A899B89892BBE
:1048E00019F481E0898396C00E947019CE01409628
:1048F000BC0188E60E942D1ACE014096BC0181E0E1
:104900000E94C4190E947019CE014096BC0188E62D
:104910000E94F619CE01419660E00E94601A0E9442
:104920008F1929898A899B89BC01822F0E941105D0
:1049300080E090E0A0E8BFE38A839B83AC83BD83E3
:1049400020E030E04AE755E46A817B818C819D81DB
:104950000E94CC38DC01CB018E839F83A887B98766
:1049600020E030E040E85FE36E817F8188859985B3
:104970000E94683788232CF481E090E09B878A8727
:104980003FC020E03FEF4FE757E46E817F8188858D
:1049900099850E94C73818164CF520E030E040E2B7
:1049A00051E46A817B818C819D810E94CC38DC013D
:1049B000CB01BC01CD010E94E637DC01CB019B8716
:1049C0008A870FC080E991E09D878C878C859D85C3
:1049D0000197F1F79D878C878A859B8501979B8737
:1049E0008A878A859B85892B69F714C06E817F81B0
:1049F000888599850E94E637DC01CB019B878A87F1
:104A00008A859B859F878E878E859F850197F1F785
:104A10009F878E87898163960FB6F894DEBF0FBE9D
:104A2000CDBFDF91CF910895CF93DF93CDB7DEB7A0
:104A300063970FB6F894DEBF0FBECDBF9B8B8A8BFA
:104A400019828A899B89892B19F481E0898396C010
:104A50000E947019CE014096BC0188E60E942D1A72
:104A6000CE014096BC0182E00E94C4190E947019D8
:104A7000CE014096BC0188E60E94F619CE0141960F
:104A800060E00E94601A0E948F1929898A899B8997
:104A9000BC01822F0E94110580E090E0A0E8BFE3F6
:104AA0008A839B83AC83BD8320E030E04AE755E4F2
:104AB0006A817B818C819D810E94CC38DC01CB0195
:104AC0008E839F83A887B98720E030E040E85FE3CA
:104AD0006E817F81888599850E94683788232CF4B0
:104AE00081E090E09B878A873FC020E03FEF4FE75F
:104AF00057E46E817F81888599850E94C738181692
:104B00004CF520E030E040E251E46A817B818C8109
:104B10009D810E94CC38DC01CB01BC01CD010E94FB
:104B2000E637DC01CB019B878A870FC080E991E0E3
:104B30009D878C878C859D850197F1F79D878C8754
:104B40008A859B8501979B878A878A859B85892B88
:104B500069F714C06E817F81888599850E94E63748
:104B6000DC01CB019B878A878A859B859F878E87FF
:104B70008E859F850197F1F79F878E878981639640
:104B80000FB6F894DEBF0FBECDBFDF91CF91089571
:104B9000CF93DF93CDB7DEB763970FB6F894DEBF40
:104BA0000FBECDBF9B8B8A8B19828A899B89892BEB
:104BB00019F481E0898396C00E947019CE01409655
:104BC000BC0188E60E942D1ACE014096BC0184E00B
:104BD0000E94C4190E947019CE014096BC0188E65B
:104BE0000E94F619CE01419660E00E94601A0E9470
:104BF0008F1929898A899B89BC01822F0E941105FE
:104C000080E090E0A0E8BFE38A839B83AC83BD8310
:104C100020E030E04AE755E46A817B818C819D8108
:104C20000E94CC38DC01CB018E839F83A887B98793
:104C300020E030E040E85FE36E817F8188859985E0
:104C40000E94683788232CF481E090E09B878A8754
:104C50003FC020E03FEF4FE757E46E817F818885BA
:104C600099850E94C73818164CF520E030E040E2E4
:104C700051E46A817B818C819D810E94CC38DC016A
:104C8000CB01BC01CD010E94E637DC01CB019B8743
:104C90008A870FC080E991E09D878C878C859D85F0
:104CA0000197F1F79D878C878A859B8501979B8764
:104CB0008A878A859B85892B69F714C06E817F81DD
:104CC000888599850E94E637DC01CB019B878A871E
:104CD0008A859B859F878E878E859F850197F1F7B3
:104CE0009F878E87898163960FB6F894DEBF0FBECB
:104CF000CDBFDF91CF910895CF93DF93CDB7DEB7CE
:104D000063970FB6F894DEBF0FBECDBF9B8B8A8B27
:104D100019828A899B89892B19F481E0898396C03D
:104D20000E947019CE014096BC0188E60E942D1A9F
:104D3000CE014096BC0185E00E94C4190E94701902
:104D4000CE014096BC0188E60E94F619CE0141963C
:104D500060E00E94601A0E948F1929898A899B89C4
:104D6000BC01822F0E94110580E090E0A0E8BFE323
:104D70008A839B83AC83BD8320E030E04AE755E41F
:104D80006A817B818C819D810E94CC38DC01CB01C2
:104D90008E839F83A887B98720E030E040E85FE3F7
:104DA0006E817F81888599850E94683788232CF4DD
:104DB00081E090E09B878A873FC020E03FEF4FE78C
:104DC00057E46E817F81888599850E94C7381816BF
:104DD0004CF520E030E040E251E46A817B818C8137
:104DE0009D810E94CC38DC01CB01BC01CD010E9429
:104DF000E637DC01CB019B878A870FC080E991E011
:104E00009D878C878C859D850197F1F79D878C8781
:104E10008A859B8501979B878A878A859B85892BB5
:104E200069F714C06E817F81888599850E94E63775
:104E3000DC01CB019B878A878A859B859F878E872C
:104E40008E859F850197F1F79F878E87898163966D
:104E50000FB6F894DEBF0FBECDBFDF91CF9108959E
:104E6000CF93DF93CDB7DEB763970FB6F894DEBF6D
:104E70000FBECDBF9B8B8A8B19828A899B89892B18
:104E800019F481E0898396C00E947019CE01409682
:104E9000BC0188E60E942D1ACE014096BC0186E036
:104EA0000E94C4190E947019CE014096BC0188E688
:104EB0000E94F619CE01419660E00E94601A0E949D
:104EC0008F1929898A899B89BC01822F0E9411052B
:104ED00080E090E0A0E8BFE38A839B83AC83BD833E
:104EE00020E030E04AE755E46A817B818C819D8136
:104EF0000E94CC38DC01CB018E839F83A887B987C1
:104F000020E030E040E85FE36E817F81888599850D
:104F10000E94683788232CF481E090E09B878A8781
:104F20003FC020E03FEF4FE757E46E817F818885E7
:104F300099850E94C73818164CF520E030E040E211
:104F400051E46A817B818C819D810E94CC38DC0197
:104F5000CB01BC01CD010E94E637DC01CB019B8770
:104F60008A870FC080E991E09D878C878C859D851D
:104F70000197F1F79D878C878A859B8501979B8791
:104F80008A878A859B85892B69F714C06E817F810A
:104F9000888599850E94E637DC01CB019B878A874B
:104FA0008A859B859F878E878E859F850197F1F7E0
:104FB0009F878E87898163960FB6F894DEBF0FBEF8
:104FC000CDBFDF91CF910895CF93DF93CDB7DEB7FB
:104FD000EF970FB6F894DEBF0FBECDBF9FAF8EAF79
:104FE00019828EAD9FAD892B19F482E089830FC29F
:104FF0008EAD9FAD68E30E94112A898380E090E026
:10500000A0EAB0E48A839B83AC83BD8320E030E0D8
:105010004AE755E46A817B818C819D810E94CC386E
:10502000DC01CB018CAB9DABAEABBFAB20E030E085
:1050300040E85FE36CA97DA98EA99FA90E9468370B
:1050400088232CF481E090E099AF88AF3FC020E046
:105050003FEF4FE757E46CA97DA98EA99FA90E9455
:10506000C73818164CF520E030E040E251E46A8180
:105070007B818C819D810E94CC38DC01CB01BC01FD
:10508000CD010E94E637DC01CB0199AF88AF0FC09C
:1050900080E991E09BAF8AAF8AAD9BAD0197F1F7B4
:1050A0009BAF8AAF88AD99AD019799AF88AF88ADB6
:1050B00099AD892B69F714C06CA97DA98EA99FA908
:1050C0000E94E637DC01CB0199AF88AF88AD99AD7E
:1050D0009DAF8CAF8CAD9DAD0197F1F79DAF8CAFBF
:1050E0008EAD9FAD68E30E94112A898380E090E035
:1050F000A6E1B3E48E839F83A887B9872BEA3AEAB7
:105100004AEA50E46E817F81888599850E94CC3877
:10511000DC01CB01888F998FAA8FBB8F20E030E014
:1051200040E850E46E817F81888599850E94CC3863
:10513000DC01CB018C8F9D8FAE8FBF8F20E030E0E4
:1051400040E85FE3688D798D8A8D9B8D0E9468377A
:1051500088231CF481E088A3B2C020E03FEF4FE732
:1051600057E46C8D7D8D8E8D9F8D0E94C7381816EB
:105170000CF07BC020E030E04AE754E46E817F8190
:10518000888599850E946D37DC01CB0189A39AA39C
:10519000ABA3BCA320E030E04AE755E469A17AA1C3
:1051A0008BA19CA10E94CC38DC01CB018DA39EA3D6
:1051B000AFA3B8A720E030E040E85FE36DA17EA197
:1051C0008FA198A50E94683788232CF481E090E095
:1051D0009AA789A73FC020E03FEF4FE757E46DA1B2
:1051E0007EA18FA198A50E94C73818164CF520E023
:1051F00030E040E251E469A17AA18BA19CA10E9418
:10520000CC38DC01CB01BC01CD010E94E637DC01CA
:10521000CB019AA789A70FC080E991E09CA78BA733
:105220008BA59CA50197F1F79CA78BA789A59AA5AB
:1052300001979AA789A789A59AA5892B69F73FC0E5
:105240006DA17EA18FA198A50E94E637DC01CB015C
:105250009AA789A789A59AA59EA78DA78DA59EA582
:105260000197F1F79EA78DA72AC020E030E04FE715
:1052700053E4688D798D8A8D9B8D0E94C7381816EE
:10528000ACF46C8D7D8D8E8D9F8D0E94E637DC0198
:10529000CB0198AB8FA78FA598A99AAB89AB89A9A9
:1052A0009AA90197F1F79AAB89AB0FC0688D798DF8
:1052B0008A8D9B8D0E94E637DC01CB0188A388A1F3
:1052C0008BAB8BA98A95F1F78BAB8EAD9FAD68E365
:1052D0000E94112A89838EAD9FAD61E00E94112A40
:1052E00089838EAD9FAD62E00E94112A89838EADC5
:1052F0009FAD66E00E94112A89838EAD9FAD6CE060
:105300000E94112A89838EAD9FAD68E20E94112A06
:1053100089838EAD9FAD60E80E94112A89838EAD8E
:105320009FAD61E00E94112A898380E090E0A0EAAD
:10533000B0E48A879B87AC87BD8720E030E04AE7EE
:1053400055E46A857B858C859D850E94CC38DC017F
:10535000CB018E879F87A88BB98B20E030E040E897
:105360005FE36E857F85888999890E9468378823E5
:105370002CF481E090E09B8B8A8B3FC020E03FEFD4
:105380004FE757E46E857F85888999890E94C738E1
:1053900018164CF520E030E040E251E46A857B8548
:1053A0008C859D850E94CC38DC01CB01BC01CD01F0
:1053B0000E94E637DC01CB019B8B8A8B0FC080E912
:1053C00091E09D8B8C8B8C899D890197F1F79D8B4A
:1053D0008C8B8A899B8901979B8B8A8B8A899B8975
:1053E000892B69F714C06E857F85888999890E9409
:1053F000E637DC01CB019B8B8A8B8A899B899F8B4B
:105400008E8B8E899F890197F1F79F8B8E8B898177
:10541000EF960FB6F894DEBF0FBECDBFDF91CF91F0
:105420000895CF93DF9300D000D01F92CDB7DEB7A1
:105430009C838B836D8319821A828B819C81892B3B
:1054400019F482E0898322C08B819C81FC018481D4
:1054500060E00E94351D8A838D81282F22952F7050
:105460008B819C81622F0E94302D89838B819C814E
:105470000E946E2D89838B819C816D810E94302DCD
:1054800089838B819C810E946E2D898389810F90F5
:105490000F900F900F900F90DF91CF910895CF93C1
:1054A000DF9300D000D0CDB7DEB79B838A836C83B7
:1054B00019828A819B81892B19F482E0898322C019
:1054C0008A819B81FC01848161E00E94351D898372
:1054D0008C81282F22952F708A819B81622F0E94B8
:1054E000302D89838A819B810E946E2D89838A81D8
:1054F0009B816C810E94302D89838A819B810E94CF
:105500006E2D898389810F900F900F900F90DF91FE
:10551000CF910895CF93DF9300D000D000D0CDB7C6
:10552000DEB79B838A836C834D832E8319828A81A5
:105530009B81892B19F482E0898329C08A819B8110
:105540004E816D810E94732B89838A819B81FC012E
:10555000848161E00E94351D89838C81282F2295EA
:105560002F708A819B81622F0E94302D89838A81CE
:105570009B810E946E2D89838A819B816C810E9410
:10558000302D89838A819B810E946E2D8983898138
:1055900026960FB6F894DEBF0FBECDBFDF91CF9138
:1055A0000895CF93DF93CDB7DEB728970FB6F89461
:1055B000DEBF0FBECDBF9C838B837E836D834F8305
:1055C000288719821A828B819C81892B21F08D81F9
:1055D0009E81892B19F482E0898325C08B819C816F
:1055E00048856F810E94732B898312C08A81882F1E
:1055F00090E02D813E81820F931FFC0120818B81E1
:105600009C81622F0E944F2A89838A818F5F8A83BF
:105610008A81882F90E02D813E81820F931FFC01AB
:105620008081882319F7898128960FB6F894DEBF08
:105630000FBECDBFDF91CF910895CF93DF93CDB74C
:10564000DEB727970FB6F894DEBF0FBECDBF9C83A1
:105650008B837E836D834F8319821A828B819C8119
:10566000892B21F08D819E81892B19F482E0898319
:1056700030C08F81883018F083E089832AC08F8101
:10568000882F90E00896282F220F220F220F8B815F
:105690009C81622F0E94112A89831A8211C08A81FB
:1056A000882F90E02D813E81820F931FFC01208185
:1056B0008B819C81622F0E944F2A8A818F5F8A830F
:1056C0008A81883060F38B819C8160E80E94112A76
:1056D0008983898127960FB6F894DEBF0FBECDBFB0
:1056E000DF91CF910895CF93DF9300D000D01F9228
:1056F000CDB7DEB79B838A836C834D8319828A8101
:105700009B81892B19F482E0898356C08C81853076
:1057100018F085E0898350C08D81853118F084E0D0
:1057200089834AC08D8181508D838C81882F90E040
:1057300082309105C9F0833091051CF4019739F04E
:105740003AC083309105E9F0049741F134C08D816E
:1057500020E8280F8A819B81622F0E94112A982FAE
:1057600089818923898328C08D8120EC280F8A8133
:105770009B81622F0E94112A982F89818923898316
:105780001BC08D8124E9280F8A819B81622F0E9492
:10579000112A982F8981892389830EC08D8124ED58
:1057A000280F8A819B81622F0E94112A982F89815C
:1057B0008923898301C0198289810F900F900F90EE
:1057C0000F900F90DF91CF910895CF93DF9300D08A
:1057D00000D000D0CDB7DEB79C838B837E836D83F2
:1057E00019821A828B819C81892B21F08D819E8167
:1057F000892BA9F482E089831DC08A81882F90E0DB
:105800002D813E81820F931FFC0120818B819C8121
:10581000622F0E944F2A89838A818F5F8A838A81BF
:10582000882F90E02D813E81820F931FFC018081A3
:10583000882319F7898126960FB6F894DEBF0FBE2C
:10584000CDBFDF91CF910895CF93DF93CDB7DEB772
:10585000CC56D1090FB6F894DEBF0FBECDBF9E0166
:1058600029593F4FF90191838083CE0187599F4F7A
:10587000FC01408351836283738319821A82CE01B3
:1058800089599F4FFC0180819181892B19F482E015
:1058900089831EC09E012D5F3F4FCE0187599F4FC8
:1058A000FC0180819181A281B381A901BC01CD015C
:1058B0000E9469008A839E012D5F3F4FCE01895966
:1058C0009F4FFC0180819181B9010E94E52B898362
:1058D0008981C459DF4F0FB6F894DEBF0FBECDBF2C
:1058E000DF91CF9108950F93CF93DF93CDB7DEB7BC
:1058F000CE56D1090FB6F894DEBF0FBECDBFFE0164
:10590000E959FF4F91838083CE0187599F4FDC0176
:105910004D935D936D937C931397CE0183599F4F65
:10592000FC012083CE0182599F4FDC010C93198228
:105930001A82CE0189599F4FFC0180819181892B68
:1059400019F482E0898331C09E012D5F3F4FCE0163
:1059500087599F4FFC0180819181A281B381A90168
:10596000BC01CD010E9469008A839E0122593F4FEC
:10597000CE0183599F4FAE0149595F4FDA01ED9136
:10598000FC91D9014C91DC016C91CF010E94732BE9
:105990009E012D5F3F4FCE0189599F4FFC018081B1
:1059A0009181B9010E94E52B89838981C259DF4F1A
:1059B0000FB6F894DEBF0FBECDBFDF91CF910F9130
:1059C0000895CF93DF93CDB7DEB7CC56D1090FB68C
:1059D000F894DEBF0FBECDBF9E0129593F4FF9019C
:1059E00091838083CE0187599F4FFC01408351836F
:1059F0006283738319821A82CE0189599F4FFC01F9
:105A000080819181892B19F482E089831EC09E01D7
:105A10002D5F3F4FCE0187599F4FFC0180819181BF
:105A2000A281B381A901BC01CD010E94A8008A8393
:105A30009E012D5F3F4FCE0189599F4FFC01808110
:105A40009181B9010E94E52B89838981C459DF4F77
:105A50000FB6F894DEBF0FBECDBFDF91CF91089592
:105A6000CF93DF9300D000D01F92CDB7DEB79C83D9
:105A70008B836D8319821A828B819C81892B19F407
:105A800082E0898322C01A821DC08D81882F90E018
:105A90002A81222F30E002C0959587952A95E2F75A
:105AA000482F41708A81882F90E02B813C81820FA2
:105AB000931FFC018081642F0E94351D89838A8198
:105AC0008F5F8A838A81843000F389810F900F90E1
:105AD0000F900F900F90DF91CF910895CF93DF93A8
