:100000000C942A000C94B30A0C94EA0A0C94210B69
:100010000C9447000C9447000C9447000C94470044
:100020000C9447000C9447000C94B6060C94ED0613
:100030000C9447000C9447000C9447000C94470024
:100040000C942E100C9447000C9447000C9447001D
:100050000C94470011241FBECFE5D8E0DEBFCDBF12
:1000600010E0A0E6B0E0E2E7FBE402C005900D92EC
:10007000A43EB107D9F721E0A4EEB0E001C01D9283
:10008000AB36B207E1F70E942E190C94B7250C94F9
:100090000000CF93DF93CDB7DEB727970FB6F89464
:1000A000DEBF0FBECDBF6A837B838C839D835F835E
:1000B0004E8319828E819F81892B19F481E0898377
:1000C0001DC08D818F938C818F938B818F938A81BB
:1000D0008F938CEA90E0892F8F938CEA90E08F9336
:1000E0008F818F938E818F930E94CD228DB79EB783
:1000F00008960FB6F894DEBF0FBECDBF8981279654
:100100000FB6F894DEBF0FBECDBFDF91CF9108953B
:10011000CF93DF93CDB7DEB765970FB6F894DEBF08
:100120000FBECDBF688B798B8A8B9B8B5D8B4C8B85
:1001300019821F861E868C899D89892B19F481E07E
:10014000898378C020E030E0A901688979898A89AB
:100150009B890E94FC2088235CF488899989AA895C
:10016000BB89B058888B998BAA8BBB8B8DE28E870D
:10017000688979898A899B890E947321DC01CB0176
:100180008A839B83AC83BD836A817B818C819D81C3
:100190000E94AB21DC01CB019C01AD01688979890A
:1001A0008A899B890E948F20DC01CB018E839F83EB
:1001B000A887B98720E030E44CE156E46E817F8166
:1001C000888599850E946022DC01CB01BC01CD01AC
:1001D0000E947321DC01CB018A879B87AC87BD8796
:1001E0008D858F938C858F938B858F938A858F9345
:1001F0008D818F938C818F938B818F938A818F9345
:10020000CE010E96292F2F938F9380EB90E0892FAC
:100210008F9380EB90E08F938D898F938C898F9350
:100220000E94CD228DB79EB70E960FB6F894DEBF12
:100230000FBECDBF898165960FB6F894DEBF0FBEA5
:10024000CDBFDF91CF9108952F923F924F925F9251
:100250006F927F928F929F92AF92BF92CF92DF92D6
:10026000EF92FF920F931F93CF93DF93CDB7DEB73B
:100270006E970FB6F894DEBF0FBECDBF9C878B87FD
:100280007E876D8719821A821B821C821D821E82C4
:100290001F82188619861A868D859E85892B21F0E6
:1002A0008B859C85892B19F481E089839FC01A82F4
:1002B0008CC02B813C814D815E816F8178858985E1
:1002C0009A85222E332E442E552E662E772E882E7A
:1002D000992E222D332D442D552D662D772D882DC9
:1002E000992D01E00E945E20A22EB32EC42ED52EA1
:1002F000E62EF72E082F192F2A2C3B2C4C2C5D2C88
:100300006E2C7F2C802E912E222D332D442D552D99
:10031000662D772D882D992D02E00E945E202F8B6F
:10032000388F498F5A8F6B8F7C8F8D8F9E8F222DA8
:10033000332D442D552D662D772D882D992DAF8881
:10034000B88CC98CDA8CEB8CFC8C0D8D1E8D0E94C8
:100350007720A22EB32EC42ED52EE62EF72E082FF0
:10036000192F8A81882F90E02D853E85820F931F5B
:10037000FC018081882F90E0C097988B8F87892F10
:10038000880F880B898B8A8B8B8B8C8B8D8B8E8BBC
:100390002A2D3B2D4C2D5D2D6E2D7F2D802F912FE5
:1003A000AF84B888C988DA88EB88FC880D891E89F3
:1003B0000E9477202B833C834D835E836F837887F5
:1003C00089879A878A818F5F8A838A81882F90E0C4
:1003D0002D853E85820F931FFC018081882309F0C3
:1003E00068CF2B818B859C85FC01208389816E964B
:1003F0000FB6F894DEBF0FBECDBFDF91CF911F9136
:100400000F91FF90EF90DF90CF90BF90AF909F90B3
:100410008F907F906F905F904F903F902F900895B6
:100420002F923F924F925F926F927F928F929F9204
:10043000AF92BF92CF92DF92EF92FF920F931F93F2
:10044000CF93DF93CDB7DEB76E970FB6F894DEBFCC
:100450000FBECDBF9C878B877E876D8719821A82DE
:100460001B821C821D821E821F82188619861A8694
:100470008D859E85892B21F08B859C85892B19F490
:1004800081E08983A1C01A828CC02B813C814D817F
:100490005E816F81788589859A85222E332E442E40
:1004A000552E662E772E882E992E222D332D442DF3
:1004B000552D662D772D882D992D01E00E945E2007
:1004C000A22EB32EC42ED52EE62EF72E082F192FCE
:1004D0002A2C3B2C4C2C5D2C6E2C7F2C802E912EAC
:1004E000222D332D442D552D662D772D882D992DB8
:1004F00002E00E945E202F8B388F498F5A8F6B8FBE
:100500007C8F8D8F9E8F222D332D442D552D662D62
:10051000772D882D992DAF88B88CC98CDA8CEB8C0F
:10052000FC8C0D8D1E8D0E947720A22EB32EC42E22
:10053000D52EE62EF72E082F192F8A81882F90E0CE
:100540002D853E85820F931FFC018081882F90E0CE
:10055000C097988B8F87892F880F880B898B8A8B00
:100560008B8B8C8B8D8B8E8B2A2D3B2D4C2D5D2D6B
:100570006E2D7F2D802F912FAF84B888C988DA889F
:10058000EB88FC880D891E890E9477202B833C8391
:100590004D835E836F83788789879A878A818F5F8F
:1005A0008A838A81882F90E02D853E85820F931F54
:1005B000FC018081882309F068CF2B813C818B85E9
:1005C0009C85FC013183208389816E960FB6F89457
:1005D000DEBF0FBECDBFDF91CF911F910F91FF9076
:1005E000EF90DF90CF90BF90AF909F908F907F90D3
:1005F0006F905F904F903F902F9008952F923F9271
:100600004F925F926F927F928F929F92AF92BF9222
:10061000CF92DF92EF92FF920F931F93CF93DF93CE
:10062000CDB7DEB76E970FB6F894DEBF0FBECDBF65
:100630009C878B877E876D8719821A821B821C821A
:100640001D821E821F82188619861A868D859E85B8
:10065000892B21F08B859C85892B19F481E0898376
:10066000A5C01A828CC02B813C814D815E816F8137
:10067000788589859A85222E332E442E552E662E16
:10068000772E882E992E222D332D442D552D662D13
:10069000772D882D992D01E00E945E20A22EB32E89
:1006A000C42ED52EE62EF72E082F192F2A2C3B2CE0
:1006B0004C2C5D2C6E2C7F2C802E912E222D332DD8
:1006C000442D552D662D772D882D992D02E00E9401
:1006D0005E202F8B388F498F5A8F6B8F7C8F8D8F39
:1006E0009E8F222D332D442D552D662D772D882D4F
:1006F000992DAF88B88CC98CDA8CEB8CFC8C0D8D65
:100700001E8D0E947720A22EB32EC42ED52EE62E4B
:10071000F72E082F192F8A81882F90E02D853E858E
:10072000820F931FFC018081882F90E0C097988BE7
:100730008F87892F880F880B898B8A8B8B8B8C8B6B
:100740008D8B8E8B2A2D3B2D4C2D5D2D6E2D7F2D6F
:10075000802F912FAF84B888C988DA88EB88FC880D
:100760000D891E890E9477202B833C834D835E83F5
:100770006F83788789879A878A818F5F8A838A8146
:10078000882F90E02D853E85820F931FFC0180818C
:10079000882309F068CF8B819C81AD81BE812B8538
:1007A0003C85F90180839183A283B38389816E960E
:1007B0000FB6F894DEBF0FBECDBFDF91CF911F9172
:1007C0000F91FF90EF90DF90CF90BF90AF909F90F0
:1007D0008F907F906F905F904F903F902F900895F3
:1007E0002F923F924F925F926F927F928F929F9241
:1007F000AF92BF92CF92DF92EF92FF920F931F932F
:10080000CF93DF93CDB7DEB76E970FB6F894DEBF08
:100810000FBECDBF9C878B877E876D8719821A821A
:100820001B821C821D821E821F82188619861A86D0
:100830008D859E85892B21F08B859C85892B19F4CC
:1008400081E08983B4C01A828CC02B813C814D81A8
:100850005E816F81788589859A85222E332E442E7C
:10086000552E662E772E882E992E222D332D442D2F
:10087000552D662D772D882D992D01E00E945E2043
:10088000A22EB32EC42ED52EE62EF72E082F192F0A
:100890002A2C3B2C4C2C5D2C6E2C7F2C802E912EE8
:1008A000222D332D442D552D662D772D882D992DF4
:1008B00002E00E945E202F8B388F498F5A8F6B8FFA
:1008C0007C8F8D8F9E8F222D332D442D552D662D9F
:1008D000772D882D992DAF88B88CC98CDA8CEB8C4C
:1008E000FC8C0D8D1E8D0E947720A22EB32EC42E5F
:1008F000D52EE62EF72E082F192F8A81882F90E00B
:100900002D853E85820F931FFC018081882F90E00A
:10091000C097988B8F87892F880F880B898B8A8B3C
:100920008B8B8C8B8D8B8E8B2A2D3B2D4C2D5D2DA7
:100930006E2D7F2D802F912FAF84B888C988DA88DB
:10094000EB88FC880D891E890E9477202B833C83CD
:100950004D835E836F83788789879A878A818F5FCB
:100960008A838A81882F90E02D853E85820F931F90
:10097000FC018081882309F068CF8B859C852B81C1
:10098000FC0120832C81FC0121832D81FC01228329
:100990002E81FC0123832F81FC0124832885FC0107
:1009A00025832985FC0126832A85FC0127838981EB
:1009B0006E960FB6F894DEBF0FBECDBFDF91CF911C
:1009C0001F910F91FF90EF90DF90CF90BF90AF906D
:1009D0009F908F907F906F905F904F903F902F905F
:1009E0000895CF93DF9300D01F92CDB7DEB79B83DE
:1009F0008A8381E089838A819B81892B19F482E033
:100A0000898397C083E590E023E530E0F9012081F8
:100A1000287FFC01208383E590E023E530E0F901A5
:100A20002081422F4F7B2A813B81F9012181222F96
:100A300030E02170332700243695279507943695AA
:100A400027950794322F202D242BFC01208383E54A
:100A500090E023E530E0F9012081422F477F2A8191
:100A60003B81F90121812695222F30E02170332727
:100A7000220F331F220F331F220F331F242BFC01A1
:100A8000208383E590E023E530E0F9012081422FC7
:100A90004F7E2A813B81F901218126952695222FBF
:100AA00030E02170332722953295307F3227207F26
:100AB0003227242BFC01208383E590E023E530E0FE
:100AC000F9012081422F4F7D2A813B81F90121814B
:100AD000269526952695222F30E021703327220F68
:100AE000331F22953295307F3227207F3227242BE7
:100AF000FC0120838A819B81FC0182818093E80034
:100B00008A819B81FC0122818A819B81622F0E94C4
:100B10002306898383E590E023E530E0F901208115
:100B2000422F487F2A813B81F9012081242BFC013F
:100B3000208389810F900F900F90DF91CF910895BE
:100B4000CF93DF9300D01F92CDB7DEB79B838A830C
:100B500081E089838A819B81892B19F482E08983D2
:100B600009C083E590E023E530E0F9012081287F8A
:100B7000FC01208389810F900F900F90DF91CF911E
:100B80000895CF93DF9300D01F92CDB7DEB79B833C
:100B90008A8381E089838A819B81892B19F482E091
:100BA000898319C08A819B81FC018181882351F44A
:100BB00089E590E029E530E0F90120812160FC0120
:100BC000208309C089E590E029E530E0F901208122
:100BD0002260FC01208389810F900F900F90DF919C
:100BE000CF910895CF93DF9300D01F92CDB7DEB79A
:100BF0009B838A8381E089838A819B81892B19F475
:100C000082E0898319C08A819B81FC0181818823CC
:100C100051F489E590E029E530E0F90120812E7F4B
:100C2000FC01208309C089E590E029E530E0F90165
:100C300020812D7FFC01208389810F900F900F90E0
:100C4000DF91CF910895CF93DF9300D000D0CDB73F
:100C5000DEB79B838A836C8381E089838A819B8151
:100C6000892B19F482E0898305C082E590E02C810C
:100C7000FC01208389810F900F900F900F90DF91DE
:100C8000CF910895CF93DF9300D000D01F92CDB7BE
:100C9000DEB79B838A837D836C8381E089838A812D
:100CA0009B81892B11F482E0898389810F900F90B9
:100CB0000F900F900F90DF91CF910895CF93DF9316
:100CC00000D000D01F92CDB7DEB79B838A837D838F
:100CD0006C8381E089838A819B81892B19F482E06E
:100CE00089830BC082E590E0FC018081282F30E0F1
:100CF0008C819D81FC013183208389810F900F902D
:100D00000F900F900F90DF91CF910895CF93DF93C5
:100D100000D000D01F92CDB7DEB79B838A837D833E
:100D20006C8381E089838A819B81892B19F482E01D
:100D3000898313C08A819B81FC018181882339F4D6
:100D40008C819D819093E5008093E40006C08C81A6
:100D50009D819093E7008093E60089810F900F902A
:100D60000F900F900F90DF91CF9108951F920F92E7
:100D700000905F000F9211242F933F934F935F9346
:100D80006F937F938F939F93AF93BF93EF93FF9353
:100D9000CF93DF93CDB7DEB78091E6009091E70067
:100DA000892B31F08091E6009091E700FC010995D4
:100DB0000000DF91CF91FF91EF91BF91AF919F9193
:100DC0008F917F916F915F914F913F912F910F90F4
:100DD00000925F000F901F9018951F920F92009045
:100DE0005F000F9211242F933F934F935F936F9364
:100DF0007F938F939F93AF93BF93EF93FF93CF9383
:100E0000DF93CDB7DEB78091E4009091E500892BA8
:100E100061F08091E4009091E500FC01099582E584
:100E200090E02091E800FC0120830000DF91CF9149
:100E3000FF91EF91BF91AF919F918F917F916F91B2
:100E40005F914F913F912F910F9000925F000F9013
:100E50001F901895CF93DF93CDB7DEB78AE390E06C
:100E60002CE6FC01208387E390E027EFFC01208340
:100E700084E390E02FEFFC01208381E390E020E108
:100E8000FC0120838BE390E0FC01108288E390E07A
:100E900020ECFC01208385E390E0FC01108282E3DA
:100EA00090E02CEEFC0120830000DF91CF910895AB
:100EB000CF93DF9300D000D01F92CDB7DEB78C83E5
:100EC0006D8319828C8187708A838C818695869543
:100ED00086958B838C81803218F082E0898359C09B
:100EE0008D81823018F081E0898353C08D81882FF5
:100EF00090E0009741F1019709F04BC08B81882F5A
:100F000090E0880F991F805A9F4FFC01808191814A
:100F10002B81222F30E0220F331F205A3F4FF9013F
:100F200020813181F9012081622F2A81422F50E0F6
:100F300021E030E002C0220F331F4A95E2F7262B52
:100F4000FC01208326C08B81882F90E0880F991F99
:100F5000805A9F4FFC01808191812B81222F30E0AC
:100F6000220F331F205A3F4FF90120813181F901AF
:100F70002081622F2A81422F50E021E030E002C020
:100F8000220F331F4A95E2F720952623FC01208388
:100F9000000089810F900F900F900F900F90DF91BC
:100FA000CF910895CF93DF9300D000D01F92CDB79B
:100FB000DEB78C836D8319828C8187708A838C81E4
:100FC0008695869586958B838C81803218F082E099
:100FD000898343C18D81843018F081E089833DC1CC
:100FE0008D81882F90E08130910509F457C08230BF
:100FF00091051CF4892B49F030C18230910509F428
:1010000097C0039709F4DFC028C18B81882F90E037
:10101000880F991F805A9F4FFC01808191812B81FD
:10102000222F30E0220F331F205A3F4FF901208139
:101030003181F9012081622F2A81422F50E021E085
:1010400030E002C0220F331F4A95E2F7262BFC0145
:1010500020838B81882F90E0880F991F88599F4F9C
:10106000FC01808191812B81222F30E0220F331FE0
:1010700028593F4FF90120813181F9012081622FE8
:101080002A81422F50E021E030E002C0220F331FBE
:101090004A95E2F7262BFC012083DFC08B81882F45
:1010A00090E0880F991F805A9F4FFC0180819181A9
:1010B0002B81222F30E0220F331F205A3F4FF9019E
:1010C00020813181F9012081622F2A81422F50E055
:1010D00021E030E002C0220F331F4A95E2F7262BB1
:1010E000FC0120838B81882F90E0880F991F8859FD
:1010F0009F4FFC01808191812B81222F30E0220FB4
:10110000331F28593F4FF90120813181F901208196
:10111000622F2A81422F50E021E030E002C0220FEE
:10112000331F4A95E2F720952623FC01208395C0C2
:101130008B81882F90E0880F991F805A9F4FFC0168
:10114000808191812B81222F30E0220F331F205A82
:101150003F4FF90120813181F9012081622F2A81DD
:10116000422F50E021E030E002C0220F331F4A95A9
:10117000E2F720952623FC0120838B81882F90E0C5
:10118000880F991F88599F4FFC01808191812B8185
:10119000222F30E0220F331F28593F4FF9012081C1
:1011A0003181F9012081622F2A81422F50E021E014
:1011B00030E002C0220F331F4A95E2F72095262324
:1011C000FC0120834AC08B81882F90E0880F991FF3
:1011D000805A9F4FFC01808191812B81222F30E02A
:1011E000220F331F205A3F4FF90120813181F9012D
:1011F0002081622F2A81422F50E021E030E002C09E
:10120000220F331F4A95E2F720952623FC01208305
:101210008B81882F90E0880F991F88599F4FFC0180
:10122000808191812B81222F30E0220F331F28599A
:101230003F4FF90120813181F9012081622F2A81FC
:10124000422F50E021E030E002C0220F331F4A95C8
:10125000E2F7262BFC012083000089810F900F907C
:101260000F900F900F90DF91CF910895CF93DF9360
:101270001F92CDB7DEB719828FE590E02FE530E001
:10128000F90120812068FC01208389810F90DF9182
:10129000CF910895CF93DF931F92CDB7DEB7198218
:1012A0008FE590E02FE530E0F90120812F77FC01F8
:1012B000208389810F90DF91CF910895CF93DF93A1
:1012C00000D0CDB7DEB78A8319828FE590E02FE595
:1012D00030E0F9012081422F4F772A81222F30E020
:1012E0003695322F222737952795242BFC01208312
:1012F00089810F900F90DF91CF910895CF93DF9365
:1013000000D000D0CDB7DEB78A837C836B8319828F
:101310008B819C81892B19F482E089830CC08FE535
:1013200090E0FC018081282F221F2227221F8B8121
:101330009C81FC01208389810F900F900F900F906A
:10134000DF91CF910895CF93DF9300D01F92CDB757
:10135000DEB78A836B8381E089838A81833018F0CA
:1013600083E089838FC08A81882F90E08130910546
:1013700089F18230910509F462C0892B09F082C09D
:1013800085E590E025E530E0F9012081322F3E7FB0
:101390002B812170232BFC01208385E590E025E53E
:1013A00030E0F9012081422F4D7F2B812695222F9D
:1013B00030E021703327220F331F242BFC012083C0
:1013C0008BE590E02BE530E0F90120812064FC0101
:1013D000208358C085E590E025E530E0F9012081C3
:1013E000422F4B7F2B81222F30E021703327220F99
:1013F000331F220F331F242BFC01208385E590E04F
:1014000025E530E0F9012081422F477F2B81269589
:10141000222F30E021703327220F331F220F331F7A
:10142000220F331F242BFC0120838BE590E02BE55A
:1014300030E0F90120812068FC01208323C084E58D
:1014400090E024E530E0F9012081422F4F7B2B8191
:10145000222F30E0217033270024369527950794FA
:10146000369527950794322F202D242BFC012083BD
:101470008BE590E02BE530E0F90120812062FC0152
:101480002083000089810F900F900F90DF91CF9102
:101490000895CF93DF9300D0CDB7DEB78A8381E084
:1014A00089838A81833018F083E089832AC08A8106
:1014B000882F90E08130910581F082309105B9F05C
:1014C000892B09F01EC08BE590E02BE530E0F90197
:1014D00020812F7BFC01208314C08BE590E02BE55D
:1014E00030E0F90120812F77FC0120830AC08BE5D1
:1014F00090E02BE530E0F90120812F7DFC01208375
:10150000000089810F900F90DF91CF910895CF93C4
:10151000DF9300D000D0CDB7DEB78A837C836B83A6
:1015200081E089838A81833018F083E0898313C046
:101530008B819C81892B19F482E089830CC08A817C
:10154000882F90E0880F991F87519F4F2B813C81F6
:10155000FC013183208389810F900F900F900F90B1
:10156000DF91CF9108951F920F9200905F000F922C
:1015700011242F933F934F935F936F937F938F9398
:101580009F93AF93BF93EF93FF93CF93DF93CDB729
:10159000DEB78091E9009091EA00892B31F08091CB
:1015A000E9009091EA00FC0109950000DF91CF91DC
:1015B000FF91EF91BF91AF919F918F917F916F912B
:1015C0005F914F913F912F910F9000925F000F908C
:1015D0001F9018951F920F9200905F000F92112498
:1015E0002F933F934F935F936F937F938F939F932B
:1015F000AF93BF93EF93FF93CF93DF93CDB7DEB756
:101600008091EB009091EC00892B31F08091EB0000
:101610009091EC00FC0109950000DF91CF91FF91C2
:10162000EF91BF91AF919F918F917F916F915F915A
:101630004F913F912F910F9000925F000F901F905C
:1016400018951F920F9200905F000F9211242F9314
:101650003F934F935F936F937F938F939F93AF933A
:10166000BF93EF93FF93CF93DF93CDB7DEB7809116
:10167000ED009091EE00892B31F08091ED0090917A
:10168000EE00FC0109950000DF91CF91FF91EF91F1
:10169000BF91AF919F918F917F916F915F914F918A
:1016A0003F912F910F9000925F000F901F9018951F
:1016B000CF93DF9300D000D01F92CDB7DEB78C83DD
:1016C0006D8319828C8187708A838C81869586953B
:1016D00086958B838C81803218F082E089834EC09E
:1016E0008B81882F90E0880F991F80599F4FFC01B4
:1016F00080819181FC018081882F90E02A81222FB6
:1017000030E002C0959587952A95E2F78170992778
:10171000892B19F481E0898331C08B81882F90E077
:10172000880F991F88589F4FFC01808191812B81E0
:10173000222F30E0220F331F28583F4FF90120811C
:101740003181F9012081622F2A81422F50E021E06E
:1017500030E002C0220F331F4A95E2F72095622342
:101760002D81222F30E04A81442F50E002C0220F09
:10177000331F4A95E2F7262BFC01208389810F90C5
:101780000F900F900F900F90DF91CF910895CF930E
:10179000DF9300D000D000D0CDB7DEB78C837E833E
:1017A0006D8319828C8187708A838C81869586955A
:1017B00086958B838C81803218F082E0898340C0CB
:1017C0008B81882F90E0880F991F80599F4FFC01D3
:1017D00080819181FC018081882F90E02A81222FD5
:1017E00030E002C0959587952A95E2F78170992798
:1017F000892B19F081E0898323C08D819E81892BFB
:1018000019F484E089831CC08B81882F90E0880FB5
:10181000991F80589F4FFC0180819181FC0180813C
:10182000882F90E02A81222F30E002C0959587957D
:101830002A95E2F7282F21708D819E81FC0120835B
:10184000898126960FB6F894DEBF0FBECDBFDF911B
:10185000CF910895CF93DF9300D01F92CDB7DEB71D
:101860008A836B8319828A81843018F083E08983AC
:101870001EC08A81882F90E0880F991F80599F4F42
:10188000FC0180819181FC0180818F3F19F081E012
:1018900089830DC08A81882F90E0880F991F88580E
:1018A0009F4FFC01808191812B81FC0120838981E4
:1018B0000F900F900F90DF91CF910895CF93DF930A
:1018C00000D000D0CDB7DEB78A837C836B831982CA
:1018D0008A81843018F083E0898328C08A81882F28
:1018E00090E0880F991F80599F4FFC018081918162
:1018F000FC018081882319F081E0898317C08B81E6
:101900009C81892B19F484E0898310C08A81882FF7
:1019100090E0880F991F80589F4FFC018081918132
:10192000FC0120818B819C81FC01208389810F90A7
:101930000F900F900F90DF91CF910895CF93DF9389
:1019400000D000D0CDB7DEB78C8319828C81877030
:101950008A838C818695869586958B838C8180324F
:1019600018F082E0898341C08B81882F90E0880F36
:10197000991F80599F4FFC0180819181FC018081DA
:10198000882F90E02A81222F30E002C0959587951C
:101990002A95E2F781709927892B19F481E08983D0
:1019A00024C08B81882F90E0880F991F88589F4F03
:1019B000FC01808191812B81222F30E0220F331F87
:1019C00028583F4FF90120813181F9012081622F90
:1019D0002A81422F50E021E030E002C0220F331F65
:1019E0004A95E2F72627FC01208389810F900F900A
:1019F0000F900F90DF91CF910895CF93DF9300D098
:101A00001F92CDB7DEB79B838A8381E089838A8169
:101A10009B81892B19F482E0898365C086E290E07E
:101A200026E230E0F90120812F77FC01208386E255
:101A300090E026E230E0F9012081422F40772A81B0
:101A40003B81F90123812770242BFC01208387E24D
:101A500090E027E230E0F9012081422F487F2A817F
:101A60003B81F90120812770242BFC01208387E230
:101A700090E027E230E0F9012081422F4F7D2A815A
:101A80003B81F9012281222F30E0220F331F229562
:101A90003295307F3227207F3227242BFC01208390
:101AA00087E290E027E230E0F9012081422F4F7376
:101AB0002A813B81F9012181222F30E000243695D3
:101AC00027950794369527950794322F202D242BA0
:101AD000FC01208386E290E026E230E0F9012081DB
:101AE0002068FC01208389810F900F900F90DF9177
:101AF000CF910895CF93DF931F92CDB7DEB781E0EA
:101B0000898386E290E026E230E0F90120812F7798
:101B1000FC01208389810F90DF91CF910895CF93AD
:101B2000DF93CDB7DEB7A6970FB6F894DEBF0FBE32
:101B3000CDBF9CA38BA37EA36DA381E089831A8272
:101B40008BA19CA1892B21F08DA19EA1892B19F439
:101B500082E0898354C186E290E0FC018081869511
:101B60008695869581708A8387E290E027E230E04F
:101B7000F9012081422F487F2BA13CA1F90120814E
:101B80002770242BFC01208386E290E026E230E0DF
:101B9000F9012081277FFC01208386E290E026E284
:101BA00030E0F90120812064FC012083000086E2FE
:101BB00090E0FC0180818295869586958370882FC0
:101BC00090E081709927892B91F780E090E0A0E266
:101BD000B1E48B839C83AD83BE832BEA3AEA4AEA65
:101BE00050E46B817C818D819E810E946022DC01AA
:101BF000CB018F839887A987BA8720E030E040E83F
:101C000050E46B817C818D819E810E946022DC0189
:101C1000CB018B879C87AD87BE8720E030E040E812
:101C20005FE36F81788589859A850E94FC208823EF
:101C30001CF481E08F87B2C020E03FEF4FE757E40C
:101C40006B857C858D859E850E945B2218160CF025
:101C50007BC020E030E04AE754E46B817C818D81D9
:101C60009E810E940121DC01CB01888B998BAA8B7C
:101C7000BB8B20E030E04AE755E4688979898A899E
:101C80009B890E946022DC01CB018C8B9D8BAE8BEB
:101C9000BF8B20E030E040E85FE36C897D898E896E
:101CA0009F890E94FC2088232CF481E090E0998F8A
:101CB000888F3FC020E03FEF4FE757E46C897D8974
:101CC0008E899F890E945B2218164CF520E030E037
:101CD00040E251E4688979898A899B890E9460225F
:101CE000DC01CB01BC01CD010E947A21DC01CB01DA
:101CF000998F888F0FC080E991E09B8F8A8F8A8DA2
:101D00009B8D0197F1F79B8F8A8F888D998D019715
:101D1000998F888F888D998D892B69F73FC06C8941
:101D20007D898E899F890E947A21DC01CB01998F60
:101D3000888F888D998D9D8F8C8F8C8D9D8D01972F
:101D4000F1F79D8F8C8F2AC020E030E04FE753E4FD
:101D50006F81788589859A850E945B221816ACF47C
:101D60006B857C858D859E850E947A21DC01CB0167
:101D70009F8F8E8F8E8D9F8D99A388A388A199A107
:101D80000197F1F799A388A30FC06F8178858985A2
:101D90009A850E947A21DC01CB018F878F858AA3E7
:101DA0008AA18A95F1F78AA38BA19CA1FC012281CB
:101DB0008DA19EA1BC01822F0E94B80F982F89810E
:101DC0008923898386E290E026E230E0F9012081D0
:101DD0002061FC01208386E290E026E230E0F901F8
:101DE0002081422F477F2A81222F30E0220F331F8C
:101DF000220F331F220F331F242BFC0120838981E4
:101E0000A6960FB6F894DEBF0FBECDBFDF91CF917F
:101E10000895CF93DF9300D000D01F92CDB7DEB7E7
:101E20009B838A837D836C8381E089838C819D8100
:101E3000892B19F482E089831CC08A819B81CC01A3
:101E4000A0E0B0E0BC01CD010E94A921DC01CB01E2
:101E500023E931E040EA5BE3BC01CD010E9460224E
:101E6000DC01CB012C813D81F90180839183A28328
:101E7000B38389810F900F900F900F900F90DF9197
:101E8000CF910895CF93DF9300D01F92CDB7DEB7E7
:101E90009B838A8381E089838A819B81892B19F4C2
:101EA00082E0898334C0000086E290E0FC018081FA
:101EB0008295869586958370882F90E0817099270A
:101EC000892B91F78A819B81FC018081809300019D
:101ED0008A819B81FC0182818093FF0087E290E0F0
:101EE00027E230E0F9012081422F487F2A813B819F
:101EF000F90120812770242BFC01208386E290E0E9
:101F000026E230E0F90120812064FC0120838981F0
:101F10000F900F900F90DF91CF910895CF93DF93A3
:101F20001F92CDB7DEB781E0898386E290E026E29A
:101F300030E0F90120812860FC01208389810F9025
:101F4000DF91CF910895CF93DF931F92CDB7DEB786
:101F500081E0898386E290E026E230E0F901208189
:101F6000277FFC01208389810F90DF91CF91089515
:101F7000CF93DF9300D000D0CDB7DEB78A837C83C8
:101F80006B8381E089838B819C81892B19F482E0AA
:101F9000898330C08A81882F90E0892BB9F484E24C
:101FA00090E0FC018081282F30E085E290E0FC0188
:101FB0008081882F90E0982F8827822B932B9C017B
:101FC0008B819C81FC013183208314C084E290E0EA
:101FD000FC01808191819C010024220F331F001C91
:101FE000220F331F001C232F302D8B819C81FC017D
:101FF0003183208389810F900F900F900F90DF9194
:10200000CF910895CF93DF9300D000D01F92CDB72A
:10201000DEB79B838A837D836C8381E089838A8199
:102020009B81892B19F482E089830FC08A819B816F
:10203000FC018081882F90E0880F991F81519F4F6C
:102040002C813D81FC013183208389810F900F9089
:102050000F900F900F90DF91CF9108951F920F92E4
:1020600000905F000F9211242F933F934F935F9343
:102070006F937F938F939F93AF93BF93EF93FF9350
:10208000CF93DF9300D01F92CDB7DEB781E0898375
:102090002091FF00CE010296BC01822F0E94B80F52
:1020A000898380910001882F90E0880F991F8151CA
:1020B0009F4FFC0180819181892B79F080910001F3
:1020C000882F90E0880F991F81519F4FFC0120813C
:1020D00031818A819B81F901099500000F900F9051
:1020E0000F90DF91CF91FF91EF91BF91AF919F91B1
:1020F0008F917F916F915F914F913F912F910F90B1
:1021000000925F000F901F901895CF93DF93CDB78B
:10211000DEB727970FB6F894DEBF0FBECDBF9E8304
:102120008D836F8319821B821C821A828D819E810E
:10213000892B19F482E0898322C01A821DC08F8105
:10214000882F90E02A81222F30E002C09595879554
:102150002A95E2F781708C838A81882F90E02D8107
:102160003E81820F931FFC0180816C810E94580B7D
:102170008B838A818F5F8A838A81843000F389818F
:1021800027960FB6F894DEBF0FBECDBFDF91CF917B
:102190000895CF93DF93CDB7DEB7EF970FB6F894DE
:1021A000DEBF0FBECDBF9FAF8EAF19828EAD9FAD8C
:1021B000892B19F482E089830FC28EAD9FAD68E34D
:1021C0000E94F612898380E090E0A0EAB0E48A835E
:1021D0009B83AC83BD8320E030E04AE755E46A810D
:1021E0007B818C819D810E946022DC01CB018CABC4
:1021F0009DABAEABBFAB20E030E040E85FE36CA945
:102200007DA98EA99FA90E94FC2088232CF481E03F
:1022100090E099AF88AF3FC020E03FEF4FE757E431
:102220006CA97DA98EA99FA90E945B2218164CF566
:1022300020E030E040E251E46A817B818C819D8125
:102240000E946022DC01CB01BC01CD010E947A21F9
:10225000DC01CB0199AF88AF0FC080E991E09BAF63
:102260008AAF8AAD9BAD0197F1F79BAF8AAF88AD7E
:1022700099AD019799AF88AF88AD99AD892B69F772
:1022800014C06CA97DA98EA99FA90E947A21DC01A6
:10229000CB0199AF88AF88AD99AD9DAF8CAF8CADB8
:1022A0009DAD0197F1F79DAF8CAF8EAD9FAD68E30B
:1022B0000E94F612898380E090E0A6E1B3E48E8369
:1022C0009F83A887B9872BEA3AEA4AEA50E46E81ED
:1022D0007F81888599850E946022DC01CB01888FEF
:1022E000998FAA8FBB8F20E030E040E850E46E81E8
:1022F0007F81888599850E946022DC01CB018C8FCB
:102300009D8FAE8FBF8F20E030E040E85FE3688DA7
:10231000798D8A8D9B8D0E94FC2088231CF481E09E
:1023200088A3B2C020E03FEF4FE757E46C8D7D8D6E
:102330008E8D9F8D0E945B2218160CF07BC020E0D2
:1023400030E04AE754E46E817F81888599850E9458
:102350000121DC01CB0189A39AA3ABA3BCA320E09C
:1023600030E04AE755E469A17AA18BA19CA10E94C3
:102370006022DC01CB018DA39EA3AFA3B8A720E010
:1023800030E040E85FE36DA17EA18FA198A50E9497
:10239000FC2088232CF481E090E09AA789A73FC015
:1023A00020E03FEF4FE757E46DA17EA18FA198A5F4
:1023B0000E945B2218164CF520E030E040E251E428
:1023C00069A17AA18BA19CA10E946022DC01CB01B2
:1023D000BC01CD010E947A21DC01CB019AA789A71B
:1023E0000FC080E991E09CA78BA78BA59CA50197C6
:1023F000F1F79CA78BA789A59AA501979AA789A70A
:1024000089A59AA5892B69F73FC06DA17EA18FA1EF
:1024100098A50E947A21DC01CB019AA789A789A5FA
:102420009AA59EA78DA78DA59EA50197F1F79EA7BA
:102430008DA72AC020E030E04FE753E4688D798D06
:102440008A8D9B8D0E945B221816ACF46C8D7D8D5D
:102450008E8D9F8D0E947A21DC01CB0198AB8FA7D6
:102460008FA598A99AAB89AB89A99AA90197F1F789
:102470009AAB89AB0FC0688D798D8A8D9B8D0E9438
:102480007A21DC01CB0188A388A18BAB8BA98A952B
:10249000F1F78BAB8EAD9FAD68E30E94F612898396
:1024A0008EAD9FAD61E00E94F61289838EAD9FAD27
:1024B00062E00E94F61289838EAD9FAD66E00E94B5
:1024C000F61289838EAD9FAD6CE00E94F61289836F
:1024D0008EAD9FAD68E20E94F61289838EAD9FADEE
:1024E00060E80E94F61289838EAD9FAD61E00E9484
:1024F000F612898380E090E0A0EAB0E48A879B87A7
:10250000AC87BD8720E030E04AE755E46A857B85EB
:102510008C859D850E946022DC01CB018E879F8780
:10252000A88BB98B20E030E040E85FE36E857F85C3
:10253000888999890E94FC2088232CF481E090E00E
:102540009B8B8A8B3FC020E03FEF4FE757E46E85BF
:102550007F85888999890E945B2218164CF520E0B6
:1025600030E040E251E46A857B858C859D850E9440
:102570006022DC01CB01BC01CD010E947A21DC018B
:10258000CB019B8B8A8B0FC080E991E09D8B8C8B5C
:102590008C899D890197F1F79D8B8C8B8A899B890A
:1025A00001979B8B8A8B8A899B89892B69F714C039
:1025B0006E857F85888999890E947A21DC01CB010B
:1025C0009B8B8A8B8A899B899F8B8E8B8E899F8917
:1025D0000197F1F79F8B8E8B8981EF960FB6F89458
:1025E000DEBF0FBECDBFDF91CF910895CF93DF93B4
:1025F00000D000D01F92CDB7DEB79C838B836D8354
:1026000019821A828B819C81892B19F482E089833B
:1026100022C08B819C81FC01848160E00E94580B68
:102620008A838D81282F22952F708B819C81622F28
:102630000E94151689838B819C810E945316898381
:102640008B819C816D810E94151689838B819C8171
:102650000E945316898389810F900F900F900F90DD
:102660000F90DF91CF910895CF93DF9300D000D0EA
:10267000CDB7DEB79B838A836C8319828A819B8165
:10268000892B19F482E0898322C08A819B81FC0115
:10269000848161E00E94580B89838C81282F2295C8
:1026A0002F708A819B81622F0E94151689838A81EF
:1026B0009B810E94531689838A819B816C810E9431
:1026C000151689838A819B810E945316898389818B
:1026D0000F900F900F900F90DF91CF910895CF93AF
:1026E000DF9300D000D000D0CDB7DEB79B838A83C4
:1026F0006C834D832E8319828A819B81892B19F4E7
:1027000082E0898329C08A819B814E816D810E94EC
:10271000581489838A819B81FC01848161E00E9435
:10272000580B89838C81282F22952F708A819B8159
:10273000622F0E94151689838A819B810E945316FD
:1027400089838A819B816C810E94151689838A8185
:102750009B810E9453168983898126960FB6F8942F
:10276000DEBF0FBECDBFDF91CF910895CF93DF9332
:10277000CDB7DEB728970FB6F894DEBF0FBECDBF3A
:102780009C838B837E836D834F83288719821A8273
:102790008B819C81892B21F08D819E81892B19F45D
:1027A00082E0898325C08B819C8148856F810E944E
:1027B0005814898312C08A81882F90E02D813E8130
:1027C000820F931FFC0120818B819C81622F0E94CC
:1027D000341389838A818F5F8A838A81882F90E06E
:1027E0002D813E81820F931FFC018081882319F780
:1027F000898128960FB6F894DEBF0FBECDBFDF915A
:10280000CF910895CF93DF93CDB7DEB727970FB65B
:10281000F894DEBF0FBECDBF9C838B837E836D8318
:102820004F8319821A828B819C81892B21F08D81A3
:102830009E81892B19F482E0898330C08F81883092
:1028400018F083E089832AC08F81882F90E0089652
:10285000282F220F220F220F8B819C81622F0E9432
:10286000F61289831A8211C08A81882F90E02D8107
:102870003E81820F931FFC0120818B819C81622FFE
:102880000E9434138A818F5F8A838A81883060F343
:102890008B819C8160E80E94F6128983898127964A
:1028A0000FB6F894DEBF0FBECDBFDF91CF91089574
:1028B000CF93DF9300D000D01F92CDB7DEB79B83BC
:1028C0008A836C834D8319828A819B81892B19F4B9
:1028D00082E0898356C08C81853018F085E0898339
:1028E00050C08D81853118F084E089834AC08D8184
:1028F00081508D838C81882F90E082309105C9F0C2
:10290000833091051CF4019739F03AC0833091056A
:10291000E9F0049741F134C08D8120E8280F8A81C5
:102920009B81622F0E94F612982F898189238983C7
:1029300028C08D8120EC280F8A819B81622F0E9404
:10294000F612982F8981892389831BC08D8124E900
:10295000280F8A819B81622F0E94F612982F89810D
:10296000892389830EC08D8124ED280F8A819B8164
:10297000622F0E94F612982F89818923898301C0D2
:10298000198289810F900F900F900F900F90DF9117
:10299000CF910895CF93DF9300D000D000D0CDB772
:1029A000DEB79C838B837E836D8319821A828B8131
:1029B0009C81892B21F08D819E81892BA9F482E055
:1029C00089831DC08A81882F90E02D813E81820FEE
:1029D000931FFC0120818B819C81622F0E94341304
:1029E00089838A818F5F8A838A81882F90E02D81F5
:1029F0003E81820F931FFC018081882319F7898112
:102A000026960FB6F894DEBF0FBECDBFDF91CF91F3
:102A10000895CF93DF93CDB7DEB7CC56D1090FB66B
:102A2000F894DEBF0FBECDBF9E0129593F4FF9017B
:102A300091838083CE0187599F4FFC01408351834E
:102A40006283738319821A82CE0189599F4FFC01D8
:102A500080819181892B19F482E089831EC09E01B7
:102A60002D5F3F4FCE0187599F4FFC01808191819F
:102A7000A281B381A901BC01CD010E9449008A83D2
:102A80009E012D5F3F4FCE0189599F4FFC018081F0
:102A90009181B9010E94CA1489838981C459DF4F89
:102AA0000FB6F894DEBF0FBECDBFDF91CF91089572
:102AB0000F93CF93DF93CDB7DEB7CE56D1090FB6C4
:102AC000F894DEBF0FBECDBFFE01E959FF4F9183E1
:102AD0008083CE0187599F4FDC014D935D936D93A9
:102AE0007C931397CE0183599F4FFC012083CE0125
:102AF00082599F4FDC010C9319821A82CE018959A9
:102B00009F4FFC0180819181892B19F482E0898398
:102B100031C09E012D5F3F4FCE0187599F4FFC0171
:102B200080819181A281B381A901BC01CD010E9464
:102B300049008A839E0122593F4FCE0183599F4FFE
:102B4000AE0149595F4FDA01ED91FC91D9014C91E9
:102B5000DC016C91CF010E9458149E012D5F3F4F04
:102B6000CE0189599F4FFC0180819181B9010E945A
:102B7000CA1489838981C259DF4F0FB6F894DEBF2A
:102B80000FBECDBFDF91CF910F910895CF93DF930B
:102B9000CDB7DEB7CC56D1090FB6F894DEBF0FBE65
:102BA000CDBF9E0129593F4FF90191838083CE010A
:102BB00087599F4FFC01408351836283738319823D
:102BC0001A82CE0189599F4FFC0180819181892B06
:102BD00019F482E089831EC09E012D5F3F4FCE0114
:102BE00087599F4FFC0180819181A281B381A90106
:102BF000BC01CD010E9488008A839E012D5F3F4F5A
:102C0000CE0189599F4FFC0180819181B9010E94B9
:102C1000CA1489838981C459DF4F0FB6F894DEBF87
:102C20000FBECDBFDF91CF910895CF93DF9300D03A
:102C300000D01F92CDB7DEB79C838B836D83198242
:102C40001A828B819C81892B19F482E0898322C0AE
:102C50001A821DC08D81882F90E02A81222F30E0BA
:102C600002C0959587952A95E2F7482F41708A8191
:102C7000882F90E02B813C81820F931FFC01808183
:102C8000642F0E94580B89838A818F5F8A838A818F
:102C9000843000F389810F900F900F900F900F9068
:102CA000DF91CF910895CF93DF93CDB7DEB7A39790
:102CB0000FB6F894DEBF0FBECDBF9BA38AA31982C7
:102CC0008AA19BA1892B19F482E08983FFC08AA184
:102CD0009BA1FC01858161E00E94580B898380E003
:102CE00090E0A0EAB0E48A839B83AC83BD832BEAA7
:102CF0003AEA4AEA50E46A817B818C819D810E9494
:102D00006022DC01CB018E839F83A887B98720E0F6
:102D100030E040E850E46A817B818C819D810E9493
:102D20006022DC01CB018A879B87AC87BD8720E0CE
:102D300030E040E85FE36E817F81888599850E945D
:102D4000FC2088231CF481E08E87B2C020E03FEF96
:102D50004FE757E46A857B858C859D850E945B22C1
:102D600018160CF07BC020E030E04AE754E46A819A
:102D70007B818C819D810E940121DC01CB018F87A9
:102D8000988BA98BBA8B20E030E04AE755E46F8539
:102D9000788989899A890E946022DC01CB018B8B1A
:102DA0009C8BAD8BBE8B20E030E040E85FE36B890D
:102DB0007C898D899E890E94FC2088232CF481E0E7
:102DC00090E0988F8F8B3FC020E03FEF4FE757E4B4
:102DD0006B897C898D899E890E945B2218164CF52F
:102DE00020E030E040E251E46F85788989899A8952
:102DF0000E946022DC01CB01BC01CD010E947A213E
:102E0000DC01CB01988F8F8B0FC080E991E09A8F06
:102E1000898F898D9A8D0197F1F79A8F898F8F8984
:102E2000988D0197988F8F8B8F89988D892B69F753
:102E30003FC06B897C898D899E890E947A21DC0143
:102E4000CB01988F8F8B8F89988D9C8F8B8F8B8DDB
:102E50009C8D0197F1F79C8F8B8F2AC020E030E08A
:102E60004FE753E46E817F81888599850E945B22BC
:102E70001816ACF46A857B858C859D850E947A2125
:102E8000DC01CB019E8F8D8F8D8D9E8D98A38F8FB2
:102E90008F8D98A10197F1F798A38F8F0FC06E8146
:102EA0007F81888599850E947A21DC01CB018E87FC
:102EB0008E8589A389A18A95F1F789A38AA19BA10F
:102EC000FC01858160E00E94580B89838981A3966B
:102ED0000FB6F894DEBF0FBECDBFDF91CF9108953E
:102EE000CF93DF93CDB7DEB729970FB6F894DEBF47
:102EF0000FBECDBF9F838E837987688783E08983E8
:102F00001C821A821B828E819F81FC0181858D83A8
:102F10008E819F81892B21F088859985892B19F4D1
:102F200082E08983DFC08E819F810E947C18898323
:102F30008E819F81FC018085882F90E0009721F091
:102F4000019709F467C0CCC01A825FC08E819F814F
:102F5000FC01918581E0992309F080E0482F8A8166
:102F6000882F90E02E813F81820F931FFC0180818A
:102F7000642F0E94580B8C831B8230C08B81882F5A
:102F800090E02E813F81820F931F0496FC012081E7
:102F9000CE010596BC01822F0E94C70B8C838E81C7
:102FA0009F81FC0191858D819817A9F08A81282F36
:102FB00030E08B81882F90E0220F331F220F331FC8
:102FC000820F931F8D529F4FFC0120818885998528
:102FD000FC01208319828B818F5F8B838B818430EE
:102FE00068F28E819F81FC0141858A81882F90E063
:102FF0002E813F81820F931FFC018081642F0E94EC
:10300000580B8C838A818F5F8A838A81843008F48D
:103010009DCF68C01B825FC08E819F81FC0191851E
:1030200081E0992309F080E0482F8B81882F90E080
:103030002E813F81820F931F0496FC018081642FB3
:103040000E94580B8C831A822EC08A81882F90E0B0
:103050002E813F81820F931FFC012081CE010596B6
:10306000BC01822F0E94C70B8C838E819F81FC0143
:1030700091858D819817A1F08A81282F30E08B816E
:10308000882F90E0220F331F220F331F820F931FD0
:103090008D529F4FFC01208188859985FC012083FA
:1030A0008A818F5F8A838A81843078F28E819F81C2
:1030B000FC0141858B81882F90E02E813F81820F1A
:1030C000931F0496FC018081642F0E94580B8C830F
:1030D0008B818F5F8B838B81843008F49DCF02C0FE
:1030E00081E08983898129960FB6F894DEBF0FBEEF
:1030F000CDBFDF91CF910895CF93DF9300D000D063
:103100001F92CDB7DEB79D838C8383E089831B82BA
:103110001A828C819D81892B19F482E0898342C0B7
:103120008C819D81FC018085882F90E0009719F0AB
:103130000197D9F035C01A8214C08C819D81FC01A1
:1031400041858A81882F90E02C813D81820F931FD9
:10315000FC018081642F0E94580B8B838A818F5FD2
:103160008A838A81843048F31DC01A8215C08C81FD
:103170009D81FC0141858A81882F90E02C813D81D1
:10318000820F931F0496FC018081642F0E94580BCC
:103190008B838A818F5F8A838A81843040F302C067
:1031A00081E0898389810F900F900F900F900F908D
:1031B000DF91CF910895CF93DF9300D000D000D05E
:1031C000CDB7DEB79C838B837E836D8319821A8291
:1031D0008B819C81892B21F08D819E81892B19F413
:1031E00082E0898331C08B819C81FC018181882FA1
:1031F00090E0009771F0019729F58B819C81FC018B
:1032000020818D819E81BC01822F0E94C70B8A8301
:103210001BC08B819C81FC0120818D819E81BC0122
:10322000822F0E94C70B8A838D819E81FC01908131
:1032300081E0992309F080E0282F8D819E81FC0197
:10324000208302C081E08983898126960FB6F89495
:10325000DEBF0FBECDBFDF91CF910895CF93DF9337
:10326000CDB7DEB70E942A0780E990E00E94C9101E
:1032700087EA90E00E94F1046DE070E287EA90E056
:103280000E94860687EA90E00E94C1050E943609E6
:103290000E9428200E944F190E94EE19F9CFCF9367
:1032A000DF931F92CDB7DEB781E0898381E0809301
:1032B000AB0083C08091AA00882309F07EC0809172
:1032C0000601882F90E08D329105F9F08E3291053C
:1032D00034F48A329105A1F18B97B9F055C08D3342
:1032E000910551F08336910519F08F9749F14CC043
:1032F0001092AB0019825EC0198280910601682F7E
:1033000080E990E00E94341355C08091010191E062
:10331000980F90930101882F90E020910601895F1A
:103320009E4FFC012083809104018F5F80930401F4
:1033300080910601682F80E990E00E9434133AC022
:1033400080910101809303018091010191E0980F28
:1033500090930101882F90E020910601895F9E4F94
:10336000FC012083809102018F5F80930201809194
:1033700004018F5F8093040180910601682F80E92A
:1033800090E00E94341316C08091010191E0980FE3
:1033900090930101882F90E020910601895F9E4F54
:1033A000FC01208380910601682F80E990E00E9453
:1033B0003413000083E08093AA008981882309F0F8
:1033C00079CF80910101882F90E0895F9E4FFC01A9
:1033D000108200000F90DF91CF910895CF93DF937B
:1033E0001F92CDB7DEB781E089838091AB00882F33
:1033F00090E0009719F0019721F094C00E94BD1B46
:1034000091C080910201823040F4809107018A329C
:1034100021F0809107018F3219F40E94971A81C020
:1034200080910101882F90E00197895F9E4FFC01F8
:1034300080818A3209F180910101882F90E0019703
:10344000895F9E4FFC0180818F32B1F08091010134
:10345000882F90E00197895F9E4FFC0180818D321B
:1034600059F080910101882F90E00197895F9E4F6C
:10347000FC0180818B3219F40E94971A52C080910E
:103480000401882349F425E043E067E071E080E926
:1034900090E00E94B61345C080910301882379F122
:1034A00080910301882F90E00197895F9E4FFC0176
:1034B00080818A3209F180910301882F90E0019781
:1034C000895F9E4FFC0180818F32B1F080910301B2
:1034D000882F90E00197895F9E4FFC0180818D329B
:1034E00059F080910301882F90E00197895F9E4FEA
:1034F000FC0180818B3219F40E94971A12C00E943D
:10350000481C0BC08091AA00882339F480910601E1
:10351000833619F40E94BD1B19828981882391F793
:1035200000C0000000000F90DF91CF910895CF936D
:10353000DF93CDB7DEB72E970FB6F894DEBF0FBE80
:10354000CDBF61E080E990E00E94F61280E090E05B
:10355000A0E8B0E489839A83AB83BC8320E030E0A9
:103560004AE755E469817A818B819C810E946022BF
:10357000DC01CB018D839E83AF83B88720E030E0F0
:1035800040E85FE36D817E818F8198850E94FC20F9
:1035900088232CF481E090E09A8789873FC020E05F
:1035A0003FEF4FE757E46D817E818F8198850E94C0
:1035B0005B2218164CF520E030E040E251E46981CE
:1035C0007A818B819C810E946022DC01CB01BC014D
:1035D000CD010E947A21DC01CB019A8789870FC037
:1035E00080E991E09C878B878B859C850197F1F71B
:1035F0009C878B8789859A8501979A878987898592
:103600009A85892B69F714C06D817E818F81988599
:103610000E947A21DC01CB019A87898789859A8566
:103620009E878D878D859E850197F1F79E878D8773
:1036300022E042E06BEB70E080E990E00E94B6137C
:1036400000002E960FB6F894DEBF0FBECDBFDF91FF
:10365000CF910895CF93DF93CDB7DEB72E970FB6F6
:10366000F894DEBF0FBECDBF61E080E990E00E941C
:10367000F61280E090E0A0E8B0E489839A83AB83FF
:10368000BC8320E030E04AE755E469817A818B8190
:103690009C810E946022DC01CB018D839E83AF83DD
:1036A000B88720E030E040E85FE36D817E818F8164
:1036B00098850E94FC2088232CF481E090E09A8772
:1036C00089873FC020E03FEF4FE757E46D817E815F
:1036D0008F8198850E945B2218164CF520E030E01F
:1036E00040E251E469817A818B819C810E94602251
:1036F000DC01CB01BC01CD010E947A21DC01CB01B0
:103700009A8789870FC080E991E09C878B878B859A
:103710009C850197F1F79C878B8789859A8501970E
:103720009A87898789859A85892B69F714C06D8165
:103730007E818F8198850E947A21DC01CB019A8756
:10374000898789859A859E878D878D859E85019736
:10375000F1F79E878D8722E042E068EC70E080E917
:1037600090E00E94B61300002E960FB6F894DEBFCC
:103770000FBECDBFDF91CF910895CF93DF93CDB72B
:10378000DEB72E970FB6F894DEBF0FBECDBF61E057
:1037900080E990E00E94F61280E090E0A0E8B0E4BA
:1037A00089839A83AB83BC8320E030E04AE755E409
:1037B00069817A818B819C810E946022DC01CB012E
:1037C0008D839E83AF83B88720E030E040E85FE3DD
:1037D0006D817E818F8198850E94FC2088232CF446
:1037E00081E090E09A8789873FC020E03FEF4FE774
:1037F00057E46D817E818F8198850E945B22181627
:103800004CF520E030E040E251E469817A818B811F
:103810009C810E946022DC01CB01BC01CD010E9491
:103820007A21DC01CB019A8789870FC080E991E07A
:103830009C878B878B859C850197F1F79C878B876D
:1038400089859A8501979A87898789859A85892BA1
:1038500069F714C06D817E818F8198850E947A21DD
:10386000DC01CB019A87898789859A859E878D8718
:103870008D859E850197F1F79E878D8700002E9696
:103880000FB6F894DEBF0FBECDBFDF91CF91089584
:10389000CF93DF93CDB7DEB780910201882319F073
:1038A0000E94591C02C00E94011E0000DF91CF91AE
:1038B0000895CF92DF92EF92FF920F93CF93DF9311
:1038C000CDB7DEB7C354D1400FB6F894DEBF0FBEFC
:1038D000CDBF198281E08A831B8281E08C831D82A7
:1038E00081E08E8336C08981882F90E0895F9E4F6A
:1038F000FC0180818D3221F48A8181958A8326C0E2
:103900008981882F90E0895F9E4FFC018081803300
:10391000E8F08981882F90E0895F9E4FFC018081CB
:103920008A33A0F48B8191E0980F9B83882F90E0DD
:103930002981222F30E0295F3E4FF90140819E010D
:10394000205F3F4F820F931FFC01408389818F5F6F
:1039500089838981882F90E0895F9E4FFC01808157
:103960008F3251F08981882F90E0895F9E4FFC0152
:1039700080818A3209F0B7CF8B81882F90E09E0139
:10398000205F3F4F820F931FFC0110829E01205F3A
:103990003F4FCE018C589F4FB9010E94FE02898192
:1039A000882F90E0895F9E4FFC0180818F83898101
:1039B0008F5F898336C08981882F90E0895F9E4F11
:1039C000FC0180818D3221F48C8181958C8326C00D
:1039D0008981882F90E0895F9E4FFC018081803330
:1039E000E8F08981882F90E0895F9E4FFC018081FB
:1039F0008A33A0F48D8191E0980F9D83882F90E009
:103A00002981222F30E0295F3E4FF90140819E013C
:103A100028583F4F820F931FFC01408389818F5F9D
:103A20008983809101019981981728F28D81882FCF
:103A300090E09E0128583F4F820F931FFC01108297
:103A40009E0128583F4FCE0184529F4FB9010E94DA
:103A5000FE028B81882319F40E94971AC2C09A81B2
:103A60008C81989F802D11248E838F818A3209F05A
:103A700047C0CE0184529F4FFC0120813181428199
:103A80005381CE018C589F4FFC0180819181A2818E
:103A9000B381BC01CD010E944320DC01CB018887AA
:103AA0009987AA87BB87CE018C589F4FFC018081E4
:103AB0009181A281B381892B8A2B8B2B51F406E053
:103AC00023E040E050E0BA0180E990E00E94581500
:103AD00088C08E818F3F39F425E043E06DE280E9B4
:103AE00090E00E946F1388859985AA85BB8506E0C2
:103AF00023E0AC01BD0180E990E00E94581571C03F
:103B00008F818F3209F06DC0CE0184529F4FFC012E
:103B100080819181A281B381892B8A2B8B2B19F40F
:103B20000E942A1B5EC0CE018C589F4FFC018081F1
:103B30009181A281B381BC01CD010E94A9216B01B9
:103B40007C01CE0184529F4FFC0180819181A28132
:103B5000B381BC01CD010E94A921DC01CB019C01F4
:103B6000AD01C701B6010E940121DC01CB018C87A8
:103B70009D87AE87BF87CE018C589F4FFC01808107
:103B80009181A281B381892B8A2B8B2B51F406E082
:103B900023E040E050E0BA0180E990E00E9458152F
:103BA00020C08E818F3F39F425E043E06DE280E94B
:103BB00090E00E946F139E0120523F4F8C859D859F
:103BC000AE85BF85A901BC01CD010E948800CE0150
:103BD00080529F4F26E043E0BC0180E990E00E94C4
:103BE000B6130000CD5BDE4F0FB6F894DEBF0FBEFC
:103BF000CDBFDF91CF910F91FF90EF90DF90CF90ED
:103C00000895EF92FF920F931F93CF93DF93CDB759
:103C1000DEB7CF53D1400FB6F894DEBF0FBECDBF95
:103C2000198281E08A831B821E8281E08C83CE010F
:103C30008C589F4F24E6FC01E22E1192EA94E9F79A
:103C4000CE018C589F4F20E3FC0120831D8281E030
:103C50008F8319820FC08981882F90E0895F9E4FE2
:103C6000FC0180818D3219F48A8181958A83898152
:103C70008F5F89838981882F90E0895F9E4FFC0147
:103C80008081803360F08981882F90E0895F9E4F2A
:103C9000FC0180818A3318F481E090E002C080E06A
:103CA00090E0892BC1F217C08B8191E0980F9B8324
:103CB000882F90E02981222F30E0295F3E4FF901C3
:103CC00040819E01245F3F4F820F931FFC01408380
:103CD00089818F5F89838981882F90E0895F9E4FDA
:103CE000FC018081882391F08981882F90E0895F91
:103CF0009E4FFC018081803348F08981882F90E0BD
:103D0000895F9E4FFC0180818A3370F28B81882FFE
:103D100090E09E01245F3F4F820F931FFC011082B1
:103D20009E01245F3F4FCE0180599F4FB9010E94F1
:103D3000FE028981882F90E0895F9E4FFC0180817F
:103D40008823C9F5CE0180599F4FFC018081918164
:103D5000A281B381892B8A2B8B2B51F406E023E0BF
:103D600040E050E0BA0180E990E00E94581546C159
:103D70008A818F3F39F425E043E06DE280E990E0ED
:103D80000E946F13CE010C9626E043E0BC0180E94F
:103D900090E00E94B61332C18981882F90E0895F3C
:103DA0009E4FFC0180818D3219F48C8181958C832A
:103DB00089818F5F89838981882F90E0895F9E4FF9
:103DC000FC018081803360F08981882F90E0895FD9
:103DD0009E4FFC0180818A3318F481E090E002C09C
:103DE00080E090E0892BC1F217C08D8191E0980F9F
:103DF0009D83882F90E0298131E0320F3983222F73
:103E000030E0295F3E4FF90140819E012C583F4F21
:103E1000820F931FFC0140838981882F90E0895F86
:103E20009E4FFC018081882301F78D81882F90E0CF
:103E30009E012C583F4F820F931FFC0110829E0160
:103E40002C583F4FCE0188529F4FB9010E94FE026D
:103E50009C818A81981779F5CE0188529F4FFC0189
:103E60002081318142815381CE0180599F4FFC01D5
:103E700080819181A281B381820F931FA41FB51FFE
:103E800088879987AA87BB878A818F3F39F425E085
:103E900043E06DE280E990E00E946F138885998588
:103EA000AA85BB8506E023E0AC01BD0180E990E076
:103EB0000E945815A3C0CE0188529F4FFC0120815B
:103EC000318142815381CE0180599F4FFC01808115
:103ED0009181A281B381281739074A075B0751F402
:103EE00006E023E040E050E0BA0180E990E00E9463
:103EF000581584C0CE0188529F4FFC01208131812A
:103F000042815381CE0180599F4FFC018081918174
:103F1000A281B381281739074A075B0798F5CE01BC
:103F200080599F4FFC012081318142815381CE0114
:103F300088529F4FFC0180819181A281B3817901D8
:103F40008A01E81AF90A0A0B1B0BD801C7018887F6
:103F50009987AA87BB878A818F3F39F425E043E0A0
:103F60006DE280E990E00E946F1388859985AA85AB
:103F7000BB8506E023E0AC01BD0180E990E00E9432
:103F800058153CC0CE0188529F4FFC0120813181E1
:103F900042815381CE0180599F4FFC0180819181E4
:103FA000A281B38179018A01E81AF90A0A0B1B0B75
:103FB000D801C70188879987AA87BB87CE01885215
:103FC0009F4FFC0180819181A281B3818F3F9F4FE0
:103FD000AF4FBF4F39F425E043E06DE280E990E058
:103FE0000E946F1388859985AA85BB8506E023E02A
:103FF000AC01BD0180E990E00E9458150000C15C51
:10400000DE4F0FB6F894DEBF0FBECDBFDF91CF916C
:104010001F910F91FF90EF900895CF93DF93CDB74D
:10402000DEB7809105018F5F8093050180910501C6
:10403000883051F41092050166E071E087E990E064
:104040000E9470178093AA000000DF91CF9108951D
:10405000CF93DF93CDB7DEB787E68093060183E089
:104060008093AA00109207011092010110920201A0
:104070001092040181E08093AB00109203010000D4
:10408000DF91CF910895DB018F939F930E9453207E
:10409000BF91AF91A29F800D911DA39F900DB29FE4
:1040A000900D112408950E948020A59F900DB49F2B
:1040B000900DA49F800D911D112408950F93083039
:1040C00090F0982F872F762F652F542F432F322F64
:1040D00022270850F4CF220F331F441F551F661F9D
:1040E000771F881F991F0A95B2F70F9108952A0D1F
:1040F0003B1D4C1D5D1D6E1D7F1D801F911F089572
:10410000A29FB001B39FC001A39F700D811D112418
:10411000911DB29F700D811D1124911D089550585D
:10412000BB27AA270E94A7200C9421220E941322B9
:1041300038F00E941A2220F039F49F3F19F426F437
:104140000C9410220EF4E095E7FB0C940A22E92F60
:104150000E94322258F3BA17620773078407950743
:1041600020F079F4A6F50C9454220EF4E0950B2E71
:10417000BA2FA02D0B01B90190010C01CA01A001B9
:104180001124FF27591B99F0593F50F4503E68F114
:104190001A16F040A22F232F342F4427585FF3CF55
:1041A000469537952795A795F0405395C9F77EF426
:1041B0001F16BA0B620B730B840BBAF09150A1F06F
:1041C000FF0FBB1F661F771F881FC2F70EC0BA0FF5
:1041D000621F731F841F48F4879577956795B7957D
:1041E000F7959E3F08F0B0CF9395880F08F0992778
:1041F000EE0F9795879508950E94E62108F481E0D7
:1042000008950E9415210C9421220E941A2258F030
:104210000E94132240F029F45F3F29F00C940A22F7
:1042200051110C9455220C9410220E94322268F3F2
:104230009923B1F3552391F3951B550BBB27AA275F
:1042400062177307840738F09F5F5F4F220F331F99
:10425000441FAA1FA9F335D00E2E3AF0E0E832D061
:1042600091505040E695001CCAF72BD0FE2F29D064
:10427000660F771F881FBB1F261737074807AB0736
:10428000B0E809F0BB0B802DBF01FF2793585F4FAB
:104290003AF09E3F510578F00C940A220C94552276
:1042A0005F3FE4F3983ED4F3869577956795B7958D
:1042B000F7959F5FC9F7880F911D9695879597F998
:1042C0000895E1E0660F771F881FBB1F6217730711
:1042D0008407BA0720F0621B730B840BBA0BEE1F26
:1042E00088F7E09508950E947A216894B1110C94A2
:1042F000552208950E943A2288F09F5798F0B92FCE
:104300009927B751B0F0E1F0660F771F881F991F0A
:104310001AF0BA95C9F714C0B13091F00E94542236
:10432000B1E008950C945422672F782F8827B85F46
:1043300039F0B93FCCF3869577956795B395D9F762
:104340003EF490958095709561957F4F8F4F9F4F6C
:104350000895E89409C097FB3EF490958095709578
:1043600061957F4F8F4F9F4F9923A9F0F92F96E9C1
:10437000BB279395F695879577956795B795F11136
:10438000F8CFFAF4BB0F11F460FF1BC06F5F7F4FD3
:104390008F4F9F4F16C0882311F096E911C07723E5
:1043A00021F09EE8872F762F05C0662371F096E8EE
:1043B000862F70E060E02AF09A95660F771F881FBD
:1043C000DAF7880F9695879597F90895990F000861
:1043D000550FAA0BE0E8FEEF16161706E807F907D7
:1043E000C0F012161306E407F50798F0621B730B72
:1043F000840B950B39F40A2661F0232B242B252BF3
:1044000021F408950A2609F4A140A6958FEF811D95
:10441000811D089597F99F6780E870E060E0089536
:104420009FEF80EC089500240A94161617061806CC
:104430000906089500240A941216130614060506A8
:104440000895092E0394000C11F4882352F0BB0F39
:1044500040F4BF2B11F460FF04C06F5F7F4F8F4F9C
:104460009F4F089557FD9058440F551F59F05F3FD7
:1044700071F04795880F97FB991F61F09F3F79F086
:1044800087950895121613061406551FF2CF469508
:10449000F1DF08C0161617061806991FF1CF86958A
:1044A0007105610508940895E894BB27662777276E
:1044B000CB0197F908950E94E62108F48FEF089543
:1044C0000E9473220C9421220E94132238F00E9431
:1044D0001A2220F0952311F00C940A220C94102239
:1044E00011240C9455220E94322270F3959FC1F33F
:1044F000950F50E0551F629FF001729FBB27F00D92
:10450000B11D639FAA27F00DB11DAA1F649F6627E6
:10451000B00DA11D661F829F2227B00DA11D621F35
:10452000739FB00DA11D621F839FA00D611D221FEF
:10453000749F3327A00D611D231F849F600D211DD3
:10454000822F762F6A2F11249F5750409AF0F1F056
:1045500088234AF0EE0FFF1FBB1F661F771F881FBF
:1045600091505040A9F79E3F510580F00C940A22CB
:104570000C9455225F3FE4F3983ED4F386957795EB
:104580006795B795F795E7959F5FC1F7FE2B880F65
:10459000911D9695879597F90895AEE0B0E0E3ED0B
:1045A000F2E20C948E250D891E8986E08C831A8395
:1045B00009838FEF9FE79E838D83AE01475E5F4F38
:1045C0006F89788DCE0101960E94EF22EF81F885E8
:1045D000E00FF11F10822E96E4E00C94AA25ABE0C8
:1045E000B0E0E5EFF2E20C9480256C017B018A01DA
:1045F000FC0117821682838181FFCCC1CE01019616
:104600003C01F6019381F70193FD859193FF819120
:104610007F01882309F4BAC1853239F493FD85916D
:1046200093FF81917F01853229F4B60190E00E94C9
:10463000E624E7CF912C212C312CFFE1F315D8F0A3
:104640008B3279F038F4803279F08332A1F4232D63
:1046500020611DC08D3261F0803369F4232D21600B
:1046600016C0832D8260382EE32DE4603E2E2AC0D2
:10467000F32DF8601DC037FC2DC020ED280F2A3027
:1046800040F08E32B9F436FC81C1232D2064322EE5
:1046900019C036FE06C08AE0989E200D1124922E85
:1046A00011C0EAE02E9E200D1124222EF32DF0627F
:1046B0003F2E08C08C3621F4832D8068382E02C02E
:1046C000883641F4F70193FD859193FF81917F0135
:1046D0008111B3CF982F9F7D9554933028F40C5FB0
:1046E0001F4F9FE399830DC0833631F0833771F0FC
:1046F000833509F059C021C0F801808189830E5F9C
:104700001F4F88248394912C530113C02801F2E099
:104710004F0E511CF801A080B18036FE03C0692DF8
:1047200070E002C06FEF7FEFC5010E94DB244C01F7
:104730008201F32DFF773F2E16C0280122E0420EA2
:10474000511CF801A080B18036FE03C0692D70E0D5
:1047500002C06FEF7FEFC5010E94D0244C01F32D02
:10476000F0683F2E820133FC1BC0822D90E088163A
:104770009906B0F4B60180E290E00E94E6242A9403
:10478000F4CFF50137FC859137FE81915F01B601C9
:1047900090E00E94E62421102A9421E0821A9108D8
:1047A0008114910471F7E8C0843611F0893641F51F
:1047B000F80137FE07C060817181828193810C5FAF
:1047C0001F4F08C060817181072E000C880B990B68
:1047D0000E5F1F4FF32DFF763F2E97FF09C0909578
:1047E0008095709561957F4F8F4F9F4FF0683F2E5A
:1047F0002AE030E0A3010E942225882E861845C0B9
:10480000853731F4232D2F7EB22E2AE030E025C0EB
:10481000932D997FB92E8F36C1F018F4883579F031
:10482000B5C0803719F0883721F0B0C0E92FE061BA
:10483000BE2EB4FE0DC0FB2DF460BF2E09C034FEA9
:104840000AC0292F2660B22E06C028E030E005C03D
:1048500020E130E002C020E132E0F801B7FE07C0FD
:1048600060817181828193810C5F1F4F06C06081DE
:10487000718180E090E00E5F1F4FA3010E9422250E
:10488000882E8618FB2DFF773F2E36FE0DC0232D78
:104890002E7FA22E891458F434FE0BC032FC09C0BE
:1048A000832D8E7EA82E05C0B82CA32C03C0B82C57
:1048B00001C0B92CA4FE0FC0FE01E80DF11D8081DE
:1048C000803321F49A2D997EA92E09C0A2FE06C03C
:1048D000B394B39404C08A2D867809F0B394A3FCF2
:1048E00011C0A0FE06C0B21488F4280C922C9B18AC
:1048F0000EC0B21460F4B60180E290E00E94E6249B
:10490000B394F7CFB21418F42B1802C0982C212CB2
:10491000A4FE10C0B60180E390E00E94E624A2FE4F
:1049200017C0A1FC03C088E790E002C088E590E0D2
:10493000B6010CC08A2D867859F0A1FE02C08BE228
:1049400001C080E2A7FC8DE2B60190E00E94E6245F
:10495000891438F4B60180E390E00E94E6249A942A
:10496000F7CF8A94F301E80DF11D8081B60190E044
:104970000E94E6248110F5CF222009F442CEB60130
:1049800080E290E00E94E6242A94F6CFF601868128
:10499000978102C08FEF9FEF2B96E2E10C949C254C
:1049A000FC010590615070400110D8F780959095FA
:1049B0008E0F9F1F0895FC016150704001900110FF
:1049C000D8F7809590958E0F9F1F08950F931F9392
:1049D000CF93DF93FB01238121FD03C08FEF9FEF76
:1049E0002CC022FF16C04681578124813581421791
:1049F000530744F4A081B1819D012F5F3F4F318364
:104A000020838C93268137812F5F3F4F3783268306
:104A100014C08B01EC01FB010084F185E02D0995A8
:104A2000892BE1F6D80116968D919C9117970196E6
:104A300017969C938E931697CE01DF91CF911F917D
:104A40000F910895FA01AA27283051F1203181F100
:104A5000E8946F936E7F6E5F7F4F8F4F9F4FAF4F86
:104A6000B1E03ED0B4E03CD0670F781F891F9A1F99
:104A7000A11D680F791F8A1F911DA11D6A0F711D4D
:104A8000811D911DA11D20D009F468943F912AE059
:104A9000269F11243019305D3193DEF6CF01089541
:104AA000462F4770405D4193B3E00FD0C9F7F6CF72
:104AB000462F4F70405D4A3318F0495D31FD40523A
:104AC000419302D0A9F7EACFB4E0A69597958795D0
:104AD00077956795BA95C9F70097610571050895AF
:104AE0009B01AC010A2E069457954795379527955B
:104AF000BA95C9F7620F731F841F951FA01D0895F3
:104B00002F923F924F925F926F927F928F929F92DD
:104B1000AF92BF92CF92DF92EF92FF920F931F93CB
:104B2000CF93DF93CDB7DEB7CA1BDB0B0FB6F8947C
:104B3000DEBF0FBECDBF09942A88398848885F84BC
:104B40006E847D848C849B84AA84B984C884DF802D
:104B5000EE80FD800C811B81AA81B981CE0FD11D11
:104B60000FB6F894DEBF0FBECDBFED010895F894E7
:024B7000FFCF75
:104B72003A003700340031003B0038003500320083
:104B82003A003700340031003B0038003500320073
:104B9200390036003300300008090A0C0E0D0203FA
:104BA20008090A0C030200151413121F1E1D1B0014
:104BB200011F001E001D000500000301256C750089
:104BC2002573256C642E253034640053796E74612C
:104BD20078204572726F72004D617468204572725E
:104BE2006F72003738392F3435362A3132332D631C
:044BF200303D2B0027
:00000001FF
