:100000000C943A000C9449100C9480100C94B71086
:100010000C9457000C9457000C94EF080C94570064
:100020000C9457000C94B2080C944C0C0C94830C58
:100030000C9457000C9457000C9457000C945700E4
:100040000C94C4150C9457000C9457000C94570052
:100050000C945700E80B430CE80B430C430C430C87
:10006000E80B430C430C170CE80B170C430CEA0B82
:10007000E80BEA0B11241FBECFE5D8E0DEBFCDBFF1
:1000800010E0A0E6B0E0E6EDF7E502C005900D92C5
:10009000AA3FB107D9F721E0AAEFB0E001C01D9255
:1000A000AF37B207E1F70E9489240C94E92B0C9436
:1000B0000000CF93DF93CDB7DEB727970FB6F89444
:1000C000DEBF0FBECDBF6A837B838C839D835F833E
:1000D0004E8319828E819F81892B19F481E0898357
:1000E0001DC08D818F938C818F938B818F938A819B
:1000F0008F9380EB90E0892F8F9380EB90E08F932C
:100100008F818F938E818F930E94FF288DB79EB72A
:1001100008960FB6F894DEBF0FBECDBF8981279633
:100120000FB6F894DEBF0FBECDBFDF91CF9108951B
:10013000CF93DF93CDB7DEB765970FB6F894DEBFE8
:100140000FBECDBF688B798B8A8B9B8B5D8B4C8B65
:1001500019821F861E868C899D89892B19F481E05E
:10016000898378C020E030E0A901688979898A898B
:100170009B890E94A42688235CF488899989AA898E
:10018000BB89B058888B998BAA8BBB8B8DE28E87ED
:10019000688979898A899B890E945727DC01CB016C
:1001A0008A839B83AC83BD836A817B818C819D81A3
:1001B0000E948F27DC01CB019C01AD016889798900
:1001C0008A899B890E943726DC01CB018E839F831D
:1001D000A887B98720E030E44CE156E46E817F8146
:1001E000888599850E949228DC01CB01BC01CD0154
:1001F0000E945727DC01CB018A879B87AC87BD878C
:100200008D858F938C858F938B858F938A858F9324
:100210008D818F938C818F938B818F938A818F9324
:10022000CE010E96292F2F938F9384EB90E0892F88
:100230008F9384EB90E08F938D898F938C898F932C
:100240000E94FF288DB79EB70E960FB6F894DEBFBA
:100250000FBECDBF898165960FB6F894DEBF0FBE85
:10026000CDBFDF91CF9108952F923F924F925F9231
:100270006F927F928F929F92AF92BF92CF92DF92B6
:10028000EF92FF920F931F93CF93DF93CDB7DEB71B
:100290006E970FB6F894DEBF0FBECDBF9C878B87DD
:1002A0007E876D8719821A821B821C821D821E82A4
:1002B0001F82188619861A868D859E85892B21F0C6
:1002C0008B859C85892B19F481E089839FC01A82D4
:1002D0008CC02B813C814D815E816F8178858985C1
:1002E0009A85222E332E442E552E662E772E882E5A
:1002F000992E222D332D442D552D662D772D882DA9
:10030000992D01E00E94F125A22EB32EC42ED52EE8
:10031000E62EF72E082F192F2A2C3B2C4C2C5D2C67
:100320006E2C7F2C802E912E222D332D442D552D79
:10033000662D772D882D992D02E00E94F1252F8BB7
:10034000388F498F5A8F6B8F7C8F8D8F9E8F222D88
:10035000332D442D552D662D772D882D992DAF8861
:10036000B88CC98CDA8CEB8CFC8C0D8D1E8D0E94A8
:100370000A26A22EB32EC42ED52EE62EF72E082F37
:10038000192F8A81882F90E02D853E85820F931F3B
:10039000FC018081882F90E0C097988B8F87892FF0
:1003A000880F880B898B8A8B8B8B8C8B8D8B8E8B9C
:1003B0002A2D3B2D4C2D5D2D6E2D7F2D802F912FC5
:1003C000AF84B888C988DA88EB88FC880D891E89D3
:1003D0000E940A262B833C834D835E836F8378873C
:1003E00089879A878A818F5F8A838A81882F90E0A4
:1003F0002D853E85820F931FFC018081882309F0A3
:1004000068CF2B818B859C85FC01208389816E962A
:100410000FB6F894DEBF0FBECDBFDF91CF911F9115
:100420000F91FF90EF90DF90CF90BF90AF909F9093
:100430008F907F906F905F904F903F902F90089596
:100440002F923F924F925F926F927F928F929F92E4
:10045000AF92BF92CF92DF92EF92FF920F931F93D2
:10046000CF93DF93CDB7DEB76E970FB6F894DEBFAC
:100470000FBECDBF9C878B877E876D8719821A82BE
:100480001B821C821D821E821F82188619861A8674
:100490008D859E85892B21F08B859C85892B19F470
:1004A00081E08983A1C01A828CC02B813C814D815F
:1004B0005E816F81788589859A85222E332E442E20
:1004C000552E662E772E882E992E222D332D442DD3
:1004D000552D662D772D882D992D01E00E94F1254F
:1004E000A22EB32EC42ED52EE62EF72E082F192FAE
:1004F0002A2C3B2C4C2C5D2C6E2C7F2C802E912E8C
:10050000222D332D442D552D662D772D882D992D97
:1005100002E00E94F1252F8B388F498F5A8F6B8F05
:100520007C8F8D8F9E8F222D332D442D552D662D42
:10053000772D882D992DAF88B88CC98CDA8CEB8CEF
:10054000FC8C0D8D1E8D0E940A26A22EB32EC42E69
:10055000D52EE62EF72E082F192F8A81882F90E0AE
:100560002D853E85820F931FFC018081882F90E0AE
:10057000C097988B8F87892F880F880B898B8A8BE0
:100580008B8B8C8B8D8B8E8B2A2D3B2D4C2D5D2D4B
:100590006E2D7F2D802F912FAF84B888C988DA887F
:1005A000EB88FC880D891E890E940A262B833C83D8
:1005B0004D835E836F83788789879A878A818F5F6F
:1005C0008A838A81882F90E02D853E85820F931F34
:1005D000FC018081882309F068CF2B813C818B85C9
:1005E0009C85FC013183208389816E960FB6F89437
:1005F000DEBF0FBECDBFDF91CF911F910F91FF9056
:10060000EF90DF90CF90BF90AF909F908F907F90B2
:100610006F905F904F903F902F9008952F923F9250
:100620004F925F926F927F928F929F92AF92BF9202
:10063000CF92DF92EF92FF920F931F93CF93DF93AE
:10064000CDB7DEB76E970FB6F894DEBF0FBECDBF45
:100650009C878B877E876D8719821A821B821C82FA
:100660001D821E821F82188619861A868D859E8598
:10067000892B21F08B859C85892B19F481E0898356
:10068000A5C01A828CC02B813C814D815E816F8117
:10069000788589859A85222E332E442E552E662EF6
:1006A000772E882E992E222D332D442D552D662DF3
:1006B000772D882D992D01E00E94F125A22EB32ED1
:1006C000C42ED52EE62EF72E082F192F2A2C3B2CC0
:1006D0004C2C5D2C6E2C7F2C802E912E222D332DB8
:1006E000442D552D662D772D882D992D02E00E94E1
:1006F000F1252F8B388F498F5A8F6B8F7C8F8D8F81
:100700009E8F222D332D442D552D662D772D882D2E
:10071000992DAF88B88CC98CDA8CEB8CFC8C0D8D44
:100720001E8D0E940A26A22EB32EC42ED52EE62E92
:10073000F72E082F192F8A81882F90E02D853E856E
:10074000820F931FFC018081882F90E0C097988BC7
:100750008F87892F880F880B898B8A8B8B8B8C8B4B
:100760008D8B8E8B2A2D3B2D4C2D5D2D6E2D7F2D4F
:10077000802F912FAF84B888C988DA88EB88FC88ED
:100780000D891E890E940A262B833C834D835E833C
:100790006F83788789879A878A818F5F8A838A8126
:1007A000882F90E02D853E85820F931FFC0180816C
:1007B000882309F068CF8B819C81AD81BE812B8518
:1007C0003C85F90180839183A283B38389816E96EE
:1007D0000FB6F894DEBF0FBECDBFDF91CF911F9152
:1007E0000F91FF90EF90DF90CF90BF90AF909F90D0
:1007F0008F907F906F905F904F903F902F900895D3
:100800002F923F924F925F926F927F928F929F9220
:10081000AF92BF92CF92DF92EF92FF920F931F930E
:10082000CF93DF93CDB7DEB76E970FB6F894DEBFE8
:100830000FBECDBF9C878B877E876D8719821A82FA
:100840001B821C821D821E821F82188619861A86B0
:100850008D859E85892B21F08B859C85892B19F4AC
:1008600081E08983B4C01A828CC02B813C814D8188
:100870005E816F81788589859A85222E332E442E5C
:10088000552E662E772E882E992E222D332D442D0F
:10089000552D662D772D882D992D01E00E94F1258B
:1008A000A22EB32EC42ED52EE62EF72E082F192FEA
:1008B0002A2C3B2C4C2C5D2C6E2C7F2C802E912EC8
:1008C000222D332D442D552D662D772D882D992DD4
:1008D00002E00E94F1252F8B388F498F5A8F6B8F42
:1008E0007C8F8D8F9E8F222D332D442D552D662D7F
:1008F000772D882D992DAF88B88CC98CDA8CEB8C2C
:10090000FC8C0D8D1E8D0E940A26A22EB32EC42EA5
:10091000D52EE62EF72E082F192F8A81882F90E0EA
:100920002D853E85820F931FFC018081882F90E0EA
:10093000C097988B8F87892F880F880B898B8A8B1C
:100940008B8B8C8B8D8B8E8B2A2D3B2D4C2D5D2D87
:100950006E2D7F2D802F912FAF84B888C988DA88BB
:10096000EB88FC880D891E890E940A262B833C8314
:100970004D835E836F83788789879A878A818F5FAB
:100980008A838A81882F90E02D853E85820F931F70
:10099000FC018081882309F068CF8B859C852B81A1
:1009A000FC0120832C81FC0121832D81FC01228309
:1009B0002E81FC0123832F81FC0124832885FC01E7
:1009C00025832985FC0126832A85FC0127838981CB
:1009D0006E960FB6F894DEBF0FBECDBFDF91CF91FC
:1009E0001F910F91FF90EF90DF90CF90BF90AF904D
:1009F0009F908F907F906F905F904F903F902F903F
:100A00000895CF93DF9300D0CDB7DEB78A8381E01E
:100A1000898381E490E021E430E0F9012081322FE4
:100A2000307E2A81232B2860FC01208389810F904E
:100A30000F90DF91CF910895CF93DF931F92CDB7A1
:100A4000DEB781E0898381E490E021E430E0F901C0
:100A50002081207E2861FC01208381E490E0FC015C
:100A6000108289810F90DF91CF910895CF93DF930A
:100A700000D01F92CDB7DEB79B838A8319828A810B
:100A80009B81892B19F482E089837CC08EE490E0FD
:100A90002EE430E0F9012081287FFC0120838FE4DF
:100AA00090E02FE430E0F9012081422F4C7F2A8131
:100AB0003B81F9012181242BFC0120838EE490E00D
:100AC0002EE430E0F9012081422F477E2A813B81CC
:100AD000F9012181222F30E0220F331F242BFC014A
:100AE00020838FE490E02FE430E0F9012081422F51
:100AF0004F732A813B81F9012281222F30E00024AB
:100B0000369527950794369527950794322F202DF3
:100B1000242BFC0120838FE490E02FE430E0F901E6
:100B20002081422F4C702A813B81F9012381222FA1
:100B300030E022953295307F3227207F3227242BD8
:100B4000FC0120838A819B81FC01848195819093A3
:100B50000301809302018A819B81FC01848195813C
:100B60000E94FD0689838EE490E02EE430E0F901D6
:100B70002081422F487F2A813B81F9012081242B4B
:100B8000FC01208389810F900F900F90DF91CF910E
:100B90000895CF93DF9300D01F92CDB7DEB79B832C
:100BA0008A8319828A819B81892B19F482E0898347
:100BB00009C08EE490E02EE430E0F9012081287F26
:100BC000FC01208389810F900F900F90DF91CF91CE
:100BD0000895CF93DF931F92CDB7DEB7198289E5D1
:100BE00090E029E530E0F90120812460FC012083B8
:100BF00089810F90DF91CF910895CF93DF931F925A
:100C0000CDB7DEB7198289E590E029E530E0F9013A
:100C100020812B7FFC01208389810F90DF91CF9170
:100C20000895CF93DF931F92CDB7DEB7198289E580
:100C300090E029E530E0F90120812860FC01208363
:100C400089810F90DF91CF910895CF93DF931F9209
:100C5000CDB7DEB7198289E590E029E530E0F901EA
:100C60002081277FFC01208389810F90DF91CF9124
:100C70000895CF93DF931F92CDB7DEB7198289E530
:100C800090E029E530E0F90120812061FC0120831A
:100C900089810F90DF91CF910895CF93DF931F92B9
:100CA000CDB7DEB7198289E590E029E530E0F9019A
:100CB00020812F7EFC01208389810F90DF91CF91CD
:100CC0000895CF93DF931F92CDB7DEB7198289E5E0
:100CD00090E029E530E0F90120812062FC012083C9
:100CE00089810F90DF91CF910895CF93DF931F9269
:100CF000CDB7DEB7198289E590E029E530E0F9014A
:100D000020812F7DFC01208389810F90DF91CF917D
:100D10000895CF93DF9300D01F92CDB7DEB79B83AA
:100D20008A8319828A819B81892B19F482E08983C5
:100D300006C08A819B819093FB008093FA00898191
:100D40000F900F900F90DF91CF910895CF93DF9385
:100D500000D01F92CDB7DEB79B838A8319828A8128
:100D60009B81892B19F482E0898306C08A819B814B
:100D70009093FD008093FC0089810F900F900F905D
:100D8000DF91CF910895CF93DF9300D01F92CDB71D
:100D9000DEB79B838A8319828A819B81892B19F410
:100DA00082E0898306C08A819B819093FF008093B3
:100DB000FE0089810F900F900F90DF91CF910895E1
:100DC000CF93DF9300D01F92CDB7DEB79B838A838A
:100DD00019828A819B81892B19F482E0898306C05C
:100DE0008A819B81909301018093000189810F90FA
:100DF0000F900F90DF91CF910895CF93DF9300D0A4
:100E00001F92CDB7DEB79B838A8319828DE490E071
:100E10002A813B81232F3327FC0120838CE490E03F
:100E20002A812F70FC01208389810F900F900F90F1
:100E3000DF91CF910895CF93DF9300D01F92CDB76C
:100E4000DEB79B838A8319828BE490E02A813B8101
:100E5000232F3327FC0120838AE490E02A812F701E
:100E6000FC01208389810F900F900F90DF91CF912B
:100E70000895CF93DF9300D01F92CDB7DEB79B8349
:100E80008A83198289E490E02A813B81232F3327CA
:100E9000FC01208388E490E02A812F70FC012083EC
:100EA00089810F900F900F90DF91CF910895CF938C
:100EB000DF9300D01F92CDB7DEB79B838A83198260
:100EC00087E490E02A813B81232F3327FC01208394
:100ED00086E490E02A812F70FC01208389810F90A5
:100EE0000F900F90DF91CF910895CF93DF9300D0B3
:100EF0001F92CDB7DEB79B838A8319828A819B813B
:100F0000892B19F482E089831FC08CE490E0FC01F6
:100F10008081282F30E08A819B81FC0131832083EE
:100F20008DE490E0FC018081882F90E0382F22270B
:100F30008A819B81FC0180819181282B392B8A81B8
:100F40009B81FC013183208389810F900F900F904A
:100F5000DF91CF910895CF93DF9300D01F92CDB74B
:100F6000DEB79B838A8319828A819B81892B19F43E
:100F700082E089831FC08AE490E0FC018081282FF1
:100F800030E08A819B81FC01318320838BE490E0F7
:100F9000FC018081882F90E0382F22278A819B8155
:100FA000FC0180819181282B392B8A819B81FC0156
:100FB0003183208389810F900F900F90DF91CF9123
:100FC0000895CF93DF9300D01F92CDB7DEB79B83F8
:100FD0008A8319828A819B81892B19F482E0898313
:100FE0001FC088E490E0FC018081282F30E08A81D6
:100FF0009B81FC013183208389E490E0FC018081A6
:10100000882F90E0382F22278A819B81FC018081E4
:101010009181282B392B8A819B81FC01318320838C
:1010200089810F900F900F90DF91CF910895CF930A
:10103000DF9300D01F92CDB7DEB79B838A831982DE
:101040008A819B81892B19F482E089831FC086E401
:1010500090E0FC018081282F30E08A819B81FC0197
:101060003183208387E490E0FC018081882F90E029
:10107000382F22278A819B81FC0180819181282B36
:10108000392B8A819B81FC013183208389810F90D8
:101090000F900F90DF91CF910895CF93DF931F9220
:1010A000CDB7DEB719828FE490E02FE430E0F9018C
:1010B00020812860FC01208389810F90DF91CF91EE
:1010C0000895CF93DF931F92CDB7DEB719828FE4D7
:1010D00090E02FE430E0F90120812460FC012083BE
:1010E00089810F90DF91CF910895CF93DF931F9265
:1010F000CDB7DEB719828EE490E02EE430E0F9013E
:1011000020812064FC01208389810F90DF91CF91A1
:101110000895CF93DF931F92CDB7DEB719828EE487
:1011200090E02EE430E0F90120812F7BFC01208348
:1011300089810F90DF91CF910895CF93DF931F9214
:10114000CDB7DEB719828EE490E02EE430E0F901ED
:10115000308120E42327FC01208389810F90DF91D7
:10116000CF9108951F920F9200905F000F9211246B
:101170002F933F934F935F936F937F938F939F939F
:10118000AF93BF93EF93FF93CF93DF93CDB7DEB7CA
:101190008091FA009091FB00892B61F0809102010F
:1011A000909103010E94FD068091FA009091FB004E
:1011B000FC0109950000DF91CF91FF91EF91BF9164
:1011C000AF919F918F917F916F915F914F913F91DF
:1011D0002F910F9000925F000F901F9018951F9213
:1011E0000F9200905F000F9211242F933F934F9323
:1011F0005F936F937F938F939F93AF93BF93EF937F
:10120000FF93CF93DF93CDB7DEB780E10E94341216
:101210008091000190910101892B31F080910001B2
:1012200090910101FC0109950000DF91CF91FF91A0
:10123000EF91BF91AF919F918F917F916F915F914E
:101240004F913F912F910F9000925F000F901F9050
:101250001895CF93DF9300D01F92CDB7DEB79B8355
:101260008A8381E089838A819B81892B19F482E0BA
:10127000898397C083E590E023E530E0F901208180
:10128000287FFC01208383E590E023E530E0F9012D
:101290002081422F4F7B2A813B81F9012181222F1E
:1012A00030E0217033270024369527950794369532
:1012B00027950794322F202D242BFC01208383E5D2
:1012C00090E023E530E0F9012081422F477F2A8119
:1012D0003B81F90121812695222F30E021703327AF
:1012E000220F331F220F331F220F331F242BFC0129
:1012F000208383E590E023E530E0F9012081422F4F
:101300004F7E2A813B81F901218126952695222F46
:1013100030E02170332722953295307F3227207FAD
:101320003227242BFC01208383E590E023E530E085
:10133000F9012081422F4F7D2A813B81F9012181D2
:10134000269526952695222F30E021703327220FEF
:10135000331F22953295307F3227207F3227242B6E
:10136000FC0120838A819B81FC018281809308019A
:101370008A819B81FC0122818A819B81622F0E944C
:101380005B0A898383E590E023E530E0F901208161
:10139000422F487F2A813B81F9012081242BFC01C7
:1013A000208389810F900F900F90DF91CF91089546
:1013B000CF93DF9300D01F92CDB7DEB79B838A8394
:1013C00081E089838A819B81892B19F482E089835A
:1013D00009C083E590E023E530E0F9012081287F12
:1013E000FC01208389810F900F900F90DF91CF91A6
:1013F0000895CF93DF9300D01F92CDB7DEB79B83C4
:101400008A8381E089838A819B81892B19F482E018
:10141000898319C08A819B81FC018181882351F4D1
:1014200089E590E029E530E0F90120812160FC01A7
:10143000208309C089E590E029E530E0F9012081A9
:101440002260FC01208389810F900F900F90DF9123
:10145000CF910895CF93DF9300D01F92CDB7DEB721
:101460009B838A8381E089838A819B81892B19F4FC
:1014700082E0898319C08A819B81FC018181882354
:1014800051F489E590E029E530E0F90120812E7FD3
:10149000FC01208309C089E590E029E530E0F901ED
:1014A00020812D7FFC01208389810F900F900F9068
:1014B000DF91CF910895CF93DF9300D000D0CDB7C7
:1014C000DEB79B838A836C8381E089838A819B81D9
:1014D000892B19F482E0898311C08A819B81FC01E8
:1014E0008181882331F482E590E02C81FC01208306
:1014F00005C08CE590E02C81FC01208389810F9050
:101500000F900F900F90DF91CF910895CF93DF93BD
:1015100000D000D01F92CDB7DEB79B838A837D8336
:101520006C8381E089838A819B81892B19F482E015
:1015300089830BC082E590E0FC018081282F30E098
:101540008C819D81FC013183208389810F900F90D4
:101550000F900F900F90DF91CF910895CF93DF936D
:1015600000D000D01F92CDB7DEB79B838A837D83E6
:101570006C8381E089838A819B81892B11F482E0CD
:10158000898389810F900F900F900F900F90DF91BA
:10159000CF910895CF93DF9300D000D01F92CDB7A5
:1015A000DEB79B838A837D836C8381E089838A8114
:1015B0009B81892B19F482E0898313C08A819B81E6
:1015C000FC018181882339F48C819D8190930501F0
:1015D0008093040106C08C819D81909307018093C4
:1015E000060189810F900F900F900F900F90DF915F
:1015F000CF910895CF93DF931F92CDB7DEB781E0EF
:10160000898389E590E029E530E0F90120812160B6
:10161000FC0120838981882F90E00F90DF91CF918A
:101620000895CF93DF931F92CDB7DEB781E0898312
:1016300089E590E029E530E0F90120812260FC0194
:1016400020838981882F90E00F90DF91CF910895BA
:10165000CF93DF9300D01F92CDB7DEB79B838A83F1
:1016600081E089838A819B81892B19F482E08983B7
:1016700006C08A819B819093050180930401898132
:10168000882F90E00F900F900F90DF91CF910895E9
:10169000CF93DF9300D01F92CDB7DEB79B838A83B1
:1016A00081E089838A819B81892B19F482E0898377
:1016B00006C08A819B8190930701809306018981EE
:1016C000882F90E00F900F900F90DF91CF910895A9
:1016D000CF93DF931F92CDB7DEB781E0898389E591
:1016E00090E029E530E0F90120812E7FFC01208384
:1016F0008981882F90E00F90DF91CF910895CF934B
:10170000DF931F92CDB7DEB781E0898389E590E052
:1017100029E530E0F90120812D7FFC0120838981BA
:10172000882F90E00F90DF91CF910895CF93DF93B2
:1017300000D01F92CDB7DEB79B838A8381E0898377
:101740008A819B81892B19F482E0898309C083E512
:1017500090E023E530E0F90120812068FC0120833E
:1017600089810F900F900F90DF91CF910895CF93C3
:10177000DF9300D000D01F92CDB7DEB79C838B8360
:101780006D8381E089838B819C81892B19F482E0B0
:10179000898379C08D81853608F084E68D838B81BD
:1017A0009C81FC018181882F90E0092E000CAA0BFE
:1017B000BB0B40E050E02FE030E0841B950B281776
:1017C000390708F460C0865D9F4FFC010C94922598
:1017D000198259C08D81882F90E0A0E0B0E0BC0153
:1017E000CD010E948D27DC01CB0120E030E048ECE8
:1017F00052E4BC01CD010E94A926DC01CB0120E00E
:1018000030E04FE753E4BC01CD010E949228DC0197
:10181000CB01BC01CD010E945E27DC01CB0180958C
:101820008A838CE590E02A81FC0120832CC08D8185
:10183000882F90E0A0E0B0E0BC01CD010E948D2790
:10184000DC01CB0120E030E048EC52E4BC01CD01EA
:101850000E94A926DC01CB0120E030E04FE753E4F1
:10186000BC01CD010E949228DC01CB01BC01CD015D
:101870000E945E27DC01CB018A838CE590E02A81FF
:10188000FC012083000089810F900F900F900F9032
:101890000F90DF91CF9108951F920F9200905F00FB
:1018A0000F9211242F933F934F935F936F937F93E6
:1018B0008F939F93AF93BF93EF93FF93CF93DF9358
:1018C000CDB7DEB78091060190910701892B31F0E9
:1018D0008091060190910701FC0109950000DF91BC
:1018E000CF91FF91EF91BF91AF919F918F917F9198
:1018F0006F915F914F913F912F910F9000925F00F8
:101900000F901F9018951F920F9200905F000F92FA
:1019100011242F933F934F935F936F937F938F93F4
:101920009F93AF93BF93EF93FF93CF93DF93CDB785
:10193000DEB78091040190910501892B61F082E569
:1019400090E020910801FC01208380910401909196
:101950000501FC0109950000DF91CF91FF91EF9106
:10196000BF91AF919F918F917F916F915F914F91B7
:101970003F912F910F9000925F000F901F9018954C
:10198000CF93DF93CDB7DEB78AE390E02CE4FC0180
:10199000208387E390E027EFFC01208384E390E03D
:1019A0002FEFFC01208381E390E020E1FC01208304
:1019B0008BE390E0FC01108288E390E028ECFC01CE
:1019C000208385E390E0FC01108282E390E028EA26
:1019D000FC0120830000DF91CF910895CF93DF9326
:1019E00000D000D01F92CDB7DEB78C836D831982F3
:1019F0008C8187708A838C818695869586958B836A
:101A00008C81803218F082E0898359C08D818230C8
:101A100018F081E0898353C08D81882F90E0009772
:101A200041F1019709F04BC08B81882F90E0880F1E
:101A3000991F805A9F4FFC01808191812B81222F19
:101A400030E0220F331F205A3F4FF90120813181AE
:101A5000F9012081622F2A81422F50E021E030E0FD
:101A600002C0220F331F4A95E2F7262BFC01208388
:101A700026C08B81882F90E0880F991F805A9F4F36
:101A8000FC01808191812B81222F30E0220F331FB6
:101A9000205A3F4FF90120813181F9012081622FC5
:101AA0002A81422F50E021E030E002C0220F331F94
:101AB0004A95E2F720952623FC01208300008981C6
:101AC0000F900F900F900F900F90DF91CF9108958E
:101AD000CF93DF9300D000D01F92CDB7DEB78C83B9
:101AE0006D8319828C8187708A838C818695869517
:101AF00086958B838C81803218F082E0898343C184
:101B00008D81843018F081E089833DC18D81882FDB
:101B100090E08130910509F457C0823091051CF4A2
:101B2000892B49F030C18230910509F497C00397A1
:101B300009F4DFC028C18B81882F90E0880F991F9E
:101B4000805A9F4FFC01808191812B81222F30E0B0
:101B5000220F331F205A3F4FF90120813181F901B3
:101B60002081622F2A81422F50E021E030E002C024
:101B7000220F331F4A95E2F7262BFC0120838B812D
:101B8000882F90E0880F991F88599F4FFC01808112
:101B900091812B81222F30E0220F331F28593F4F94
:101BA000F90120813181F9012081622F2A81422FA0
:101BB00050E021E030E002C0220F331F4A95E2F7E7
:101BC000262BFC012083DFC08B81882F90E0880FBB
:101BD000991F805A9F4FFC01808191812B81222F78
:101BE00030E0220F331F205A3F4FF901208131810D
:101BF000F9012081622F2A81422F50E021E030E05C
:101C000002C0220F331F4A95E2F7262BFC012083E6
:101C10008B81882F90E0880F991F88599F4FFC0176
:101C2000808191812B81222F30E0220F331F285990
:101C30003F4FF90120813181F9012081622F2A81F2
:101C4000422F50E021E030E002C0220F331F4A95BE
:101C5000E2F720952623FC01208395C08B81882FF5
:101C600090E0880F991F805A9F4FFC0180819181DD
:101C70002B81222F30E0220F331F205A3F4FF901D2
:101C800020813181F9012081622F2A81422F50E089
:101C900021E030E002C0220F331F4A95E2F7209581
:101CA0002623FC0120838B81882F90E0880F991FC9
:101CB00088599F4FFC01808191812B81222F30E038
:101CC000220F331F28593F4FF90120813181F9013B
:101CD0002081622F2A81422F50E021E030E002C0B3
:101CE000220F331F4A95E2F720952623FC0120831B
:101CF0004AC08B81882F90E0880F991F805A9F4F90
:101D0000FC01808191812B81222F30E0220F331F33
:101D1000205A3F4FF90120813181F9012081622F42
:101D20002A81422F50E021E030E002C0220F331F11
:101D30004A95E2F720952623FC0120838B81882F8A
:101D400090E0880F991F88599F4FFC0180819181F5
:101D50002B81222F30E0220F331F28593F4FF901EA
:101D600020813181F9012081622F2A81422F50E0A8
:101D700021E030E002C0220F331F4A95E2F7262B04
:101D8000FC012083000089810F900F900F900F902D
:101D90000F90DF91CF910895CF93DF931F92CDB72E
:101DA000DEB719828FE590E02FE530E0F901208160
:101DB0002068FC01208389810F90DF91CF910895E5
:101DC000CF93DF931F92CDB7DEB719828FE590E0F6
:101DD0002FE530E0F90120812F77FC0120838981F4
:101DE0000F90DF91CF910895CF93DF9300D0CDB7BF
:101DF000DEB78A8319828FE590E02FE530E0F901A4
:101E00002081422F4F772A81222F30E03695322FC2
:101E1000222737952795242BFC01208389810F9059
:101E20000F90DF91CF910895CF93DF9300D000D032
:101E3000CDB7DEB78A837C836B8319828B819C81CB
:101E4000892B19F482E089830CC08FE590E0FC01B6
:101E50008081282F221F2227221F8B819C81FC0139
:101E6000208389810F900F900F900F90DF91CF9179
:101E70000895CF93DF9300D01F92CDB7DEB78A834A
:101E80006B8381E089838A81833018F083E08983C2
:101E90008FC08A81882F90E08130910589F182304E
:101EA000910509F462C0892B09F082C085E590E0B4
:101EB00025E530E0F9012081322F3E7F2B81217012
:101EC000232BFC01208385E590E025E530E0F90136
:101ED0002081422F4D7F2B812695222F30E02170CB
:101EE0003327220F331F242BFC0120838BE590E046
:101EF0002BE530E0F90120812064FC01208358C0EB
:101F000085E590E025E530E0F9012081422F4B7F07
:101F10002B81222F30E021703327220F331F220F15
:101F2000331F242BFC01208385E590E025E530E07C
:101F3000F9012081422F477F2B812695222F30E007
:101F400021703327220F331F220F331F220F331F1D
:101F5000242BFC0120838BE590E02BE530E0F90198
:101F600020812068FC01208323C084E590E024E5E3
:101F700030E0F9012081422F4F7B2B81222F30E06E
:101F80002170332700243695279507943695279599
:101F90000794322F202D242BFC0120838BE590E029
:101FA0002BE530E0F90120812062FC012083000054
:101FB00089810F900F900F90DF91CF910895CF936B
:101FC000DF9300D0CDB7DEB78A8381E089838A8131
:101FD000833018F083E089832AC08A81882F90E0BB
:101FE0008130910581F082309105B9F0892B09F09B
:101FF0001EC08BE590E02BE530E0F90120812F7BBE
:10200000FC01208314C08BE590E02BE530E0F90162
:1020100020812F77FC0120830AC08BE590E02BE51F
:1020200030E0F90120812F7DFC01208300008981AF
:102030000F900F90DF91CF910895CF93DF9300D051
:1020400000D0CDB7DEB78A837C836B8381E0898340
:102050008A81833018F083E0898313C08B819C814F
:10206000892B19F482E089830CC08A81882F90E043
:10207000880F991F875F9E4F2B813C81FC01318324
:10208000208389810F900F900F900F90DF91CF9157
:1020900008951F920F9200905F000F9211242F93CA
:1020A0003F934F935F936F937F938F939F93AF93E0
:1020B000BF93EF93FF93CF93DF93CDB7DEB78091BC
:1020C000090190910A01892B31F0809109019091C9
:1020D0000A01FC0109950000DF91CF91FF91EF917A
:1020E000BF91AF919F918F917F916F915F914F9130
:1020F0003F912F910F9000925F000F901F901895C5
:102100001F920F9200905F000F9211242F933F9324
:102110004F935F936F937F938F939F93AF93BF93EF
:10212000EF93FF93CF93DF93CDB7DEB780910B0191
:1021300090910C01892B31F080910B0190910C0151
:10214000FC0109950000DF91CF91FF91EF91BF91C4
:10215000AF919F918F917F916F915F914F913F913F
:102160002F910F9000925F000F901F9018951F9273
:102170000F9200905F000F9211242F933F934F9383
:102180005F936F937F938F939F93AF93BF93EF93DF
:10219000FF93CF93DF93CDB7DEB780910D01909180
:1021A0000E01892B31F080910D0190910E01FC01FF
:1021B00009950000DF91CF91FF91EF91BF91AF9111
:1021C0009F918F917F916F915F914F913F912F914F
:1021D0000F9000925F000F901F901895CF93DF93A0
:1021E00000D000D01F92CDB7DEB78C836D831982EB
:1021F0008C8187708A838C818695869586958B8362
:102200008C81803218F082E089834EC08B81882FC8
:1022100090E0880F991F80599F4FFC018081918128
:10222000FC018081882F90E02A81222F30E002C0BB
:10223000959587952A95E2F781709927892B19F44E
:1022400081E0898331C08B81882F90E0880F991FAE
:1022500088589F4FFC01808191812B81222F30E093
:10226000220F331F28583F4FF90120813181F90196
:102270002081622F2A81422F50E021E030E002C00D
:10228000220F331F4A95E2F7209562232D81222FDA
:1022900030E04A81442F50E002C0220F331F4A959C
:1022A000E2F7262BFC01208389810F900F900F907D
:1022B0000F900F90DF91CF910895CF93DF9300D0CF
:1022C00000D000D0CDB7DEB78C837E836D831982BA
:1022D0008C8187708A838C818695869586958B8381
:1022E0008C81803218F082E0898340C08B81882FF6
:1022F00090E0880F991F80599F4FFC018081918148
:10230000FC018081882F90E02A81222F30E002C0DA
:10231000959587952A95E2F781709927892B19F071
:1023200081E0898323C08D819E81892B19F484E00B
:1023300089831CC08B81882F90E0880F991F80585B
:102340009F4FFC0180819181FC018081882F90E06A
:102350002A81222F30E002C0959587952A95E2F7D1
:10236000282F21708D819E81FC01208389812696F2
:102370000FB6F894DEBF0FBECDBFDF91CF910895A9
:10238000CF93DF9300D01F92CDB7DEB78A836B83E4
:1023900019828A81843018F083E089831EC08A8183
:1023A000882F90E0880F991F80599F4FFC018081F2
:1023B0009181FC0180818F3F19F081E089830DC0FC
:1023C0008A81882F90E0880F991F88589F4FFC01C1
:1023D000808191812B81FC01208389810F900F9056
:1023E0000F90DF91CF910895CF93DF9300D000D06D
:1023F000CDB7DEB78A837C836B8319828A81843070
:1024000018F083E0898328C08A81882F90E0880FA4
:10241000991F80599F4FFC0180819181FC0180812F
:10242000882319F081E0898317C08B819C81892BD7
:1024300019F484E0898310C08A81882F90E0880F86
:10244000991F80589F4FFC0180819181FC01208160
:102450008B819C81FC01208389810F900F900F90CC
:102460000F90DF91CF910895CF93DF9300D000D0EC
:10247000CDB7DEB78C8319828C8187708A838C817B
:102480008695869586958B838C81803218F082E0C4
:10249000898341C08B81882F90E0880F991F8059D4
:1024A0009F4FFC0180819181FC018081882F90E009
:1024B0002A81222F30E002C0959587952A95E2F770
:1024C00081709927892B19F481E0898324C08B813D
:1024D000882F90E0880F991F88589F4FFC018081BA
:1024E00091812B81222F30E0220F331F28583F4F3C
:1024F000F90120813181F9012081622F2A81422F47
:1025000050E021E030E002C0220F331F4A95E2F78D
:102510002627FC01208389810F900F900F900F9048
:10252000DF91CF910895CF93DF9300D01F92CDB765
:10253000DEB79B838A8381E089838A819B81892B93
:1025400019F482E0898365C086E290E026E230E0FB
:10255000F90120812F77FC01208386E290E026E2BA
:1025600030E0F9012081422F40772A813B81F90137
:1025700023812770242BFC01208387E290E027E24F
:1025800030E0F9012081422F487F2A813B81F90107
:1025900020812770242BFC01208387E290E027E232
:1025A00030E0F9012081422F4F7D2A813B81F901E2
:1025B0002281222F30E0220F331F22953295307F67
:1025C0003227207F3227242BFC01208387E290E0F2
:1025D00027E230E0F9012081422F4F732A813B81AD
:1025E000F9012181222F30E00024369527950794A8
:1025F000369527950794322F202D242BFC0120831C
:1026000086E290E026E230E0F90120812068FC01BA
:10261000208389810F900F900F90DF91CF910895C3
:10262000CF93DF931F92CDB7DEB781E0898386E237
:1026300090E026E230E0F90120812F77FC01208331
:1026400089810F90DF91CF910895CF93DF93CDB71C
:10265000DEB7A6970FB6F894DEBF0FBECDBF9CA322
:102660008BA37EA36DA381E089831A828BA19CA199
:10267000892B21F08DA19EA1892B19F482E08983F9
:1026800054C186E290E0FC0180818695869586950E
:1026900081708A8387E290E027E230E0F9012081AF
:1026A000422F487F2BA13CA1F90120812770242BC8
:1026B000FC01208386E290E026E230E0F9012081EF
:1026C000277FFC01208386E290E026E230E0F901DA
:1026D00020812064FC012083000086E290E0FC0160
:1026E00080818295869586958370882F90E0817091
:1026F0009927892B91F780E090E0A0E2B1E48B83E9
:102700009C83AD83BE832BEA3AEA4AEA50E46B81AC
:102710007C818D819E810E949228DC01CB018F8378
:102720009887A987BA8720E030E040E850E46B81C1
:102730007C818D819E810E949228DC01CB018B8758
:102740009C87AD87BE8720E030E040E85FE36F8183
:10275000788589859A850E94A42688231CF481E0C7
:102760008F87B2C020E03FEF4FE757E46B857C8551
:102770008D859E850E948D2818160CF07BC020E068
:1027800030E04AE754E46B817C818D819E810E9418
:10279000A926DC01CB01888B998BAA8BBB8B20E00F
:1027A00030E04AE755E4688979898A899B890E94E3
:1027B0009228DC01CB018C8B9D8BAE8BBF8B20E0F4
:1027C00030E040E85FE36C897D898E899F890E94B3
:1027D000A42688232CF481E090E0998F888F3FC055
:1027E00020E03FEF4FE757E46C897D898E899F8910
:1027F0000E948D2818164CF520E030E040E251E4AC
:10280000688979898A899B890E949228DC01CB0199
:10281000BC01CD010E945E27DC01CB01998F888F1E
:102820000FC080E991E09B8F8A8F8A8D9B8D0197E5
:10283000F1F79B8F8A8F888D998D0197998F888F5B
:10284000888D998D892B69F73FC06C897D898E8928
:102850009F890E945E27DC01CB01998F888F888D2C
:10286000998D9D8F8C8F8C8D9D8D0197F1F79D8F0C
:102870008C8F2AC020E030E04FE753E46F817885E9
:1028800089859A850E948D281816ACF46B857C8505
:102890008D859E850E945E27DC01CB019F8F8E8FE8
:1028A0008E8D9F8D99A388A388A199A10197F1F797
:1028B00099A388A30FC06F81788589859A850E9426
:1028C0005E27DC01CB018F878F858AA38AA18A9539
:1028D000F1F78AA38BA19CA1FC0122818DA19EA16D
:1028E000BC01822F0E944E15982F898189238983EC
:1028F00086E290E026E230E0F90120812061FC01CF
:10290000208386E290E026E230E0F9012081422F28
:10291000477F2A81222F30E0220F331F220F331FDF
:10292000220F331F242BFC0120838981A6960FB62A
:10293000F894DEBF0FBECDBFDF91CF910895CF9346
:10294000DF9300D000D01F92CDB7DEB79B838A8380
:102950007D836C8381E089838C819D81892B19F42F
:1029600082E089831CC08A819B81CC01A0E0B0E019
:10297000BC01CD010E948D27DC01CB0123E931E0B0
:1029800040EA5BE3BC01CD010E949228DC01CB014F
:102990002C813D81F90180839183A283B383898156
:1029A0000F900F900F900F900F90DF91CF9108959F
:1029B000CF93DF9300D01F92CDB7DEB79B838A837E
:1029C00081E089838A819B81892B19F482E0898344
:1029D00034C0000086E290E0FC01808182958695FB
:1029E00086958370882F90E081709927892B91F7C5
:1029F0008A819B81FC018081809320018A819B8157
:102A0000FC01828180931F0187E290E027E230E0A1
:102A1000F9012081422F487F2A813B81F9012081E1
:102A20002770242BFC01208386E290E026E230E030
:102A3000F90120812064FC01208389810F900F908F
:102A40000F90DF91CF910895CF93DF931F92CDB771
:102A5000DEB781E0898386E290E026E230E0F9018A
:102A600020812860FC01208389810F90DF91CF9124
:102A70000895CF93DF931F92CDB7DEB781E08983AE
:102A800086E290E026E230E0F9012081277FFC0118
:102A9000208389810F90DF91CF910895CF93DF93A9
:102AA00000D000D0CDB7DEB78A837C836B8381E012
:102AB00089838B819C81892B19F482E0898330C0C2
:102AC0008A81882F90E0892BB9F484E290E0FC01A0
:102AD0008081282F30E085E290E0FC018081882F02
:102AE00090E0982F8827822B932B9C018B819C81CF
:102AF000FC013183208314C084E290E0FC018081DA
:102B000091819C010024220F331F001C220F331FD0
:102B1000001C232F302D8B819C81FC01318320836D
:102B200089810F900F900F900F90DF91CF910895B2
:102B3000CF93DF9300D000D01F92CDB7DEB79B8339
:102B40008A837D836C8381E089838A819B81892B41
:102B500019F482E089830FC08A819B81FC01808106
:102B6000882F90E0880F991F815F9E4F2C813D81B7
:102B7000FC013183208389810F900F900F900F907B
:102B80000F90DF91CF9108951F920F9200905F00F8
:102B90000F9211242F933F934F935F936F937F93E3
:102BA0008F939F93AF93BF93EF93FF93CF93DF9355
:102BB00000D01F92CDB7DEB781E0898320911F013D
:102BC000CE010296BC01822F0E944E15898380910E
:102BD0002001882F90E0880F991F815F9E4FFC0194
:102BE00080819181892B79F080912001882F90E05C
:102BF000880F991F815F9E4FFC01208131818A815E
:102C00009B81F901099500000F900F900F90DF91C3
:102C1000CF91FF91EF91BF91AF919F918F917F9154
:102C20006F915F914F913F912F910F9000925F00B4
:102C30000F901F901895CF93DF93CDB7DEB72797EE
:102C40000FB6F894DEBF0FBECDBF9E838D836F831A
:102C500019821B821C821A828D819E81892B19F414
:102C600082E0898322C01A821DC08F81882F90E064
:102C70002A81222F30E002C0959587952A95E2F7A8
:102C800081708C838A81882F90E02D813E81820F14
:102C9000931FFC0180816C810E94EE108B838A81DE
:102CA0008F5F8A838A81843000F3898127960FB6EB
:102CB000F894DEBF0FBECDBFDF91CF910895CF93C3
:102CC000DF93CDB7DEB7EF970FB6F894DEBF0FBE38
:102CD000CDBF9FAF8EAF19828EAD9FAD892B19F4FA
:102CE00082E089830FC28EAD9FAD68E30E948C188D
:102CF000898380E090E0A0EAB0E48A839B83AC8380
:102D0000BD8320E030E04AE755E46A817B818C8115
:102D10009D810E949228DC01CB018CAB9DABAEABB8
:102D2000BFAB20E030E040E85FE36CA97DA98EA94D
:102D30009FA90E94A42688232CF481E090E099AFFB
:102D400088AF3FC020E03FEF4FE757E46CA97DA973
:102D50008EA99FA90E948D2818164CF520E030E01E
:102D600040E251E46A817B818C819D810E9492289E
:102D7000DC01CB01BC01CD010E945E27DC01CB014F
:102D800099AF88AF0FC080E991E09BAF8AAF8AAD61
:102D90009BAD0197F1F79BAF8AAF88AD99AD0197D5
:102DA00099AF88AF88AD99AD892B69F714C06CA92C
:102DB0007DA98EA99FA90E945E27DC01CB0199AF56
:102DC00088AF88AD99AD9DAF8CAF8CAD9DAD0197AF
:102DD000F1F79DAF8CAF8EAD9FAD68E30E948C186C
:102DE000898380E090E0A6E1B3E48E839F83A88787
:102DF000B9872BEA3AEA4AEA50E46E817F818885F6
:102E000099850E949228DC01CB01888F998FAA8F27
:102E1000BB8F20E030E040E850E46E817F81888500
:102E200099850E949228DC01CB018C8F9D8FAE8FFB
:102E3000BF8F20E030E040E85FE3688D798D8A8DB8
:102E40009B8D0E94A42688231CF481E088A3B2C035
:102E500020E03FEF4FE757E46C8D7D8D8E8D9F8D89
:102E60000E948D2818160CF07BC020E030E04AE765
:102E700054E46E817F81888599850E94A926DC01B2
:102E8000CB0189A39AA3ABA3BCA320E030E04AE71F
:102E900055E469A17AA18BA19CA10E949228DC0132
:102EA000CB018DA39EA3AFA3B8A720E030E040E8FC
:102EB0005FE36DA17EA18FA198A50E94A42688231F
:102EC0002CF481E090E09AA789A73FC020E03FEF73
:102ED0004FE757E46DA17EA18FA198A50E948D2890
:102EE00018164CF520E030E040E251E469A17AA1E7
:102EF0008BA19CA10E949228DC01CB01BC01CD01D9
:102F00000E945E27DC01CB019AA789A70FC080E948
:102F100091E09CA78BA78BA59CA50197F1F79CA797
:102F20008BA789A59AA501979AA789A789A59AA58C
:102F3000892B69F73FC06DA17EA18FA198A50E9442
:102F40005E27DC01CB019AA789A789A59AA59EA730
:102F50008DA78DA59EA50197F1F79EA78DA72AC0E5
:102F600020E030E04FE753E4688D798D8A8D9B8DAA
:102F70000E948D281816ACF46C8D7D8D8E8D9F8DE2
:102F80000E945E27DC01CB0198AB8FA78FA598A983
:102F90009AAB89AB89A99AA90197F1F79AAB89AB4A
:102FA0000FC0688D798D8A8D9B8D0E945E27DC0114
:102FB000CB0188A388A18BAB8BA98A95F1F78BAB4A
:102FC0008EAD9FAD68E30E948C1889838EAD9FAD56
:102FD00061E00E948C1889838EAD9FAD62E00E94F3
:102FE0008C1889838EAD9FAD66E00E948C18898312
:102FF0008EAD9FAD6CE00E948C1889838EAD9FAD25
:1030000068E20E948C1889838EAD9FAD60E80E94B3
:103010008C1889838EAD9FAD61E00E948C188983E6
:1030200080E090E0A0EAB0E48A879B87AC87BD8708
:1030300020E030E04AE755E46A857B858C859D85F4
:103040000E949228DC01CB018E879F87A88BB98BC9
:1030500020E030E040E85FE36E857F8588899989CC
:103060000E94A42688232CF481E090E09B8B8A8B1D
:103070003FC020E03FEF4FE757E46E857F858889AA
:1030800099890E948D2818164CF520E030E040E226
:1030900051E46A857B858C859D850E949228DC01A0
:1030A000CB01BC01CD010E945E27DC01CB019B8BD3
:1030B0008A8B0FC080E991E09D8B8C8B8C899D89D8
:1030C0000197F1F79D8B8C8B8A899B8901979B8B4C
:1030D0008A8B8A899B89892B69F714C06E857F85C5
:1030E000888999890E945E27DC01CB019B8B8A8BA2
:1030F0008A899B899F8B8E8B8E899F890197F1F797
:103100009F8B8E8B8981EF960FB6F894DEBF0FBE32
:10311000CDBFDF91CF910895CF93DF9300D000D042
:103120001F92CDB7DEB79C838B836D8319821A8281
:103130008B819C81892B19F482E0898322C08B8149
:103140009C81FC01848160E00E94EE108A838D8165
:10315000282F22952F708B819C81622F0E94AB1BA0
:1031600089838B819C810E94E91B89838B819C814F
:103170006D810E94AB1B89838B819C810E94E91B1E
:10318000898389810F900F900F900F900F90DF919E
:10319000CF910895CF93DF9300D000D0CDB7DEB7A5
:1031A0009B838A836C8319828A819B81892B19F482
:1031B00082E0898322C08A819B81FC01848161E055
:1031C0000E94EE1089838C81282F22952F708A818E
:1031D0009B81622F0E94AB1B89838A819B810E9405
:1031E000E91B89838A819B816C810E94AB1B898347
:1031F0008A819B810E94E91B898389810F900F90AE
:103200000F900F90DF91CF910895CF93DF9300D06F
:1032100000D000D0CDB7DEB79B838A836C834D830B
:103220002E8319828A819B81892B19F482E08983FC
:1032300029C08A819B814E816D810E94EE1989830C
:103240008A819B81FC01848161E00E94EE10898368
:103250008C81282F22952F708A819B81622F0E945A
:10326000AB1B89838A819B810E94E91B89838A81A8
:103270009B816C810E94AB1B89838A819B810E9408
:10328000E91B8983898126960FB6F894DEBF0FBEAD
:10329000CDBFDF91CF910895CF93DF93CDB7DEB748
:1032A00028970FB6F894DEBF0FBECDBF9C838B83EB
:1032B0007E836D834F83288719821A828B819C813C
:1032C000892B21F08D819E81892B19F482E08983DD
:1032D00025C08B819C8148856F810E94EE1989836E
:1032E00012C08A81882F90E02D813E81820F931F2A
:1032F000FC0120818B819C81622F0E94CA188983E6
:103300008A818F5F8A838A81882F90E02D813E8118
:10331000820F931FFC018081882319F789812896E9
:103320000FB6F894DEBF0FBECDBFDF91CF910895E9
:10333000CF93DF93CDB7DEB727970FB6F894DEBFF4
:103340000FBECDBF9C838B837E836D834F83198299
:103350001A828B819C81892B21F08D819E81892B02
:1033600019F482E0898330C08F81883018F083E0BF
:1033700089832AC08F81882F90E00896282F220FFA
:10338000220F220F8B819C81622F0E948C188983CF
:103390001A8211C08A81882F90E02D813E81820F90
:1033A000931FFC0120818B819C81622F0E94CA188F
:1033B0008A818F5F8A838A81883060F38B819C81C8
:1033C00060E80E948C188983898127960FB6F8944B
:1033D000DEBF0FBECDBFDF91CF910895CF93DF93B6
:1033E00000D000D01F92CDB7DEB79B838A836C8359
:1033F0004D8319828A819B81892B19F482E089830C
:1034000056C08C81853018F085E0898350C08D814D
:10341000853118F084E089834AC08D8181508D8385
:103420008C81882F90E082309105C9F0833091051E
:103430001CF4019739F03AC083309105E9F0049704
:1034400041F134C08D8120E8280F8A819B81622F51
:103450000E948C18982F89818923898328C08D81A7
:1034600020EC280F8A819B81622F0E948C18982F54
:103470008981892389831BC08D8124E9280F8A8152
:103480009B81622F0E948C18982F898189238983C0
:103490000EC08D8124ED280F8A819B81622F0E94AE
:1034A0008C18982F89818923898301C01982898189
:1034B0000F900F900F900F900F90DF91CF91089584
:1034C000CF93DF9300D000D000D0CDB7DEB79C8380
:1034D0008B837E836D8319821A828B819C81892BD9
:1034E00021F08D819E81892BA9F482E089831DC002
:1034F0008A81882F90E02D813E81820F931FFC01ED
:1035000020818B819C81622F0E94CA1889838A81C5
:103510008F5F8A838A81882F90E02D813E81820F80
:10352000931FFC018081882319F7898126960FB6A5
:10353000F894DEBF0FBECDBFDF91CF910895CF933A
:10354000DF93CDB7DEB7CC56D1090FB6F894DEBF06
:103550000FBECDBF9E0129593F4FF9019183808352
:10356000CE0187599F4FFC0140835183628373834F
:1035700019821A82CE0189599F4FFC018081918165
:10358000892B19F482E089831EC09E012D5F3F4F75
:10359000CE0187599F4FFC0180819181A281B38127
:1035A000A901BC01CD010E9459008A839E012D5FB3
:1035B0003F4FCE0189599F4FFC0180819181B90114
:1035C0000E94601A89838981C459DF4F0FB6F8942D
:1035D000DEBF0FBECDBFDF91CF9108950F93CF9384
:1035E000DF93CDB7DEB7CE56D1090FB6F894DEBF64
:1035F0000FBECDBFFE01E959FF4F91838083CE01FD
:1036000087599F4FDC014D935D936D937C93139786
:10361000CE0183599F4FFC012083CE0182599F4FD9
:10362000DC010C9319821A82CE0189599F4FFC014B
:1036300080819181892B19F482E0898331C09E01B8
:103640002D5F3F4FCE0187599F4FFC0180819181B3
:10365000A281B381A901BC01CD010E9459008A83D6
:103660009E0122593F4FCE0183599F4FAE014959C8
:103670005F4FDA01ED91FC91D9014C91DC016C9125
:10368000CF010E94EE199E012D5F3F4FCE01895957
:103690009F4FFC0180819181B9010E94601A89834A
:1036A0008981C259DF4F0FB6F894DEBF0FBECDBF80
:1036B000DF91CF910F910895CF93DF93CDB7DEB710
:1036C000CC56D1090FB6F894DEBF0FBECDBF9E0118
:1036D00029593F4FF90191838083CE0187599F4F2C
:1036E000FC01408351836283738319821A82CE0165
:1036F00089599F4FFC0180819181892B19F482E0C7
:1037000089831EC09E012D5F3F4FCE0187599F4F79
:10371000FC0180819181A281B381A901BC01CD010D
:103720000E9498008A839E012D5F3F4FCE018959E8
:103730009F4FFC0180819181B9010E94601A8983A9
:103740008981C459DF4F0FB6F894DEBF0FBECDBFDD
:10375000DF91CF910895CF93DF9300D000D01F92D7
:10376000CDB7DEB79C838B836D8319821A828B81E0
:103770009C81892B19F482E0898322C01A821DC0A2
:103780008D81882F90E02A81222F30E002C095950C
:1037900087952A95E2F7482F41708A81882F90E01B
:1037A0002B813C81820F931FFC018081642F0E943A
:1037B000EE1089838A818F5F8A838A81843000F347
:1037C00089810F900F900F900F900F90DF91CF9104
:1037D0000895CF93DF93CDB7DEB7A3970FB6F894D4
:1037E000DEBF0FBECDBF9BA38AA319828AA19BA176
:1037F000892B19F482E08983FFC08AA19BA1FC0177
:10380000858161E00E94EE10898380E090E0A0EA6B
:10381000B0E48A839B83AC83BD832BEA3AEA4AEA0D
:1038200050E46A817B818C819D810E949228DC0119
:10383000CB018E839F83A887B98720E030E040E8E2
:1038400050E46A817B818C819D810E949228DC01F9
:10385000CB018A879B87AC87BD8720E030E040E8BA
:103860005FE36E817F81888599850E94A4268823E5
:103870001CF481E08E87B2C020E03FEF4FE757E4B1
:103880006A857B858C859D850E948D2818160CF095
:103890007BC020E030E04AE754E46A817B818C8180
:1038A0009D810E94A926DC01CB018F87988BA98B73
:1038B000BA8B20E030E04AE755E46F857889898942
:1038C0009A890E949228DC01CB018B8B9C8BAD8B5B
:1038D000BE8B20E030E040E85FE36B897C898D8916
:1038E0009E890E94A42688232CF481E090E0988F82
:1038F0008F8B3FC020E03FEF4FE757E46B897C8917
:103900008D899E890E948D2818164CF520E030E0A4
:1039100040E251E46F85788989899A890E949228CA
:10392000DC01CB01BC01CD010E945E27DC01CB0193
:10393000988F8F8B0FC080E991E09A8F898F898D46
:103940009A8D0197F1F79A8F898F8F89988D0197BA
:10395000988F8F8B8F89988D892B69F73FC06B89E2
:103960007C898D899E890E945E27DC01CB01988F1E
:103970008F8B8F89988D9C8F8B8F8B8D9C8D0197D2
:10398000F1F79C8F8B8F2AC020E030E04FE753E4A3
:103990006E817F81888599850E948D281816ACF4E8
:1039A0006A857B858C859D850E945E27DC01CB0125
:1039B0009E8F8D8F8D8D9E8D98A38F8F8F8D98A1CB
:1039C0000197F1F798A38F8F0FC06E817F81888553
:1039D00099850E945E27DC01CB018E878E8589A3A5
:1039E00089A18A95F1F789A38AA19BA1FC01858110
:1039F00060E00E94EE1089838981A3960FB6F89447
:103A0000DEBF0FBECDBFDF91CF910895CF93DF937F
:103A1000CDB7DEB729970FB6F894DEBF0FBECDBF86
:103A20009F838E837987688783E089831C821A82CB
:103A30001B828E819F81FC0181858D838E819F8178
:103A4000892B21F088859985892B19F482E0898357
:103A5000DFC08E819F810E94121E89838E819F818B
:103A6000FC018085882F90E0009721F0019709F4F0
:103A700067C0CCC01A825FC08E819F81FC01918596
:103A800081E0992309F080E0482F8A81882F90E017
:103A90002E813F81820F931FFC018081642F0E9441
:103AA000EE108C831B8230C08B81882F90E02E819A
:103AB0003F81820F931F0496FC012081CE01059661
:103AC000BC01822F0E945D118C838E819F81FC013D
:103AD00091858D819817A9F08A81282F30E08B81FC
:103AE000882F90E0220F331F220F331F820F931F66
:103AF00086519F4FFC01208188859985FC01208398
:103B000019828B818F5F8B838B81843068F28E81E9
:103B10009F81FC0141858A81882F90E02E813F8121
:103B2000820F931FFC018081642F0E94EE108C8312
:103B30008A818F5F8A838A81843008F49DCF68C030
:103B40001B825FC08E819F81FC01918581E099235A
:103B500009F080E0482F8B81882F90E02E813F81F3
:103B6000820F931F0496FC018081642F0E94EE1047
:103B70008C831A822EC08A81882F90E02E813F810B
:103B8000820F931FFC012081CE010596BC01822F7C
:103B90000E945D118C838E819F81FC0191858D81B6
:103BA0009817A1F08A81282F30E08B81882F90E030
:103BB000220F331F220F331F820F931F86519F4FF7
:103BC000FC01208188859985FC0120838A818F5F93
:103BD0008A838A81843078F28E819F81FC014185BD
:103BE0008B81882F90E02E813F81820F931F049656
:103BF000FC018081642F0E94EE108C838B818F5F8B
:103C00008B838B81843008F49DCF02C081E089834F
:103C1000898129960FB6F894DEBF0FBECDBFDF9124
:103C2000CF910895CF93DF9300D000D01F92CDB7EE
:103C3000DEB79D838C8383E089831B821A828C810B
:103C40009D81892B19F482E0898342C08C819D81FA
:103C5000FC018085882F90E0009719F00197D9F03A
:103C600035C01A8214C08C819D81FC0141858A81F6
:103C7000882F90E02C813D81820F931FFC01808171
:103C8000642F0E94EE108B838A818F5F8A838A81E2
:103C9000843048F31DC01A8215C08C819D81FC01BF
:103CA00041858A81882F90E02C813D81820F931F6E
:103CB0000496FC018081642F0E94EE108B838A8120
:103CC0008F5F8A838A81843040F302C081E08983D8
:103CD00089810F900F900F900F900F90DF91CF91EF
:103CE0000895CF93DF9300D000D0CDB7DEB79C838B
:103CF0008B83198281E08A838B819C81892B19F4C3
:103D000082E0898368C08B819C81FC018081882F3F
:103D100090E08130910589F082309105D1F0892BB6
:103D200021F563E080E00E94390F8A8363EB7FE135
:103D300080E00E941D108A831AC063E081E00E9427
:103D4000390F8A8361E371E281E00E941D108A834A
:103D50000EC061E082E00E94390F8A8369E371E25C
:103D600082E00E941D108A8302C01A8200008B81AB
:103D70009C81FC018181882F90E08130910541F187
:103D80008230910539F1892B01F581EA90E00E949A
:103D9000290968E97FE181EA90E00E94CA0A81EA84
:103DA00090E00E94F9098B819C81FC018081882F21
:103DB00090E0880F991F880F991F8F5C9E4FFC0120
:103DC000108211821282138206C081E0898303C0AF
:103DD000000001C000000E94CC0E89810F900F905E
:103DE0000F900F90DF91CF910895CF93DF9300D084
:103DF0001F92CDB7DEB79B838A8319828A819B810C
:103E0000892B11F482E0898389810F900F900F90A4
:103E1000DF91CF910895CF93DF9300D000D01F9210
:103E2000CDB7DEB79B838A837D836C8319828A81B9
:103E30009B81892B21F08C819D81892B19F482E053
:103E400089830FC08091210190912201A0912301CB
:103E5000B09124012C813D81F90180839183A2835B
:103E6000B38389810F900F900F900F900F90DF9187
:103E7000CF910895CF93DF9300D000D01F92CDB79C
:103E8000DEB79B838A837D836C8319828A819B81C1
:103E9000892B21F08C819D81892B19F482E0898303
:103EA0000FC08091250190912601A0912701B0912A
:103EB00028012C813D81F90180839183A283B38302
:103EC00089810F900F900F900F900F90DF91CF91FD
:103ED0000895CF93DF9300D000D01F92CDB7DEB707
:103EE0009B838A837D836C8319828A819B81892B42
:103EF00021F08C819D81892B19F482E089830FC088
:103F00008091290190912A01A0912B01B0912C015F
:103F10002C813D81F90180839183A283B3838981C0
:103F20000F900F900F900F900F90DF91CF91089509
:103F3000CF93DF93CDB7DEB780912D0190912E0105
:103F4000A0912F01B09130010196A11DB11D809368
:103F50002D0190932E01A0932F01B093300100000A
:103F6000DF91CF910895CF92DF92EF92FF92CF939E
:103F7000DF93CDB7DEB780913D01882389F580912D
:103F80003D018F5F80933D0110922D0110922E0113
:103F900010922F011092300162E080E00E94390FF0
:103FA0008091310190913201A0913301B09134019F
:103FB00081309105A105B10509F444C18130910515
:103FC000A105B10530F00297A105B10509F43CC186
:103FD00040C16EE371E081EA90E00E94860A39C137
:103FE00080913D01813009F049C080913D018F5F92
:103FF00080933D0163E080E00E94390F80913101A0
:1040000090913201A0913301B0913401813091053A
:10401000A105B10509F41AC181309105A105B105C9
:1040200030F00297A105B10509F412C112C160E494
:1040300071E081EA90E00E94860A80912D019091C2
:104040002E01A0912F01B09130014FEF489F9001B8
:10405000499F300D11248091400190914101280F1A
:10406000391F80913E0190913F01A901481B590BD6
:10407000CA019093430180934201EBC080913D01BE
:10408000823009F0E6C062E080E00E94390F809142
:10409000310190913201A0913301B091340181300E
:1040A0009105A105B10589F181309105A105B10501
:1040B00028F00297A105B10551F12AC064E471E02E
:1040C00081EA90E00E94860A80912D0190912E0154
:1040D000A0912F01B09130014FEF489F9001499F6F
:1040E000300D11248091440190914501280F391F12
:1040F00080913E0190913F01A901481B590BCA01D3
:10410000909347018093460103C0000001C0000066
:104110008091460190914701CC01A0E0B0E0BC0144
:10412000CD010E948D27DC01CB012FE632E143E86F
:104130005DE3BC01CD010E949228DC01CB01BC01F2
:10414000CD010E945E27DC01CB0180932501909375
:104150002601A0932701B0932801809142019091FC
:104160004301CC01A0E0B0E0BC01CD010E948D274D
:10417000DC01CB012FE632E143E85DE3BC01CD0178
:104180000E949228DC01CB01BC01CD010E945E2778
:10419000DC01CB018093210190932201A0932301A4
:1041A000B09324018091210190912201A0912301DB
:1041B000B0912401BC01CD010E948D276B017C01CF
:1041C0008091250190912601A0912701B0912801AD
:1041D000BC01CD010E948D27DC01CB019C01AD010A
:1041E000C701B6010E94A926DC01CB0120E030E026
:1041F00048EC52E4BC01CD010E949228DC01CB01C5
:10420000BC01CD010E945E27DC01CB018093290116
:1042100090932A01A0932B01B0932C0110922D01B1
:1042200010922E0110922F011092300181E08093A4
:104230003D01809144019091450190933F0180930D
:104240003E0107C0000005C0000003C0000001C01F
:1042500000000000DF91CF91FF90EF90DF90CF90B2
:104260000895CF93DF93CDB7DEB70000DF91CF91F4
:104270000895CF93DF93CDB7DEB70000DF91CF91E4
:104280000895CF93DF9300D000D000D0CDB7DEB734
:104290009C838B837E836D8319821A828B819C81A0
:1042A000892B21F08D819E81892B19F482E08983ED
:1042B00031C08B819C81FC018181882F90E0009727
:1042C00071F0019729F58B819C81FC0120818D8102
:1042D0009E81BC01822F0E945D118A831BC08B814D
:1042E0009C81FC0120818D819E81BC01822F0E94D6
:1042F0005D118A838D819E81FC01908181E09923EB
:1043000009F080E0282F8D819E81FC01208302C06E
:1043100081E08983898126960FB6F894DEBF0FBEAF
:10432000CDBFDF91CF910895AF92BF92CF92DF9230
:10433000EF92FF920F931F93CF93DF93CDB7DEB72A
:10434000A0907001B0907101C0907201D090730183
:10435000E0907401F0907501009176011091770161
:104360002A2D3B2D4C2D5D2D6E2D7F2D802F912FD5
:10437000A1E00E941326A22EB32EC42ED52EE62E27
:10438000F72E082F192FA0927001B0927101C092E0
:104390007201D0927301E0927401F0927501009362
:1043A0007601109377010000DF91CF911F910F915B
:1043B000FF90EF90DF90CF90BF90AF9008952F9235
:1043C0003F924F925F926F927F928F929F92AF92A5
:1043D000BF92CF92DF92EF92FF920F931F93CF93F2
:1043E000DF93CDB7DEB764970FB6F894DEBF0FBE8C
:1043F000CDBF8FE692E1A3E8BCE389839A83AB83C8
:10440000BC83809178018823E1F4809178018F5FEB
:1044100080937801109270011092710110927201D4
:10442000109273011092740110927501109276012E
:10443000109277010E949D0889E791E00E94170879
:104440004EC280917801813009F0E2C080917801FC
:104450008F5F809378010E949D088BE791E00E9416
:10446000170880917B0190917C018C0120E030E065
:1044700040E050E0BA010D831E832F8338874987BF
:104480005A876B877C872090700130907101409033
:10449000720150907301609074017090750180906A
:1044A000760190907701AA24AA94BB24BA94C12CD7
:1044B000D12CE12CF12C00E010E0222D332D442DE5
:1044C000552D662D772D882D992D0E949825A22E89
:1044D000B32EC42ED52EE62EF72E082F192F2A2CF8
:1044E0003B2C4C2C5D2C6E2C7F2C802E912E2D8104
:1044F0003E814F81588569857A858B859C85A22C64
:10450000B32CC42CD52CE62CF72C082D192D0E9489
:104510000A26A22EB32EC42ED52EE62EF72E082F55
:10452000192F8091790190917A011C01412C512C15
:10453000612C712C43012A2D3B2D4C2D5D2D6E2DB0
:104540007F2D802F912FA22CB32CC42CD52CE62CA0
:10455000F72C082D192D0E941F26A22EB32EC42E33
:10456000D52EE62EF72E082F192FA0926001B092BB
:104570006101C0926201D0926301E0926401F09205
:1045800065010093660110936701A0906001B090EF
:104590006101C0906201D0906301E0906401F090ED
:1045A000650100916601109167012A2D3B2D4C2D6C
:1045B0005D2D6E2D7F2D802F912F0E94CA27DC014B
:1045C000CB0129813A814B815C81BC01CD010E94E4
:1045D0009228DC01CB01BC01CD010E942027A22E34
:1045E000B32EC42ED52EE62EF72E082F192FA0920B
:1045F0004801B0924901C0924A01D0924B01E09229
:104600004C01F0924D0100934E0110934F0167C190
:1046100080917801823009F062C180E10E943412F9
:104620008DE791E00E94170880917D0190917E01B5
:104630008C0120E030E040E050E0BA010D871E8799
:104640002F87388B498B5A8B6B8B7C8B209070011A
:10465000309071014090720150907301609074012C
:10466000709075018090760190907701AA24AA94A9
:10467000BB24BA94C12CD12CE12CF12C00E010E029
:10468000222D332D442D552D662D772D882D992DD6
:104690000E949825A22EB32EC42ED52EE62EF72EDC
:1046A000082F192F2A2C3B2C4C2C5D2C6E2C7F2C88
:1046B000802E912E2D853E854F85588969897A896E
:1046C0008B899C89A22CB32CC42CD52CE62CF72CDE
:1046D000082D192D0E940A26A22EB32EC42ED52EE7
:1046E000E62EF72E082F192F8091790190917A01EB
:1046F0001C01412C512C612C712C43012A2D3B2D86
:104700004C2D5D2D6E2D7F2D802F912FA22CB32C43
:10471000C42CD52CE62CF72C082D192D0E941F2611
:10472000A22EB32EC42ED52EE62EF72E082F192F2B
:10473000A0926801B0926901C0926A01D0926B01A7
:10474000E0926C01F0926D0100936E0110936F0185
:10475000A0906801B0906901C0906A01D0906B018F
:10476000E0906C01F0906D0100916E0110916F016D
:104770002A2D3B2D4C2D5D2D6E2D7F2D802F912FC1
:104780000E94CA27DC01CB0129813A814B815C81DF
:10479000BC01CD010E949228DC01CB01BC01CD01FE
:1047A0000E942027A22EB32EC42ED52EE62EF72E41
:1047B000082F192FA0925001B0925101C0925201BE
:1047C000D0925301E0925401F092550100935601AA
:1047D00010935701A0904801B0904901C0904A0140
:1047E000D0904B01E0904C01F0904D0100914E01B2
:1047F00010914F012A2D3B2D4C2D5D2D6E2D7F2DBF
:10480000802F912F0E94CA27DC01CB0120E030E0ED
:1048100048EC52E4BC01CD010E949228DC01CB019E
:104820003C014D01A0905001B0905101C090520147
:10483000D0905301E0905401F09055010091560141
:10484000109157012A2D3B2D4C2D5D2D6E2D7F2D66
:10485000802F912F0E94CA27DC01CB019C01AD0162
:10486000C401B3010E94A926DC01CB01BC01CD012A
:104870000E942027A22EB32EC42ED52EE62EF72E70
:10488000082F192FA0925801B0925901C0925A01D5
:10489000D0925B01E0925C01F0925D0100935E01B9
:1048A00010935F0181E0809378010E949D088091C0
:1048B0007D0190917E0190937A018093790110920D
:1048C0007001109271011092720110927301109296
:1048D0007401109275011092760110927701000018
:1048E00064960FB6F894DEBF0FBECDBFDF91CF91B7
:1048F0001F910F91FF90EF90DF90CF90BF90AF90FE
:104900009F908F907F906F905F904F903F902F90EF
:104910000895CF93DF93CDB7DEB72E970FB6F894F7
:10492000DEBF0FBECDBF0E94C00C80E990E00E94A8
:104930005F1684E991E20E9489068FED91E20E9460
:10494000E0060E9475080E9461060E94E9050E9427
:10495000CC0E8AEA90E00E94360521E041E06FEB40
:1049600070E080E990E00E944C1920915001309154
:104970005101409152015091530160915401709145
:1049800055018091560190915701DA01C901AC019E
:10499000BD0180E990E00E949F1A6CEC70E080E914
:1049A00090E00E94601A21E042E062ED70E080E950
:1049B00090E00E944C1920914801309149014091AA
:1049C0004A0150914B0160914C0170914D018091D1
:1049D0004E0190914F01DA01C901AC01BD0180E99E
:1049E00090E00E949F1A6CEC70E080E990E00E94D9
:1049F000601A21E043E06CED70E080E990E00E94F5
:104A00004C19209158013091590140915A0150910F
:104A10005B0160915C0170915D0180915E019091FC
:104A20005F01DA01C901AC01BD0180E990E00E949B
:104A30009F1A68EE70E080E990E00E94601A80E0C2
:104A400090E0AAE7B4E489839A83AB83BC8320E037
:104A500030E04AE755E469817A818B819C810E942C
:104A60009228DC01CB018D839E83AF83B88720E041
:104A700030E040E85FE36D817E818F8198850E9400
:104A8000A42688232CF481E090E09A8789873FC090
:104A900020E03FEF4FE757E46D817E818F8198855D
:104AA0000E948D2818164CF520E030E040E251E4D9
:104AB00069817A818B819C810E949228DC01CB01E3
:104AC000BC01CD010E945E27DC01CB019A8789875A
:104AD0000FC080E991E09C878B878B859C8501972F
:104AE000F1F79C878B8789859A8501979A878987B3
:104AF00089859A85892B69F714C06D817E818F81A4
:104B000098850E945E27DC01CB019A878987898579
:104B10009A859E878D878D859E850197F1F79E8763
:104B20008D871BCFEE0FFF1F0590F491E02D0994A8
:104B3000DF93CF931F930F939A9DF02D219FF00D3C
:104B40008B9DF00D8A9DE02DF10D039FF00D029FCE
:104B5000E00DF11D4E9DE00DF11D5E9DF00D4F9D90
:104B6000F00D7F936F93BF92AF925F934F93D501F8
:104B70000E9428268B01AC01D7010E942826EB0158
:104B8000E80FF91FD6010E94E8252F913F91D60129
:104B90000E942826C60FD71FE81FF91FAF91BF91AB
:104BA0000E94E8252F913F910E942826C60FD71F0B
:104BB000E81FF91FD6010E942826E60FF71F98016B
:104BC000BE01CF0111240F911F91CF91DF91089564
:104BD0000E942826460F571FC81FD91F08F4319678
:104BE00008950F93083090F0982F872F762F652F18
:104BF000542F432F322F22270850F4CF220F331F78
:104C0000441F551F661F771F881F991F0A95B2F70B
:104C10000F9108952A0D3B1D4C1D5D1D6E1D7F1DBE
:104C2000801F911F08950024A7FD00942A0F301DB6
:104C3000401D501D601D701D801D901D08952A1976
:104C40003B094C095D096E097F09800B910B0895A2
:104C5000A29FB001B39FC001A39F700D811D1124BD
:104C6000911DB29F700D811D1124911D0895505802
:104C7000BB27AA270E944F260C9453280E94452840
:104C800038F00E944C2820F039F49F3F19F426F4A4
:104C90000C9432280EF4E095E7FB0C942C28E92FB5
:104CA0000E94642858F3BA176207730784079507B0
:104CB00020F079F4A6F50C9486280EF4E0950B2EDE
:104CC000BA2FA02D0B01B90190010C01CA01A0015E
:104CD0001124FF27591B99F0593F50F4503E68F1B9
:104CE0001A16F040A22F232F342F4427585FF3CFFA
:104CF000469537952795A795F0405395C9F77EF4CB
:104D00001F16BA0B620B730B840BBAF09150A1F013
:104D1000FF0FBB1F661F771F881FC2F70EC0BA0F99
:104D2000621F731F841F48F4879577956795B79521
:104D3000F7959E3F08F0B0CF9395880F08F099271C
:104D4000EE0F9795879508950E94082808F481E052
:104D500008950E94BD260C9453280E944C2858F0B8
:104D60000E94452840F029F45F3F29F00C942C283C
:104D700051110C9487280C9432280E94642868F3FF
:104D80009923B1F3552391F3951B550BBB27AA2704
:104D900062177307840738F09F5F5F4F220F331F3E
:104DA000441FAA1FA9F335D00E2E3AF0E0E832D006
:104DB00091505040E695001CCAF72BD0FE2F29D009
:104DC000660F771F881FBB1F261737074807AB07DB
:104DD000B0E809F0BB0B802DBF01FF2793585F4F50
:104DE0003AF09E3F510578F00C942C280C948728BB
:104DF0005F3FE4F3983ED4F3869577956795B79532
:104E0000F7959F5FC9F7880F911D9695879597F93C
:104E10000895E1E0660F771F881FBB1F62177307B5
:104E20008407BA0720F0621B730B840BBA0BEE1FCA
:104E300088F7E0950895BEE304D008F490E808955B
:104E4000BFE322273327A9010E946C2860F19F57F6
:104E500048F1B91740F1BFE3B91B9927B8503AF4AC
:104E6000660F771F881F991FB395D2F316C0B850ED
:104E70004AF0232F342F452F562F672F782F88275E
:104E8000B850BAF7B85F49F086957795679557950A
:104E9000479537952795BA95B9F716F40E943528A6
:104EA00088940895889460E070E0CB0108950E9492
:104EB0005E276894B1110C94872808950E946C288D
:104EC00088F09F5798F0B92F9927B751B0F0E1F0CB
:104ED000660F771F881F991F1AF0BA95C9F714C07B
:104EE000B13091F00E948628B1E008950C94862894
:104EF000672F782F8827B85F39F0B93FCCF38695B4
:104F000077956795B395D9F73EF490958095709510
:104F100061957F4F8F4F9F4F0895E89409C097FB8D
:104F20003EF490958095709561957F4F8F4F9F4F80
:104F30009923A9F0F92F96E9BB279395F6958795C4
:104F400077956795B795F111F8CFFAF4BB0F11F487
:104F500060FF1BC06F5F7F4F8F4F9F4F16C088232E
:104F600011F096E911C0772321F09EE8872F762F64
:104F700005C0662371F096E8862F70E060E02AF0A5
:104F80009A95660F771F881FDAF7880F9695879591
:104F900097F90895E894F92F96EBFF2381F0121604
:104FA00013061406440B9395F695879577956795A8
:104FB00057954040FF23B9F71BC0992708958823D0
:104FC00051F49850D2F7872B762F652F542F432F0B
:104FD000322F20E0B1F3121613061406440B882377
:104FE0003AF09A95440F551F661F771F881FCAF71E
:104FF00055234AF4440F551F11F460FF04C06F5F3E
:105000007F4F8F4F9F4F880F9695879597F90895FB
:10501000990F0008550FAA0BE0E8FEEF16161706C9
:10502000E807F907C0F012161306E407F50798F031
:10503000621B730B840B950B39F40A2661F0232B4A
:10504000242B252B21F408950A2609F4A140A695C6
:105050008FEF811D811D089597F99F6780E870E0AB
:1050600060E008959FEF80EC08959095809570958D
:10507000609550954095309521953F4F4F4F5F4F2C
:105080006F4F7F4F8F4F9F4F089500240A9416163D
:10509000170618060906089500240A941216130626
:1050A000140605060895092E0394000C11F48823B4
:1050B00052F0BB0F40F4BF2B11F460FF04C06F5FD0
:1050C0007F4F8F4F9F4F089557FD9058440F551FA6
:1050D00059F05F3F71F04795880F97FB991F61F07A
:1050E0009F3F79F087950895121613061406551FF1
:1050F000F2CF4695F1DF08C0161617061806991F5D
:10510000F1CF86957105610508940895E894BB2751
:1051100066277727CB0197F908950E94082808F49D
:105120008FEF08950E94A5280C9453280E944528CB
:1051300038F00E944C2820F0952311F00C942C2874
:105140000C94322811240C9487280E94642870F350
:10515000959FC1F3950F50E0551F629FF001729F1C
:10516000BB27F00DB11D639FAA27F00DB11DAA1F2B
:10517000649F6627B00DA11D661F829F2227B00D78
:10518000A11D621F739FB00DA11D621F839FA00D03
:10519000611D221F749F3327A00D611D231F849F53
:1051A000600D211D822F762F6A2F11249F575040AA
:1051B0009AF0F1F088234AF0EE0FFF1FBB1F661F25
:1051C000771F881F91505040A9F79E3F510580F0EE
:1051D0000C942C280C9487285F3FE4F3983ED4F37A
:1051E000869577956795B795F795E7959F5FC1F792
:1051F000FE2B880F911D9695879597F90895AEE03F
:10520000B0E0E5E0F9E20C94C02B0D891E8986E040
:105210008C831A8309838FEF9FE79E838D83AE0172
:10522000475E5F4F6F89788DCE0101960E942129DC
:10523000EF81F885E00FF11F10822E96E4E00C94C8
:10524000DC2BABE0B0E0E7E2F9E20C94B22B6C01AE
:105250007B018A01FC0117821682838181FFCCC108
:10526000CE0101963C01F6019381F70193FD8591F2
:1052700093FF81917F01882309F4BAC1853239F403
:1052800093FD859193FF81917F01853229F4B601C9
:1052900090E00E94182BE7CF912C212C312CFFE1BC
:1052A000F315D8F08B3279F038F4803279F083320C
:1052B000A1F4232D20611DC08D3261F0803369F48B
:1052C000232D216016C0832D8260382EE32DE460EB
:1052D0003E2E2AC0F32DF8601DC037FC2DC020EDF6
:1052E000280F2A3040F08E32B9F436FC81C1232DCC
:1052F0002064322E19C036FE06C08AE0989E200D2A
:105300001124922E11C0EAE02E9E200D1124222E8F
:10531000F32DF0623F2E08C08C3621F4832D806877
:10532000382E02C0883641F4F70193FD859193FF32
:1053300081917F018111B3CF982F9F7D9554933038
:1053400028F40C5F1F4F9FE399830DC0833631F023
:10535000833771F0833509F059C021C0F80180818D
:1053600089830E5F1F4F88248394912C530113C0AF
:105370002801F2E04F0E511CF801A080B18036FEEA
:1053800003C0692D70E002C06FEF7FEFC5010E947E
:105390000D2B4C018201F32DFF773F2E16C0280103
:1053A00022E0420E511CF801A080B18036FE03C0FD
:1053B000692D70E002C06FEF7FEFC5010E94022BE4
:1053C0004C01F32DF0683F2E820133FC1BC0822D6F
:1053D00090E088169906B0F4B60180E290E00E9451
:1053E000182B2A94F4CFF50137FC859137FE819173
:1053F0005F01B60190E00E94182B21102A9421E051
:10540000821A91088114910471F7E8C0843611F072
:10541000893641F5F80137FE07C0608171818281CC
:1054200093810C5F1F4F08C060817181072E000CB3
:10543000880B990B0E5F1F4FF32DFF763F2E97FFC2
:1054400009C090958095709561957F4F8F4F9F4FC4
:10545000F0683F2E2AE030E0A3010E94542B882EF2
:10546000861845C0853731F4232D2F7EB22E2AE0D1
:1054700030E025C0932D997FB92E8F36C1F018F4F6
:10548000883579F0B5C0803719F0883721F0B0C081
:10549000E92FE061BE2EB4FE0DC0FB2DF460BF2EDF
:1054A00009C034FE0AC0292F2660B22E06C028E0AB
:1054B00030E005C020E130E002C020E132E0F80138
:1054C000B7FE07C060817181828193810C5F1F4F9D
:1054D00006C06081718180E090E00E5F1F4FA301E4
:1054E0000E94542B882E8618FB2DFF773F2E36FE08
:1054F0000DC0232D2E7FA22E891458F434FE0BC02C
:1055000032FC09C0832D8E7EA82E05C0B82CA32C9A
:1055100003C0B82C01C0B92CA4FE0FC0FE01E80DD9
:10552000F11D8081803321F49A2D997EA92E09C026
:10553000A2FE06C0B394B39404C08A2D867809F005
:10554000B394A3FC11C0A0FE06C0B21488F4280CCA
:10555000922C9B180EC0B21460F4B60180E290E069
:105560000E94182BB394F7CFB21418F42B1802C072
:10557000982C212CA4FE10C0B60180E390E00E947C
:10558000182BA2FE17C0A1FC03C088E790E002C060
:1055900088E590E0B6010CC08A2D867859F0A1FE0E
:1055A00002C08BE201C080E2A7FC8DE2B60190E070
:1055B0000E94182B891438F4B60180E390E00E9411
:1055C000182B9A94F7CF8A94F301E80DF11D80818E
:1055D000B60190E00E94182B8110F5CF222009F42B
:1055E00042CEB60180E290E00E94182B2A94F6CFBA
:1055F000F6018681978102C08FEF9FEF2B96E2E143
:105600000C94CE2BFC010590615070400110D8F72E
:10561000809590958E0F9F1F0895FC0161507040FA
:1056200001900110D8F7809590958E0F9F1F0895D7
:105630000F931F93CF93DF93FB01238121FD03C0C1
:105640008FEF9FEF2CC022FF16C046815781248127
:1056500035814217530744F4A081B1819D012F5F2A
:105660003F4F318320838C93268137812F5F3F4FBB
:105670003783268314C08B01EC01FB010084F18584
:10568000E02D0995892BE1F6D80116968D919C9114
:105690001797019617969C938E931697CE01DF91DC
:1056A000CF911F910F910895FA01AA27283051F147
:1056B000203181F1E8946F936E7F6E5F7F4F8F4F43
:1056C0009F4FAF4FB1E03ED0B4E03CD0670F781FA2
:1056D000891F9A1FA11D680F791F8A1F911DA11D87
:1056E0006A0F711D811D911DA11D20D009F46894C0
:1056F0003F912AE0269F11243019305D3193DEF668
:10570000CF010895462F4770405D4193B3E00FD01D
:10571000C9F7F6CF462F4F70405D4A3318F0495D08
:1057200031FD4052419302D0A9F7EACFB4E0A695EB
:105730009795879577956795BA95C9F7009761050D
:10574000710508959B01AC010A2E06945795479563
:1057500037952795BA95C9F7620F731F841F951F58
:10576000A01D08952F923F924F925F926F927F9269
:105770008F929F92AF92BF92CF92DF92EF92FF9261
:105780000F931F93CF93DF93CDB7DEB7CA1BDB0B0D
:105790000FB6F894DEBF0FBECDBF09942A883988B2
:1057A00048885F846E847D848C849B84AA84B984B9
:1057B000C884DF80EE80FD800C811B81AA81B981C5
:1057C000CE0FD11D0FB6F894DEBF0FBECDBFED01D9
:0657D0000895F894FFCFDC
:1057D6003A003700340031003B0038003500320013
:1057E6003A003700340031003B0038003500320003
:1057F600390036003300300008090A0C0E0D02038A
:1058060008090A0C030200151413121F1E1D1B00A3
:10581600010500001F001E001D000400000000001E
:10582600256C75002573256C642E25303464005470
:105836006F74616C2054696D653A2000205B6D566B
:105846005D006F6E2054696D653A20004475747969
:10585600204379636C653A0025003738392F343593
:0A586600362A3132332D63303D2B1A
:00000001FF
