:100000000C942A000C9451050C9488050C94BF059F
:100010000C9447000C9447000C9447000C94470044
:100020000C9447000C9447000C9447000C94470034
:100030000C9447000C9447000C9447000C94470024
:100040000C94CC0A0C9447000C9447000C94470085
:100050000C94470011241FBECFE5D8E0DEBFCDBF12
:1000600010E0A0E6B0E0E4ECF9E302C005900D92E8
:10007000A23CB107D9F720E0A2ECB0E001C01D928C
:10008000A33EB207E1F70E9426130C94E01C0C94E7
:100090000000CF93DF93CDB7DEB727970FB6F89464
:1000A000DEBF0FBECDBF6A837B838C839D835F835E
:1000B0004E8319828E819F81892B19F481E0898377
:1000C0001DC08D818F938C818F938B818F938A81BB
:1000D0008F9387EA90E0892F8F9387EA90E08F9340
:1000E0008F818F938E818F930E94F6198DB79EB763
:1000F00008960FB6F894DEBF0FBECDBF8981279654
:100100000FB6F894DEBF0FBECDBFDF91CF9108953B
:10011000CF93DF93CDB7DEB727970FB6F894DEBF46
:100120000FBECDBF6A837B838C839D835F834E83A9
:1001300019828E819F81892B19F481E089831DC0EA
:100140008D818F938C818F938B818F938A818F93F5
:100150008BEA90E0892F8F938BEA90E08F938F81C9
:100160008F938E818F930E94F6198DB79EB7089654
:100170000FB6F894DEBF0FBECDBF898127960FB6AC
:10018000F894DEBF0FBECDBFDF91CF9108952F92BF
:100190003F924F925F926F927F928F929F92AF9217
:1001A000BF92CF92DF92EF92FF920F931F93CF9364
:1001B000DF93CDB7DEB76E970FB6F894DEBF0FBEF4
:1001C000CDBF9C878B877E876D8719821A821B82A1
:1001D0001C821D821E821F82188619861A868D85B2
:1001E0009E85892B21F08B859C85892B19F481E0D4
:1001F0008983B4C01A828CC02B813C814D815E8181
:100200006F81788589859A85222E332E442E552E2E
:10021000662E772E882E992E222D332D442D552D86
:10022000662D772D882D992D01E00E949D17A22E15
:10023000B32EC42ED52EE62EF72E082F192F2A2CDA
:100240003B2C4C2C5D2C6E2C7F2C802E912E222D45
:10025000332D442D552D662D772D882D992D02E0B7
:100260000E949D172F8B388F498F5A8F6B8F7C8FF1
:100270008D8F9E8F222D332D442D552D662D772D5C
:10028000882D992DAF88B88CC98CDA8CEB8CFC8CBE
:100290000D8D1E8D0E94B617A22EB32EC42ED52E04
:1002A000E62EF72E082F192F8A81882F90E02D85B2
:1002B0003E85820F931FFC018081882F90E0C097BC
:1002C000988B8F87892F880F880B898B8A8B8B8BD4
:1002D0008C8B8D8B8E8B2A2D3B2D4C2D5D2D6E2D79
:1002E0007F2D802F912FAF84B888C988DA88EB885A
:1002F000FC880D891E890E94B6172B833C834D8391
:100300005E836F83788789879A878A818F5F8A83E4
:100310008A81882F90E02D853E85820F931FFC01F6
:100320008081882309F068CF8B859C852B81FC0117
:1003300020832C81FC0121832D81FC0122832E81CD
:10034000FC0123832F81FC0124832885FC01258364
:100350002985FC0126832A85FC01278389816E96E5
:100360000FB6F894DEBF0FBECDBFDF91CF911F91C6
:100370000F91FF90EF90DF90CF90BF90AF909F9044
:100380008F907F906F905F904F903F902F90089547
:10039000CF93DF93CDB7DEB78AE390E02CE7FC0183
:1003A000208387E390E027EFFC01208384E390E043
:1003B0002FEFFC01208381E390E020E1FC0120830A
:1003C0008BE390E0FC01108288E390E020ECFC01DC
:1003D000208385E390E0FC01108282E390E02CEE24
:1003E000FC0120830000DF91CF910895CF93DF932C
:1003F00000D000D01F92CDB7DEB78C836D831982F9
:100400008C8187708A838C818695869586958B836F
:100410008C81803218F082E0898359C08D818230CE
:1004200018F081E0898353C08D81882F90E0009778
:1004300041F1019709F04BC08B81882F90E0880F24
:10044000991F805A9F4FFC01808191812B81222F1F
:1004500030E0220F331F205A3F4FF90120813181B4
:10046000F9012081622F2A81422F50E021E030E003
:1004700002C0220F331F4A95E2F7262BFC0120838E
:1004800026C08B81882F90E0880F991F805A9F4F3C
:10049000FC01808191812B81222F30E0220F331FBC
:1004A000205A3F4FF90120813181F9012081622FCB
:1004B0002A81422F50E021E030E002C0220F331F9A
:1004C0004A95E2F720952623FC01208300008981CC
:1004D0000F900F900F900F900F90DF91CF91089594
:1004E000CF93DF9300D000D01F92CDB7DEB78C83BF
:1004F0006D8319828C8187708A838C81869586951D
:1005000086958B838C81803218F082E0898343C189
:100510008D81843018F081E089833DC18D81882FE1
:1005200090E08130910509F457C0823091051CF4A8
:10053000892B49F030C18230910509F497C00397A7
:1005400009F4DFC028C18B81882F90E0880F991FA4
:10055000805A9F4FFC01808191812B81222F30E0B6
:10056000220F331F205A3F4FF90120813181F901B9
:100570002081622F2A81422F50E021E030E002C02A
:10058000220F331F4A95E2F7262BFC0120838B8133
:10059000882F90E0880F991F88599F4FFC01808118
:1005A00091812B81222F30E0220F331F28593F4F9A
:1005B000F90120813181F9012081622F2A81422FA6
:1005C00050E021E030E002C0220F331F4A95E2F7ED
:1005D000262BFC012083DFC08B81882F90E0880FC1
:1005E000991F805A9F4FFC01808191812B81222F7E
:1005F00030E0220F331F205A3F4FF9012081318113
:10060000F9012081622F2A81422F50E021E030E061
:1006100002C0220F331F4A95E2F7262BFC012083EC
:100620008B81882F90E0880F991F88599F4FFC017C
:10063000808191812B81222F30E0220F331F285996
:100640003F4FF90120813181F9012081622F2A81F8
:10065000422F50E021E030E002C0220F331F4A95C4
:10066000E2F720952623FC01208395C08B81882FFB
:1006700090E0880F991F805A9F4FFC0180819181E3
:100680002B81222F30E0220F331F205A3F4FF901D8
:1006900020813181F9012081622F2A81422F50E08F
:1006A00021E030E002C0220F331F4A95E2F7209587
:1006B0002623FC0120838B81882F90E0880F991FCF
:1006C00088599F4FFC01808191812B81222F30E03E
:1006D000220F331F28593F4FF90120813181F90141
:1006E0002081622F2A81422F50E021E030E002C0B9
:1006F000220F331F4A95E2F720952623FC01208321
:100700004AC08B81882F90E0880F991F805A9F4F95
:10071000FC01808191812B81222F30E0220F331F39
:10072000205A3F4FF90120813181F9012081622F48
:100730002A81422F50E021E030E002C0220F331F17
:100740004A95E2F720952623FC0120838B81882F90
:1007500090E0880F991F88599F4FFC0180819181FB
:100760002B81222F30E0220F331F28593F4FF901F0
:1007700020813181F9012081622F2A81422F50E0AE
:1007800021E030E002C0220F331F4A95E2F7262B0A
:10079000FC012083000089810F900F900F900F9033
:1007A0000F90DF91CF910895CF93DF931F92CDB734
:1007B000DEB719828FE590E02FE530E0F901208166
:1007C0002068FC01208389810F90DF91CF910895EB
:1007D000CF93DF931F92CDB7DEB719828FE590E0FC
:1007E0002FE530E0F90120812F77FC0120838981FA
:1007F0000F90DF91CF910895CF93DF9300D0CDB7C5
:10080000DEB78A8319828FE590E02FE530E0F901A9
:100810002081422F4F772A81222F30E03695322FC8
:10082000222737952795242BFC01208389810F905F
:100830000F90DF91CF910895CF93DF9300D000D038
:10084000CDB7DEB78A837C836B8319828B819C81D1
:10085000892B19F482E089830CC08FE590E0FC01BC
:100860008081282F221F2227221F8B819C81FC013F
:10087000208389810F900F900F900F90DF91CF917F
:100880000895CF93DF9300D01F92CDB7DEB78A8350
:100890006B8381E089838A81833018F083E08983C8
:1008A0008FC08A81882F90E08130910589F1823054
:1008B000910509F462C0892B09F082C085E590E0BA
:1008C00025E530E0F9012081322F3E7F2B81217018
:1008D000232BFC01208385E590E025E530E0F9013C
:1008E0002081422F4D7F2B812695222F30E02170D1
:1008F0003327220F331F242BFC0120838BE590E04C
:100900002BE530E0F90120812064FC01208358C0F0
:1009100085E590E025E530E0F9012081422F4B7F0D
:100920002B81222F30E021703327220F331F220F1B
:10093000331F242BFC01208385E590E025E530E082
:10094000F9012081422F477F2B812695222F30E00D
:1009500021703327220F331F220F331F220F331F23
:10096000242BFC0120838BE590E02BE530E0F9019E
:1009700020812068FC01208323C084E590E024E5E9
:1009800030E0F9012081422F4F7B2B81222F30E074
:10099000217033270024369527950794369527959F
:1009A0000794322F202D242BFC0120838BE590E02F
:1009B0002BE530E0F90120812062FC01208300005A
:1009C00089810F900F900F90DF91CF910895CF9371
:1009D000DF9300D0CDB7DEB78A8381E089838A8137
:1009E000833018F083E089832AC08A81882F90E0C1
:1009F0008130910581F082309105B9F0892B09F0A1
:100A00001EC08BE590E02BE530E0F90120812F7BC3
:100A1000FC01208314C08BE590E02BE530E0F90168
:100A200020812F77FC0120830AC08BE590E02BE525
:100A300030E0F90120812F7DFC01208300008981B5
:100A40000F900F90DF91CF910895CF93DF9300D057
:100A500000D0CDB7DEB78A837C836B8381E0898346
:100A60008A81833018F083E0898313C08B819C8155
:100A7000892B19F482E089830CC08A81882F90E049
:100A8000880F991F8E539F4F2B813C81FC0131832E
:100A9000208389810F900F900F900F90DF91CF915D
:100AA00008951F920F9200905F000F9211242F93D0
:100AB0003F934F935F936F937F938F939F93AF93E6
:100AC000BF93EF93FF93CF93DF93CDB7DEB78091C2
:100AD000C2009091C300892B31F08091C2009091A7
:100AE000C300FC0109950000DF91CF91FF91EF91C8
:100AF000BF91AF919F918F917F916F915F914F9136
:100B00003F912F910F9000925F000F901F901895CA
:100B10001F920F9200905F000F9211242F933F932A
:100B20004F935F936F937F938F939F93AF93BF93F5
:100B3000EF93FF93CF93DF93CDB7DEB78091C400DF
:100B40009091C500892B31F08091C4009091C5002F
:100B5000FC0109950000DF91CF91FF91EF91BF91CA
:100B6000AF919F918F917F916F915F914F913F9145
:100B70002F910F9000925F000F901F9018951F9279
:100B80000F9200905F000F9211242F933F934F9389
:100B90005F936F937F938F939F93AF93BF93EF93E5
:100BA000FF93CF93DF93CDB7DEB78091C6009091CE
:100BB000C700892B31F08091C6009091C700FC01DD
:100BC00009950000DF91CF91FF91EF91BF91AF9117
:100BD0009F918F917F916F915F914F913F912F9155
:100BE0000F9000925F000F901F901895CF93DF93A6
:100BF00000D000D01F92CDB7DEB78C836D831982F1
:100C00008C8187708A838C818695869586958B8367
:100C10008C81803218F082E089834EC08B81882FCE
:100C200090E0880F991F80599F4FFC01808191812E
:100C3000FC018081882F90E02A81222F30E002C0C1
:100C4000959587952A95E2F781709927892B19F454
:100C500081E0898331C08B81882F90E0880F991FB4
:100C600088589F4FFC01808191812B81222F30E099
:100C7000220F331F28583F4FF90120813181F9019C
:100C80002081622F2A81422F50E021E030E002C013
:100C9000220F331F4A95E2F7209562232D81222FE0
:100CA00030E04A81442F50E002C0220F331F4A95A2
:100CB000E2F7262BFC01208389810F900F900F9083
:100CC0000F900F90DF91CF910895CF93DF9300D0D5
:100CD00000D000D0CDB7DEB78C837E836D831982C0
:100CE0008C8187708A838C818695869586958B8387
:100CF0008C81803218F082E0898340C08B81882FFC
:100D000090E0880F991F80599F4FFC01808191814D
:100D1000FC018081882F90E02A81222F30E002C0E0
:100D2000959587952A95E2F781709927892B19F077
:100D300081E0898323C08D819E81892B19F484E011
:100D400089831CC08B81882F90E0880F991F805861
:100D50009F4FFC0180819181FC018081882F90E070
:100D60002A81222F30E002C0959587952A95E2F7D7
:100D7000282F21708D819E81FC01208389812696F8
:100D80000FB6F894DEBF0FBECDBFDF91CF910895AF
:100D9000CF93DF9300D01F92CDB7DEB78A836B83EA
:100DA00019828A81843018F083E089831EC08A8189
:100DB000882F90E0880F991F80599F4FFC018081F8
:100DC0009181FC0180818F3F19F081E089830DC002
:100DD0008A81882F90E0880F991F88589F4FFC01C7
:100DE000808191812B81FC01208389810F900F905C
:100DF0000F90DF91CF910895CF93DF9300D000D073
:100E0000CDB7DEB78A837C836B8319828A81843075
:100E100018F083E0898328C08A81882F90E0880FAA
:100E2000991F80599F4FFC0180819181FC01808135
:100E3000882319F081E0898317C08B819C81892BDD
:100E400019F484E0898310C08A81882F90E0880F8C
:100E5000991F80589F4FFC0180819181FC01208166
:100E60008B819C81FC01208389810F900F900F90D2
:100E70000F90DF91CF910895CF93DF9300D000D0F2
:100E8000CDB7DEB78C8319828C8187708A838C8181
:100E90008695869586958B838C81803218F082E0CA
:100EA000898341C08B81882F90E0880F991F8059DA
:100EB0009F4FFC0180819181FC018081882F90E00F
:100EC0002A81222F30E002C0959587952A95E2F776
:100ED00081709927892B19F481E0898324C08B8143
:100EE000882F90E0880F991F88589F4FFC018081C0
:100EF00091812B81222F30E0220F331F28583F4F42
:100F0000F90120813181F9012081622F2A81422F4C
:100F100050E021E030E002C0220F331F4A95E2F793
:100F20002627FC01208389810F900F900F900F904E
:100F3000DF91CF910895CF93DF9300D01F92CDB76B
:100F4000DEB79B838A8381E089838A819B81892B99
:100F500019F482E0898365C086E290E026E230E001
:100F6000F90120812F77FC01208386E290E026E2C0
:100F700030E0F9012081422F40772A813B81F9013D
:100F800023812770242BFC01208387E290E027E255
:100F900030E0F9012081422F487F2A813B81F9010D
:100FA00020812770242BFC01208387E290E027E238
:100FB00030E0F9012081422F4F7D2A813B81F901E8
:100FC0002281222F30E0220F331F22953295307F6D
:100FD0003227207F3227242BFC01208387E290E0F8
:100FE00027E230E0F9012081422F4F732A813B81B3
:100FF000F9012181222F30E00024369527950794AE
:10100000369527950794322F202D242BFC01208321
:1010100086E290E026E230E0F90120812068FC01C0
:10102000208389810F900F900F90DF91CF910895C9
:10103000CF93DF931F92CDB7DEB781E0898386E23D
:1010400090E026E230E0F90120812F77FC01208337
:1010500089810F90DF91CF910895CF93DF93CDB722
:10106000DEB7A6970FB6F894DEBF0FBECDBF9CA328
:101070008BA37EA36DA381E089831A828BA19CA19F
:10108000892B21F08DA19EA1892B19F482E08983FF
:1010900054C186E290E0FC01808186958695869514
:1010A00081708A8387E290E027E230E0F9012081B5
:1010B000422F487F2BA13CA1F90120812770242BCE
:1010C000FC01208386E290E026E230E0F9012081F5
:1010D000277FFC01208386E290E026E230E0F901E0
:1010E00020812064FC012083000086E290E0FC0166
:1010F00080818295869586958370882F90E0817097
:101100009927892B91F780E090E0A0E2B1E48B83EE
:101110009C83AD83BE832BEA3AEA4AE250E46B81BA
:101120007C818D819E810E948919DC01CB018F8396
:101130009887A987BA878B819C81AD81BE819C01EC
:10114000AD01BC01CD010E94C017DC01CB018B8732
:101150009C87AD87BE8720E030E040E85FE36F8189
:10116000788589859A850E942C1888231CF481E053
:101170008F87B2C020E03FEF4FE757E46B857C8557
:101180008D859E850E94841918160CF07BC020E086
:1011900030E04AE754E46B817C818D819E810E941E
:1011A0003118DC01CB01888B998BAA8BBB8B20E09B
:1011B00030E04AEF54E4688979898A899B890E94E2
:1011C0008919DC01CB018C8B9D8BAE8BBF8B20E012
:1011D00030E040E85FE36C897D898E899F890E94B9
:1011E0002C1888232CF481E090E0998F888F3FC0E1
:1011F00020E03FEF4FE757E46C897D898E899F8916
:101200000E94841918164CF520E030E040E251E4C9
:10121000688979898A899B890E948919DC01CB01B7
:10122000BC01CD010E94A318DC01CB01998F888FEE
:101230000FC088EC90E09B8F8A8F8A8D9B8D0197E1
:10124000F1F79B8F8A8F888D998D0197998F888F61
:10125000888D998D892B69F73FC06C897D898E892E
:101260009F890E94A318DC01CB01998F888F888DFC
:10127000998D9D8F8C8F8C8D9D8D0197F1F79D8F12
:101280008C8F2AC020E030E04FE753E46F817885EF
:1012900089859A850E9484191816ACF46B857C8523
:1012A0008D859E850E94A318DC01CB019F8F8E8FB8
:1012B0008E8D9F8D99A388A388A199A10197F1F79D
:1012C00099A388A30FC06F81788589859A850E942C
:1012D000A318DC01CB018F878F858AA38AA18A9509
:1012E000F1F78AA38BA19CA1FC0122818DA19EA173
:1012F000BC01822F0E94560A982F898189238983F5
:1013000086E290E026E230E0F90120812061FC01D4
:10131000208386E290E026E230E0F9012081422F2E
:10132000477F2A81222F30E0220F331F220F331FE5
:10133000220F331F242BFC0120838981A6960FB630
:10134000F894DEBF0FBECDBFDF91CF910895CF934C
:10135000DF9300D000D01F92CDB7DEB79B838A8386
:101360007D836C8381E089838C819D81892B19F435
:1013700082E089831CC08A819B81CC01A0E0B0E01F
:10138000BC01CD010E94D218DC01CB0123E931E080
:1013900040EA5BE3BC01CD010E948919DC01CB016D
:1013A0002C813D81F90180839183A283B38389815C
:1013B0000F900F900F900F900F90DF91CF910895A5
:1013C000CF93DF9300D01F92CDB7DEB79B838A8384
:1013D00081E089838A819B81892B19F482E089834A
:1013E00034C0000086E290E0FC0180818295869501
:1013F00086958370882F90E081709927892B91F7CB
:101400008A819B81FC0180818093D9008A819B81A4
:10141000FC0182818093D80087E290E027E230E0EF
:10142000F9012081422F487F2A813B81F9012081E7
:101430002770242BFC01208386E290E026E230E036
:10144000F90120812064FC01208389810F900F9095
:101450000F90DF91CF910895CF93DF931F92CDB777
:10146000DEB781E0898386E290E026E230E0F90190
:1014700020812860FC01208389810F90DF91CF912A
:101480000895CF93DF931F92CDB7DEB781E08983B4
:1014900086E290E026E230E0F9012081277FFC011E
:1014A000208389810F90DF91CF910895CF93DF93AF
:1014B00000D000D0CDB7DEB78A837C836B8381E018
:1014C00089838B819C81892B19F482E0898330C0C8
:1014D0008A81882F90E0892BB9F484E290E0FC01A6
:1014E0008081282F30E085E290E0FC018081882F08
:1014F00090E0982F8827822B932B9C018B819C81D5
:10150000FC013183208314C084E290E0FC018081DF
:1015100091819C010024220F331F001C220F331FD6
:10152000001C232F302D8B819C81FC013183208373
:1015300089810F900F900F900F90DF91CF910895B8
:10154000CF93DF9300D000D01F92CDB7DEB79B833F
:101550008A837D836C8381E089838A819B81892B47
:1015600019F482E089830FC08A819B81FC0180810C
:10157000882F90E0880F991F88539F4F2C813D81C1
:10158000FC013183208389810F900F900F900F9081
:101590000F90DF91CF9108951F920F9200905F00FE
:1015A0000F9211242F933F934F935F936F937F93E9
:1015B0008F939F93AF93BF93EF93FF93CF93DF935B
:1015C00000D01F92CDB7DEB781E089832091D8008B
:1015D000CE010296BC01822F0E94560A8983809117
:1015E000D900882F90E0880F991F88539F4FFC01E6
:1015F00080819181892B79F08091D900882F90E0AA
:10160000880F991F88539F4FFC01208131818A8167
:101610009B81F901099500000F900F900F90DF91C9
:10162000CF91FF91EF91BF91AF919F918F917F915A
:101630006F915F914F913F912F910F9000925F00BA
:101640000F901F901895CF93DF93CDB7DEB72797F4
:101650000FB6F894DEBF0FBECDBF9E838D836F8320
:1016600019821B821C821A828D819E81892B19F41A
:1016700082E0898322C01A821DC08F81882F90E06A
:101680002A81222F30E002C0959587952A95E2F7AE
:1016900081708C838A81882F90E02D813E81820F1A
:1016A000931FFC0180816C810E94F6058B838A81E7
:1016B0008F5F8A838A81843000F3898127960FB6F1
:1016C000F894DEBF0FBECDBFDF91CF910895CF93C9
:1016D000DF93CDB7DEB7EF970FB6F894DEBF0FBE3E
:1016E000CDBF9FAF8EAF19828EAD9FAD892B19F400
:1016F00082E089830FC28EAD9FAD68E30E94940D96
:10170000898380E090E0A0EAB0E48A839B83AC8385
:10171000BD8320E030E04AEF54E46A817B818C8114
:101720009D810E948919DC01CB018CAB9DABAEABD6
:10173000BFAB20E030E040E85FE36CA97DA98EA953
:101740009FA90E942C1888232CF481E090E099AF87
:1017500088AF3FC020E03FEF4FE757E46CA97DA979
:101760008EA99FA90E94841918164CF520E030E03C
:1017700040E251E46A817B818C819D810E948919BC
:10178000DC01CB01BC01CD010E94A318DC01CB011F
:1017900099AF88AF0FC088EC90E09BAF8AAF8AAD5D
:1017A0009BAD0197F1F79BAF8AAF88AD99AD0197DB
:1017B00099AF88AF88AD99AD892B69F714C06CA932
:1017C0007DA98EA99FA90E94A318DC01CB0199AF26
:1017D00088AF88AD99AD9DAF8CAF8CAD9DAD0197B5
:1017E000F1F79DAF8CAF8EAD9FAD68E30E94940D75
:1017F000898380E090E0A6E1B3E48E839F83A8878D
:10180000B9872BEA3AEA4AE250E46E817F81888503
:1018100099850E948919DC01CB01888F998FAA8F45
:10182000BB8F8E819F81A885B9859C01AD01BC01CC
:10183000CD010E94C017DC01CB018C8F9D8FAE8F34
:10184000BF8F20E030E040E85FE3688D798D8A8DBE
:101850009B8D0E942C1888231CF481E088A3B2C0C1
:1018600020E03FEF4FE757E46C8D7D8D8E8D9F8D8F
:101870000E94841918160CF07BC020E030E04AE783
:1018800054E46E817F81888599850E943118DC013E
:10189000CB0189A39AA3ABA3BCA320E030E04AEF1D
:1018A00054E469A17AA18BA19CA10E948919DC0151
:1018B000CB018DA39EA3AFA3B8A720E030E040E802
:1018C0005FE36DA17EA18FA198A50E942C188823AB
:1018D0002CF481E090E09AA789A73FC020E03FEF79
:1018E0004FE757E46DA17EA18FA198A50E948419AE
:1018F00018164CF520E030E040E251E469A17AA1ED
:101900008BA19CA10E948919DC01CB01BC01CD01F6
:101910000E94A318DC01CB019AA789A70FC088EC0D
:1019200090E09CA78BA78BA59CA50197F1F79CA79E
:101930008BA789A59AA501979AA789A789A59AA592
:10194000892B69F73FC06DA17EA18FA198A50E9448
:10195000A318DC01CB019AA789A789A59AA59EA700
:101960008DA78DA59EA50197F1F79EA78DA72AC0EB
:1019700020E030E04FE753E4688D798D8A8D9B8DB0
:101980000E9484191816ACF46C8D7D8D8E8D9F8D00
:101990000E94A318DC01CB0198AB8FA78FA598A953
:1019A0009AAB89AB89A99AA90197F1F79AAB89AB50
:1019B0000FC0688D798D8A8D9B8D0E94A318DC01E4
:1019C000CB0188A388A18BAB8BA98A95F1F78BAB50
:1019D0008EAD9FAD68E30E94940D89838EAD9FAD5F
:1019E00061E00E94940D89838EAD9FAD62E00E94FC
:1019F000940D89838EAD9FAD66E00E94940D89831E
:101A00008EAD9FAD6CE00E94940D89838EAD9FAD2D
:101A100068E20E94940D89838EAD9FAD60E80E94BC
:101A2000940D89838EAD9FAD61E00E94940D8983F2
:101A300080E090E0A0EAB0E48A879B87AC87BD870E
:101A400020E030E04AEF54E46A857B858C859D85F3
:101A50000E948919DC01CB018E879F87A88BB98BE7
:101A600020E030E040E85FE36E857F8588899989D2
:101A70000E942C1888232CF481E090E09B8B8A8BA9
:101A80003FC020E03FEF4FE757E46E857F858889B0
:101A900099890E94841918164CF520E030E040E244
:101AA00051E46A857B858C859D850E948919DC01BE
:101AB000CB01BC01CD010E94A318DC01CB019B8BA3
:101AC0008A8B0FC088EC90E09D8B8C8B8C899D89D4
:101AD0000197F1F79D8B8C8B8A899B8901979B8B52
:101AE0008A8B8A899B89892B69F714C06E857F85CB
:101AF000888999890E94A318DC01CB019B8B8A8B72
:101B00008A899B899F8B8E8B8E899F890197F1F79C
:101B10009F8B8E8B8981EF960FB6F894DEBF0FBE38
:101B2000CDBFDF91CF910895CF93DF9300D000D048
:101B30001F92CDB7DEB79C838B836D8319821A8287
:101B40008B819C81892B19F482E0898322C08B814F
:101B50009C81FC01848160E00E94F6058A838D816E
:101B6000282F22952F708B819C81622F0E940D104F
:101B700089838B819C810E944B1089838B819C81FE
:101B80006D810E940D1089838B819C810E944B1076
:101B9000898389810F900F900F900F900F90DF91A4
:101BA000CF910895CF93DF9300D000D0CDB7DEB7AB
:101BB0009B838A836C8319828A819B81892B19F488
:101BC00082E0898322C08A819B81FC01848161E05B
:101BD0000E94F60589838C81282F22952F708A8197
:101BE0009B81622F0E940D1089838A819B810E94B4
:101BF0004B1089838A819B816C810E940D1089839F
:101C00008A819B810E944B10898389810F900F905C
:101C10000F900F90DF91CF910895CF93DF9300D075
:101C200000D000D0CDB7DEB79B838A836C834D8311
:101C30002E8319828A819B81892B19F482E0898302
:101C400029C08A819B814E816D810E94AA0E898361
:101C50008A819B81FC01848161E00E94F605898371
:101C60008C81282F22952F708A819B81622F0E9460
:101C70000D1089838A819B810E944B1089838A8100
:101C80009B816C810E940D1089838A819B810E94B7
:101C90004B108983898126960FB6F894DEBF0FBE5C
:101CA000CDBFDF91CF910895CF93DF93CDB7DEB74E
:101CB00027970FB6F894DEBF0FBECDBF9C838B83F2
:101CC0007E836D834F8319821A828B819C81892B3D
:101CD00021F08D819E81892B19F482E0898330C0A7
:101CE0008F81883018F083E089832AC08F81882F04
:101CF00090E00896282F220F220F220F8B819C81C3
:101D0000622F0E94940D89831A8211C08A81882FC4
:101D100090E02D813E81820F931FFC0120818B81F9
:101D20009C81622F0E94D20D8A818F5F8A838A8173
:101D3000883060F38B819C8160E80E94940D8983D8
:101D4000898127960FB6F894DEBF0FBECDBFDF9115
:101D5000CF910895CF93DF9300D000D01F92CDB7DD
:101D6000DEB79B838A836C834D8319828A819B8132
:101D7000892B19F482E0898356C08C81853018F054
:101D800085E0898350C08D81853118F084E0898396
:101D90004AC08D8181508D838C81882F90E0823064
:101DA0009105C9F0833091051CF4019739F03AC0D0
:101DB00083309105E9F0049741F134C08D8120E82A
:101DC000280F8A819B81622F0E94940D982F898110
:101DD0008923898328C08D8120EC280F8A819B81EB
:101DE000622F0E94940D982F8981892389831BC0BB
:101DF0008D8124E9280F8A819B81622F0E94940D96
:101E0000982F8981892389830EC08D8124ED280F25
:101E10008A819B81622F0E94940D982F898189234A
:101E2000898301C0198289810F900F900F900F90C4
:101E30000F90DF91CF910895CF93DF9300D000D022
:101E400000D0CDB7DEB79C838B837E836D831982F0
:101E50001A828B819C81892B21F08D819E81892B17
:101E6000A9F482E089831DC08A81882F90E02D81AA
:101E70003E81820F931FFC0120818B819C81622F08
:101E80000E94D20D89838A818F5F8A838A81882FFD
:101E900090E02D813E81820F931FFC018081882379
:101EA00019F7898126960FB6F894DEBF0FBECDBF15
:101EB000DF91CF910895CF93DF93CDB7DEB7CC56A6
:101EC000D1090FB6F894DEBF0FBECDBF9E012959D0
:101ED0003F4FF90191838083CE0187599F4FFC01C9
:101EE000408351836283738319821A82CE01895998
:101EF0009F4FFC0180819181892B19F482E08983B5
:101F00001EC09E012D5F3F4FCE0187599F4FFC01A0
:101F100080819181A281B381A901BC01CD010E9480
:101F200049008A839E012D5F3F4FCE0189599F4F03
:101F3000FC0180819181B9010E941C0F89838981F4
:101F4000C459DF4F0FB6F894DEBF0FBECDBFDF918F
:101F5000CF910895CF93DF93CDB7DEB7CC56D1099B
:101F60000FB6F894DEBF0FBECDBF9E0129593F4F7B
:101F7000F90191838083CE0187599F4FFC014083F3
:101F800051836283738319821A82CE0189599F4FCC
:101F9000FC0180819181892B19F482E0898332C010
:101FA000CE0187599F4FFC0123812F93FC01228191
:101FB0002F93FC0121812F93FC0180818F938EEA66
:101FC00090E0892F8F938EEA90E08F93CE01039655
:101FD000292F2F938F930E94F6198DB79EB70896DD
:101FE0000FB6F894DEBF0FBECDBF3B81CE0189593D
:101FF0009F4FFC018081918122E041E0632F0E948C
:102000000D0E89838981C459DF4F0FB6F894DEBF66
:102010000FBECDBFDF91CF910895CF93DF9300D056
:1020200000D01F92CDB7DEB79C838B836D8319825E
:102030001A828B819C81892B19F482E0898322C0CA
:102040001A821DC08D81882F90E02A81222F30E0D6
:1020500002C0959587952A95E2F7482F41708A81AD
:10206000882F90E02B813C81820F931FFC0180819F
:10207000642F0E94F60589838A818F5F8A838A8113
:10208000843000F389810F900F900F900F900F9084
:10209000DF91CF910895CF93DF93CDB7DEB7A397AC
:1020A0000FB6F894DEBF0FBECDBF9BA38AA31982E3
:1020B0008AA19BA1892B19F482E08983FFC08AA1A0
:1020C0009BA1FC01858161E00E94F605898380E087
:1020D00090E0A0EAB0E48A839B83AC83BD832BEAC3
:1020E0003AEA4AE250E46A817B818C819D810E94B8
:1020F0008919DC01CB018E839F83A887B9878A81E8
:102100009B81AC81BD819C01AD01BC01CD010E94D0
:10211000C017DC01CB018A879B87AC87BD8720E095
:1021200030E040E85FE36E817F81888599850E9479
:102130002C1888231CF481E08E87B2C020E03FEF8A
:102140004FE757E46A857B858C859D850E948419BD
:1021500018160CF07BC020E030E04AE754E46A81B6
:102160007B818C819D810E943118DC01CB018F879E
:10217000988BA98BBA8B20E030E04AEF54E46F854E
:10218000788989899A890E948919DC01CB018B8B16
:102190009C8BAD8BBE8B20E030E040E85FE36B8929
:1021A0007C898D899E890E942C1888232CF481E0DB
:1021B00090E0988F8F8B3FC020E03FEF4FE757E4D0
:1021C0006B897C898D899E890E94841918164CF52B
:1021D00020E030E040E251E46F85788989899A896E
:1021E0000E948919DC01CB01BC01CD010E94A3181A
:1021F000DC01CB01988F8F8B0FC088EC90E09A8F19
:10220000898F898D9A8D0197F1F79A8F898F8F89A0
:10221000988D0197988F8F8B8F89988D892B69F76F
:102220003FC06B897C898D899E890E94A318DC013F
:10223000CB01988F8F8B8F89988D9C8F8B8F8B8DF7
:102240009C8D0197F1F79C8F8B8F2AC020E030E0A6
:102250004FE753E46E817F81888599850E948419B8
:102260001816ACF46A857B858C859D850E94A31821
:10227000DC01CB019E8F8D8F8D8D9E8D98A38F8FCE
:102280008F8D98A10197F1F798A38F8F0FC06E8162
:102290007F81888599850E94A318DC01CB018E87F8
:1022A0008E8589A389A18A95F1F789A38AA19BA12B
:1022B000FC01858160E00E94F60589838981A396EF
:1022C0000FB6F894DEBF0FBECDBFDF91CF9108955A
:1022D000CF93DF93CDB7DEB729970FB6F894DEBF63
:1022E0000FBECDBF9F838E837987688783E0898304
:1022F0001C821A821B828E819F81FC0181858D83C5
:102300008E819F81892B21F088859985892B19F4ED
:1023100082E08983DFC08E819F810E94741289834D
:102320008E819F81FC018085882F90E0009721F0AD
:10233000019709F467C0CCC01A825FC08E819F816B
:10234000FC01918581E0992309F080E0482F8A8182
:10235000882F90E02E813F81820F931FFC018081A6
:10236000642F0E94F6058C831B8230C08B81882FDE
:1023700090E02E813F81820F931F0496FC01208103
:10238000CE010596BC01822F0E9465068C838E814A
:102390009F81FC0191858D819817A9F08A81282F52
:1023A00030E08B81882F90E0220F331F220F331FE4
:1023B000820F931F8F549F4FFC0120818885998540
:1023C000FC01208319828B818F5F8B838B8184300A
:1023D00068F28E819F81FC0141858A81882F90E07F
:1023E0002E813F81820F931FFC018081642F0E9408
:1023F000F6058C838A818F5F8A838A81843008F412
:102400009DCF68C01B825FC08E819F81FC0191853A
:1024100081E0992309F080E0482F8B81882F90E09C
:102420002E813F81820F931F0496FC018081642FCF
:102430000E94F6058C831A822EC08A81882F90E034
:102440002E813F81820F931FFC012081CE010596D2
:10245000BC01822F0E9465068C838E819F81FC01C6
:1024600091858D819817A1F08A81282F30E08B818A
:10247000882F90E0220F331F220F331F820F931FEC
:102480008F549F4FFC01208188859985FC01208312
:102490008A818F5F8A838A81843078F28E819F81DE
:1024A000FC0141858B81882F90E02E813F81820F36
:1024B000931F0496FC018081642F0E94F6058C8393
:1024C0008B818F5F8B838B81843008F49DCF02C01A
:1024D00081E08983898129960FB6F894DEBF0FBE0B
:1024E000CDBFDF91CF910895CF93DF9300D000D07F
:1024F0001F92CDB7DEB79D838C8383E089831B82D7
:102500001A828C819D81892B19F482E0898342C0D3
:102510008C819D81FC018085882F90E0009719F0C7
:102520000197D9F035C01A8214C08C819D81FC01BD
:1025300041858A81882F90E02C813D81820F931FF5
:10254000FC018081642F0E94F6058B838A818F5F56
:102550008A838A81843048F31DC01A8215C08C8119
:102560009D81FC0141858A81882F90E02C813D81ED
:10257000820F931F0496FC018081642F0E94F60550
:102580008B838A818F5F8A838A81843040F302C083
:1025900081E0898389810F900F900F900F900F90A9
:1025A000DF91CF910895CF93DF9300D000D000D07A
:1025B000CDB7DEB79C838B837E836D8319821A82AD
:1025C0008B819C81892B21F08D819E81892B19F42F
:1025D00082E0898331C08B819C81FC018181882FBD
:1025E00090E0009771F0019729F58B819C81FC01A7
:1025F00020818D819E81BC01822F0E9465068A8385
:102600001BC08B819C81FC0120818D819E81BC013E
:10261000822F0E9465068A838D819E81FC019081B4
:1026200081E0992309F080E0282F8D819E81FC01B3
:10263000208302C081E08983898126960FB6F894B1
:10264000DEBF0FBECDBFDF91CF910895CF93DF9353
:10265000CDB7DEB7C754D1090FB6F894DEBF0FBEB1
:10266000CDBF19861A861B861C8619821A821B8288
:102670001C82CE018B5B9F4FFC011082CE018A5BD6
:102680009F4FFC011082CE01895B9F4FFC0110829D
:102690000E94C8011D821E821F8218861D821E8212
:1026A0001F821886ECC2CE018B5B9F4FBC0181EA72
:1026B00090E00E944916CE018B5B9F4FFC01808108
:1026C0008130A1F489819A81AB81BC818F3097429E
:1026D000A105B10558F489819A81AB81BC8101962D
:1026E000A11DB11D89839A83AB83BC83CE018A5B14
:1026F0009F4FBC0183EA90E00E940117CE018A5BE4
:102700009F4FFC018081813099F489819A81AB814E
:10271000BC81892B8A2B8B2B59F089819A81AB81C3
:10272000BC810197A109B10989839A83AB83BC83DA
:10273000CE01895B9F4FBC0185EA90E00E94A516FF
:10274000CE01895B9F4FFC018081813021F4198289
:102750001A821B821C8289819A81AB81BC812AE00A
:1027600030E040E050E0BC01CD010E947B17DC016D
:10277000CB018C8789819A81AB81BC812AE030E0D2
:1027800040E050E0BC01CD010E947B17DA01C90195
:102790002AE030E040E050E0BC01CD010E947B1710
:1027A000DC01CB018B8789819A81AB81BC8124E6D6
:1027B00030E040E050E0BC01CD010E947B17DA011F
:1027C000C9012AE030E040E050E0BC01CD010E94A8
:1027D0007B17DC01CB018A8789819A81AB81BC811F
:1027E00028EE33E040E050E0BC01CD010E947B17B1
:1027F000DA01C9012AE030E040E050E0BC01CD013F
:102800000E947B17DC01CB018987698588E890E00D
:102810000E94230B80918F000E945D1780918C0095
:102820000E946C1780E090E0A0EAB0E48D879E875C
:10283000AF87B88B20E030E04AEF54E46D857E85A9
:102840008F8598890E948919DC01CB018BAF9CAFE1
:10285000ADAFBEAF20E030E040E85FE36BAD7CADF4
:102860008DAD9EAD0E942C18882344F421E030E009
:10287000CE01CF96FC01318320835FC020E03FEF83
:102880004FE757E46BAD7CAD8DAD9EAD0E948419D2
:1028900018160CF044C020E030E040E251E46D85B1
:1028A0007E858F8598890E948919DC01CB01BC0146
:1028B000CD010E94A318DC01CB019E01215C3F4F9A
:1028C000F9019183808323C0CE018F5B9F4F28EC59
:1028D00030E0FC0131832083CE018F5B9F4FFC01F0
:1028E000808191810197F1F79E012F5B3F4FF901A4
:1028F00091838083CE01CF96FC01808191819C01E0
:1029000021503109CE01CF96FC0131832083CE01C5
:10291000CF96FC0180819181892BB1F628C06BADE7
:102920007CAD8DAD9EAD0E94A318DC01CB019E0154
:10293000215C3F4FF90191838083CE018D5B9F4FD6
:102940009E01215C3F4FF90120813181FC013183DF
:102950002083CE018D5B9F4FFC0180819181019787
:10296000F1F79E012D5B3F4FF901918380836A85CA
:1029700088E890E00E94230B80918C000E945D17F4
:1029800080918D000E946C1780E090E0A0EAB0E496
:10299000898B9A8BAB8BBC8B20E030E04AEF54E400
:1029A00069897A898B899C890E948919DC01CB010C
:1029B00089AB9AABABABBCAB20E030E040E85FE367
:1029C00069A97AA98BA99CA90E942C1888232CF4A8
:1029D00081E090E09EAB8DAB3FC020E03FEF4FE742
:1029E00057E469A97AA98BA99CA90E948419181691
:1029F0004CF520E030E040E251E469897A898B8926
:102A00009C890E948919DC01CB01BC01CD010E9487
:102A1000A318DC01CB019EAB8DAB0FC088EC90E01E
:102A200098AF8FAB8FA998AD0197F1F798AF8FABA7
:102A30008DA99EA901979EAB8DAB8DA99EA9892BCF
:102A400069F714C069A97AA98BA99CA90E94A31847
:102A5000DC01CB019EAB8DAB8DA99EA99AAF89AF4E
:102A600089AD9AAD0197F1F79AAF89AF6B8588E888
:102A700090E00E94230B80918D000E945D17809151
:102A80008E000E946C1780E090E0A0EAB0E48D8B8D
:102A90009E8BAF8BB88F20E030E04AEF54E46D8915
:102AA0007E898F89988D0E948919DC01CB018FA3C3
:102AB00098A7A9A7BAA720E030E040E85FE36FA19C
:102AC00078A589A59AA50E942C1888232CF481E06A
:102AD00090E09CA78BA73FC020E03FEF4FE757E473
:102AE0006FA178A589A59AA50E94841918164CF59E
:102AF00020E030E040E251E46D897E898F89988D35
:102B00000E948919DC01CB01BC01CD010E94A318F0
:102B1000DC01CB019CA78BA70FC088EC90E09EA79F
:102B20008DA78DA59EA50197F1F79EA78DA78BA5D3
:102B30009CA501979CA78BA78BA59CA5892B69F7C2
:102B400014C06FA178A589A59AA50E94A318DC01DD
:102B5000CB019CA78BA78BA59CA598AB8FA78FA516
:102B600098A90197F1F798AB8FA76C8588E890E05A
:102B70000E94230B80918E000E945D1780918F0030
:102B80000E946C1780E090E0A0E7B1E4898F9A8FF3
:102B9000AB8FBC8F20E030E04AEF54E4698D7A8D32
:102BA0008B8D9C8D0E948919DC01CB018D8F9E8FAE
:102BB000AF8FB8A320E030E040E85FE36D8D7E8DFD
:102BC0008F8D98A10E942C1888232CF481E090E02E
:102BD0009AA389A33FC020E03FEF4FE757E46D8DF4
:102BE0007E8D8F8D98A10E94841918164CF520E0D7
:102BF00030E040E251E4698D7A8D8B8D9C8D0E948E
:102C00008919DC01CB01BC01CD010E94A318DC01B4
:102C1000CB019AA389A30FC088EC90E09CA38BA35F
:102C20008BA19CA10197F1F79CA38BA389A19AA1E9
:102C300001979AA389A389A19AA1892B69F714C046
:102C40006D8D7E8D8F8D98A10E94A318DC01CB0124
:102C50009AA389A389A19AA19EA38DA38DA19EA1C8
:102C60000197F1F79EA38DA38D819E81AF81B885D9
:102C70000196A11DB11D8D839E83AF83B8878D8181
:102C80009E81AF81B8858897A105B10508F40BCD69
:102C900001CDCF93DF93CDB7DEB728970FB6F89469
:102CA000DEBF0FBECDBF9E838D8378876F83198271
:102CB0001C821A821B828D819E81892B21F08F813B
:102CC0009885892B19F482E0898330C09E012C5F9E
:102CD0003F4F8D819E81B9010E94D3128C8181303A
:102CE00091F48091DA009091DB0001969093DB00E3
:102CF0008093DA008091DA009091DB00039740F036
:102D000081E08A8305C01092DB001092DA001A82FB
:102D10008091DC009A81981749F08A818093DC00C9
:102D20008091DC00813011F481E08B838F81988564
:102D30002B81FC012083898128960FB6F894DEBF91
:102D40000FBECDBFDF91CF910895CF93DF93CDB765
:102D5000DEB728970FB6F894DEBF0FBECDBF9E83B7
:102D60008D8378876F8319821C821A821B828D81E2
:102D70009E81892B21F08F819885892B19F482E01F
:102D8000898330C09E012C5F3F4F8D819E81B901A8
:102D90000E94D3128C81813091F48091DD0090915A
:102DA000DE0001969093DE008093DD008091DD00CF
:102DB0009091DE00039740F081E08A8305C0109275
:102DC000DE001092DD001A828091DF009A81981750
:102DD00049F08A818093DF008091DF00813011F417
:102DE00081E08B838F8198852B81FC0120838981F1
:102DF00028960FB6F894DEBF0FBECDBFDF91CF91FE
:102E00000895CF93DF93CDB7DEB728970FB6F89428
:102E1000DEBF0FBECDBF9E838D8378876F831982FF
:102E20001C821A821B828D819E81892B21F08F81C9
:102E30009885892B19F482E0898330C09E012C5F2C
:102E40003F4F8D819E81B9010E94D3128C818130C8
:102E500091F48091E0009091E10001969093E1005F
:102E60008093E0008091E0009091E100039740F0B2
:102E700081E08A8305C01092E1001092E0001A827E
:102E80008091E2009A81981749F08A818093E2004C
:102E90008091E200813011F481E08B838F819885ED
:102EA0002B81FC012083898128960FB6F894DEBF20
:102EB0000FBECDBFDF91CF910895CF93DF931F92C7
:102EC000CDB7DEB7898361E089810E94F6050000F5
:102ED0000F90DF91CF910895CF93DF931F92CDB7DD
:102EE000DEB7898360E089810E94F60500000F90BB
:102EF000DF91CF910895A1E21A2EAA1BBB1BFD0101
:102F00000DC0AA1FBB1FEE1FFF1FA217B307E407C8
:102F1000F50720F0A21BB30BE40BF50B661F771F20
:102F2000881F991F1A9469F7609570958095909500
:102F30009B01AC01BD01CF0108950F93083090F0C3
:102F4000982F872F762F652F542F432F322F22272C
:102F50000850F4CF220F331F441F551F661F771FE1
:102F6000881F991F0A95B2F70F9108952A0D3B1DEE
:102F70004C1D5D1D6E1D7F1D801F911F08955058B3
:102F8000BB27AA270E94D7170C944A190E943C1904
:102F900038F00E94431920F039F49F3F19F426F4C9
:102FA0000C9439190EF4E095E7FB0C943319E92FD2
:102FB0000E945B1958F3BA176207730784079507D5
:102FC00020F079F4A6F50C947D190EF4E0950B2E03
:102FD000BA2FA02D0B01B90190010C01CA01A0016B
:102FE0001124FF27591B99F0593F50F4503E68F1C6
:102FF0001A16F040A22F232F342F4427585FF3CF07
:10300000469537952795A795F0405395C9F77EF4D7
:103010001F16BA0B620B730B840BBAF09150A1F020
:10302000FF0FBB1F661F771F881FC2F70EC0BA0FA6
:10303000621F731F841F48F4879577956795B7952E
:10304000F7959E3F08F0B0CF9395880F08F0992729
:10305000EE0F9795879508950E940F1908F481E067
:1030600008950E9445180C944A190E94431958F07B
:103070000E943C1940F029F45F3F29F00C94331969
:1030800051110C947E190C9439190E945B1968F344
:103090009923B1F3552391F3951B550BBB27AA2711
:1030A00062177307840738F09F5F5F4F220F331F4B
:1030B000441FAA1FA9F335D00E2E3AF0E0E832D013
:1030C00091505040E695001CCAF72BD0FE2F29D016
:1030D000660F771F881FBB1F261737074807AB07E8
:1030E000B0E809F0BB0B802DBF01FF2793585F4F5D
:1030F0003AF09E3F510578F00C9433190C947E19E8
:103100005F3FE4F3983ED4F3869577956795B7953E
:10311000F7959F5FC9F7880F911D9695879597F949
:103120000895E1E0660F771F881FBB1F62177307C2
:103130008407BA0720F0621B730B840BBA0BEE1FD7
:1031400088F7E09508950E94631988F09F5798F0DA
:10315000B92F9927B751B0F0E1F0660F771F881F9C
:10316000991F1AF0BA95C9F714C0B13091F00E94B6
:103170007D19B1E008950C947D19672F782F882769
:10318000B85F39F0B93FCCF3869577956795B395DD
:10319000D9F73EF490958095709561957F4F8F4F4C
:1031A0009F4F0895E89409C097FB3EF49095809551
:1031B000709561957F4F8F4F9F4F9923A9F0F92FFD
:1031C00096E9BB279395F695879577956795B7957B
:1031D000F111F8CFFAF4BB0F11F460FF1BC06F5F61
:1031E0007F4F8F4F9F4F16C0882311F096E911C073
:1031F000772321F09EE8872F762F05C0662371F094
:1032000096E8862F70E060E02AF09A95660F771FA7
:10321000881FDAF7880F9695879597F90895990F83
:103220000008550FAA0BE0E8FEEF16161706E80790
:10323000F907C0F012161306E407F50798F0621BB1
:10324000730B840B950B39F40A2661F0232B242B86
:10325000252B21F408950A2609F4A140A6958FEFA5
:10326000811D811D089597F99F6780E870E060E0F7
:1032700008959FEF80EC089500240A94161617060F
:1032800018060906089500240A9412161306140657
:1032900005060895092E0394000C11F4882352F0BA
:1032A000BB0F40F4BF2B11F460FF04C06F5F7F4F72
:1032B0008F4F9F4F089557FD9058440F551F59F059
:1032C0005F3F71F04795880F97FB991F61F09F3F13
:1032D00079F087950895121613061406551FF2CF3C
:1032E0004695F1DF08C0161617061806991FF1CF8C
:1032F00086957105610508940895E894BB276627B3
:103300007727CB0197F908950E940F1908F48FEFE2
:1033100008950E949C190C944A190E943C1938F097
:103320000E94431920F0952311F00C9433190C944A
:10333000391911240C947E190E945B1970F3959F22
:10334000C1F3950F50E0551F629FF001729FBB279C
:10335000F00DB11D639FAA27F00DB11DAA1F649F38
:103360006627B00DA11D661F829F2227B00DA11DEB
:10337000621F739FB00DA11D621F839FA00D611D71
:10338000221F749F3327A00D611D231F849F600D92
:10339000211D822F762F6A2F11249F5750409AF0BB
:1033A000F1F088234AF0EE0FFF1FBB1F661F771F47
:1033B000881F91505040A9F79E3F510580F00C9412
:1033C00033190C947E195F3FE4F3983ED4F386954D
:1033D00077956795B795F795E7959F5FC1F7FE2BB2
:1033E000880F911D9695879597F90895AEE0B0E006
:1033F000ECEFF9E10C94B71C0D891E8986E08C83F3
:103400001A8309838FEF9FE79E838D83AE01475E0A
:103410005F4F6F89788DCE0101960E94181AEF8157
:10342000F885E00FF11F10822E96E4E00C94D31C77
:10343000ABE0B0E0EEE1FAE10C94A91C6C017B0179
:103440008A01FC0117821682838181FFCCC1CE01E3
:1034500001963C01F6019381F70193FD859193FF5D
:1034600081917F01882309F4BAC1853239F493FD33
:10347000859193FF81917F01853229F4B60190E017
:103480000E940F1CE7CF912C212C312CFFE1F3156A
:10349000D8F08B3279F038F4803279F08332A1F4AD
:1034A000232D20611DC08D3261F0803369F4232DFE
:1034B000216016C0832D8260382EE32DE4603E2EFD
:1034C0002AC0F32DF8601DC037FC2DC020ED280F59
:1034D0002A3040F08E32B9F436FC81C1232D2064AD
:1034E000322E19C036FE06C08AE0989E200D1124A7
:1034F000922E11C0EAE02E9E200D1124222EF32DD3
:10350000F0623F2E08C08C3621F4832D8068382E5F
:1035100002C0883641F4F70193FD859193FF8191B4
:103520007F018111B3CF982F9F7D9554933028F45C
:103530000C5F1F4F9FE399830DC0833631F08337B3
:1035400071F0833509F059C021C0F8018081898369
:103550000E5F1F4F88248394912C530113C02801C0
:10356000F2E04F0E511CF801A080B18036FE03C07E
:10357000692D70E002C06FEF7FEFC5010E94041C4F
:103580004C018201F32DFF773F2E16C0280122E067
:10359000420E511CF801A080B18036FE03C0692D97
:1035A00070E002C06FEF7FEFC5010E94F91B4C0174
:1035B000F32DF0683F2E820133FC1BC0822D90E07A
:1035C00088169906B0F4B60180E290E00E940F1CC4
:1035D0002A94F4CFF50137FC859137FE81915F0184
:1035E000B60190E00E940F1C21102A9421E0821A5B
:1035F00091088114910471F7E8C0843611F089367E
:1036000041F5F80137FE07C06081718182819381A5
:103610000C5F1F4F08C060817181072E000C880B62
:10362000990B0E5F1F4FF32DFF763F2E97FF09C0BA
:1036300090958095709561957F4F8F4F9F4FF06863
:103640003F2E2AE030E0A3010E944B1C882E8618F2
:1036500045C0853731F4232D2F7EB22E2AE030E08D
:1036600025C0932D997FB92E8F36C1F018F4883577
:1036700079F0B5C0803719F0883721F0B0C0E92F54
:10368000E061BE2EB4FE0DC0FB2DF460BF2E09C05C
:1036900034FE0AC0292F2660B22E06C028E030E092
:1036A00005C020E130E002C020E132E0F801B7FEC1
:1036B00007C060817181828193810C5F1F4F06C0BA
:1036C0006081718180E090E00E5F1F4FA3010E9436
:1036D0004B1C882E8618FB2DFF773F2E36FE0DC023
:1036E000232D2E7FA22E891458F434FE0BC032FCF9
:1036F00009C0832D8E7EA82E05C0B82CA32C03C034
:10370000B82C01C0B92CA4FE0FC0FE01E80DF11DBC
:103710008081803321F49A2D997EA92E09C0A2FEC2
:1037200006C0B394B39404C08A2D867809F0B3948C
:10373000A3FC11C0A0FE06C0B21488F4280C922C81
:103740009B180EC0B21460F4B60180E290E00E94B3
:103750000F1CB394F7CFB21418F42B1802C0982C96
:10376000212CA4FE10C0B60180E390E00E940F1C43
:10377000A2FE17C0A1FC03C088E790E002C088E564
:1037800090E0B6010CC08A2D867859F0A1FE02C0E7
:103790008BE201C080E2A7FC8DE2B60190E00E94BE
:1037A0000F1C891438F4B60180E390E00E940F1CCE
:1037B0009A94F7CF8A94F301E80DF11D8081B60148
:1037C00090E00E940F1C8110F5CF222009F442CE18
:1037D000B60180E290E00E940F1C2A94F6CFF60119
:1037E0008681978102C08FEF9FEF2B96E2E10C94C8
:1037F000C51CFC010590615070400110D8F7809500
:1038000090958E0F9F1F0895FC01615070400190AC
:103810000110D8F7809590958E0F9F1F08950F93F4
:103820001F93CF93DF93FB01238121FD03C08FEF13
:103830009FEF2CC022FF16C046815781248135811D
:103840004217530744F4A081B1819D012F5F3F4F80
:10385000318320838C93268137812F5F3F4F3783BD
:10386000268314C08B01EC01FB010084F185E02D5F
:103870000995892BE1F6D80116968D919C911797A1
:10388000019617969C938E931697CE01DF91CF9158
:103890001F910F910895FA01AA27283051F1203184
:1038A00081F1E8946F936E7F6E5F7F4F8F4F9F4FD4
:1038B000AF4FB1E03ED0B4E03CD0670F781F891F16
:1038C0009A1FA11D680F791F8A1F911DA11D6A0FE4
:1038D000711D811D911DA11D20D009F468943F9197
:1038E0002AE0269F11243019305D3193DEF6CF0196
:1038F0000895462F4770405D4193B3E00FD0C9F75C
:10390000F6CF462F4F70405D4A3318F0495D31FDC8
:103910004052419302D0A9F7EACFB4E0A69597951B
:10392000879577956795BA95C9F7009761057105F1
:1039300008959B01AC010A2E06945795479537953B
:103940002795BA95C9F7620F731F841F951FA01D95
:1039500008952F923F924F925F926F927F928F9233
:103960009F92AF92BF92CF92DF92EF92FF920F930E
:103970001F93CF93DF93CDB7DEB7CA1BDB0B0FB618
:10398000F894DEBF0FBECDBF09942A8839884888D5
:103990005F846E847D848C849B84AA84B984C8846B
:1039A000DF80EE80FD800C811B81AA81B981CE0F62
:1039B000D11D0FB6F894DEBF0FBECDBFED01089547
:0439C000F894FFCFA9
:1039C4003A003700340031003B0038003500320043
:1039D4003A003700340031003B0038003500320033
:1039E400390036003300300008090A0C0E0D0203BA
:1039F40008090A0C030200151413121F1E1D1B00D4
:103A0400011F001E001D00256C750025660025673A
:103A1400003738392F3435362A3132332D63303D6F
:023A24002B0075
:00000001FF
