:100000000C942A000C9451050C9488050C94BF059F
:100010000C9447000C9447000C9447000C94470044
:100020000C9447000C9447000C9447000C94470034
:100030000C9447000C9447000C9447000C94470024
:100040000C94CC0A0C9447000C9447000C94470085
:100050000C94470011241FBECFE5D8E0DEBFCDBF12
:1000600011E0A0E6B0E0EEE4FFE302C005900D92DF
:10007000A030B107D9F721E0A0E0B1E001C01D92A6
:10008000A831B207E1F70E9426130C94A51F0C9427
:100090000000CF93DF93CDB7DEB727970FB6F89464
:1000A000DEBF0FBECDBF6A837B838C839D835F835E
:1000B0004E8319828E819F81892B19F481E0898377
:1000C0001DC08D818F938C818F938B818F938A81BB
:1000D0008F938BED90E0892F8F938BED90E08F9332
:1000E0008F818F938E818F930E94BB1C8DB79EB79B
:1000F00008960FB6F894DEBF0FBECDBF8981279654
:100100000FB6F894DEBF0FBECDBFDF91CF9108953B
:10011000CF93DF93CDB7DEB727970FB6F894DEBF46
:100120000FBECDBF6A837B838C839D835F834E83A9
:1001300019828E819F81892B19F481E089831DC0EA
:100140008D818F938C818F938B818F938A818F93F5
:100150008FED90E0892F8F938FED90E08F938F81BB
:100160008F938E818F930E94BB1C8DB79EB708968C
:100170000FB6F894DEBF0FBECDBF898127960FB6AC
:10018000F894DEBF0FBECDBFDF91CF9108952F92BF
:100190003F924F925F926F927F928F929F92AF9217
:1001A000BF92CF92DF92EF92FF920F931F93CF9364
:1001B000DF93CDB7DEB76E970FB6F894DEBF0FBEF4
:1001C000CDBF9C878B877E876D8719821A821B82A1
:1001D0001C821D821E821F82188619861A868D85B2
:1001E0009E85892B21F08B859C85892B19F481E0D4
:1001F0008983B4C01A828CC02B813C814D815E8181
:100200006F81788589859A85222E332E442E552E2E
:10021000662E772E882E992E222D332D442D552D86
:10022000662D772D882D992D01E00E94621AA22E4D
:10023000B32EC42ED52EE62EF72E082F192F2A2CDA
:100240003B2C4C2C5D2C6E2C7F2C802E912E222D45
:10025000332D442D552D662D772D882D992D02E0B7
:100260000E94621A2F8B388F498F5A8F6B8F7C8F29
:100270008D8F9E8F222D332D442D552D662D772D5C
:10028000882D992DAF88B88CC98CDA8CEB8CFC8CBE
:100290000D8D1E8D0E947B1AA22EB32EC42ED52E3C
:1002A000E62EF72E082F192F8A81882F90E02D85B2
:1002B0003E85820F931FFC018081882F90E0C097BC
:1002C000988B8F87892F880F880B898B8A8B8B8BD4
:1002D0008C8B8D8B8E8B2A2D3B2D4C2D5D2D6E2D79
:1002E0007F2D802F912FAF84B888C988DA88EB885A
:1002F000FC880D891E890E947B1A2B833C834D83C9
:100300005E836F83788789879A878A818F5F8A83E4
:100310008A81882F90E02D853E85820F931FFC01F6
:100320008081882309F068CF8B859C852B81FC0117
:1003300020832C81FC0121832D81FC0122832E81CD
:10034000FC0123832F81FC0124832885FC01258364
:100350002985FC0126832A85FC01278389816E96E5
:100360000FB6F894DEBF0FBECDBFDF91CF911F91C6
:100370000F91FF90EF90DF90CF90BF90AF909F9044
:100380008F907F906F905F904F903F902F90089547
:10039000CF93DF93CDB7DEB78AE390E02CE6FC0184
:1003A000208387E390E027EFFC01208384E390E043
:1003B0002FEFFC01208381E390E020E1FC0120830A
:1003C0008BE390E0FC01108288E390E020ECFC01DC
:1003D000208385E390E0FC01108282E390E02CEE24
:1003E000FC0120830000DF91CF910895CF93DF932C
:1003F00000D000D01F92CDB7DEB78C836D831982F9
:100400008C8187708A838C818695869586958B836F
:100410008C81803218F082E0898359C08D818230CE
:1004200018F081E0898353C08D81882F90E0009778
:1004300041F1019709F04BC08B81882F90E0880F24
:10044000991F805A9F4FFC01808191812B81222F1F
:1004500030E0220F331F205A3F4FF90120813181B4
:10046000F9012081622F2A81422F50E021E030E003
:1004700002C0220F331F4A95E2F7262BFC0120838E
:1004800026C08B81882F90E0880F991F805A9F4F3C
:10049000FC01808191812B81222F30E0220F331FBC
:1004A000205A3F4FF90120813181F9012081622FCB
:1004B0002A81422F50E021E030E002C0220F331F9A
:1004C0004A95E2F720952623FC01208300008981CC
:1004D0000F900F900F900F900F90DF91CF91089594
:1004E000CF93DF9300D000D01F92CDB7DEB78C83BF
:1004F0006D8319828C8187708A838C81869586951D
:1005000086958B838C81803218F082E0898343C189
:100510008D81843018F081E089833DC18D81882FE1
:1005200090E08130910509F457C0823091051CF4A8
:10053000892B49F030C18230910509F497C00397A7
:1005400009F4DFC028C18B81882F90E0880F991FA4
:10055000805A9F4FFC01808191812B81222F30E0B6
:10056000220F331F205A3F4FF90120813181F901B9
:100570002081622F2A81422F50E021E030E002C02A
:10058000220F331F4A95E2F7262BFC0120838B8133
:10059000882F90E0880F991F88599F4FFC01808118
:1005A00091812B81222F30E0220F331F28593F4F9A
:1005B000F90120813181F9012081622F2A81422FA6
:1005C00050E021E030E002C0220F331F4A95E2F7ED
:1005D000262BFC012083DFC08B81882F90E0880FC1
:1005E000991F805A9F4FFC01808191812B81222F7E
:1005F00030E0220F331F205A3F4FF9012081318113
:10060000F9012081622F2A81422F50E021E030E061
:1006100002C0220F331F4A95E2F7262BFC012083EC
:100620008B81882F90E0880F991F88599F4FFC017C
:10063000808191812B81222F30E0220F331F285996
:100640003F4FF90120813181F9012081622F2A81F8
:10065000422F50E021E030E002C0220F331F4A95C4
:10066000E2F720952623FC01208395C08B81882FFB
:1006700090E0880F991F805A9F4FFC0180819181E3
:100680002B81222F30E0220F331F205A3F4FF901D8
:1006900020813181F9012081622F2A81422F50E08F
:1006A00021E030E002C0220F331F4A95E2F7209587
:1006B0002623FC0120838B81882F90E0880F991FCF
:1006C00088599F4FFC01808191812B81222F30E03E
:1006D000220F331F28593F4FF90120813181F90141
:1006E0002081622F2A81422F50E021E030E002C0B9
:1006F000220F331F4A95E2F720952623FC01208321
:100700004AC08B81882F90E0880F991F805A9F4F95
:10071000FC01808191812B81222F30E0220F331F39
:10072000205A3F4FF90120813181F9012081622F48
:100730002A81422F50E021E030E002C0220F331F17
:100740004A95E2F720952623FC0120838B81882F90
:1007500090E0880F991F88599F4FFC0180819181FB
:100760002B81222F30E0220F331F28593F4FF901F0
:1007700020813181F9012081622F2A81422F50E0AE
:1007800021E030E002C0220F331F4A95E2F7262B0A
:10079000FC012083000089810F900F900F900F9033
:1007A0000F90DF91CF910895CF93DF931F92CDB734
:1007B000DEB719828FE590E02FE530E0F901208166
:1007C0002068FC01208389810F90DF91CF910895EB
:1007D000CF93DF931F92CDB7DEB719828FE590E0FC
:1007E0002FE530E0F90120812F77FC0120838981FA
:1007F0000F90DF91CF910895CF93DF9300D0CDB7C5
:10080000DEB78A8319828FE590E02FE530E0F901A9
:100810002081422F4F772A81222F30E03695322FC8
:10082000222737952795242BFC01208389810F905F
:100830000F90DF91CF910895CF93DF9300D000D038
:10084000CDB7DEB78A837C836B8319828B819C81D1
:10085000892B19F482E089830CC08FE590E0FC01BC
:100860008081282F221F2227221F8B819C81FC013F
:10087000208389810F900F900F900F90DF91CF917F
:100880000895CF93DF9300D01F92CDB7DEB78A8350
:100890006B8381E089838A81833018F083E08983C8
:1008A0008FC08A81882F90E08130910589F1823054
:1008B000910509F462C0892B09F082C085E590E0BA
:1008C00025E530E0F9012081322F3E7F2B81217018
:1008D000232BFC01208385E590E025E530E0F9013C
:1008E0002081422F4D7F2B812695222F30E02170D1
:1008F0003327220F331F242BFC0120838BE590E04C
:100900002BE530E0F90120812064FC01208358C0F0
:1009100085E590E025E530E0F9012081422F4B7F0D
:100920002B81222F30E021703327220F331F220F1B
:10093000331F242BFC01208385E590E025E530E082
:10094000F9012081422F477F2B812695222F30E00D
:1009500021703327220F331F220F331F220F331F23
:10096000242BFC0120838BE590E02BE530E0F9019E
:1009700020812068FC01208323C084E590E024E5E9
:1009800030E0F9012081422F4F7B2B81222F30E074
:10099000217033270024369527950794369527959F
:1009A0000794322F202D242BFC0120838BE590E02F
:1009B0002BE530E0F90120812062FC01208300005A
:1009C00089810F900F900F90DF91CF910895CF9371
:1009D000DF9300D0CDB7DEB78A8381E089838A8137
:1009E000833018F083E089832AC08A81882F90E0C1
:1009F0008130910581F082309105B9F0892B09F0A1
:100A00001EC08BE590E02BE530E0F90120812F7BC3
:100A1000FC01208314C08BE590E02BE530E0F90168
:100A200020812F77FC0120830AC08BE590E02BE525
:100A300030E0F90120812F7DFC01208300008981B5
:100A40000F900F90DF91CF910895CF93DF9300D057
:100A500000D0CDB7DEB78A837C836B8381E0898346
:100A60008A81833018F083E0898313C08B819C8155
:100A7000892B19F482E089830CC08A81882F90E049
:100A8000880F991F80509F4F2B813C81FC0131833F
:100A9000208389810F900F900F900F90DF91CF915D
:100AA00008951F920F9200905F000F9211242F93D0
:100AB0003F934F935F936F937F938F939F93AF93E6
:100AC000BF93EF93FF93CF93DF93CDB7DEB78091C2
:100AD000000190910101892B31F0809100019091EA
:100AE0000101FC0109950000DF91CF91FF91EF9189
:100AF000BF91AF919F918F917F916F915F914F9136
:100B00003F912F910F9000925F000F901F901895CA
:100B10001F920F9200905F000F9211242F933F932A
:100B20004F935F936F937F938F939F93AF93BF93F5
:100B3000EF93FF93CF93DF93CDB7DEB780910201A0
:100B400090910301892B31F0809102019091030172
:100B5000FC0109950000DF91CF91FF91EF91BF91CA
:100B6000AF919F918F917F916F915F914F913F9145
:100B70002F910F9000925F000F901F9018951F9279
:100B80000F9200905F000F9211242F933F934F9389
:100B90005F936F937F938F939F93AF93BF93EF93E5
:100BA000FF93CF93DF93CDB7DEB78091040190918F
:100BB0000501892B31F08091040190910501FC0120
:100BC00009950000DF91CF91FF91EF91BF91AF9117
:100BD0009F918F917F916F915F914F913F912F9155
:100BE0000F9000925F000F901F901895CF93DF93A6
:100BF00000D000D01F92CDB7DEB78C836D831982F1
:100C00008C8187708A838C818695869586958B8367
:100C10008C81803218F082E089834EC08B81882FCE
:100C200090E0880F991F80599F4FFC01808191812E
:100C3000FC018081882F90E02A81222F30E002C0C1
:100C4000959587952A95E2F781709927892B19F454
:100C500081E0898331C08B81882F90E0880F991FB4
:100C600088589F4FFC01808191812B81222F30E099
:100C7000220F331F28583F4FF90120813181F9019C
:100C80002081622F2A81422F50E021E030E002C013
:100C9000220F331F4A95E2F7209562232D81222FE0
:100CA00030E04A81442F50E002C0220F331F4A95A2
:100CB000E2F7262BFC01208389810F900F900F9083
:100CC0000F900F90DF91CF910895CF93DF9300D0D5
:100CD00000D000D0CDB7DEB78C837E836D831982C0
:100CE0008C8187708A838C818695869586958B8387
:100CF0008C81803218F082E0898340C08B81882FFC
:100D000090E0880F991F80599F4FFC01808191814D
:100D1000FC018081882F90E02A81222F30E002C0E0
:100D2000959587952A95E2F781709927892B19F077
:100D300081E0898323C08D819E81892B19F484E011
:100D400089831CC08B81882F90E0880F991F805861
:100D50009F4FFC0180819181FC018081882F90E070
:100D60002A81222F30E002C0959587952A95E2F7D7
:100D7000282F21708D819E81FC01208389812696F8
:100D80000FB6F894DEBF0FBECDBFDF91CF910895AF
:100D9000CF93DF9300D01F92CDB7DEB78A836B83EA
:100DA00019828A81843018F083E089831EC08A8189
:100DB000882F90E0880F991F80599F4FFC018081F8
:100DC0009181FC0180818F3F19F081E089830DC002
:100DD0008A81882F90E0880F991F88589F4FFC01C7
:100DE000808191812B81FC01208389810F900F905C
:100DF0000F90DF91CF910895CF93DF9300D000D073
:100E0000CDB7DEB78A837C836B8319828A81843075
:100E100018F083E0898328C08A81882F90E0880FAA
:100E2000991F80599F4FFC0180819181FC01808135
:100E3000882319F081E0898317C08B819C81892BDD
:100E400019F484E0898310C08A81882F90E0880F8C
:100E5000991F80589F4FFC0180819181FC01208166
:100E60008B819C81FC01208389810F900F900F90D2
:100E70000F90DF91CF910895CF93DF9300D000D0F2
:100E8000CDB7DEB78C8319828C8187708A838C8181
:100E90008695869586958B838C81803218F082E0CA
:100EA000898341C08B81882F90E0880F991F8059DA
:100EB0009F4FFC0180819181FC018081882F90E00F
:100EC0002A81222F30E002C0959587952A95E2F776
:100ED00081709927892B19F481E0898324C08B8143
:100EE000882F90E0880F991F88589F4FFC018081C0
:100EF00091812B81222F30E0220F331F28583F4F42
:100F0000F90120813181F9012081622F2A81422F4C
:100F100050E021E030E002C0220F331F4A95E2F793
:100F20002627FC01208389810F900F900F900F904E
:100F3000DF91CF910895CF93DF9300D01F92CDB76B
:100F4000DEB79B838A8381E089838A819B81892B99
:100F500019F482E0898365C086E290E026E230E001
:100F6000F90120812F77FC01208386E290E026E2C0
:100F700030E0F9012081422F40772A813B81F9013D
:100F800023812770242BFC01208387E290E027E255
:100F900030E0F9012081422F487F2A813B81F9010D
:100FA00020812770242BFC01208387E290E027E238
:100FB00030E0F9012081422F4F7D2A813B81F901E8
:100FC0002281222F30E0220F331F22953295307F6D
:100FD0003227207F3227242BFC01208387E290E0F8
:100FE00027E230E0F9012081422F4F732A813B81B3
:100FF000F9012181222F30E00024369527950794AE
:10100000369527950794322F202D242BFC01208321
:1010100086E290E026E230E0F90120812068FC01C0
:10102000208389810F900F900F90DF91CF910895C9
:10103000CF93DF931F92CDB7DEB781E0898386E23D
:1010400090E026E230E0F90120812F77FC01208337
:1010500089810F90DF91CF910895CF93DF93CDB722
:10106000DEB7A6970FB6F894DEBF0FBECDBF9CA328
:101070008BA37EA36DA381E089831A828BA19CA19F
:10108000892B21F08DA19EA1892B19F482E08983FF
:1010900054C186E290E0FC01808186958695869514
:1010A00081708A8387E290E027E230E0F9012081B5
:1010B000422F487F2BA13CA1F90120812770242BCE
:1010C000FC01208386E290E026E230E0F9012081F5
:1010D000277FFC01208386E290E026E230E0F901E0
:1010E00020812064FC012083000086E290E0FC0166
:1010F00080818295869586958370882F90E0817097
:101100009927892B91F780E090E0A0E2B1E48B83EE
:101110009C83AD83BE832BEA3AEA4AE250E46B81BA
:101120007C818D819E810E944E1CDC01CB018F83CE
:101130009887A987BA878B819C81AD81BE819C01EC
:10114000AD01BC01CD010E94851ADC01CB018B876A
:101150009C87AD87BE8720E030E040E85FE36F8189
:10116000788589859A850E94F11A88231CF481E08C
:101170008F87B2C020E03FEF4FE757E46B857C8557
:101180008D859E850E94491C18160CF07BC020E0BE
:1011900030E04AE754E46B817C818D819E810E941E
:1011A000F61ADC01CB01888B998BAA8BBB8B20E0D4
:1011B00030E04AEF54E4688979898A899B890E94E2
:1011C0004E1CDC01CB018C8B9D8BAE8BBF8B20E04A
:1011D00030E040E85FE36C897D898E899F890E94B9
:1011E000F11A88232CF481E090E0998F888F3FC01A
:1011F00020E03FEF4FE757E46C897D898E899F8916
:101200000E94491C18164CF520E030E040E251E401
:10121000688979898A899B890E944E1CDC01CB01EF
:10122000BC01CD010E94681BDC01CB01998F888F26
:101230000FC088EC90E09B8F8A8F8A8D9B8D0197E1
:10124000F1F79B8F8A8F888D998D0197998F888F61
:10125000888D998D892B69F73FC06C897D898E892E
:101260009F890E94681BDC01CB01998F888F888D34
:10127000998D9D8F8C8F8C8D9D8D0197F1F79D8F12
:101280008C8F2AC020E030E04FE753E46F817885EF
:1012900089859A850E94491C1816ACF46B857C855B
:1012A0008D859E850E94681BDC01CB019F8F8E8FF0
:1012B0008E8D9F8D99A388A388A199A10197F1F79D
:1012C00099A388A30FC06F81788589859A850E942C
:1012D000681BDC01CB018F878F858AA38AA18A9541
:1012E000F1F78AA38BA19CA1FC0122818DA19EA173
:1012F000BC01822F0E94560A982F898189238983F5
:1013000086E290E026E230E0F90120812061FC01D4
:10131000208386E290E026E230E0F9012081422F2E
:10132000477F2A81222F30E0220F331F220F331FE5
:10133000220F331F242BFC0120838981A6960FB630
:10134000F894DEBF0FBECDBFDF91CF910895CF934C
:10135000DF9300D000D01F92CDB7DEB79B838A8386
:101360007D836C8381E089838C819D81892B19F435
:1013700082E089831CC08A819B81CC01A0E0B0E01F
:10138000BC01CD010E94971BDC01CB0123E931E0B8
:1013900040EA5BE3BC01CD010E944E1CDC01CB01A5
:1013A0002C813D81F90180839183A283B38389815C
:1013B0000F900F900F900F900F90DF91CF910895A5
:1013C000CF93DF9300D01F92CDB7DEB79B838A8384
:1013D00081E089838A819B81892B19F482E089834A
:1013E00034C0000086E290E0FC0180818295869501
:1013F00086958370882F90E081709927892B91F7CB
:101400008A819B81FC018081809317018A819B8165
:10141000FC0182818093160187E290E027E230E0B0
:10142000F9012081422F487F2A813B81F9012081E7
:101430002770242BFC01208386E290E026E230E036
:10144000F90120812064FC01208389810F900F9095
:101450000F90DF91CF910895CF93DF931F92CDB777
:10146000DEB781E0898386E290E026E230E0F90190
:1014700020812860FC01208389810F90DF91CF912A
:101480000895CF93DF931F92CDB7DEB781E08983B4
:1014900086E290E026E230E0F9012081277FFC011E
:1014A000208389810F90DF91CF910895CF93DF93AF
:1014B00000D000D0CDB7DEB78A837C836B8381E018
:1014C00089838B819C81892B19F482E0898330C0C8
:1014D0008A81882F90E0892BB9F484E290E0FC01A6
:1014E0008081282F30E085E290E0FC018081882F08
:1014F00090E0982F8827822B932B9C018B819C81D5
:10150000FC013183208314C084E290E0FC018081DF
:1015100091819C010024220F331F001C220F331FD6
:10152000001C232F302D8B819C81FC013183208373
:1015300089810F900F900F900F90DF91CF910895B8
:10154000CF93DF9300D000D01F92CDB7DEB79B833F
:101550008A837D836C8381E089838A819B81892B47
:1015600019F482E089830FC08A819B81FC0180810C
:10157000882F90E0880F991F8A5F9E4F2C813D81B4
:10158000FC013183208389810F900F900F900F9081
:101590000F90DF91CF9108951F920F9200905F00FE
:1015A0000F9211242F933F934F935F936F937F93E9
:1015B0008F939F93AF93BF93EF93FF93CF93DF935B
:1015C00000D01F92CDB7DEB781E08983209116014C
:1015D000CE010296BC01822F0E94560A8983809117
:1015E0001701882F90E0880F991F8A5F9E4FFC019A
:1015F00080819181892B79F080911701882F90E06B
:10160000880F991F8A5F9E4FFC01208131818A815A
:101610009B81F901099500000F900F900F90DF91C9
:10162000CF91FF91EF91BF91AF919F918F917F915A
:101630006F915F914F913F912F910F9000925F00BA
:101640000F901F901895CF93DF93CDB7DEB72797F4
:101650000FB6F894DEBF0FBECDBF9E838D836F8320
:1016600019821B821C821A828D819E81892B19F41A
:1016700082E0898322C01A821DC08F81882F90E06A
:101680002A81222F30E002C0959587952A95E2F7AE
:1016900081708C838A81882F90E02D813E81820F1A
:1016A000931FFC0180816C810E94F6058B838A81E7
:1016B0008F5F8A838A81843000F3898127960FB6F1
:1016C000F894DEBF0FBECDBFDF91CF910895CF93C9
:1016D000DF93CDB7DEB7EF970FB6F894DEBF0FBE3E
:1016E000CDBF9FAF8EAF19828EAD9FAD892B19F400
:1016F00082E089830FC28EAD9FAD68E30E94940D96
:10170000898380E090E0A0EAB0E48A839B83AC8385
:10171000BD8320E030E04AEF54E46A817B818C8114
:101720009D810E944E1CDC01CB018CAB9DABAEAB0E
:10173000BFAB20E030E040E85FE36CA97DA98EA953
:101740009FA90E94F11A88232CF481E090E099AFC0
:1017500088AF3FC020E03FEF4FE757E46CA97DA979
:101760008EA99FA90E94491C18164CF520E030E074
:1017700040E251E46A817B818C819D810E944E1CF4
:10178000DC01CB01BC01CD010E94681BDC01CB0157
:1017900099AF88AF0FC088EC90E09BAF8AAF8AAD5D
:1017A0009BAD0197F1F79BAF8AAF88AD99AD0197DB
:1017B00099AF88AF88AD99AD892B69F714C06CA932
:1017C0007DA98EA99FA90E94681BDC01CB0199AF5E
:1017D00088AF88AD99AD9DAF8CAF8CAD9DAD0197B5
:1017E000F1F79DAF8CAF8EAD9FAD68E30E94940D75
:1017F000898380E090E0A6E1B3E48E839F83A8878D
:10180000B9872BEA3AEA4AE250E46E817F81888503
:1018100099850E944E1CDC01CB01888F998FAA8F7D
:10182000BB8F8E819F81A885B9859C01AD01BC01CC
:10183000CD010E94851ADC01CB018C8F9D8FAE8F6C
:10184000BF8F20E030E040E85FE3688D798D8A8DBE
:101850009B8D0E94F11A88231CF481E088A3B2C0FA
:1018600020E03FEF4FE757E46C8D7D8D8E8D9F8D8F
:101870000E94491C18160CF07BC020E030E04AE7BB
:1018800054E46E817F81888599850E94F61ADC0177
:10189000CB0189A39AA3ABA3BCA320E030E04AEF1D
:1018A00054E469A17AA18BA19CA10E944E1CDC0189
:1018B000CB018DA39EA3AFA3B8A720E030E040E802
:1018C0005FE36DA17EA18FA198A50E94F11A8823E4
:1018D0002CF481E090E09AA789A73FC020E03FEF79
:1018E0004FE757E46DA17EA18FA198A50E94491CE6
:1018F00018164CF520E030E040E251E469A17AA1ED
:101900008BA19CA10E944E1CDC01CB01BC01CD012E
:101910000E94681BDC01CB019AA789A70FC088EC45
:1019200090E09CA78BA78BA59CA50197F1F79CA79E
:101930008BA789A59AA501979AA789A789A59AA592
:10194000892B69F73FC06DA17EA18FA198A50E9448
:10195000681BDC01CB019AA789A789A59AA59EA738
:101960008DA78DA59EA50197F1F79EA78DA72AC0EB
:1019700020E030E04FE753E4688D798D8A8D9B8DB0
:101980000E94491C1816ACF46C8D7D8D8E8D9F8D38
:101990000E94681BDC01CB0198AB8FA78FA598A98B
:1019A0009AAB89AB89A99AA90197F1F79AAB89AB50
:1019B0000FC0688D798D8A8D9B8D0E94681BDC011C
:1019C000CB0188A388A18BAB8BA98A95F1F78BAB50
:1019D0008EAD9FAD68E30E94940D89838EAD9FAD5F
:1019E00061E00E94940D89838EAD9FAD62E00E94FC
:1019F000940D89838EAD9FAD66E00E94940D89831E
:101A00008EAD9FAD6CE00E94940D89838EAD9FAD2D
:101A100068E20E94940D89838EAD9FAD60E80E94BC
:101A2000940D89838EAD9FAD61E00E94940D8983F2
:101A300080E090E0A0EAB0E48A879B87AC87BD870E
:101A400020E030E04AEF54E46A857B858C859D85F3
:101A50000E944E1CDC01CB018E879F87A88BB98B1F
:101A600020E030E040E85FE36E857F8588899989D2
:101A70000E94F11A88232CF481E090E09B8B8A8BE2
:101A80003FC020E03FEF4FE757E46E857F858889B0
:101A900099890E94491C18164CF520E030E040E27C
:101AA00051E46A857B858C859D850E944E1CDC01F6
:101AB000CB01BC01CD010E94681BDC01CB019B8BDB
:101AC0008A8B0FC088EC90E09D8B8C8B8C899D89D4
:101AD0000197F1F79D8B8C8B8A899B8901979B8B52
:101AE0008A8B8A899B89892B69F714C06E857F85CB
:101AF000888999890E94681BDC01CB019B8B8A8BAA
:101B00008A899B899F8B8E8B8E899F890197F1F79C
:101B10009F8B8E8B8981EF960FB6F894DEBF0FBE38
:101B2000CDBFDF91CF910895CF93DF9300D000D048
:101B30001F92CDB7DEB79C838B836D8319821A8287
:101B40008B819C81892B19F482E0898322C08B814F
:101B50009C81FC01848160E00E94F6058A838D816E
:101B6000282F22952F708B819C81622F0E940D104F
:101B700089838B819C810E944B1089838B819C81FE
:101B80006D810E940D1089838B819C810E944B1076
:101B9000898389810F900F900F900F900F90DF91A4
:101BA000CF910895CF93DF9300D000D0CDB7DEB7AB
:101BB0009B838A836C8319828A819B81892B19F488
:101BC00082E0898322C08A819B81FC01848161E05B
:101BD0000E94F60589838C81282F22952F708A8197
:101BE0009B81622F0E940D1089838A819B810E94B4
:101BF0004B1089838A819B816C810E940D1089839F
:101C00008A819B810E944B10898389810F900F905C
:101C10000F900F90DF91CF910895CF93DF9300D075
:101C200000D000D0CDB7DEB79B838A836C834D8311
:101C30002E8319828A819B81892B19F482E0898302
:101C400029C08A819B814E816D810E94AA0E898361
:101C50008A819B81FC01848161E00E94F605898371
:101C60008C81282F22952F708A819B81622F0E9460
:101C70000D1089838A819B810E944B1089838A8100
:101C80009B816C810E940D1089838A819B810E94B7
:101C90004B108983898126960FB6F894DEBF0FBE5C
:101CA000CDBFDF91CF910895CF93DF93CDB7DEB74E
:101CB00027970FB6F894DEBF0FBECDBF9C838B83F2
:101CC0007E836D834F8319821A828B819C81892B3D
:101CD00021F08D819E81892B19F482E0898330C0A7
:101CE0008F81883018F083E089832AC08F81882F04
:101CF00090E00896282F220F220F220F8B819C81C3
:101D0000622F0E94940D89831A8211C08A81882FC4
:101D100090E02D813E81820F931FFC0120818B81F9
:101D20009C81622F0E94D20D8A818F5F8A838A8173
:101D3000883060F38B819C8160E80E94940D8983D8
:101D4000898127960FB6F894DEBF0FBECDBFDF9115
:101D5000CF910895CF93DF9300D000D01F92CDB7DD
:101D6000DEB79B838A836C834D8319828A819B8132
:101D7000892B19F482E0898356C08C81853018F054
:101D800085E0898350C08D81853118F084E0898396
:101D90004AC08D8181508D838C81882F90E0823064
:101DA0009105C9F0833091051CF4019739F03AC0D0
:101DB00083309105E9F0049741F134C08D8120E82A
:101DC000280F8A819B81622F0E94940D982F898110
:101DD0008923898328C08D8120EC280F8A819B81EB
:101DE000622F0E94940D982F8981892389831BC0BB
:101DF0008D8124E9280F8A819B81622F0E94940D96
:101E0000982F8981892389830EC08D8124ED280F25
:101E10008A819B81622F0E94940D982F898189234A
:101E2000898301C0198289810F900F900F900F90C4
:101E30000F90DF91CF910895CF93DF9300D000D022
:101E400000D0CDB7DEB79C838B837E836D831982F0
:101E50001A828B819C81892B21F08D819E81892B17
:101E6000A9F482E089831DC08A81882F90E02D81AA
:101E70003E81820F931FFC0120818B819C81622F08
:101E80000E94D20D89838A818F5F8A838A81882FFD
:101E900090E02D813E81820F931FFC018081882379
:101EA00019F7898126960FB6F894DEBF0FBECDBF15
:101EB000DF91CF910895CF93DF93CDB7DEB7CC56A6
:101EC000D1090FB6F894DEBF0FBECDBF9E012959D0
:101ED0003F4FF90191838083CE0187599F4FFC01C9
:101EE000408351836283738319821A82CE01895998
:101EF0009F4FFC0180819181892B19F482E08983B5
:101F00001EC09E012D5F3F4FCE0187599F4FFC01A0
:101F100080819181A281B381A901BC01CD010E9480
:101F200049008A839E012D5F3F4FCE0189599F4F03
:101F3000FC0180819181B9010E941C0F89838981F4
:101F4000C459DF4F0FB6F894DEBF0FBECDBFDF918F
:101F5000CF910895CF93DF93CDB7DEB7CC56D1099B
:101F60000FB6F894DEBF0FBECDBF9E0129593F4F7B
:101F7000F90191838083CE0187599F4FFC014083F3
:101F800051836283738319821A82CE0189599F4FCC
:101F9000FC0180819181892B19F482E0898332C010
:101FA000CE0187599F4FFC0123812F93FC01228191
:101FB0002F93FC0121812F93FC0180818F9382EE6E
:101FC00090E0892F8F9382EE90E08F93CE0103965D
:101FD000292F2F938F930E94BB1C8DB79EB7089615
:101FE0000FB6F894DEBF0FBECDBF3B81CE0189593D
:101FF0009F4FFC018081918122E041E0632F0E948C
:102000000D0E89838981C459DF4F0FB6F894DEBF66
:102010000FBECDBFDF91CF910895CF93DF9300D056
:1020200000D01F92CDB7DEB79C838B836D8319825E
:102030001A828B819C81892B19F482E0898322C0CA
:102040001A821DC08D81882F90E02A81222F30E0D6
:1020500002C0959587952A95E2F7482F41708A81AD
:10206000882F90E02B813C81820F931FFC0180819F
:10207000642F0E94F60589838A818F5F8A838A8113
:10208000843000F389810F900F900F900F900F9084
:10209000DF91CF910895CF93DF93CDB7DEB7A397AC
:1020A0000FB6F894DEBF0FBECDBF9BA38AA31982E3
:1020B0008AA19BA1892B19F482E08983FFC08AA1A0
:1020C0009BA1FC01858161E00E94F605898380E087
:1020D00090E0A0EAB0E48A839B83AC83BD832BEAC3
:1020E0003AEA4AE250E46A817B818C819D810E94B8
:1020F0004E1CDC01CB018E839F83A887B9878A8120
:102100009B81AC81BD819C01AD01BC01CD010E94D0
:10211000851ADC01CB018A879B87AC87BD8720E0CD
:1021200030E040E85FE36E817F81888599850E9479
:10213000F11A88231CF481E08E87B2C020E03FEFC3
:102140004FE757E46A857B858C859D850E94491CF5
:1021500018160CF07BC020E030E04AE754E46A81B6
:102160007B818C819D810E94F61ADC01CB018F87D7
:10217000988BA98BBA8B20E030E04AEF54E46F854E
:10218000788989899A890E944E1CDC01CB018B8B4E
:102190009C8BAD8BBE8B20E030E040E85FE36B8929
:1021A0007C898D899E890E94F11A88232CF481E014
:1021B00090E0988F8F8B3FC020E03FEF4FE757E4D0
:1021C0006B897C898D899E890E94491C18164CF563
:1021D00020E030E040E251E46F85788989899A896E
:1021E0000E944E1CDC01CB01BC01CD010E94681B8A
:1021F000DC01CB01988F8F8B0FC088EC90E09A8F19
:10220000898F898D9A8D0197F1F79A8F898F8F89A0
:10221000988D0197988F8F8B8F89988D892B69F76F
:102220003FC06B897C898D899E890E94681BDC0177
:10223000CB01988F8F8B8F89988D9C8F8B8F8B8DF7
:102240009C8D0197F1F79C8F8B8F2AC020E030E0A6
:102250004FE753E46E817F81888599850E94491CF0
:102260001816ACF46A857B858C859D850E94681B59
:10227000DC01CB019E8F8D8F8D8D9E8D98A38F8FCE
:102280008F8D98A10197F1F798A38F8F0FC06E8162
:102290007F81888599850E94681BDC01CB018E8730
:1022A0008E8589A389A18A95F1F789A38AA19BA12B
:1022B000FC01858160E00E94F60589838981A396EF
:1022C0000FB6F894DEBF0FBECDBFDF91CF9108955A
:1022D000CF93DF93CDB7DEB729970FB6F894DEBF63
:1022E0000FBECDBF9F838E837987688783E0898304
:1022F0001C821A821B828E819F81FC0181858D83C5
:102300008E819F81892B21F088859985892B19F4ED
:1023100082E08983DFC08E819F810E94741289834D
:102320008E819F81FC018085882F90E0009721F0AD
:10233000019709F467C0CCC01A825FC08E819F816B
:10234000FC01918581E0992309F080E0482F8A8182
:10235000882F90E02E813F81820F931FFC018081A6
:10236000642F0E94F6058C831B8230C08B81882FDE
:1023700090E02E813F81820F931F0496FC01208103
:10238000CE010596BC01822F0E9465068C838E814A
:102390009F81FC0191858D819817A9F08A81282F52
:1023A00030E08B81882F90E0220F331F220F331FE4
:1023B000820F931F80519F4FFC0120818885998552
:1023C000FC01208319828B818F5F8B838B8184300A
:1023D00068F28E819F81FC0141858A81882F90E07F
:1023E0002E813F81820F931FFC018081642F0E9408
:1023F000F6058C838A818F5F8A838A81843008F412
:102400009DCF68C01B825FC08E819F81FC0191853A
:1024100081E0992309F080E0482F8B81882F90E09C
:102420002E813F81820F931F0496FC018081642FCF
:102430000E94F6058C831A822EC08A81882F90E034
:102440002E813F81820F931FFC012081CE010596D2
:10245000BC01822F0E9465068C838E819F81FC01C6
:1024600091858D819817A1F08A81282F30E08B818A
:10247000882F90E0220F331F220F331F820F931FEC
:1024800080519F4FFC01208188859985FC01208324
:102490008A818F5F8A838A81843078F28E819F81DE
:1024A000FC0141858B81882F90E02E813F81820F36
:1024B000931F0496FC018081642F0E94F6058C8393
:1024C0008B818F5F8B838B81843008F49DCF02C01A
:1024D00081E08983898129960FB6F894DEBF0FBE0B
:1024E000CDBFDF91CF910895CF93DF9300D000D07F
:1024F0001F92CDB7DEB79D838C8383E089831B82D7
:102500001A828C819D81892B19F482E0898342C0D3
:102510008C819D81FC018085882F90E0009719F0C7
:102520000197D9F035C01A8214C08C819D81FC01BD
:1025300041858A81882F90E02C813D81820F931FF5
:10254000FC018081642F0E94F6058B838A818F5F56
:102550008A838A81843048F31DC01A8215C08C8119
:102560009D81FC0141858A81882F90E02C813D81ED
:10257000820F931F0496FC018081642F0E94F60550
:102580008B838A818F5F8A838A81843040F302C083
:1025900081E0898389810F900F900F900F900F90A9
:1025A000DF91CF910895CF93DF9300D000D000D07A
:1025B000CDB7DEB79C838B837E836D8319821A82AD
:1025C0008B819C81892B21F08D819E81892B19F42F
:1025D00082E0898331C08B819C81FC018181882FBD
:1025E00090E0009771F0019729F58B819C81FC01A7
:1025F00020818D819E81BC01822F0E9465068A8385
:102600001BC08B819C81FC0120818D819E81BC013E
:10261000822F0E9465068A838D819E81FC019081B4
:1026200081E0992309F080E0282F8D819E81FC01B3
:10263000208302C081E08983898126960FB6F894B1
:10264000DEBF0FBECDBFDF91CF9108950F931F93D3
:10265000CF93DF93CDB7DEB7C656D1090FB6F89446
:10266000DEBF0FBECDBF82E08C838AE089838FEF0F
:102670008A831B820E94C80180E990E00E94670B58
:102680008BEA90E00E949B078FEA90E00E949B07F4
:1026900041E063EB70E080E990E00E94540E42E07C
:1026A0006BEB70E080E990E00E94540E43E063EC35
:1026B00070E080E990E00E94540E44E06BEC70E022
:1026C00080E990E00E94540E45E063ED70E080E9FF
:1026D00090E00E94540E68E279E18BEA90E00E945B
:1026E000A00A65EC79E18FEA90E00E94A00A0E94BE
:1026F0002C0A0E94D40341E062E080E990E00E944D
:10270000AA0E61E080E990E00E94D20D44E162E00F
:1027100080E990E00E94AA0E62E080E990E00E94C9
:10272000D20D4AE062E080E990E00E94AA0E63E0E8
:1027300080E990E00E94D20D80E090E0AAEFB3E43F
:102740008D8F9E8FAF8FB8A320E030E04AEF54E426
:102750006D8D7E8D8F8D98A10E944E1CDC01CB016A
:1027600089A39AA3ABA3BCA320E030E040E85FE3D9
:1027700069A17AA18BA19CA10E94F11A88232CF453
:1027800081E090E09EA38DA33FC020E03FEF4FE7A4
:1027900057E469A17AA18BA19CA10E94491C18163B
:1027A0004CF520E030E040E251E46D8D7E8D8F8D60
:1027B00098A10E944E1CDC01CB01BC01CD010E94FE
:1027C000681BDC01CB019EA38DA30FC088EC90E0B9
:1027D00098A78FA38FA198A50197F1F798A78FA32A
:1027E0008DA19EA101979EA38DA38DA19EA1892B52
:1027F00069F714C069A17AA18BA19CA10E94681BF2
:10280000DC01CB019EA38DA38DA19EA19AA789A7D0
:1028100089A59AA50197F1F79AA789A78BEA90E075
:102820000E94E0098FEA90E00E94E0098091A900EF
:10283000843019F48FEF8A8306C08091A90081301B
:1028400011F481E08A8389818F5F8093AA0090913F
:10285000A9008A81890F8093A900BDC080E090E023
:10286000AAEFB3E48D839E83AF83B88720E030E086
:102870004AEF54E46D817E818F8198850E944E1CC1
:10288000DC01CB018BA79CA7ADA7BEA720E030E061
:1028900040E85FE36BA57CA58DA59EA50E94F11A7B
:1028A00088232CF481E090E098AB8FA73FC020E014
:1028B0003FEF4FE757E46BA57CA58DA59EA50E9431
:1028C000491C18164CF520E030E040E251E46D81DF
:1028D0007E818F8198850E944E1CDC01CB01BC015A
:1028E000CD010E94681BDC01CB0198AB8FA70FC004
:1028F00088EC90E09AAB89AB89A99AA90197F1F786
:102900009AAB89AB8FA598A9019798AB8FA78FA594
:1029100098A9892B69F714C06BA57CA58DA59EA5E8
:102920000E94681BDC01CB0198AB8FA78FA598A9EB
:102930009CAB8BAB8BA99CA90197F1F79CAB8BABA4
:102940009091A9008A81292F281B822F8C83809146
:10295000AA00815089838B81882341F429814C818D
:1029600060E280E990E00E940D0E0AC021E04C81F7
:1029700061E080E990E00E940D0E1B820E942C0A0B
:102980009091AA008091A900292F482F63E080E947
:1029900090E00E940D0E8091A900843019F48FEF11
:1029A0008A8306C08091A900813011F481E08A8376
:1029B0008BEA90E00E94E0098FEA90E00E94E00933
:1029C0008091AA008F5F8093AA009091A9008A81CC
:1029D000890F8093A9008091AA00853108F43ECF29
:1029E0000E94410A9091A9008A81E92FE81B8E2F4D
:1029F0008093A90084E18093AA008091A90084308B
:102A000019F48FEF8A8306C08091A900813011F4F8
:102A100081E08A839091A9008091A7009817E9F43A
:102A20009091AA008091A900292F482F64E080E9A5
:102A300090E00E940D0E81E08B838091A9008C8331
:102A400084E18983898181508093AA009091A900B3
:102A50008A81890F8093A9003EC20E94E80380E02A
:102A600090E0AAEFB3E48D8B9E8BAF8BB88F8E0175
:102A7000015C1F4F20E030E04AEF54E46D897E890D
:102A80008F89988D0E944E1CDC01CB01F801808358
:102A90009183A283B383CE01CF9620E030E040E85B
:102AA0005FE3FC0160817181828193810E94F11A50
:102AB00088234CF4CE018D5B9F4F21E030E0FC0178
:102AC0003183208367C0CE01CF9620E03FEF4FE7F0
:102AD00057E4FC0160817181828193810E94491CCD
:102AE00018160CF046C020E030E040E251E46D8959
:102AF0007E898F89988D0E944E1CDC01CB018E014E
:102B00000D5B1F4FBC01CD010E94681BDC01CB0196
:102B1000F8019183808324C0CE018B5B9F4F28EC0A
:102B200030E0FC0131832083CE018B5B9F4FFC01A1
:102B3000808191810197F1F79E012B5B3F4FF90155
:102B400091838083CE018D5B9F4F9E012D5B3F4F14
:102B5000F9012081318121503109FC013183208329
:102B6000CE018D5B9F4FFC0180819181892BA1F665
:102B70002BC08E010D5B1F4FCE01CF96FC016081F3
:102B80007181828193810E94681BDC01CB01F80175
:102B900091838083CE01895B9F4F9E012D5B3F4FC8
:102BA000F90120813181FC0131832083CE01895BD1
:102BB0009F4FFC01808191810197F1F79E01295B74
:102BC0003F4FF9019183808361E080E990E00E94AA
:102BD000940D80E090E0A0E4B0E4898F9A8FAB8FF1
:102BE000BC8F20E030E04AEF54E4698D7A8D8B8D04
:102BF0009C8D0E944E1CDC01CB018DAB9EABAFAB1C
:102C0000B8AF20E030E040E85FE36DA97EA98FA96E
:102C100098AD0E94F11A88232CF481E090E09AAFDD
:102C200089AF3FC020E03FEF4FE757E46DA97EA991
:102C30008FA998AD0E94491C18164CF520E030E091
:102C400040E251E4698D7A8D8B8D9C8D0E944E1CE3
:102C5000DC01CB01BC01CD010E94681BDC01CB0172
:102C60009AAF89AF0FC088EC90E09CAF8BAF8BAD73
:102C70009CAD0197F1F79CAF8BAF89AD9AAD0197F1
:102C80009AAF89AF89AD9AAD892B69F714C06DA948
:102C90007EA98FA998AD0E94681BDC01CB019AAF79
:102CA00089AF89AD9AAD9EAF8DAF8DAD9EAD0197C9
:102CB000F1F79EAF8DAF45E062E080E990E00E94C1
:102CC000AA0E65EE70E080E990E00E941C0FFFCF35
:102CD00080E090E0AAEFB3E4898B9A8BAB8BBC8B3E
:102CE0008E01075B1F4F20E030E04AEF54E4698912
:102CF0007A898B899C890E944E1CDC01CB01F801EA
:102D000080839183A283B383CE01875B9F4F20E0B2
:102D100030E040E85FE3FC01608171818281938152
:102D20000E94F11A88234CF4CE01835B9F4F21E06F
:102D300030E0FC013183208369C0CE01875B9F4F67
:102D400020E03FEF4FE757E4FC0160817181828111
:102D500093810E94491C18160CF046C020E030E018
:102D600040E251E469897A898B899C890E944E1CD2
:102D7000DC01CB018E01035B1F4FBC01CD010E9422
:102D8000681BDC01CB01F8019183808324C0CE0154
:102D9000815B9F4F28EC30E0FC0131832083CE0122
:102DA000815B9F4FFC01808191810197F1F79E012A
:102DB000215B3F4FF90191838083CE01835B9F4F5D
:102DC0009E01235B3F4FF901208131812150310960
:102DD000FC0131832083CE01835B9F4FFC01808106
:102DE0009181892BA1F62CC08E01035B1F4FCE0170
:102DF000875B9F4FFC0160817181828193810E947A
:102E0000681BDC01CB01F80191838083CE018F5ACE
:102E10009F4F9E01235B3F4FF90120813181FC01CF
:102E200031832083CE018F5A9F4FFC018081918195
:102E30000197F1F79E012F5A3F4FF901918380834B
:102E40009091A9008A81F92FF81B8F2F8C83809194
:102E5000AA008F5F89838B81882341F429814C816B
:102E600060E280E990E00E940D0E0AC024E14C81EE
:102E700062E080E990E00E940D0E1B820E942C0A05
:102E80009091AA008091A900292F482F63E080E942
:102E900090E00E940D0E8091A900843019F48FEF0C
:102EA0008A8306C08091A900813011F481E08A8371
:102EB0008BEA90E00E94E0098FEA90E00E94E0092E
:102EC0008091AA0081508093AA009091A9008A81E4
:102ED000890F8093A9008091AA00882309F0F8CE79
:102EE0000E94410A9091A9008A81292F281B822FD4
:102EF0008093A90081E08093AA008091A90084308A
:102F000019F48FEF8A8306C08091A900813011F4F3
:102F100081E08A838091A9008C838091AA008983B3
:102F20009091A9008091A800981771F49091AA003F
:102F30008091A900292F482F64E080E990E00E9449
:102F40000D0E81E08B836ACC0E94E80380E090E064
:102F5000AAEFB3E48D879E87AF87B88B8E01035AA3
:102F60001F4F20E030E04AEF54E46D857E858F8569
:102F700098890E944E1CDC01CB01F801808391836B
:102F8000A283B383CE01835A9F4F20E030E040E814
:102F90005FE3FC0160817181828193810E94F11A5B
:102FA00088234CF4CE018F599F4F21E030E0FC0183
:102FB0003183208369C0CE01835A9F4F20E03FEFC9
:102FC0004FE757E4FC0160817181828193810E9407
:102FD000491C18160CF046C020E030E040E251E4F5
:102FE0006D857E858F8598890E944E1CDC01CB0102
:102FF0008E010F591F4FBC01CD010E94681BDC01DF
:10300000CB01F8019183808324C0CE018D599F4F5D
:1030100028EC30E0FC0131832083CE018D599F4F95
:10302000FC01808191810197F1F79E012D593F4F5D
:10303000F90191838083CE018F599F4F9E012F59B3
:103040003F4FF9012081318121503109FC01318349
:103050002083CE018F599F4FFC0180819181892B64
:10306000A1F62CC08E010F591F4FCE01835A9F4FDE
:10307000FC0160817181828193810E94681BDC0167
:10308000CB01F80191838083CE018B599F4F9E0124
:103090002F593F4FF90120813181FC013183208379
:1030A000CE018B599F4FFC01808191810197F1F7EF
:1030B0009E012B593F4FF9019183808361E080E9A4
:1030C00090E00E94940D80E090E0A0E4B0E4898755
:1030D0009A87AB87BC878E010D5A1F4F20E030E0E6
:1030E0004AEF54E469857A858B859C850E944E1C45
:1030F000DC01CB01F80180839183A283B383CE01ED
:103100008D5A9F4F20E030E040E85FE3FC01608192
:103110007181828193810E94F11A88234CF4CE013F
:10312000895A9F4F21E030E0FC013183208369C040
:10313000CE018D5A9F4F20E03FEF4FE757E4FC014F
:1031400060817181828193810E94491C18160CF064
:1031500046C020E030E040E251E469857A858B8505
:103160009C850E944E1CDC01CB018E01095A1F4F29
:10317000BC01CD010E94681BDC01CB01F8019183E9
:10318000808324C0CE01875A9F4F28EC30E0FC0199
:1031900031832083CE01875A9F4FFC01808191812A
:1031A0000197F1F79E01275A3F4FF90191838083E0
:1031B000CE01895A9F4F9E01295A3F4FF901208124
:1031C000318121503109FC0131832083CE01895A9C
:1031D0009F4FFC0180819181892BA1F62CC08E012B
:1031E000095A1F4FCE018D5A9F4FFC01608171819A
:1031F000828193810E94681BDC01CB01F8019183DD
:103200008083CE01855A9F4F9E01295A3F4FF90175
:1032100020813181FC0131832083CE01855A9F4F6B
:10322000FC01808191810197F1F79E01255A3F4F62
:10323000F9019183808345E062E080E990E00E949B
:10324000AA0E65EE70E080E990E00E941C0FFFCFAF
:10325000CF93DF9300D0CDB7DEB79A83898389817E
:103260009A818F3F910509F0C8F484E08093A8000B
:1032700021E041E060E280E990E00E940D0E21E053
:1032800042E060E280E990E00E940D0E21E043E020
:1032900060E280E990E00E940D0E54C089819A811D
:1032A00081159240C8F483E08093A80021E041E0BA
:1032B00060E280E990E00E940D0E21E042E060E2D1
:1032C00080E990E00E940D0E21E044E060E280E998
:1032D00090E00E940D0E36C089819A81811593403D
:1032E000C8F482E08093A80021E041E060E280E938
:1032F00090E00E940D0E21E043E060E280E990E062
:103300000E940D0E21E044E060E280E990E00E941E
:103310000D0E18C081E08093A80021E043E060E238
:1033200080E990E00E940D0E21E042E060E280E939
:1033300090E00E940D0E21E044E060E280E990E020
:103340000E940D0E9091A8008091A900981771F429
:103350008091AA00813051F48091A90021E0482F8A
:1033600065E080E990E00E940D0E09C08091A80000
:1033700021E0482F61E080E990E00E940D0E0000FE
:103380000F900F90DF91CF910895CF93DF9300D0EE
:10339000CDB7DEB79A83898389819A818F3F910562
:1033A00009F0C8F484E08093A70024E141E060E2E2
:1033B00080E990E00E940D0E24E142E060E280E9A5
:1033C00090E00E940D0E24E143E060E280E990E08D
:1033D0000E940D0E54C089819A8181159240C8F4D3
:1033E00083E08093A70024E141E060E280E990E07F
:1033F0000E940D0E24E142E060E280E990E00E942C
:103400000D0E24E144E060E280E990E00E940D0EA0
:1034100036C089819A8181159340C8F482E08093F7
:10342000A70024E141E060E280E990E00E940D0EF7
:1034300024E143E060E280E990E00E940D0E24E187
:1034400044E060E280E990E00E940D0E18C081E047
:103450008093A70024E143E060E280E990E00E94CD
:103460000D0E24E142E060E280E990E00E940D0E42
:1034700024E144E060E280E990E00E940D0E90912A
:10348000A7008091A900981771F48091AA00843157
:1034900051F48091A90024E1482F64E080E990E094
:1034A0000E940D0E09C08091A70024E1482F62E020
:1034B00080E990E00E940D0E00000F900F90DF91C8
:1034C000CF9108950F93083090F0982F872F762F83
:1034D000652F542F432F322F22270850F4CF220F6D
:1034E000331F441F551F661F771F881F991F0A959A
:1034F000B2F70F9108952A0D3B1D4C1D5D1D6E1DE9
:103500007F1D801F911F08955058BB27AA270E9436
:103510009C1A0C940F1C0E94011C38F00E94081C7D
:1035200020F039F49F3F19F426F40C94FE1B0EF49E
:10353000E095E7FB0C94F81BE92F0E94201C58F340
:10354000BA17620773078407950720F079F4A6F588
:103550000C94421C0EF4E0950B2EBA2FA02D0B01FB
:10356000B90190010C01CA01A0011124FF27591BC8
:1035700099F0593F50F4503E68F11A16F040A22FCE
:10358000232F342F4427585FF3CF4695379527953F
:10359000A795F0405395C9F77EF41F16BA0B620B3E
:1035A000730B840BBAF09150A1F0FF0FBB1F661F85
:1035B000771F881FC2F70EC0BA0F621F731F841FC8
:1035C00048F4879577956795B795F7959E3F08F0EE
:1035D000B0CF9395880F08F09927EE0F97958795B0
:1035E00008950E94D41B08F481E008950E940A1BEC
:1035F0000C940F1C0E94081C58F00E94011C40F003
:1036000029F45F3F29F00C94F81B51110C94431CD2
:103610000C94FE1B0E94201C68F39923B1F35523E0
:1036200091F3951B550BBB27AA27621773078407D5
:1036300038F09F5F5F4F220F331F441FAA1FA9F36B
:1036400035D00E2E3AF0E0E832D091505040E69559
:10365000001CCAF72BD0FE2F29D0660F771F881FBA
:10366000BB1F261737074807AB07B0E809F0BB0BAD
:10367000802DBF01FF2793585F4F3AF09E3F5105C1
:1036800078F00C94F81B0C94431C5F3FE4F3983ED5
:10369000D4F3869577956795B795F7959F5FC9F7AA
:1036A000880F911D9695879597F90895E1E0660F2B
:1036B000771F881FBB1F621773078407BA0720F0A4
:1036C000621B730B840BBA0BEE1F88F7E09508950D
:1036D0000E94281C88F09F5798F0B92F9927B7515E
:1036E000B0F0E1F0660F771F881F991F1AF0BA95A6
:1036F000C9F714C0B13091F00E94421CB1E00895A6
:103700000C94421C672F782F8827B85F39F0B93F97
:10371000CCF3869577956795B395D9F73EF4909558
:103720008095709561957F4F8F4F9F4F0895E894D6
:1037300009C097FB3EF490958095709561957F4FF9
:103740008F4F9F4F9923A9F0F92F96E9BB279395A7
:10375000F695879577956795B795F111F8CFFAF4B7
:10376000BB0F11F460FF1BC06F5F7F4F8F4F9F4FE8
:1037700016C0882311F096E911C0772321F09EE846
:10378000872F762F05C0662371F096E8862F70E0AC
:1037900060E02AF09A95660F771F881FDAF7880F86
:1037A0009695879597F90895990F0008550FAA0BDC
:1037B000E0E8FEEF16161706E807F907C0F0121644
:1037C0001306E407F50798F0621B730B840B950B47
:1037D00039F40A2661F0232B242B252B21F408959C
:1037E0000A2609F4A140A6958FEF811D811D089539
:1037F00097F99F6780E870E060E008959FEF80ECA4
:10380000089500240A941616170618060906089546
:1038100000240A9412161306140605060895092EAC
:103820000394000C11F4882352F0BB0F40F4BF2B1B
:1038300011F460FF04C06F5F7F4F8F4F9F4F08955B
:1038400057FD9058440F551F59F05F3F71F0479551
:10385000880F97FB991F61F09F3F79F08795089536
:10386000121613061406551FF2CF4695F1DF08C055
:10387000161617061806991FF1CF86957105610572
:1038800008940895E894BB2766277727CB0197F91A
:1038900008950E94D41B08F48FEF08950E94611CC4
:1038A0000C940F1C0E94011C38F00E94081C20F090
:1038B000952311F00C94F81B0C94FE1B11240C940E
:1038C000431C0E94201C70F3959FC1F3950F50E09C
:1038D000551F629FF001729FBB27F00DB11D639FC2
:1038E000AA27F00DB11DAA1F649F6627B00DA11D68
:1038F000661F829F2227B00DA11D621F739FB00D0E
:10390000A11D621F839FA00D611D221F749F33277D
:10391000A00D611D231F849F600D211D822F762F16
:103920006A2F11249F5750409AF0F1F088234AF0F3
:10393000EE0FFF1FBB1F661F771F881F915050405F
:10394000A9F79E3F510580F00C94F81B0C94431C82
:103950005F3FE4F3983ED4F3869577956795B795E6
:10396000F795E7959F5FC1F7FE2B880F911D969500
:10397000879597F90895AEE0B0E0E1ECFCE10C9496
:103980007C1F0D891E8986E08C831A8309838FEF43
:103990009FE79E838D83AE01475E5F4F6F89788D71
:1039A000CE0101960E94DD1CEF81F885E00FF11F2A
:1039B00010822E96E4E00C94981FABE0B0E0E3EEAA
:1039C000FCE10C946E1F6C017B018A01FC011782E3
:1039D0001682838181FFCCC1CE0101963C01F601A4
:1039E0009381F70193FD859193FF81917F01882356
:1039F00009F4BAC1853239F493FD859193FF819121
:103A00007F01853229F4B60190E00E94D41EE7CFF1
:103A1000912C212C312CFFE1F315D8F08B3279F069
:103A200038F4803279F08332A1F4232D20611DC057
:103A30008D3261F0803369F4232D216016C0832D0F
:103A40008260382EE32DE4603E2E2AC0F32DF8600C
:103A50001DC037FC2DC020ED280F2A3040F08E32DB
:103A6000B9F436FC81C1232D2064322E19C036FEF4
:103A700006C08AE0989E200D1124922E11C0EAE023
:103A80002E9E200D1124222EF32DF0623F2E08C011
:103A90008C3621F4832D8068382E02C0883641F49C
:103AA000F70193FD859193FF81917F018111B3CF40
:103AB000982F9F7D9554933028F40C5F1F4F9FE300
:103AC00099830DC0833631F0833771F0833509F067
:103AD00059C021C0F801808189830E5F1F4F88245F
:103AE0008394912C530113C02801F2E04F0E511C16
:103AF000F801A080B18036FE03C0692D70E002C0DD
:103B00006FEF7FEFC5010E94C91E4C018201F32DAA
:103B1000FF773F2E16C0280122E0420E511CF8010B
:103B2000A080B18036FE03C0692D70E002C06FEF47
:103B30007FEFC5010E94BE1E4C01F32DF0683F2EA1
:103B4000820133FC1BC0822D90E088169906B0F4E8
:103B5000B60180E290E00E94D41E2A94F4CFF501D1
:103B600037FC859137FE81915F01B60190E00E949C
:103B7000D41E21102A9421E0821A91088114910404
:103B800071F7E8C0843611F0893641F5F80137FE47
:103B900007C060817181828193810C5F1F4F08C0D3
:103BA00060817181072E000C880B990B0E5F1F4FEF
:103BB000F32DFF763F2E97FF09C090958095709565
:103BC00061957F4F8F4F9F4FF0683F2E2AE030E086
:103BD000A3010E94101F882E861845C0853731F436
:103BE000232D2F7EB22E2AE030E025C0932D997F21
:103BF000B92E8F36C1F018F4883579F0B5C080370A
:103C000019F0883721F0B0C0E92FE061BE2EB4FE74
:103C10000DC0FB2DF460BF2E09C034FE0AC0292F51
:103C20002660B22E06C028E030E005C020E130E07A
:103C300002C020E132E0F801B7FE07C06081718167
:103C4000828193810C5F1F4F06C06081718180E08B
:103C500090E00E5F1F4FA3010E94101F882E861850
:103C6000FB2DFF773F2E36FE0DC0232D2E7FA22E7B
:103C7000891458F434FE0BC032FC09C0832D8E7EAB
:103C8000A82E05C0B82CA32C03C0B82C01C0B92C99
:103C9000A4FE0FC0FE01E80DF11D8081803321F4E8
:103CA0009A2D997EA92E09C0A2FE06C0B394B394A2
:103CB00004C08A2D867809F0B394A3FC11C0A0FE3D
:103CC00006C0B21488F4280C922C9B180EC0B214B3
:103CD00060F4B60180E290E00E94D41EB394F7CF66
:103CE000B21418F42B1802C0982C212CA4FE10C07A
:103CF000B60180E390E00E94D41EA2FE17C0A1FC92
:103D000003C088E790E002C088E590E0B6010CC0EF
:103D10008A2D867859F0A1FE02C08BE201C080E2B4
:103D2000A7FC8DE2B60190E00E94D41E891438F4FD
:103D3000B60180E390E00E94D41E9A94F7CF8A9453
:103D4000F301E80DF11D8081B60190E00E94D41EC0
:103D50008110F5CF222009F442CEB60180E290E036
:103D60000E94D41E2A94F6CFF6018681978102C064
:103D70008FEF9FEF2B96E2E10C948A1FFC010590D8
:103D8000615070400110D8F7809590958E0F9F1F5D
:103D90000895FC016150704001900110D8F78095A2
:103DA00090958E0F9F1F08950F931F93CF93DF93CE
:103DB000FB01238121FD03C08FEF9FEF2CC022FF69
:103DC00016C046815781248135814217530744F438
:103DD000A081B1819D012F5F3F4F318320838C9360
:103DE000268137812F5F3F4F3783268314C08B0195
:103DF000EC01FB010084F185E02D0995892BE1F6AA
:103E0000D80116968D919C911797019617969C93C1
:103E10008E931697CE01DF91CF911F910F91089548
:103E2000FA01AA27283051F1203181F1E8946F93EB
:103E30006E7F6E5F7F4F8F4F9F4FAF4FB1E03ED091
:103E4000B4E03CD0670F781F891F9A1FA11D680F2F
:103E5000791F8A1F911DA11D6A0F711D811D911D62
:103E6000A11D20D009F468943F912AE0269F1124D7
:103E70003019305D3193DEF6CF010895462F47703B
:103E8000405D4193B3E00FD0C9F7F6CF462F4F7096
:103E9000405D4A3318F0495D31FD4052419302D0F4
:103EA000A9F7EACFB4E0A69597958795779567959A
:103EB000BA95C9F700976105710508959B01AC019A
:103EC0000A2E06945795479537952795BA95C9F7C1
:103ED000620F731F841F951FA01D08952F923F929C
:103EE0004F925F926F927F928F929F92AF92BF920A
:103EF000CF92DF92EF92FF920F931F93CF93DF93B6
:103F0000CDB7DEB7CA1BDB0B0FB6F894DEBF0FBE12
:103F1000CDBF09942A88398848885F846E847D845F
:103F20008C849B84AA84B984C884DF80EE80FD8061
:103F30000C811B81AA81B981CE0FD11D0FB6F894D7
:0E3F4000DEBF0FBECDBFED010895F894FFCF98
:103F4E003A003700340031003B00380035003200B3
:103F5E003A003700340031003B00380035003200A3
:103F6E00390036003300300008090A0C0E0D02032A
:103F7E0008090A0C030200151413121F1E1D1B0044
:103F8E00011F001E001D000202020A0101000704AB
:103F9E000100071010101010101010010101010186
:103FAE0001010100040E1F1F0E040001050F1F1F4B
:103FBE000F050110141E1F1F1E1410256C750025F1
:103FCE0066002567002047414D45204F564552005B
:103FDE003738392F3435362A3132332D63303D2B75
:00000001FF
