:100000000C942A000C9444050C947B050C94B205C6
:100010000C9447000C9447000C9447000C94470044
:100020000C9447000C9447000C9447000C94470034
:100030000C9447000C9447000C9447000C94470024
:100040000C9447000C9447000C9447000C94470014
:100050000C94470011241FBECFE5D8E0DEBFCDBF12
:1000600010E0A0E6B0E0E0EBF8E302C005900D92EE
:10007000A03CB107D9F720E0A0ECB0E001C01D9290
:10008000AD3CB207E1F70E94750F0C94561C0C941E
:100090000000CF93DF9300D000D0CDB7DEB78A83C6
:1000A0007C836B8319828B819C81892B19F481E07D
:1000B000898319C08A81882F90E0292F2F938F93ED
:1000C00088EA90E0892F8F9388EA90E08F938C8163
:1000D0008F938B818F930E946C190F900F900F90CC
:1000E0000F900F900F9089810F900F900F900F90AD
:1000F000DF91CF910895CF93DF93CDB7DEB72797E8
:100100000FB6F894DEBF0FBECDBF6A837B838C83AE
:100110009D835F834E8319828E819F81892B19F481
:1001200081E089831DC08D818F938C818F938B811A
:100130008F938A818F938CEA90E0892F8F938CEA3A
:1001400090E08F938F818F938E818F930E946C1993
:100150008DB79EB708960FB6F894DEBF0FBECDBF21
:10016000898127960FB6F894DEBF0FBECDBFDF9111
:10017000CF9108952F923F924F925F926F927F920C
:100180008F929F92AF92BF92CF92DF92EF92FF92A7
:100190000F931F93CF93DF93CDB7DEB76E970FB654
:1001A000F894DEBF0FBECDBF9C878B877E876D879F
:1001B00019821A821B821C821D821E821F8218864F
:1001C00019861A868D859E85892B21F08B859C85C5
:1001D000892B19F481E08983B4C01A828CC02B81E9
:1001E0003C814D815E816F81788589859A85222E3B
:1001F000332E442E552E662E772E882E992E222DA4
:10020000332D442D552D662D772D882D992D01E008
:100210000E945017A22EB32EC42ED52EE62EF72EF6
:10022000082F192F2A2C3B2C4C2C5D2C6E2C7F2C4C
:10023000802E912E222D332D442D552D662D772D78
:10024000882D992D02E00E9450172F8B388F498FEF
:100250005A8F6B8F7C8F8D8F9E8F222D332D442D47
:10026000552D662D772D882D992DAF88B88CC98C8A
:10027000DA8CEB8CFC8C0D8D1E8D0E946917A22EE2
:10028000B32EC42ED52EE62EF72E082F192F8A81D5
:10029000882F90E02D853E85820F931FFC01808181
:1002A000882F90E0C097988B8F87892F880F880BB5
:1002B000898B8A8B8B8B8C8B8D8B8E8B2A2D3B2DF8
:1002C0004C2D5D2D6E2D7F2D802F912FAF84B88802
:1002D000C988DA88EB88FC880D891E890E94691715
:1002E0002B833C834D835E836F83788789879A87CE
:1002F0008A818F5F8A838A81882F90E02D853E8551
:10030000820F931FFC018081882309F068CF8B85C1
:100310009C852B81FC0120832C81FC0121832D8174
:10032000FC0122832E81FC0123832F81FC01248385
:100330002885FC0125832985FC0126832A85FC016B
:10034000278389816E960FB6F894DEBF0FBECDBFAE
:10035000DF91CF911F910F91FF90EF90DF90CF90A1
:10036000BF90AF909F908F907F906F905F904F90D5
:100370003F902F900895CF93DF93CDB7DEB78AE3F8
:1003800090E02DE7FC01208387E390E027EFFC015C
:10039000208384E390E02FEFFC01208381E390E051
:1003A000FC0110828BE390E02CE0FC01208388E3C9
:1003B00090E020ECFC01208385E390E0FC011082BA
:1003C00082E390E02CEEFC0120830000DF91CF91CE
:1003D0000895CF93DF9300D000D01F92CDB7DEB742
:1003E0008C836D8319828C8187708A838C8186953A
:1003F000869586958B838C81803218F082E0898384
:1004000059C08D81823018F081E0898353C08D817D
:10041000882F90E0009741F1019709F04BC08B8144
:10042000882F90E0880F991F805A9F4FFC01808190
:1004300091812B81222F30E0220F331F205A3F4F12
:10044000F90120813181F9012081622F2A81422F17
:1004500050E021E030E002C0220F331F4A95E2F75E
:10046000262BFC01208326C08B81882F90E0880FEB
:10047000991F805A9F4FFC01808191812B81222FEF
:1004800030E0220F331F205A3F4FF9012081318184
:10049000F9012081622F2A81422F50E021E030E0D3
:1004A00002C0220F331F4A95E2F720952623FC0154
:1004B0002083000089810F900F900F900F900F9074
:1004C000DF91CF910895CF93DF9300D000D01F929A
:1004D000CDB7DEB78C836D8319828C8187708A8358
:1004E0008C818695869586958B838C81803218F0D9
:1004F00082E0898343C18D81843018F081E0898353
:100500003DC18D81882F90E08130910509F457C05D
:10051000823091051CF4892B49F030C1823091055D
:1005200009F497C0039709F4DFC028C18B81882F95
:1005300090E0880F991F805A9F4FFC018081918124
:100540002B81222F30E0220F331F205A3F4FF90119
:1005500020813181F9012081622F2A81422F50E0D0
:1005600021E030E002C0220F331F4A95E2F7262B2C
:10057000FC0120838B81882F90E0880F991F885978
:100580009F4FFC01808191812B81222F30E0220F2F
:10059000331F28593F4FF90120813181F901208112
:1005A000622F2A81422F50E021E030E002C0220F6A
:1005B000331F4A95E2F7262BFC012083DFC08B8195
:1005C000882F90E0880F991F805A9F4FFC018081EF
:1005D00091812B81222F30E0220F331F205A3F4F71
:1005E000F90120813181F9012081622F2A81422F76
:1005F00050E021E030E002C0220F331F4A95E2F7BD
:10060000262BFC0120838B81882F90E0880F991F77
:1006100088599F4FFC01808191812B81222F30E0EE
:10062000220F331F28593F4FF90120813181F901F1
:100630002081622F2A81422F50E021E030E002C069
:10064000220F331F4A95E2F720952623FC012083D1
:1006500095C08B81882F90E0880F991F805A9F4FFB
:10066000FC01808191812B81222F30E0220F331FEA
:10067000205A3F4FF90120813181F9012081622FF9
:100680002A81422F50E021E030E002C0220F331FC8
:100690004A95E2F720952623FC0120838B81882F41
:1006A00090E0880F991F88599F4FFC0180819181AC
:1006B0002B81222F30E0220F331F28593F4FF901A1
:1006C00020813181F9012081622F2A81422F50E05F
:1006D00021E030E002C0220F331F4A95E2F7209557
:1006E0002623FC0120834AC08B81882F90E0880F4D
:1006F000991F805A9F4FFC01808191812B81222F6D
:1007000030E0220F331F205A3F4FF9012081318101
:10071000F9012081622F2A81422F50E021E030E050
:1007200002C0220F331F4A95E2F720952623FC01D1
:1007300020838B81882F90E0880F991F88599F4FC5
:10074000FC01808191812B81222F30E0220F331F09
:1007500028593F4FF90120813181F9012081622F11
:100760002A81422F50E021E030E002C0220F331FE7
:100770004A95E2F7262BFC012083000089810F9027
:100780000F900F900F900F90DF91CF910895CF931E
:10079000DF931F92CDB7DEB719828FE590E02FE58A
:1007A00030E0F90120812068FC01208389810F90CD
:1007B000DF91CF910895CF93DF931F92CDB7DEB72E
:1007C00019828FE590E02FE530E0F90120812F7745
:1007D000FC01208389810F90DF91CF910895CF9301
:1007E000DF9300D0CDB7DEB78A8319828FE590E022
:1007F0002FE530E0F9012081422F4F772A81222F07
:1008000030E03695322F222737952795242BFC018F
:10081000208389810F900F90DF91CF910895CF931E
:10082000DF9300D000D0CDB7DEB78A837C836B83A3
:1008300019828B819C81892B19F482E089830CC0F9
:100840008FE590E0FC018081282F221F2227221FA4
:100850008B819C81FC01208389810F900F900F90E8
:100860000F90DF91CF910895CF93DF9300D01F9227
:10087000CDB7DEB78A836B8381E089838A81833039
:1008800018F083E089838FC08A81882F90E08130BF
:10089000910589F18230910509F462C0892B09F034
:1008A00082C085E590E025E530E0F9012081322F16
:1008B0003E7F2B812170232BFC01208385E590E076
:1008C00025E530E0F9012081422F4D7F2B812695CF
:1008D000222F30E021703327220F331F242BFC01FD
:1008E00020838BE590E02BE530E0F9012081206446
:1008F000FC01208358C085E590E025E530E0F90152
:100900002081422F4B7F2B81222F30E02170332713
:10091000220F331F220F331F242BFC01208385E578
:1009200090E025E530E0F9012081422F477F2B81BF
:100930002695222F30E021703327220F331F220FFC
:10094000331F220F331F242BFC0120838BE590E003
:100950002BE530E0F90120812068FC01208323C0D1
:1009600084E590E024E530E0F9012081422F4F7BBF
:100970002B81222F30E021703327002436952795D4
:100980000794369527950794322F202D242BFC01B0
:1009900020838BE590E02BE530E0F9012081206297
:1009A000FC012083000089810F900F900F90DF9150
:1009B000CF910895CF93DF9300D0CDB7DEB78A8370
:1009C00081E089838A81833018F083E089832AC09B
:1009D0008A81882F90E08130910581F082309105E5
:1009E000B9F0892B09F01EC08BE590E02BE530E0D3
:1009F000F90120812F7BFC01208314C08BE590E05E
:100A00002BE530E0F90120812F77FC0120830AC01B
:100A10008BE590E02BE530E0F90120812F7DFC0192
:100A20002083000089810F900F90DF91CF9108956E
:100A3000CF93DF9300D000D0CDB7DEB78A837C831D
:100A40006B8381E089838A81833018F083E0898316
:100A500013C08B819C81892B19F482E089830CC09F
:100A60008A81882F90E0880F991F80549F4F2B8197
:100A70003C81FC013183208389810F900F900F907E
:100A80000F90DF91CF9108951F920F9200905F0019
:100A90000F9211242F933F934F935F936F937F9304
:100AA0008F939F93AF93BF93EF93FF93CF93DF9376
:100AB000CDB7DEB78091C0009091C100892B31F095
:100AC0008091C0009091C100FC0109950000DF9168
:100AD000CF91FF91EF91BF91AF919F918F917F91B6
:100AE0006F915F914F913F912F910F9000925F0016
:100AF0000F901F9018951F920F9200905F000F9219
:100B000011242F933F934F935F936F937F938F9312
:100B10009F93AF93BF93EF93FF93CF93DF93CDB7A3
:100B2000DEB78091C2009091C300892B31F0809193
:100B3000C2009091C300FC0109950000DF91CF91A4
:100B4000FF91EF91BF91AF919F918F917F916F91A5
:100B50005F914F913F912F910F9000925F000F9006
:100B60001F9018951F920F9200905F000F92112412
:100B70002F933F934F935F936F937F938F939F93A5
:100B8000AF93BF93EF93FF93CF93DF93CDB7DEB7D0
:100B90008091C4009091C500892B31F08091C400F0
:100BA0009091C500FC0109950000DF91CF91FF9164
:100BB000EF91BF91AF919F918F917F916F915F91D5
:100BC0004F913F912F910F9000925F000F901F90D7
:100BD0001895CF93DF9300D000D01F92CDB7DEB72A
:100BE0008C836D8319828C8187708A838C81869532
:100BF000869586958B838C81803218F082E089837C
:100C00004EC08B81882F90E0880F991F80599F4F8D
:100C1000FC0180819181FC018081882F90E02A81F4
:100C2000222F30E002C0959587952A95E2F78170D2
:100C30009927892B19F481E0898331C08B81882F12
:100C400090E0880F991F88589F4FFC018081918107
:100C50002B81222F30E0220F331F28583F4FF901FC
:100C600020813181F9012081622F2A81422F50E0B9
:100C700021E030E002C0220F331F4A95E2F72095B1
:100C800062232D81222F30E04A81442F50E002C0A0
:100C9000220F331F4A95E2F7262BFC01208389811E
:100CA0000F900F900F900F900F90DF91CF910895BC
:100CB000CF93DF9300D000D000D0CDB7DEB78C83C8
:100CC0007E836D8319828C8187708A838C8186955F
:100CD000869586958B838C81803218F082E089839B
:100CE00040C08B81882F90E0880F991F80599F4FBB
:100CF000FC0180819181FC018081882F90E02A8114
:100D0000222F30E002C0959587952A95E2F78170F1
:100D10009927892B19F081E0898323C08D819E81D9
:100D2000892B19F484E089831CC08B81882F90E083
:100D3000880F991F80589F4FFC0180819181FC0191
:100D40008081882F90E02A81222F30E002C0959583
:100D500087952A95E2F7282F21708D819E81FC01CD
:100D60002083898126960FB6F894DEBF0FBECDBFD3
:100D7000DF91CF910895CF93DF9300D01F92CDB72D
:100D8000DEB78A836B8319828A81843018F083E00E
:100D900089831EC08A81882F90E0880F991F80590F
:100DA0009F4FFC0180819181FC0180818F3F19F070
:100DB00081E089830DC08A81882F90E0880F991F78
:100DC00088589F4FFC01808191812B81FC012083F9
:100DD00089810F900F900F90DF91CF910895CF935D
:100DE000DF9300D000D0CDB7DEB78A837C836B83DE
:100DF00019828A81843018F083E0898328C08A812F
:100E0000882F90E0880F991F80599F4FFC018081A7
:100E10009181FC018081882319F081E0898317C0CA
:100E20008B819C81892B19F484E0898310C08A818D
:100E3000882F90E0880F991F80589F4FFC01808178
:100E40009181FC0120818B819C81FC01208389811F
:100E50000F900F900F900F90DF91CF910895CF9347
:100E6000DF9300D000D0CDB7DEB78C8319828C81A0
:100E700087708A838C818695869586958B838C81F5
:100E8000803218F082E0898341C08B81882F90E006
:100E9000880F991F80599F4FFC0180819181FC012F
:100EA0008081882F90E02A81222F30E002C0959522
:100EB00087952A95E2F781709927892B19F481E0AB
:100EC000898324C08B81882F90E0880F991F8858D0
:100ED0009F4FFC01808191812B81222F30E0220FD6
:100EE000331F28583F4FF90120813181F9012081BA
:100EF000622F2A81422F50E021E030E002C0220F11
:100F0000331F4A95E2F72627FC01208389810F9041
:100F10000F900F900F90DF91CF910895CF93DF93B3
:100F2000CDB7DEB727970FB6F894DEBF0FBECDBFA3
:100F30009E838D836F8319821B821C821A828D810E
:100F40009E81892B19F482E0898322C01A821DC0F8
:100F50008F81882F90E02A81222F30E002C0959562
:100F600087952A95E2F781708C838A81882F90E09B
:100F70002D813E81820F931FFC0180816C810E9434
:100F8000E9058B838A818F5F8A838A81843000F3AD
:100F9000898127960FB6F894DEBF0FBECDBFDF91D3
:100FA000CF910895CF93DF93CDB7DEB7EF970FB60C
:100FB000F894DEBF0FBECDBF9FAF8EAF19828EAD4E
:100FC0009FAD892B19F482E089830FC28EAD9FAD4E
:100FD00068E30E94FF09898380E090E0A0EAB0E422
:100FE0008A839B83AC83BD8320E030E04AEF54E4E6
:100FF0006A817B818C819D810E94FF18DC01CB017D
:101000008CAB9DABAEABBFAB20E030E040E85FE324
:101010006CA97DA98EA99FA90E94DF1788232CF4B3
:1010200081E090E099AF88AF3FC020E03FEF4FE70D
:1010300057E46CA97DA98EA99FA90E94FA181816D9
:101040004CF520E030E040E251E46A817B818C8104
:101050009D810E94FF18DC01CB01BC01CD010E94E3
:101060005618DC01CB0199AF88AF0FC088EC90E037
:101070009BAF8AAF8AAD9BAD0197F1F79BAF8AAF6B
:1010800088AD99AD019799AF88AF88AD99AD892B9F
:1010900069F714C06CA97DA98EA99FA90E94561852
:1010A000DC01CB0199AF88AF88AD99AD9DAF8CAF16
:1010B0008CAD9DAD0197F1F79DAF8CAF8EAD9FAD1F
:1010C00068E30E94FF09898380E090E0A6E1B3E431
:1010D0008E839F83A887B9872BEA3AEA4AE250E4D5
:1010E0006E817F81888599850E94FF18DC01CB0184
:1010F000888F998FAA8FBB8F8E819F81A885B98594
:101100009C01AD01BC01CD010E947317DC01CB0134
:101110008C8F9D8FAE8FBF8F20E030E040E85FE383
:10112000688D798D8A8D9B8D0E94DF1788231CF432
:1011300081E088A3B2C020E03FEF4FE757E46C8D19
:101140007D8D8E8D9F8D0E94FA1818160CF07BC035
:1011500020E030E04AE754E46E817F8188859985FC
:101160000E94E417DC01CB0189A39AA3ABA3BCA323
:1011700020E030E04AEF54E469A17AA18BA19CA160
:101180000E94FF18DC01CB018DA39EA3AFA3B8A7DB
:1011900020E030E040E85FE36DA17EA18FA198A53B
:1011A0000E94DF1788232CF481E090E09AA789A79A
:1011B0003FC020E03FEF4FE757E46DA17EA18FA134
:1011C00098A50E94FA1818164CF520E030E040E28D
:1011D00051E469A17AA18BA19CA10E94FF18DC01B6
:1011E000CB01BC01CD010E945618DC01CB019AA7AE
:1011F00089A70FC088EC90E09CA78BA78BA59CA526
:101200000197F1F79CA78BA789A59AA501979AA7A3
:1012100089A789A59AA5892B69F73FC06DA17EA1F1
:101220008FA198A50E945618DC01CB019AA789A727
:1012300089A59AA59EA78DA78DA59EA50197F1F7D3
:101240009EA78DA72AC020E030E04FE753E4688DC9
:10125000798D8A8D9B8D0E94FA181816ACF46C8DCE
:101260007D8D8E8D9F8D0E945618DC01CB0198AB31
:101270008FA78FA598A99AAB89AB89A99AA901973D
:10128000F1F79AAB89AB0FC0688D798D8A8D9B8DF4
:101290000E945618DC01CB0188A388A18BAB8BA9D7
:1012A0008A95F1F78BAB8EAD9FAD68E30E94FF0985
:1012B00089838EAD9FAD61E00E94FF0989838EAD69
:1012C0009FAD62E00E94FF0989838EAD9FAD66E00D
:1012D0000E94FF0989838EAD9FAD6CE00E94FF09DB
:1012E00089838EAD9FAD68E20E94FF0989838EAD30
:1012F0009FAD60E80E94FF0989838EAD9FAD61E0DC
:101300000E94FF09898380E090E0A0EAB0E48A8728
:101310009B87AC87BD8720E030E04AEF54E46A85C4
:101320007B858C859D850E94FF18DC01CB018E8713
:101330009F87A88BB98B20E030E040E85FE36E85A3
:101340007F85888999890E94DF1788232CF481E0A2
:1013500090E09B8B8A8B3FC020E03FEF4FE757E444
:101360006E857F85888999890E94FA1818164CF530
:1013700020E030E040E251E46A857B858C859D85E4
:101380000E94FF18DC01CB01BC01CD010E94561860
:10139000DC01CB019B8B8A8B0FC088EC90E09D8B8E
:1013A0008C8B8C899D890197F1F79D8B8C8B8A8919
:1013B0009B8901979B8B8A8B8A899B89892B69F7EB
:1013C00014C06E857F85888999890E945618DC0132
:1013D000CB019B8B8A8B8A899B899F8B8E8B8E8975
:1013E0009F890197F1F79F8B8E8B8981EF960FB6BE
:1013F000F894DEBF0FBECDBFDF91CF910895CF939C
:10140000DF9300D000D01F92CDB7DEB79C838B83D3
:101410006D8319821A828B819C81892B19F482E059
:10142000898322C08B819C81FC01848160E00E94C1
:10143000E9058A838D81282F22952F708B819C81CD
:10144000622F0E945C0C89838B819C810E949A0C84
:1014500089838B819C816D810E945C0C89838B8147
:101460009C810E949A0C898389810F900F900F9024
:101470000F900F90DF91CF910895CF93DF9300D01D
:1014800000D0CDB7DEB79B838A836C8319828A81B3
:101490009B81892B19F482E0898322C08A819B81F8
:1014A000FC01848161E00E94E90589838C81282FF9
:1014B00022952F708A819B81622F0E945C0C898308
:1014C0008A819B810E949A0C89838A819B816C818D
:1014D0000E945C0C89838A819B810E949A0C89837B
:1014E00089810F900F900F900F90DF91CF91089509
:1014F000CF93DF9300D000D000D0CDB7DEB79B8371
:101500008A836C834D832E8319828A819B81892BE8
:1015100019F482E0898329C08A819B814E816D8183
:101520000E94150B89838A819B81FC01848161E083
:101530000E94E90589838C81282F22952F708A814A
:101540009B81622F0E945C0C89838A819B810E940F
:101550009A0C89838A819B816C810E945C0C8983AF
:101560008A819B810E949A0C8983898126960FB675
:10157000F894DEBF0FBECDBFDF91CF910895CF931A
:10158000DF93CDB7DEB727970FB6F894DEBF0FBE57
:10159000CDBF9C838B837E836D834F8319821A8298
:1015A0008B819C81892B21F08D819E81892B19F45F
:1015B00082E0898330C08F81883018F083E089838E
:1015C0002AC08F81882F90E00896282F220F220FA3
:1015D000220F8B819C81622F0E94FF0989831A82CE
:1015E00011C08A81882F90E02D813E81820F931F48
:1015F000FC0120818B819C81622F0E943D0A8A819F
:101600008F5F8A838A81883060F38B819C8160E858
:101610000E94FF098983898127960FB6F894DEBF5F
:101620000FBECDBFDF91CF910895CF93DF9300D050
:1016300000D01F92CDB7DEB79B838A836C834D8326
:1016400019828A819B81892B19F482E0898356C093
:101650008C81853018F085E0898350C08D8185317B
:1016600018F084E089834AC08D8181508D838C81FC
:10167000882F90E082309105C9F0833091051CF4E9
:10168000019739F03AC083309105E9F0049741F1B0
:1016900034C08D8120E8280F8A819B81622F0E94AF
:1016A000FF09982F89818923898328C08D8120ECA7
:1016B000280F8A819B81622F0E94FF09982F8981C0
:1016C000892389831BC08D8124E9280F8A819B810E
:1016D000622F0E94FF09982F8981892389830EC078
:1016E0008D8124ED280F8A819B81622F0E94FF0942
:1016F000982F89818923898301C0198289810F905C
:101700000F900F900F900F90DF91CF910895CF938E
:10171000DF9300D000D000D0CDB7DEB79C838B83A1
:101720007E836D8319821A828B819C81892B21F0A3
:101730008D819E81892BA9F482E089831DC08A81D5
:10174000882F90E02D813E81820F931FFC01208124
:101750008B819C81622F0E943D0A89838A818F5FE1
:101760008A838A81882F90E02D813E81820F931F8A
:10177000FC018081882319F7898126960FB6F89499
:10178000DEBF0FBECDBFDF91CF910895CF93DF9322
:10179000CDB7DEB7C956D1090FB6F894DEBF0FBE7C
:1017A000CDBF9E0129593F4FF90191838083CE011E
:1017B00087599F4FFC01608319821A82CE01895993
:1017C0009F4FFC0180819181892B19F482E08983EC
:1017D00019C09E012D5F3F4FCE0187599F4FB90120
:1017E000FC0180810E9449008A839E012D5F3F4F4A
:1017F000CE0189599F4FFC0180819181B9010E94DE
:10180000870B89838981C759DF4F0FB6F894DEBFF4
:101810000FBECDBFDF91CF910895CF93DF93CDB7AA
:10182000DEB7CC56D1090FB6F894DEBF0FBECDBFE0
:101830009E0129593F4FF90191838083CE01875939
:101840009F4FFC01408351836283738319821A8204
:10185000CE0189599F4FFC0180819181892B19F418
:1018600082E089831EC09E012D5F3F4FCE018759C4
:101870009F4FFC0180819181A281B381A901BC01AC
:10188000CD010E947B008A839E012D5F3F4FCE01D8
:1018900089599F4FFC0180819181B9010E94870B7A
:1018A00089838981C459DF4F0FB6F894DEBF0FBE1C
:1018B000CDBFDF91CF910895CF93DF9300D000D0BB
:1018C0001F92CDB7DEB79C838B836D8319821A82FA
:1018D0008B819C81892B19F482E0898322C01A8232
:1018E0001DC08D81882F90E02A81222F30E002C018
:1018F000959587952A95E2F7482F41708A81882F20
:1019000090E02B813C81820F931FFC018081642F2A
:101910000E94E90589838A818F5F8A838A81843066
:1019200000F389810F900F900F900F900F90DF912F
:10193000CF910895CF93DF93CDB7DEB7A3970FB6BE
:10194000F894DEBF0FBECDBF9BA38AA319828AA1E4
:101950009BA1892B19F482E08983FFC08AA19BA1F6
:10196000FC01858161E00E94E905898380E090E0C7
:10197000A0EAB0E48A839B83AC83BD832BEA3AEA76
:101980004AE250E46A817B818C819D810E94FF182C
:10199000DC01CB018E839F83A887B9878A819B81D5
:1019A000AC81BD819C01AD01BC01CD010E947317CA
:1019B000DC01CB018A879B87AC87BD8720E030E0C4
:1019C00040E85FE36E817F81888599850E94DF17FB
:1019D00088231CF481E08E87B2C020E03FEF4FE700
:1019E00057E46A857B858C859D850E94FA181816B8
:1019F0000CF07BC020E030E04AE754E46A817B8150
:101A00008C819D810E94E417DC01CB018F87988B2C
:101A1000A98BBA8B20E030E04AEF54E46F857889D7
:101A200089899A890E94FF18DC01CB018B8B9C8BE2
:101A3000AD8BBE8B20E030E040E85FE36B897C89B2
:101A40008D899E890E94DF1788232CF481E090E025
:101A5000988F8F8B3FC020E03FEF4FE757E46B89B3
:101A60007C898D899E890E94FA1818164CF520E011
:101A700030E040E251E46F85788989899A890E9433
:101A8000FF18DC01CB01BC01CD010E945618DC011E
:101A9000CB01988F8F8B0FC088EC90E09A8F898F45
:101AA000898D9A8D0197F1F79A8F898F8F89988DFB
:101AB0000197988F8F8B8F89988D892B69F73FC0FD
:101AC0006B897C898D899E890E945618DC01CB0127
:101AD000988F8F8B8F89988D9C8F8B8F8B8D9C8D02
:101AE0000197F1F79C8F8B8F2AC020E030E04FE701
:101AF00053E46E817F81888599850E94FA181816B3
:101B0000ACF46A857B858C859D850E945618DC0126
:101B1000CB019E8F8D8F8D8D9E8D98A38F8F8F8DF6
:101B200098A10197F1F798A38F8F0FC06E817F81E5
:101B3000888599850E945618DC01CB018E878E8599
:101B400089A389A18A95F1F789A38AA19BA1FC01A8
:101B5000858160E00E94E90589838981A3960FB69B
:101B6000F894DEBF0FBECDBFDF91CF910895CF9324
:101B7000DF93CDB7DEB729970FB6F894DEBF0FBE5F
:101B8000CDBF9F838E837987688783E089831C829A
:101B90001A821B828E819F81FC0181858D838E81BB
:101BA0009F81892B21F088859985892B19F482E002
:101BB0008983DFC08E819F810E94C30E89838E81BD
:101BC0009F81FC018085882F90E0009721F001978C
:101BD00009F467C0CCC01A825FC08E819F81FC016E
:101BE000918581E0992309F080E0482F8A81882F30
:101BF00090E02E813F81820F931FFC018081642F32
:101C00000E94E9058C831B8230C08B81882F90E075
:101C10002E813F81820F931F0496FC012081CE010B
:101C20000596BC01822F0E9458068C838E819F816D
:101C3000FC0191858D819817A9F08A81282F30E0C9
:101C40008B81882F90E0220F331F220F331F820FCA
:101C5000931F81559F4FFC01208188859985FC0148
:101C6000208319828B818F5F8B838B81843068F214
:101C70008E819F81FC0141858A81882F90E02E8191
:101C80003F81820F931FFC018081642F0E94E90530
:101C90008C838A818F5F8A838A81843008F49DCF08
:101CA00068C01B825FC08E819F81FC01918581E0AD
:101CB000992309F080E0482F8B81882F90E02E81B6
:101CC0003F81820F931F0496FC018081642F0E9444
:101CD000E9058C831A822EC08A81882F90E02E819C
:101CE0003F81820F931FFC012081CE010596BC012C
:101CF000822F0E9458068C838E819F81FC019185E2
:101D00008D819817A1F08A81282F30E08B81882F50
:101D100090E0220F331F220F331F820F931F815534
:101D20009F4FFC01208188859985FC0120838A8151
:101D30008F5F8A838A81843078F28E819F81FC0153
:101D400041858B81882F90E02E813F81820F931FE8
:101D50000496FC018081642F0E94E9058C838B81AD
:101D60008F5F8B838B81843008F49DCF02C081E02C
:101D70008983898129960FB6F894DEBF0FBECDBF47
:101D8000DF91CF910895CF93DF9300D000D01F92C1
:101D9000CDB7DEB79D838C8383E089831B821A8253
:101DA0008C819D81892B19F482E0898342C08C81CA
:101DB0009D81FC018085882F90E0009719F00197A4
:101DC000D9F035C01A8214C08C819D81FC014185F7
:101DD0008A81882F90E02C813D81820F931FFC0126
:101DE0008081642F0E94E9058B838A818F5F8A83BB
:101DF0008A81843048F31DC01A8215C08C819D8170
:101E0000FC0141858A81882F90E02C813D81820FE1
:101E1000931F0496FC018081642F0E94E9058B8347
:101E20008A818F5F8A838A81843040F302C081E097
:101E3000898389810F900F900F900F900F90DF9101
:101E4000CF910895CF93DF9300D000D000D0CDB7CD
:101E5000DEB79C838B837E836D8319821A828B818C
:101E60009C81892B21F08D819E81892B19F482E040
:101E7000898331C08B819C81FC018181882F90E016
:101E8000009771F0019729F58B819C81FC012081DD
:101E90008D819E81BC01822F0E9458068A831BC0BF
:101EA0008B819C81FC0120818D819E81BC01822FD0
:101EB0000E9458068A838D819E81FC01908181E079
:101EC000992309F080E0282F8D819E81FC012083D9
:101ED00002C081E08983898126960FB6F894DEBF1F
:101EE0000FBECDBFDF91CF910895CF93DF93CDB7D4
:101EF000DEB70E94BB010E94ED148091A700882FDD
:101F000090E08130910549F08230910549F0892BAC
:101F100009F009C00E94B20F06C00E94681203C0F7
:101F20000E94ED140000E9CFCF93DF931F92CDB74D
:101F3000DEB7898361E089810E94E90500000F9086
:101F4000DF91CF910895CF93DF931F92CDB7DEB786
:101F5000898360E089810E94E90500000F90DF918C
:101F6000CF910895CF93DF93CDB7DEB7EC970FB63F
:101F7000F894DEBF0FBECDBF19821A821B821C826D
:101F800019821A821B821C8263C26BEC70E083EAA6
:101F900090E00E94220F8091CB00813021F481E0FB
:101FA0008093A7008CC26CEC70E085EA90E00E9400
:101FB000220F8091CC00813021F482E08093A70031
:101FC0007EC28091C600682F88E890E00E948E074C
:101FD00080918F000E94940F80918C000E94A30F2B
:101FE00080E090E0A0EAB0E4898B9A8BAB8BBC8B4D
:101FF00020E030E04AEF54E469897A898B899C8932
:102000000E94FF18DC01CB018D8B9E8BAF8BB88FAC
:1020100020E030E040E85FE36D897E898F89988D0C
:102020000E94DF1788232CF481E090E09A8F898F3B
:102030003FC020E03FEF4FE757E46D897E898F89ED
:10204000988D0E94FA1818164CF520E030E040E216
:1020500051E469897A898B899C890E94FF18DC0187
:10206000CB01BC01CD010E945618DC01CB019A8F37
:10207000898F0FC088EC90E09C8F8B8F8B8D9C8D0F
:102080000197F1F79C8F8B8F898D9A8D01979A8F8D
:10209000898F898D9A8D892B69F714C06D897E8906
:1020A0008F89988D0E945618DC01CB019A8F898FF9
:1020B000898D9A8D9E8F8D8F8D8D9E8D0197F1F7D5
:1020C0009E8F8D8F6BEC70E083EA90E00E94220F70
:1020D0008091CB00813021F481E08093A700EFC193
:1020E0006CEC70E085EA90E00E94220F8091CC00B9
:1020F000813021F482E08093A700E1C18091C70084
:10210000682F88E890E00E948E0780918C000E94E2
:10211000940F80918D000E94A30F80E090E0A0EAD0
:10212000B0E48D879E87AF87B88B20E030E04AEF20
:1021300054E46D857E858F8598890E94FF18DC01A7
:10214000CB0189A79AA7ABA7BCA720E030E040E865
:102150005FE369A57AA58BA59CA50E94DF1788235C
:102160002CF481E090E09EA78DA73FC020E03FEFD8
:102170004FE757E469A57AA58BA59CA50E94FA189C
:1021800018164CF520E030E040E251E46D857E8584
:102190008F8598890E94FF18DC01CB01BC01CD011D
:1021A0000E945618DC01CB019EA78DA70FC088ECBA
:1021B00090E098AB8FA78FA598A90197F1F798ABFE
:1021C0008FA78DA59EA501979EA78DA78DA59EA5DE
:1021D000892B69F714C069A57AA58BA59CA50E94D7
:1021E0005618DC01CB019EA78DA78DA59EA59AABA5
:1021F00089AB89A99AA90197F1F79AAB89AB80912C
:10220000C800682F88E890E00E948E0780918D00BA
:102210000E94940F80918E000E94A30F80E090E0B6
:10222000A0EAB0E48D839E83AF83B88720E030E0DE
:102230004AEF54E46D817E818F8198850E94FF185A
:10224000DC01CB018F8F98A3A9A3BAA320E030E0D3
:1022500040E85FE36F8D78A189A19AA10E94DF1702
:1022600088232CF481E090E09CA38BA33FC020E066
:102270003FEF4FE757E46F8D78A189A19AA10E94A3
:10228000FA1818164CF520E030E040E251E46D8178
:102290007E818F8198850E94FF18DC01CB01BC01F3
:1022A000CD010E945618DC01CB019CA38BA30FC06B
:1022B00088EC90E09EA38DA38DA19EA10197F1F7DC
:1022C0009EA38DA38BA19CA101979CA38BA38BA103
:1022D0009CA1892B69F714C06F8D78A189A19AA15F
:1022E0000E945618DC01CB019CA38BA38BA19CA15F
:1022F00098A78FA38FA198A50197F1F798A78FA30F
:102300006BEC70E083EA90E00E94220F8091CB009A
:10231000813021F481E08093A700D1C06CEC70E0A3
:1023200085EA90E00E94220F8091CC00813021F458
:1023300082E08093A700C3C08091C900682F88E81D
:1023400090E00E948E0780918E000E94940F8091F1
:102350008F000E94A30F80E090E0A0E7B1E489879E
:102360009A87AB87BC8720E030E04AEF54E4698568
:102370007A858B859C850E94FF18DC01CB018BAB95
:102380009CABADABBEAB20E030E040E85FE36BA9B7
:102390007CA98DA99EA90E94DF1788232CF481E0D7
:1023A00090E098AF8FAB3FC020E03FEF4FE757E49E
:1023B0006BA97CA98DA99EA90E94FA1818164CF544
:1023C00020E030E040E251E469857A858B859C8588
:1023D0000E94FF18DC01CB01BC01CD010E94561800
:1023E000DC01CB0198AF8FAB0FC088EC90E09AAFC7
:1023F00089AF89AD9AAD0197F1F79AAF89AF8FA9EF
:1024000098AD019798AF8FAB8FA998AD892B69F7DD
:1024100014C06BA97CA98DA99EA90E945618DC0145
:10242000CB0198AF8FAB8FA998AD9CAF8BAF8BAD25
:102430009CAD0197F1F79CAF8BAF89819A81AB81FD
:10244000BC810196A11DB11D89839A83AB83BC8396
:1024500089819A81AB81BC818897A105B10508F477
:1024600094CD8091C9008F5F8093C9008091C9008D
:102470008A3008F485CD1092C9008091C8008F5F22
:102480008093C8008091C8008A3008F479CD1092FA
:10249000C8008091C7008F5F8093C7008091C700FC
:1024A0008A3008F46DCD1092C7008091C6008F5F0E
:1024B0008093C6008091C6008A3008F461CDEC9606
:1024C0000FB6F894DEBF0FBECDBFDF91CF91089558
:1024D000CF93DF93CDB7DEB7EC970FB6F894DEBF9E
:1024E0000FBECDBF19821A821B821C8219821A82EA
:1024F0001B821C8260C26AEC70E081EA90E00E945C
:10250000220F8091CA00813019F41092A7005CC29A
:102510006CEC70E085EA90E00E94220F8091CC0084
:10252000813021F482E08093A7004EC28091C600E2
:10253000682F88E890E00E948E0780918F000E94AB
:10254000940F80918C000E94A30F80E090E0A0EA9D
:10255000B0E489879A87AB87BC8720E030E04AEFF8
:1025600054E469857A858B859C850E94FF18DC017F
:10257000CB018F8F98A3A9A3BAA320E030E040E855
:102580005FE36F8D78A189A19AA10E94DF1788234C
:102590002CF481E090E09CA38BA33FC020E03FEFB0
:1025A0004FE757E46F8D78A189A19AA10E94FA188C
:1025B00018164CF520E030E040E251E469857A8558
:1025C0008B859C850E94FF18DC01CB01BC01CD01ED
:1025D0000E945618DC01CB019CA38BA30FC088EC92
:1025E00090E09EA38DA38DA19EA10197F1F79EA3DC
:1025F0008DA38BA19CA101979CA38BA38BA19CA1D4
:10260000892B69F714C06F8D78A189A19AA10E94C6
:102610005618DC01CB019CA38BA38BA19CA198A78E
:102620008FA38FA198A50197F1F798A78FA3809109
:10263000C700682F88E890E00E948E0780918C0088
:102640000E94940F80918D000E94A30F80E090E083
:10265000A0EAB0E4898B9A8BAB8BBC8B20E030E096
:102660004AEF54E469897A898B899C890E94FF1812
:10267000DC01CB018D8B9E8BAF8BB88F20E030E0DF
:1026800040E85FE36D897E898F89988D0E94DF170E
:1026900088232CF481E090E09A8F898F3FC020E05E
:1026A0003FEF4FE757E46D897E898F89988D0E94AF
:1026B000FA1818164CF520E030E040E251E4698940
:1026C0007A898B899C890E94FF18DC01CB01BC01AF
:1026D000CD010E945618DC01CB019A8F898F0FC063
:1026E00088EC90E09C8F8B8F8B8D9C8D0197F1F700
:1026F0009C8F8B8F898D9A8D01979A8F898F898D69
:102700009A8D892B69F714C06D897E898F89988D80
:102710000E945618DC01CB019A8F898F898D9A8D82
:102720009E8F8D8F8D8D9E8D0197F1F79E8F8D8F52
:102730006AEC70E081EA90E00E94220F8091CA006A
:10274000813019F41092A7003FC16CEC70E085EA6B
:1027500090E00E94220F8091CC00813021F482E031
:102760008093A70031C18091C800682F88E890E06D
:102770000E948E0780918D000E94940F80918E00A0
:102780000E94A30F80E090E0A0EAB0E48D839E83D6
:10279000AF83B88720E030E04AEF54E46D817E815A
:1027A0008F8198850E94FF18DC01CB0189A79AA729
:1027B000ABA7BCA720E030E040E85FE369A57AA5BD
:1027C0008BA59CA50E94DF1788232CF481E090E064
:1027D0009EA78DA73FC020E03FEF4FE757E469A5D4
:1027E0007AA58BA59CA50E94FA1818164CF520E036
:1027F00030E040E251E46D817E818F8198850E94B6
:10280000FF18DC01CB01BC01CD010E945618DC0190
:10281000CB019EA78DA70FC088EC90E098AB8FA747
:102820008FA598A90197F1F798AB8FA78DA59EA5C5
:1028300001979EA78DA78DA59EA5892B69F714C02A
:1028400069A57AA58BA59CA50E945618DC01CB0131
:102850009EA78DA78DA59EA59AAB89AB89A99AA99C
:102860000197F1F79AAB89AB6AEC70E081EA90E0EE
:102870000E94220F8091CA00813019F41092A700A3
:10288000A3C06CEC70E085EA90E00E94220F80917A
:10289000CC00813021F482E08093A70095C0809124
:1028A000C900682F88E890E00E948E0780918E0012
:1028B0000E94940F80918F000E94A30F80E090E00F
:1028C000A0E7B1E48D879E87AF87B88B20E030E02A
:1028D0004AEF54E46D857E858F8598890E94FF18A4
:1028E000DC01CB018BAB9CABADABBEAB20E030E0F1
:1028F00040E85FE36BA97CA98DA99EA90E94DF1720
:1029000088232CF481E090E098AF8FAB3FC020E0AB
:102910003FEF4FE757E46BA97CA98DA99EA90E94C0
:10292000FA1818164CF520E030E040E251E46D85CD
:102930007E858F8598890E94FF18DC01CB01BC0140
:10294000CD010E945618DC01CB0198AF8FAB0FC0B0
:1029500088EC90E09AAF89AF89AD9AAD0197F1F715
:102960009AAF89AF8FA998AD019798AF8FAB8FA918
:1029700098AD892B69F714C06BA97CA98DA99EA974
:102980000E945618DC01CB0198AF8FAB8FA998AD90
:102990009CAF8BAF8BAD9CAD0197F1F79CAF8BAF2C
:1029A00089819A81AB81BC810196A11DB11D89836A
:1029B0009A83AB83BC8389819A81AB81BC818897E0
:1029C000A105B10508F497CDEC960FB6F894DEBFDB
:1029D0000FBECDBFDF91CF910895CF93DF93CDB7D9
:1029E000DEB7EC970FB6F894DEBF0FBECDBF1982ED
:1029F0001A821B821C821092C9001092C800109289
:102A0000C7001092C60019821A821B821C8236C22D
:102A10006AEC70E081EA90E00E94220F8091CA0087
:102A2000813019F41092A70032C28091C600682F3D
:102A300088E890E00E948E0780918F000E94940F9A
:102A400080918C000E94A30F80E090E0A0EAB0E4A7
:102A500089879A87AB87BC8720E030E04AEF54E44F
:102A600069857A858B859C850E94FF18DC01CB01E6
:102A70008F8F98A3A9A3BAA320E030E040E85FE3DA
:102A80006F8D78A189A19AA10E94DF1788232CF469
:102A900081E090E09CA38BA33FC020E03FEF4FE795
:102AA00057E46F8D78A189A19AA10E94FA1818168F
:102AB0004CF520E030E040E251E469857A858B8571
:102AC0009C850E94FF18DC01CB01BC01CD010E9456
:102AD0005618DC01CB019CA38BA30FC088EC90E0BF
:102AE0009EA38DA38DA19EA10197F1F79EA38DA317
:102AF0008BA19CA101979CA38BA38BA19CA1892B4B
:102B000069F714C06F8D78A189A19AA10E94561807
:102B1000DC01CB019CA38BA38BA19CA198A78FA3C5
:102B20008FA198A50197F1F798A78FA38091C7006F
:102B3000682F88E890E00E948E0780918C000E94A8
:102B4000940F80918D000E94A30F80E090E0A0EA96
:102B5000B0E4898B9A8BAB8BBC8B20E030E04AEFE2
:102B600054E469897A898B899C890E94FF18DC0169
:102B7000CB018D8B9E8BAF8BB88F20E030E040E88F
:102B80005FE36D897E898F89988D0E94DF17882386
:102B90002CF481E090E09A8F898F3FC020E03FEFD6
:102BA0004FE757E46D897E898F89988D0E94FA18C6
:102BB00018164CF520E030E040E251E469897A894A
:102BC0008B899C890E94FF18DC01CB01BC01CD01DF
:102BD0000E945618DC01CB019A8F898F0FC088ECB8
:102BE00090E09C8F8B8F8B8D9C8D0197F1F79C8F44
:102BF0008B8F898D9A8D01979A8F898F898D9A8D68
:102C0000892B69F714C06D897E898F89988D0E9400
:102C10005618DC01CB019A8F898F898D9A8D9E8FF2
:102C20008D8F8D8D9E8D0197F1F79E8F8D8F6AEC24
:102C300070E081EA90E00E94220F8091CA0081300A
:102C400019F41092A70023C18091C800682F88E86A
:102C500090E00E948E0780918D000E94940F8091D9
:102C60008E000E94A30F80E090E0A0EAB0E48D8384
:102C70009E83AF83B88720E030E04AEF54E46D8153
:102C80007E818F8198850E94FF18DC01CB0189A786
:102C90009AA7ABA7BCA720E030E040E85FE369A5B6
:102CA0007AA58BA59CA50E94DF1788232CF481E0D0
:102CB00090E09EA78DA73FC020E03FEF4FE757E48D
:102CC00069A57AA58BA59CA50E94FA1818164CF543
:102CD00020E030E040E251E46D817E818F81988573
:102CE0000E94FF18DC01CB01BC01CD010E945618E7
:102CF000DC01CB019EA78DA70FC088EC90E098ABBC
:102D00008FA78FA598A90197F1F798AB8FA78DA5ED
:102D10009EA501979EA78DA78DA59EA5892B69F7D6
:102D200014C069A57AA58BA59CA50E945618DC0144
:102D3000CB019EA78DA78DA59EA59AAB89AB89A92E
:102D40009AA90197F1F79AAB89AB6AEC70E081EA36
:102D500090E00E94220F8091CA00813019F41092F5
:102D6000A70095C08091C900682F88E890E00E9474
:102D70008E0780918E000E94940F80918F000E9498
:102D8000A30F80E090E0A0E7B1E48D879E87AF8736
:102D9000B88B20E030E04AEF54E46D857E858F8566
:102DA00098890E94FF18DC01CB018BAB9CABADABCB
:102DB000BEAB20E030E040E85FE36BA97CA98DA9C1
:102DC0009EA90E94DF1788232CF481E090E098AF41
:102DD0008FAB3FC020E03FEF4FE757E46BA97CA9E2
:102DE0008DA99EA90E94FA1818164CF520E030E033
:102DF00040E251E46D857E858F8598890E94FF1899
:102E0000DC01CB01BC01CD010E945618DC01CB01D5
:102E100098AF8FAB0FC088EC90E09AAF89AF89ADC7
:102E20009AAD0197F1F79AAF89AF8FA998AD019745
:102E300098AF8FAB8FA998AD892B69F714C06BA998
:102E40007CA98DA99EA90E945618DC01CB0198AFE0
:102E50008FAB8FA998AD9CAF8BAF8BAD9CAD01971D
:102E6000F1F79CAF8BAF89819A81AB81BC810196D0
:102E7000A11DB11D89839A83AB83BC8389819A810B
:102E8000AB81BC818897A105B10508F4C1CDEC9652
:102E90000FB6F894DEBF0FBECDBFDF91CF9108957E
:102EA0000F93083090F0982F872F762F652F542F8F
:102EB000432F322F22270850F4CF220F331F441FF5
:102EC000551F661F771F881F991F0A95B2F70F912C
:102ED00008952A0D3B1D4C1D5D1D6E1D7F1D801F1D
:102EE000911F08955058BB27AA270E948A170C9457
:102EF000C0180E94B21838F00E94B91820F039F4B6
:102F00009F3F19F426F40C94AF180EF4E095E7FBFC
:102F10000C94A918E92F0E94D11858F3BA17620728
:102F200073078407950720F079F4A6F50C94F3183D
:102F30000EF4E0950B2EBA2FA02D0B01B9019001D4
:102F40000C01CA01A0011124FF27591B99F0593F18
:102F500050F4503E68F11A16F040A22F232F342F60
:102F60004427585FF3CF469537952795A795F040AE
:102F70005395C9F77EF41F16BA0B620B730B840BC3
:102F8000BAF09150A1F0FF0FBB1F661F771F881F7B
:102F9000C2F70EC0BA0F621F731F841F48F48795D3
:102FA00077956795B795F7959E3F08F0B0CF9395C5
:102FB000880F08F09927EE0F9795879508950E943E
:102FC000851808F481E008950E94F8170C94C01841
:102FD0000E94B91858F00E94B21840F029F45F3FDF
:102FE00029F00C94A91851110C94F4180C94AF18F2
:102FF0000E94D11868F39923B1F3552391F3951BDF
:10300000550BBB27AA2762177307840738F09F5F09
:103010005F4F220F331F441FAA1FA9F335D00E2E76
:103020003AF0E0E832D091505040E695001CCAF7E3
:103030002BD0FE2F29D0660F771F881FBB1F2617A6
:1030400037074807AB07B0E809F0BB0B802DBF017D
:10305000FF2793585F4F3AF09E3F510578F00C944C
:10306000A9180C94F4185F3FE4F3983ED4F38695C6
:1030700077956795B795F7959F5FC9F7880F911D6D
:103080009695879597F90895E1E0660F771F881F59
:10309000BB1F621773078407BA0720F0621B730B0C
:1030A000840BBA0BEE1F88F7E09508950E94D9189B
:1030B00088F09F5798F0B92F9927B751B0F0E1F0F9
:1030C000660F771F881F991F1AF0BA95C9F714C0A9
:1030D000B13091F00E94F318B1E008950C94F31808
:1030E000672F782F8827B85F39F0B93FCCF38695E2
:1030F00077956795B395D9F73EF49095809570953F
:1031000061957F4F8F4F9F4F0895990F0008550F7E
:10311000AA0BE0E8FEEF16161706E807F907C0F05D
:1031200012161306E407F50798F0621B730B840B65
:10313000950B39F40A2661F0232B242B252B21F43F
:1031400008950A2609F4A140A6958FEF811D811DDF
:10315000089597F99F6780E870E060E008959FEF19
:1031600080EC089500240A9416161706180609061E
:10317000089500240A9412161306140605060895ED
:10318000092E0394000C11F4882352F0BB0F40F475
:10319000BF2B11F460FF04C06F5F7F4F8F4F9F4FB5
:1031A000089557FD9058440F551F59F05F3F71F037
:1031B0004795880F97FB991F61F09F3F79F087959E
:1031C0000895121613061406551FF2CF4695F1DF27
:1031D00008C0161617061806991FF1CF86957105B7
:1031E000610508940895E894BB2766277727CB01EB
:1031F00097F908950E94851808F48FEF08950E94AA
:1032000012190C94C0180E94B21838F00E94B91814
:1032100020F0952311F00C94A9180C94AF181124E8
:103220000C94F4180E94D11870F3959FC1F3950F78
:1032300050E0551F629FF001729FBB27F00DB11D3A
:10324000639FAA27F00DB11DAA1F649F6627B00DCA
:10325000A11D661F829F2227B00DA11D621F739FB3
:10326000B00DA11D621F839FA00D611D221F749FC1
:103270003327A00D611D231F849F600D211D822F08
:10328000762F6A2F11249F5750409AF0F1F088232F
:103290004AF0EE0FFF1FBB1F661F771F881F91505C
:1032A0005040A9F79E3F510580F00C94A9180C944A
:1032B000F4185F3FE4F3983ED4F3869577956795CD
:1032C000B795F795E7959F5FC1F7FE2B880F911D86
:1032D0009695879597F90895AEE0B0E0E2E7F9E1B9
:1032E0000C942D1C0D891E8986E08C831A8309831A
:1032F0008FEF9FE79E838D83AE01475E5F4F6F899F
:10330000788DCE0101960E948E19EF81F885E00F2D
:10331000F11F10822E96E4E00C94491CABE0B0E063
:10332000E4E9F9E10C941F1C6C017B018A01FC01AA
:1033300017821682838181FFCCC1CE0101963C01A8
:10334000F6019381F70193FD859193FF81917F01B0
:10335000882309F4BAC1853239F493FD859193FF2E
:1033600081917F01853229F4B60190E00E94851B8E
:10337000E7CF912C212C312CFFE1F315D8F08B32C3
:1033800079F038F4803279F08332A1F4232D206172
:103390001DC08D3261F0803369F4232D216016C089
:1033A000832D8260382EE32DE4603E2E2AC0F32D5B
:1033B000F8601DC037FC2DC020ED280F2A3040F0EA
:1033C0008E32B9F436FC81C1232D2064322E19C00F
:1033D00036FE06C08AE0989E200D1124922E11C060
:1033E000EAE02E9E200D1124222EF32DF0623F2EB6
:1033F00008C08C3621F4832D8068382E02C08836B0
:1034000041F4F70193FD859193FF81917F01811133
:10341000B3CF982F9F7D9554933028F40C5F1F4FA6
:103420009FE399830DC0833631F0833771F0833584
:1034300009F059C021C0F801808189830E5F1F4FB8
:1034400088248394912C530113C02801F2E04F0E7D
:10345000511CF801A080B18036FE03C0692D70E0D8
:1034600002C06FEF7FEFC5010E947A1B4C01820101
:10347000F32DFF773F2E16C0280122E0420E511C8B
:10348000F801A080B18036FE03C0692D70E002C053
:103490006FEF7FEFC5010E946F1B4C01F32DF068A9
:1034A0003F2E820133FC1BC0822D90E088169906C6
:1034B000B0F4B60180E290E00E94851B2A94F4CF1C
:1034C000F50137FC859137FE81915F01B60190E0EF
:1034D0000E94851B21102A9421E0821A91088114F0
:1034E000910471F7E8C0843611F0893641F5F8018E
:1034F00037FE07C060817181828193810C5F1F4F0D
:1035000008C060817181072E000C880B990B0E5F3B
:103510001F4FF32DFF763F2E97FF09C090958095A2
:10352000709561957F4F8F4F9F4FF0683F2E2AE037
:1035300030E0A3010E94C11B882E861845C0853744
:1035400031F4232D2F7EB22E2AE030E025C0932DBA
:10355000997FB92E8F36C1F018F4883579F0B5C04F
:10356000803719F0883721F0B0C0E92FE061BE2E16
:10357000B4FE0DC0FB2DF460BF2E09C034FE0AC09E
:10358000292F2660B22E06C028E030E005C020E1D9
:1035900030E002C020E132E0F801B7FE07C06081F0
:1035A0007181828193810C5F1F4F06C060817181A0
:1035B00080E090E00E5F1F4FA3010E94C11B882E88
:1035C0008618FB2DFF773F2E36FE0DC0232D2E7F54
:1035D000A22E891458F434FE0BC032FC09C0832D8E
:1035E0008E7EA82E05C0B82CA32C03C0B82C01C019
:1035F000B92CA4FE0FC0FE01E80DF11D80818033BF
:1036000021F49A2D997EA92E09C0A2FE06C0B3947A
:10361000B39404C08A2D867809F0B394A3FC11C03A
:10362000A0FE06C0B21488F4280C922C9B180EC081
:10363000B21460F4B60180E290E00E94851BB3945E
:10364000F7CFB21418F42B1802C0982C212CA4FE2A
:1036500010C0B60180E390E00E94851BA2FE17C057
:10366000A1FC03C088E790E002C088E590E0B601C5
:103670000CC08A2D867859F0A1FE02C08BE201C0F1
:1036800080E2A7FC8DE2B60190E00E94851B8914C0
:1036900038F4B60180E390E00E94851B9A94F7CF3E
:1036A0008A94F301E80DF11D8081B60190E00E943B
:1036B000851B8110F5CF222009F442CEB60180E2AD
:1036C00090E00E94851B2A94F6CFF60186819781AF
:1036D00002C08FEF9FEF2B96E2E10C943B1CFC01A4
:1036E0000590615070400110D8F7809590958E0F2D
:1036F0009F1F0895FC016150704001900110D8F7A0
:10370000809590958E0F9F1F08950F931F93CF93D1
:10371000DF93FB01238121FD03C08FEF9FEF2CC0BE
:1037200022FF16C0468157812481358142175307F5
:1037300044F4A081B1819D012F5F3F4F31832083ED
:103740008C93268137812F5F3F4F3783268314C0A8
:103750008B01EC01FB010084F185E02D0995892B9B
:10376000E1F6D80116968D919C91179701961796C0
:103770009C938E931697CE01DF91CF911F910F915D
:103780000895FA01AA27283051F1203181F1E894F7
:103790006F936E7F6E5F7F4F8F4F9F4FAF4FB1E044
:1037A0003ED0B4E03CD0670F781F891F9A1FA11D3F
:1037B000680F791F8A1F911DA11D6A0F711D811D40
:1037C000911DA11D20D009F468943F912AE0269F05
:1037D00011243019305D3193DEF6CF010895462F64
:1037E0004770405D4193B3E00FD0C9F7F6CF462F45
:1037F0004F70405D4A3318F0495D31FD40524193AE
:1038000002D0A9F7EACFB4E0A6959795879577956A
:103810006795BA95C9F700976105710508959B01F1
:10382000AC010A2E06945795479537952795BA957A
:10383000C9F7620F731F841F951FA01D08952F9253
:103840003F924F925F926F927F928F929F92AF9230
:10385000BF92CF92DF92EF92FF920F931F93CF937D
:10386000DF93CDB7DEB7CA1BDB0B0FB6F894DEBF14
:103870000FBECDBF09942A88398848885F846E843A
:103880007D848C849B84AA84B984C884DF80EE8084
:10389000FD800C811B81AA81B981CE0FD11D0FB68D
:1038A000F894DEBF0FBECDBFED010895F894FFCFB1
:1038B0003A003700340031003B0038003500320058
:1038C0003A003700340031003B0038003500320048
:1038D000390036003300300008090A0C0E0D0203CF
:1038E00008090A0C030200151413121F1E1D1B00E9
:1038F000011F001E001D0002256C750025660037A3
:1039000038392F3435362A3132332D63303D2B0090
:00000001FF
