:100000000C943A000C9457000C9457000C94570031
:100010000C9457000C9457000C9457000C94570004
:100020000C9457000C9457000C948C080C94C30843
:100030000C940F0B0C9457000C9457000C94570021
:100040000C94AA120C9457000C9457000C9457006F
:100050000C9457002808830828088308830883081D
:1000600028088308830857082808570883082A089F
:1000700028082A0811241FBECFE5D8E0DEBFCDBF77
:1000800010E0A0E6B0E0E2EFF1E302C005900D92CF
:10009000A43AB107D9F720E0A4EAB0E001C01D926C
:1000A000A03CB207E1F70E9401130C94F7180C94DE
:1000B0000000CF93DF93CDB7DEB727970FB6F89444
:1000C000DEBF0FBECDBF6A837B838C839D835F833E
:1000D0004E8319828E819F81892B19F481E0898357
:1000E0001DC08D818F938C818F938B818F938A819B
:1000F0008F9384E990E0892F8F9384E990E08F9328
:100100008F818F938E818F930E940D168DB79EB72E
:1001100008960FB6F894DEBF0FBECDBF8981279633
:100120000FB6F894DEBF0FBECDBFDF91CF9108951B
:10013000CF93DF93CDB7DEB765970FB6F894DEBFE8
:100140000FBECDBF688B798B8A8B9B8B5D8B4C8B65
:1001500019821F861E868C899D89892B19F481E05E
:10016000898378C020E030E0A901688979898A898B
:100170009B890E943C1488235CF488899989AA8908
:10018000BB89B058888B998BAA8BBB8B8DE28E87ED
:10019000688979898A899B890E94B314DC01CB0123
:1001A0008A839B83AC83BD836A817B818C819D81A3
:1001B0000E94EB14DC01CB019C01AD0168897989B7
:1001C0008A899B890E94CF13DC01CB018E839F8398
:1001D000A887B98720E030E44CE156E46E817F8146
:1001E000888599850E94A015DC01CB01BC01CD0159
:1001F0000E94B314DC01CB018A879B87AC87BD8743
:100200008D858F938C858F938B858F938A858F9324
:100210008D818F938C818F938B818F938A818F9324
:10022000CE010E96292F2F938F9388E990E0892F86
:100230008F9388E990E08F938D898F938C898F932A
:100240000E940D168DB79EB70E960FB6F894DEBFBE
:100250000FBECDBF898165960FB6F894DEBF0FBE85
:10026000CDBFDF91CF9108952F923F924F925F9231
:100270006F927F928F929F92AF92BF92CF92DF92B6
:10028000EF92FF920F931F93CF93DF93CDB7DEB71B
:100290006E970FB6F894DEBF0FBECDBF9C878B87DD
:1002A0007E876D8719821A821B821C821D821E82A4
:1002B0001F82188619861A868D859E85892B21F0C6
:1002C0008B859C85892B19F481E089839FC01A82D4
:1002D0008CC02B813C814D815E816F8178858985C1
:1002E0009A85222E332E442E552E662E772E882E5A
:1002F000992E222D332D442D552D662D772D882DA9
:10030000992D01E00E94AD13A22EB32EC42ED52E3E
:10031000E62EF72E082F192F2A2C3B2C4C2C5D2C67
:100320006E2C7F2C802E912E222D332D442D552D79
:10033000662D772D882D992D02E00E94AD132F8B0D
:10034000388F498F5A8F6B8F7C8F8D8F9E8F222D88
:10035000332D442D552D662D772D882D992DAF8861
:10036000B88CC98CDA8CEB8CFC8C0D8D1E8D0E94A8
:10037000C613A22EB32EC42ED52EE62EF72E082F8E
:10038000192F8A81882F90E02D853E85820F931F3B
:10039000FC018081882F90E0C097988B8F87892FF0
:1003A000880F880B898B8A8B8B8B8C8B8D8B8E8B9C
:1003B0002A2D3B2D4C2D5D2D6E2D7F2D802F912FC5
:1003C000AF84B888C988DA88EB88FC880D891E89D3
:1003D0000E94C6132B833C834D835E836F83788793
:1003E00089879A878A818F5F8A838A81882F90E0A4
:1003F0002D853E85820F931FFC018081882309F0A3
:1004000068CF2B818B859C85FC01208389816E962A
:100410000FB6F894DEBF0FBECDBFDF91CF911F9115
:100420000F91FF90EF90DF90CF90BF90AF909F9093
:100430008F907F906F905F904F903F902F90089596
:100440002F923F924F925F926F927F928F929F92E4
:10045000AF92BF92CF92DF92EF92FF920F931F93D2
:10046000CF93DF93CDB7DEB76E970FB6F894DEBFAC
:100470000FBECDBF9C878B877E876D8719821A82BE
:100480001B821C821D821E821F82188619861A8674
:100490008D859E85892B21F08B859C85892B19F470
:1004A00081E08983A1C01A828CC02B813C814D815F
:1004B0005E816F81788589859A85222E332E442E20
:1004C000552E662E772E882E992E222D332D442DD3
:1004D000552D662D772D882D992D01E00E94AD13A5
:1004E000A22EB32EC42ED52EE62EF72E082F192FAE
:1004F0002A2C3B2C4C2C5D2C6E2C7F2C802E912E8C
:10050000222D332D442D552D662D772D882D992D97
:1005100002E00E94AD132F8B388F498F5A8F6B8F5B
:100520007C8F8D8F9E8F222D332D442D552D662D42
:10053000772D882D992DAF88B88CC98CDA8CEB8CEF
:10054000FC8C0D8D1E8D0E94C613A22EB32EC42EC0
:10055000D52EE62EF72E082F192F8A81882F90E0AE
:100560002D853E85820F931FFC018081882F90E0AE
:10057000C097988B8F87892F880F880B898B8A8BE0
:100580008B8B8C8B8D8B8E8B2A2D3B2D4C2D5D2D4B
:100590006E2D7F2D802F912FAF84B888C988DA887F
:1005A000EB88FC880D891E890E94C6132B833C832F
:1005B0004D835E836F83788789879A878A818F5F6F
:1005C0008A838A81882F90E02D853E85820F931F34
:1005D000FC018081882309F068CF2B813C818B85C9
:1005E0009C85FC013183208389816E960FB6F89437
:1005F000DEBF0FBECDBFDF91CF911F910F91FF9056
:10060000EF90DF90CF90BF90AF909F908F907F90B2
:100610006F905F904F903F902F9008952F923F9250
:100620004F925F926F927F928F929F92AF92BF9202
:10063000CF92DF92EF92FF920F931F93CF93DF93AE
:10064000CDB7DEB76E970FB6F894DEBF0FBECDBF45
:100650009C878B877E876D8719821A821B821C82FA
:100660001D821E821F82188619861A868D859E8598
:10067000892B21F08B859C85892B19F481E0898356
:10068000A5C01A828CC02B813C814D815E816F8117
:10069000788589859A85222E332E442E552E662EF6
:1006A000772E882E992E222D332D442D552D662DF3
:1006B000772D882D992D01E00E94AD13A22EB32E27
:1006C000C42ED52EE62EF72E082F192F2A2C3B2CC0
:1006D0004C2C5D2C6E2C7F2C802E912E222D332DB8
:1006E000442D552D662D772D882D992D02E00E94E1
:1006F000AD132F8B388F498F5A8F6B8F7C8F8D8FD7
:100700009E8F222D332D442D552D662D772D882D2E
:10071000992DAF88B88CC98CDA8CEB8CFC8C0D8D44
:100720001E8D0E94C613A22EB32EC42ED52EE62EE9
:10073000F72E082F192F8A81882F90E02D853E856E
:10074000820F931FFC018081882F90E0C097988BC7
:100750008F87892F880F880B898B8A8B8B8B8C8B4B
:100760008D8B8E8B2A2D3B2D4C2D5D2D6E2D7F2D4F
:10077000802F912FAF84B888C988DA88EB88FC88ED
:100780000D891E890E94C6132B833C834D835E8393
:100790006F83788789879A878A818F5F8A838A8126
:1007A000882F90E02D853E85820F931FFC0180816C
:1007B000882309F068CF8B819C81AD81BE812B8518
:1007C0003C85F90180839183A283B38389816E96EE
:1007D0000FB6F894DEBF0FBECDBFDF91CF911F9152
:1007E0000F91FF90EF90DF90CF90BF90AF909F90D0
:1007F0008F907F906F905F904F903F902F900895D3
:100800002F923F924F925F926F927F928F929F9220
:10081000AF92BF92CF92DF92EF92FF920F931F930E
:10082000CF93DF93CDB7DEB76E970FB6F894DEBFE8
:100830000FBECDBF9C878B877E876D8719821A82FA
:100840001B821C821D821E821F82188619861A86B0
:100850008D859E85892B21F08B859C85892B19F4AC
:1008600081E08983B4C01A828CC02B813C814D8188
:100870005E816F81788589859A85222E332E442E5C
:10088000552E662E772E882E992E222D332D442D0F
:10089000552D662D772D882D992D01E00E94AD13E1
:1008A000A22EB32EC42ED52EE62EF72E082F192FEA
:1008B0002A2C3B2C4C2C5D2C6E2C7F2C802E912EC8
:1008C000222D332D442D552D662D772D882D992DD4
:1008D00002E00E94AD132F8B388F498F5A8F6B8F98
:1008E0007C8F8D8F9E8F222D332D442D552D662D7F
:1008F000772D882D992DAF88B88CC98CDA8CEB8C2C
:10090000FC8C0D8D1E8D0E94C613A22EB32EC42EFC
:10091000D52EE62EF72E082F192F8A81882F90E0EA
:100920002D853E85820F931FFC018081882F90E0EA
:10093000C097988B8F87892F880F880B898B8A8B1C
:100940008B8B8C8B8D8B8E8B2A2D3B2D4C2D5D2D87
:100950006E2D7F2D802F912FAF84B888C988DA88BB
:10096000EB88FC880D891E890E94C6132B833C836B
:100970004D835E836F83788789879A878A818F5FAB
:100980008A838A81882F90E02D853E85820F931F70
:10099000FC018081882309F068CF8B859C852B81A1
:1009A000FC0120832C81FC0121832D81FC01228309
:1009B0002E81FC0123832F81FC0124832885FC01E7
:1009C00025832985FC0126832A85FC0127838981CB
:1009D0006E960FB6F894DEBF0FBECDBFDF91CF91FC
:1009E0001F910F91FF90EF90DF90CF90BF90AF904D
:1009F0009F908F907F906F905F904F903F902F903F
:100A00000895CF93DF9300D000D01F92CDB7DEB70B
:100A10008B837D836C83198281E08A838C819D81A5
:100A2000892B19F481E089831DC08C819D81FC0193
:100A300010828B81282F22952F708C819D81FC0143
:100A400020838C819D81FC018081880F982F990FD4
:100A5000990F980F8B818F70292F280F8C819D8182
:100A6000FC01208389810F900F900F900F900F90C1
:100A7000DF91CF910895CF93DF93CDB7DEB727975E
:100A80000FB6F894DEBF0FBECDBF6A837B838C8325
:100A90009D835F834E8319828E819F81892B19F4F8
:100AA00081E0898318C020E030E048EC52E46A819C
:100AB0007B818C819D810E94A015DC01CB01BC0152
:100AC000CD010E94BA14DC01CB019C018E819F8173
:100AD000FC0131832083898127960FB6F894DEBF0D
:100AE0000FBECDBFDF91CF910895CF93DF9300D09C
:100AF0001F92CDB7DEB79B838A8381E089838A8189
:100B00009B81892B19F482E0898397C083E590E06B
:100B100023E530E0F9012081287FFC01208383E573
:100B200090E023E530E0F9012081422F4F7B2A81BC
:100B30003B81F9012181222F30E0217033270024ED
:100B4000369527950794369527950794322F202DB3
:100B5000242BFC01208383E590E023E530E0F901BC
:100B60002081422F477F2A813B81F90121812695EF
:100B7000222F30E021703327220F331F220F331F23
:100B8000220F331F242BFC01208383E590E023E513
:100B900030E0F9012081422F4F7E2A813B81F9010B
:100BA000218126952695222F30E02170332722952A
:100BB0003295307F3227207F3227242BFC0120837F
:100BC00083E590E023E530E0F9012081422F4F7D5D
:100BD0002A813B81F9012181269526952695222F90
:100BE00030E021703327220F331F22953295307F5A
:100BF0003227207F3227242BFC0120838A819B818E
:100C0000FC0182818093A8008A819B81FC01228162
:100C10008A819B81622F0E94A706898383E590E0E9
:100C200023E530E0F9012081422F487F2A813B8172
:100C3000F9012081242BFC01208389810F900F90E2
:100C40000F90DF91CF910895CF93DF9300D01F9243
:100C5000CDB7DEB79B838A8381E089838A819B81BC
:100C6000892B19F482E0898309C083E590E023E5AC
:100C700030E0F9012081287FFC01208389810F90D9
:100C80000F900F90DF91CF910895CF93DF9300D015
:100C90001F92CDB7DEB79B838A8381E089838A81E7
:100CA0009B81892B19F482E0898319C08A819B81F9
:100CB000FC018181882351F489E590E029E530E049
:100CC000F90120812160FC01208309C089E590E0C1
:100CD00029E530E0F90120812260FC01208389812F
:100CE0000F900F900F90DF91CF910895CF93DF93E6
:100CF00000D01F92CDB7DEB79B838A8381E08983C2
:100D00008A819B81892B19F482E0898319C08A81A9
:100D10009B81FC018181882351F489E590E029E5DC
:100D200030E0F90120812E7FFC01208309C089E594
:100D300090E029E530E0F90120812D7FFC0120833E
:100D400089810F900F900F90DF91CF910895CF93ED
:100D5000DF9300D000D0CDB7DEB79B838A836C834E
:100D600081E089838A819B81892B19F482E08983C0
:100D700011C08A819B81FC018181882331F482E545
:100D800090E02C81FC01208305C08CE590E02C8153
:100D9000FC01208389810F900F900F900F90DF91BD
:100DA000CF910895CF93DF9300D000D01F92CDB79D
:100DB000DEB79B838A837D836C8381E089838A810C
:100DC0009B81892B19F482E089830BC082E590E036
:100DD000FC018081282F30E08C819D81FC013183D2
:100DE000208389810F900F900F900F900F90DF91CB
:100DF000CF910895CF93DF9300D000D01F92CDB74D
:100E0000DEB79B838A837D836C8381E089838A81BB
:100E10009B81892B11F482E0898389810F900F9047
:100E20000F900F900F90DF91CF910895CF93DF93A4
:100E300000D000D01F92CDB7DEB79B838A837D831D
:100E40006C8381E089838A819B81892B19F482E0FC
:100E5000898313C08A819B81FC018181882339F4B5
:100E60008C819D819093A5008093A40006C08C8105
:100E70009D819093A7008093A60089810F900F9089
:100E80000F900F900F90DF91CF910895CF93DF9344
:100E90001F92CDB7DEB781E0898389E590E029E52F
:100EA00030E0F90120812160FC01208389810F90CD
:100EB000DF91CF910895CF93DF931F92CDB7DEB727
:100EC00081E0898389E590E029E530E0F90120811E
:100ED0002260FC01208389810F90DF91CF910895DA
:100EE000CF93DF9300D01F92CDB7DEB79B838A8369
:100EF00081E089838A819B81892B19F482E089832F
:100F000006C08A819B819093A5008093A40089816B
:100F10000F900F900F90DF91CF910895CF93DF93B3
:100F200000D01F92CDB7DEB79B838A8381E089838F
:100F30008A819B81892B19F482E0898306C08A818A
:100F40009B819093A7008093A60089810F900F90BA
:100F50000F90DF91CF910895CF93DF931F92CDB77C
:100F6000DEB781E0898389E590E029E530E0F90189
:100F700020812E7FFC01208389810F90DF91CF910A
:100F80000895CF93DF931F92CDB7DEB781E08983B9
:100F900089E590E029E530E0F90120812D7FFC0111
:100FA000208389810F90DF91CF910895CF93DF93B4
:100FB00000D01F92CDB7DEB79B838A8381E08983FF
:100FC0008A819B81892B19F482E0898309C083E59A
:100FD00090E023E530E0F90120812068FC012083C6
:100FE00089810F900F900F90DF91CF910895CF934B
:100FF000DF9300D000D01F92CDB7DEB79C838B83E8
:101000006D8381E089838B819C81892B19F482E037
:10101000898379C08D81853608F084E68D838B8144
:101020009C81FC018181882F90E0092E000CAA0B85
:10103000BB0B40E050E02FE030E0841B950B2817FD
:10104000390708F460C0865D9F4FFC010C94A7131C
:10105000198259C08D81882F90E0A0E0B0E0BC01DA
:10106000CD010E94E914DC01CB0120E030E048EC26
:1010700052E4BC01CD010E944114DC01CB0120E00F
:1010800030E04FE753E4BC01CD010E94A015DC0124
:10109000CB01BC01CD010E94BA14DC01CB018095CB
:1010A0008A838CE590E02A81FC0120832CC08D810D
:1010B000882F90E0A0E0B0E0BC01CD010E94E914CF
:1010C000DC01CB0120E030E048EC52E4BC01CD0172
:1010D0000E944114DC01CB0120E030E04FE753E4F3
:1010E000BC01CD010E94A015DC01CB01BC01CD01EA
:1010F0000E94BA14DC01CB018A838CE590E02A813E
:10110000FC012083000089810F900F900F900F90B9
:101110000F90DF91CF9108951F920F9200905F0082
:101120000F9211242F933F934F935F936F937F936D
:101130008F939F93AF93BF93EF93FF93CF93DF93DF
:10114000CDB7DEB78091A6009091A700892B31F032
:101150008091A6009091A700FC0109950000DF9105
:10116000CF91FF91EF91BF91AF919F918F917F911F
:101170006F915F914F913F912F910F9000925F007F
:101180000F901F9018951F920F9200905F000F9282
:1011900011242F933F934F935F936F937F938F937C
:1011A0009F93AF93BF93EF93FF93CF93DF93CDB70D
:1011B000DEB78091A4009091A500892B61F082E5B3
:1011C00090E02091A800FC0120838091A4009091E0
:1011D000A500FC0109950000DF91CF91FF91EF91EF
:1011E000BF91AF919F918F917F916F915F914F913F
:1011F0003F912F910F9000925F000F901F901895D4
:10120000CF93DF9300D01F92CDB7DEB79B838A8345
:1012100081E089838A819B81892B19F482E089830B
:101220008FC08DE290E02DE230E0F90120812F7B2C
:10123000FC0120838DE290E02DE230E0F901208175
:10124000422F4F7E2A813B81F9012081222F30E0FD
:1012500022953295307F3227207F3227242BFC01C4
:1012600020838DE290E02DE230E0F9012081422FD1
:101270004F7D2A813B81F9012181222F30E0220F0D
:10128000331F22953295307F3227207F3227242B3F
:10129000FC0120838DE290E02DE230E0F901208115
:1012A000422F477F2A813B81F9012281222F30E0A2
:1012B000220F331F220F331F220F331F242BFC0159
:1012C00020838DE290E02DE230E0F9012081422F71
:1012D0004B7F2A813B81F9012381222F30E0220FAD
:1012E000331F220F331F242BFC0120838DE290E05B
:1012F0002DE230E0F9012081422F4C7F2A813B8191
:10130000F90124812370242BFC0120838EE290E0DC
:101310002EE230E0F9012081422F4E7F2A813B816D
:10132000F901248126952695242BFC0120838DE24A
:1013300090E02DE230E0F90120812064FC0120835F
:1013400089810F900F900F90DF91CF910895CF93E7
:10135000DF931F92CDB7DEB781E089838DE290E005
:101360002DE230E0F90120812F7BFC01208389816F
:101370000F90DF91CF910895CF93DF931F92CDB758
:10138000DEB781E089838DE290E02DE230E0F90163
:1013900020812068FC01208389810F90DF91CF910B
:1013A0000895CF93DF931F92CDB7DEB781E0898395
:1013B0008DE290E02DE230E0F90120812F77FC01F1
:1013C000208389810F90DF91CF910895CF93DF9390
:1013D00000D01F92CDB7DEB79B838A8381E08983DB
:1013E0008A819B81892B19F482E0898306C08A81D6
:1013F0009B819093AA008093A90089810F900F9000
:101400000F90DF91CF910895CF93DF9300D0CDB7A8
:10141000DEB78A8381E089838DE290E02DE230E0BF
:10142000F90120812F7BFC0120838DE290E02DE2E9
:1014300030E0F9012081322F3C7F2A812370232B59
:10144000FC0120838EE290E02EE230E0F901208161
:101450002E7F3A8136953695232BFC0120838DE231
:1014600090E02DE230E0F90120812064FC0120832E
:1014700089810F900F90DF91CF910895CF93DF93E3
:1014800000D01F92CDB7DEB79B838A8381E089832A
:101490008A819B81892B19F482E0898314C08EE2B2
:1014A00090E0FC0180818295869586958370882FD7
:1014B00090E08170992721E0892B09F420E08A814E
:1014C0009B81FC01208389810F900F900F90DF9109
:1014D000CF910895CF93DF9300D000D0CDB7DEB782
:1014E0009B838A836C8381E089838A819B81892B9A
:1014F00019F482E089831BC08FE290E02C81FC010B
:10150000208300008EE290E0FC018081881F882704
:10151000881F882F90E081709927892B99F38FE29B
:1015200090E0FC0120818A819B81FC0120838981DC
:101530000F900F900F900F90DF91CF910895CF9360
:10154000DF9300D000D01F92CDB7DEB78A836B83C4
:101550005D834C8381E089838C819D81892B19F483
:1015600082E0898323C060E08A810E94D40D8FE2EB
:1015700090E02B81FC01208300008EE290E0FC01D2
:101580008081881F8827881F882F90E08170992785
:10159000892B99F38FE290E0FC0120818C819D8161
:1015A000FC01208361E08A810E94D40D89810F9023
:1015B0000F900F900F900F90DF91CF910895CF93E0
:1015C000DF9300D01F92CDB7DEB78A836B8381E0B3
:1015D000898360E08A810E94D40D8A818093AB0068
:1015E0008FE290E02B81FC01208389810F900F9086
:1015F0000F90DF91CF910895CF93DF9300D0CDB7B7
:10160000DEB78A8381E089838FE290E02A81FC0142
:10161000208389810F900F90DF91CF9108951F92C1
:101620000F9200905F000F9211242F933F934F93DE
:101630005F936F937F938F939F93AF93BF93EF933A
:10164000FF93CF93DF931F92CDB7DEB78091A900B0
:101650009091AA00892BC9F08FE290E0FC01808173
:1016600089832091A9003091AA008981F901099507
:101670008091AC00882F90E0019709F006C080911E
:10168000AB0061E00E94D40D000000000F90DF91DC
:10169000CF91FF91EF91BF91AF919F918F917F91EA
:1016A0006F915F914F913F912F910F9000925F004A
:1016B0000F901F901895CF93DF93CDB7DEB78AE3D5
:1016C00090E02EEFFC01208387E390E02FE4FC0103
:1016D000208384E390E02FEFFC01208381E390E0FE
:1016E0002FE3FC0120838BE390E0FC01108288E370
:1016F00090E020EBFC01208385E390E0FC01108268
:1017000082E390E020E8FC0120830000DF91CF918C
:101710000895CF93DF9300D000D01F92CDB7DEB7EE
:101720008C836D8319828C8187708A838C818695E6
:10173000869586958B838C81803218F082E0898330
:1017400059C08D81823018F081E0898353C08D812A
:10175000882F90E0009741F1019709F04BC08B81F1
:10176000882F90E0880F991F88599F4FFC01808136
:1017700091812B81222F30E0220F331F28593F4FB8
:10178000F90120813181F9012081622F2A81422FC4
:1017900050E021E030E002C0220F331F4A95E2F70B
:1017A000262BFC01208326C08B81882F90E0880F98
:1017B000991F88599F4FFC01808191812B81222F95
:1017C00030E0220F331F28593F4FF901208131812A
:1017D000F9012081622F2A81422F50E021E030E080
:1017E00002C0220F331F4A95E2F720952623FC0101
:1017F0002083000089810F900F900F900F900F9021
:10180000DF91CF910895CF93DF9300D000D01F9246
:10181000CDB7DEB78C836D8319828C8187708A8304
:101820008C818695869586958B838C81803218F085
:1018300082E0898343C18D81843018F081E08983FF
:101840003DC18D81882F90E08130910509F457C00A
:10185000823091051CF4892B49F030C1823091050A
:1018600009F497C0039709F4DFC028C18B81882F42
:1018700090E0880F991F88599F4FFC0180819181CA
:101880002B81222F30E0220F331F28593F4FF901BF
:1018900020813181F9012081622F2A81422F50E07D
:1018A00021E030E002C0220F331F4A95E2F7262BD9
:1018B000FC0120838B81882F90E0880F991F80592D
:1018C0009F4FFC01808191812B81222F30E0220FDC
:1018D000331F20593F4FF90120813181F9012081C7
:1018E000622F2A81422F50E021E030E002C0220F17
:1018F000331F4A95E2F7262BFC012083DFC08B8142
:10190000882F90E0880F991F88599F4FFC01808194
:1019100091812B81222F30E0220F331F28593F4F16
:10192000F90120813181F9012081622F2A81422F22
:1019300050E021E030E002C0220F331F4A95E2F769
:10194000262BFC0120838B81882F90E0880F991F24
:1019500080599F4FFC01808191812B81222F30E0A3
:10196000220F331F20593F4FF90120813181F901A6
:101970002081622F2A81422F50E021E030E002C016
:10198000220F331F4A95E2F720952623FC0120837E
:1019900095C08B81882F90E0880F991F88599F4FA1
:1019A000FC01808191812B81222F30E0220F331F97
:1019B00028593F4FF90120813181F9012081622F9F
:1019C0002A81422F50E021E030E002C0220F331F75
:1019D0004A95E2F720952623FC0120838B81882FEE
:1019E00090E0880F991F80599F4FFC018081918161
:1019F0002B81222F30E0220F331F20593F4FF90156
:101A000020813181F9012081622F2A81422F50E00B
:101A100021E030E002C0220F331F4A95E2F7209503
:101A20002623FC0120834AC08B81882F90E0880FF9
:101A3000991F88599F4FFC01808191812B81222F12
:101A400030E0220F331F28593F4FF90120813181A7
:101A5000F9012081622F2A81422F50E021E030E0FD
:101A600002C0220F331F4A95E2F720952623FC017E
:101A700020838B81882F90E0880F991F80599F4F7A
:101A8000FC01808191812B81222F30E0220F331FB6
:101A900020593F4FF90120813181F9012081622FC6
:101AA0002A81422F50E021E030E002C0220F331F94
:101AB0004A95E2F7262BFC012083000089810F90D4
:101AC0000F900F900F900F90DF91CF910895CF93CB
:101AD000DF931F92CDB7DEB719828FE590E02FE537
:101AE00030E0F90120812068FC01208389810F907A
:101AF000DF91CF910895CF93DF931F92CDB7DEB7DB
:101B000019828FE590E02FE530E0F90120812F77F1
:101B1000FC01208389810F90DF91CF910895CF93AD
:101B2000DF9300D0CDB7DEB78A8319828FE590E0CE
:101B30002FE530E0F9012081422F4F772A81222FB3
:101B400030E03695322F222737952795242BFC013C
:101B5000208389810F900F90DF91CF910895CF93CB
:101B6000DF9300D000D0CDB7DEB78A837C836B8350
:101B700019828B819C81892B19F482E089830CC0A6
:101B80008FE590E0FC018081282F221F2227221F51
:101B90008B819C81FC01208389810F900F900F9095
:101BA0000F90DF91CF910895CF93DF9300D000D0B5
:101BB0001F92CDB7DEB78C836D8319828C818770BD
:101BC0008A838C818695869586958B838C818032DD
:101BD00018F082E089834EC08B81882F90E0880FB7
:101BE000991F88589F4FFC0180819181FC01808161
:101BF000882F90E02A81222F30E002C095958795AA
:101C00002A95E2F781709927892B19F481E089835D
:101C100031C08B81882F90E0880F991F80589F4F8B
:101C2000FC01808191812B81222F30E0220F331F14
:101C300020583F4FF90120813181F9012081622F25
:101C40002A81422F50E021E030E002C0220F331FF2
:101C50004A95E2F7209562232D81222F30E04A81B8
:101C6000442F50E002C0220F331F4A95E2F7262B83
:101C7000FC01208389810F900F900F900F900F909F
:101C8000DF91CF910895CF93DF9300D000D000D0A3
:101C9000CDB7DEB78C837E836D8319828C8187708C
:101CA0008A838C818695869586958B838C818032FC
:101CB00018F082E0898340C08B81882F90E0880FE4
:101CC000991F88589F4FFC0180819181FC01808180
:101CD000882F90E02A81222F30E002C095958795C9
:101CE0002A95E2F781709927892B19F081E0898381
:101CF00023C08D819E81892B19F484E089831CC0C7
:101D00008B81882F90E0880F991F88579F4FFC0187
:101D100080819181FC018081882F90E02A81222F8F
:101D200030E002C0959587952A95E2F7282F21701B
:101D30008D819E81FC012083898126960FB6F894BF
:101D4000DEBF0FBECDBFDF91CF910895CF93DF935C
:101D500000D01F92CDB7DEB78A836B8319828A8148
:101D6000843018F083E089831EC08A81882F90E038
:101D7000880F991F88589F4FFC0180819181FC0139
:101D800080818F3F19F081E089830DC08A81882F7F
:101D900090E0880F991F80589F4FFC0180819181AE
:101DA0002B81FC01208389810F900F900F90DF9190
:101DB000CF910895CF93DF9300D000D0CDB7DEB799
:101DC0008A837C836B8319828A81843018F083E054
:101DD000898328C08A81882F90E0880F991F8858AE
:101DE0009F4FFC0180819181FC018081882319F043
:101DF00081E0898317C08B819C81892B19F484E051
:101E0000898310C08A81882F90E0880F991F885796
:101E10009F4FFC0180819181FC0120818B819C81FD
:101E2000FC01208389810F900F900F900F90DF911C
:101E3000CF910895CF93DF9300D000D0CDB7DEB718
:101E40008C8319828C8187708A838C818695869594
:101E500086958B838C81803218F082E0898341C023
:101E60008B81882F90E0880F991F88589F4FFC0125
:101E700080819181FC018081882F90E02A81222F2E
:101E800030E002C0959587952A95E2F781709927F1
:101E9000892B19F481E0898324C08B81882F90E0FD
:101EA000880F991F80589F4FFC01808191812B8161
:101EB000222F30E0220F331F20583F4FF90120819D
:101EC0003181F9012081622F2A81422F50E021E0E7
:101ED00030E002C0220F331F4A95E2F72627FC01AB
:101EE000208389810F900F900F900F90DF91CF91F9
:101EF0000895CF93DF9300D01F92CDB7DEB79B83B9
:101F00008A8381E089838A819B81892B19F482E00D
:101F1000898365C086E290E026E230E0F901208105
:101F20002F77FC01208386E290E026E230E0F90181
:101F30002081422F40772A813B81F901238127703C
:101F4000242BFC01208387E290E027E230E0F901B6
:101F50002081422F487F2A813B81F901208127700F
:101F6000242BFC01208387E290E027E230E0F90196
:101F70002081422F4F7D2A813B81F9012281222F2E
:101F800030E0220F331F22953295307F3227207F99
:101F90003227242BFC01208387E290E027E230E007
:101FA000F9012081422F4F732A813B81F901218160
:101FB000222F30E0002436952795079436952795F3
:101FC0000794322F202D242BFC01208386E290E001
:101FD00026E230E0F90120812068FC01208389811C
:101FE0000F900F900F90DF91CF910895CF93DF93D3
:101FF0001F92CDB7DEB781E0898386E290E026E2CA
:1020000030E0F90120812F77FC01208389810F9036
:10201000DF91CF910895CF93DF93CDB7DEB7A69729
:102020000FB6F894DEBF0FBECDBF9CA38BA37EA3DB
:102030006DA381E089831A828BA19CA1892B21F059
:102040008DA19EA1892B19F482E0898354C186E277
:1020500090E0FC01808186958695869581708A83C3
:1020600087E290E027E230E0F9012081422F487FAB
:102070002BA13CA1F90120812770242BFC01208396
:1020800086E290E026E230E0F9012081277FFC0122
:10209000208386E290E026E230E0F901208120648E
:1020A000FC012083000086E290E0FC0180818295A3
:1020B000869586958370882F90E081709927892B6B
:1020C00091F780E090E0A0E2B1E48B839C83AD8344
:1020D000BE832BEA3AEA4AEA50E46B817C818D8127
:1020E0009E810E94A015DC01CB018F839887A98770
:1020F000BA8720E030E040E850E46B817C818D813C
:102100009E810E94A015DC01CB018B879C87AD8747
:10211000BE8720E030E040E85FE36F817885898505
:102120009A850E943C1488231CF481E08F87B2C0FA
:1021300020E03FEF4FE757E46B857C858D859E85DA
:102140000E949B1518160CF07BC020E030E04AE797
:1021500054E46B817C818D819E810E944114DC015D
:10216000CB01888B998BAA8BBB8B20E030E04AE7B0
:1021700055E4688979898A899B890E94A015DC01C8
:10218000CB018C8B9D8BAE8BBF8B20E030E040E889
:102190005FE36C897D898E899F890E943C14882326
:1021A0002CF481E090E0998F888F3FC020E03FEFD2
:1021B0004FE757E46C897D898E899F890E949B1522
:1021C00018164CF520E030E040E251E46889798946
:1021D0008A899B890E94A015DC01CB01BC01CD013D
:1021E0000E94BA14DC01CB01998F888F0FC080E95F
:1021F00091E09B8F8A8F8A8D9B8D0197F1F79B8F42
:102200008A8F888D998D0197998F888F888D998D68
:10221000892B69F73FC06C897D898E899F890E94CF
:10222000BA14DC01CB01998F888F888D998D9D8F91
:102230008C8F8C8D9D8D0197F1F79D8F8C8F2AC08F
:1022400020E030E04FE753E46F81788589859A85F7
:102250000E949B151816ACF46B857C858D859E8538
:102260000E94BA14DC01CB019F8F8E8F8E8D9F8DC3
:1022700099A388A388A199A10197F1F799A388A3AD
:102280000FC06F81788589859A850E94BA14DC0118
:10229000CB018F878F858AA38AA18A95F1F78AA3BC
:1022A0008BA19CA1FC0122818DA19EA1BC01822F4A
:1022B0000E943412982F89818923898386E290E0D5
:1022C00026E230E0F90120812061FC01208386E2D2
:1022D00090E026E230E0F9012081422F477F2A81F9
:1022E000222F30E0220F331F220F331F220F331F04
:1022F000242BFC0120838981A6960FB6F894DEBFBB
:102300000FBECDBFDF91CF910895CF93DF9300D063
:1023100000D01F92CDB7DEB79B838A837D836C8309
:1023200081E089838C819D81892B19F482E08983E6
:102330001CC08A819B81CC01A0E0B0E0BC01CD0132
:102340000E94E914DC01CB0123E931E040EA5BE3C0
:10235000BC01CD010E94A015DC01CB012C813D8187
:10236000F90180839183A283B38389810F900F90B9
:102370000F900F900F90DF91CF910895CF93DF933F
:1023800000D01F92CDB7DEB79B838A8381E089831B
:102390008A819B81892B19F482E0898334C00000F3
:1023A00086E290E0FC018081829586958695837017
:1023B000882F90E081709927892B91F78A819B81E2
:1023C000FC0180818093BE008A819B81FC01828117
:1023D0008093BD0087E290E027E230E0F9012081A0
:1023E000422F487F2A813B81F90120812770242BCD
:1023F000FC01208386E290E026E230E0F9012081B2
:102400002064FC01208389810F900F900F90DF9151
:10241000CF910895CF93DF931F92CDB7DEB781E0C0
:10242000898386E290E026E230E0F901208128608D
:10243000FC01208389810F90DF91CF910895CF9384
:10244000DF931F92CDB7DEB781E0898386E290E00B
:1024500026E230E0F9012081277FFC012083898179
:102460000F90DF91CF910895CF93DF9300D000D0EC
:10247000CDB7DEB78A837C836B8381E089838B81D0
:102480009C81892B19F482E0898330C08A81882F4E
:1024900090E0892BB9F484E290E0FC018081282F40
:1024A00030E085E290E0FC018081882F90E0982F59
:1024B0008827822B932B9C018B819C81FC0131838B
:1024C000208314C084E290E0FC01808191819C0112
:1024D0000024220F331F001C220F331F001C232F48
:1024E000302D8B819C81FC013183208389810F9069
:1024F0000F900F900F90DF91CF910895CF93DF93BE
:1025000000D000D01F92CDB7DEB79B838A837D8336
:102510006C8381E089838A819B81892B19F482E015
:1025200089830FC08A819B81FC018081882F90E084
:10253000880F991F83559F4F2C813D81FC0131836A
:10254000208389810F900F900F900F900F90DF9153
:10255000CF9108951F920F9200905F000F92112467
:102560002F933F934F935F936F937F938F939F939B
:10257000AF93BF93EF93FF93CF93DF9300D01F925E
:10258000CDB7DEB781E089832091BD00CE010296F0
:10259000BC01822F0E94341289838091BE00882F53
:1025A00090E0880F991F83559F4FFC018081918196
:1025B000892B79F08091BE00882F90E0880F991FB9
:1025C00083559F4FFC01208131818A819B81F901D4
:1025D000099500000F900F900F90DF91CF91FF9120
:1025E000EF91BF91AF919F918F917F916F915F918B
:1025F0004F913F912F910F9000925F000F901F908D
:102600001895CF93DF93CDB7DEB70E947713FFCF36
:10261000CF93DF9300D000D000D0CDB7DEB780914C
:10262000BF008F5F8093BF008091BF008F30A9F5FE
:10263000CE010196BC0180E990E00E940B108981D7
:102640009A819E012D5F3F4FB9010E9485118B81B8
:102650009C81AD81BE819E012F5F3F4FA901BC01CE
:10266000CD010E943B0589819A818634910550F005
:1026700061E083E10E94D40D64E680E690E00E9470
:10268000F70709C060E083E10E94D40D60E080E6B6
:1026900090E00E94F7071092BF00000026960FB648
:1026A000F894DEBF0FBECDBFDF91CF910895CF93D9
:1026B000DF931F92CDB7DEB7898389818170682F40
:1026C00080E10E94D40D898186958170682F81E117
:1026D0000E94D40D8981869586958170682F82E14C
:1026E0000E94D40D00000F90DF91CF910895CF93F9
:1026F000DF931F92CDB7DEB719820E945B0B80E695
:1027000090E00E94750568E073E180E690E00E9429
:10271000160780E690E00E94450660E080E690E0C3
:102720000E94F70783E690E00E9400090E94BC091E
:1027300087E593E10E94E60980E990E00E94790F25
:102740000E94670D89810F90DF91CF910895EE0F60
:10275000FF1F0590F491E02D09940F93083090F03D
:10276000982F872F762F652F542F432F322F222714
:102770000850F4CF220F331F441F551F661F771FC9
:10278000881F991F0A95B2F70F9108952A0D3B1DD6
:102790004C1D5D1D6E1D7F1D801F911F089550589B
:1027A000BB27AA270E94E7130C9461150E945315BA
:1027B00038F00E945A1520F039F49F3F19F426F49E
:1027C0000C9450150EF4E095E7FB0C944A15E92F94
:1027D0000E94721558F3BA176207730784079507AA
:1027E00020F079F4A6F50C9494150EF4E0950B2ED8
:1027F000BA2FA02D0B01B90190010C01CA01A00153
:102800001124FF27591B99F0593F50F4503E68F1AD
:102810001A16F040A22F232F342F4427585FF3CFEE
:10282000469537952795A795F0405395C9F77EF4BF
:102830001F16BA0B620B730B840BBAF09150A1F008
:10284000FF0FBB1F661F771F881FC2F70EC0BA0F8E
:10285000621F731F841F48F4879577956795B79516
:10286000F7959E3F08F0B0CF9395880F08F0992711
:10287000EE0F9795879508950E94261508F481E03C
:1028800008950E9455140C9461150E945A1558F031
:102890000E94531540F029F45F3F29F00C944A152B
:1028A00051110C9495150C9450150E94721568F3F3
:1028B0009923B1F3552391F3951B550BBB27AA27F9
:1028C00062177307840738F09F5F5F4F220F331F33
:1028D000441FAA1FA9F335D00E2E3AF0E0E832D0FB
:1028E00091505040E695001CCAF72BD0FE2F29D0FE
:1028F000660F771F881FBB1F261737074807AB07D0
:10290000B0E809F0BB0B802DBF01FF2793585F4F44
:102910003AF09E3F510578F00C944A150C949515A9
:102920005F3FE4F3983ED4F3869577956795B79526
:10293000F7959F5FC9F7880F911D9695879597F931
:102940000895E1E0660F771F881FBB1F62177307AA
:102950008407BA0720F0621B730B840BBA0BEE1FBF
:1029600088F7E09508950E94BA146894B1110C9408
:10297000951508950E947A1588F09F5798F0B92F01
:102980009927B751B0F0E1F0660F771F881F991FA4
:102990001AF0BA95C9F714C0B13091F00E9494159D
:1029A000B1E008950C949415672F782F8827B85FAD
:1029B00039F0B93FCCF3869577956795B395D9F7FC
:1029C0003EF490958095709561957F4F8F4F9F4F06
:1029D0000895E89409C097FB3EF490958095709512
:1029E00061957F4F8F4F9F4F9923A9F0F92F96E95B
:1029F000BB279395F695879577956795B795F111D0
:102A0000F8CFFAF4BB0F11F460FF1BC06F5F7F4F6C
:102A10008F4F9F4F16C0882311F096E911C077237E
:102A200021F09EE8872F762F05C0662371F096E887
:102A3000862F70E060E02AF09A95660F771F881F56
:102A4000DAF7880F9695879597F90895990F0008FA
:102A5000550FAA0BE0E8FEEF16161706E807F90770
:102A6000C0F012161306E407F50798F0621B730B0B
:102A7000840B950B39F40A2661F0232B242B252B8C
:102A800021F408950A2609F4A140A6958FEF811D2F
:102A9000811D089597F99F6780E870E060E00895D0
:102AA0009FEF80EC089500240A9416161706180666
:102AB0000906089500240A94121613061406050642
:102AC0000895092E0394000C11F4882352F0BB0FD3
:102AD00040F4BF2B11F460FF04C06F5F7F4F8F4F36
:102AE0009F4F089557FD9058440F551F59F05F3F71
:102AF00071F04795880F97FB991F61F09F3F79F020
:102B000087950895121613061406551FF2CF4695A1
:102B1000F1DF08C0161617061806991FF1CF869523
:102B20007105610508940895E894BB276627772707
:102B3000CB0197F908950E94261508F48FEF0895A8
:102B40000E94B3150C9461150E94531538F00E9431
:102B50005A1520F0952311F00C944A150C94501539
:102B600011240C9495150E94721570F3959FC1F372
:102B7000950F50E0551F629FF001729FBB27F00D2B
:102B8000B11D639FAA27F00DB11DAA1F649F662780
:102B9000B00DA11D661F829F2227B00DA11D621FCF
:102BA000739FB00DA11D621F839FA00D611D221F89
:102BB000749F3327A00D611D231F849F600D211D6D
:102BC000822F762F6A2F11249F5750409AF0F1F0F0
:102BD00088234AF0EE0FFF1FBB1F661F771F881F59
:102BE00091505040A9F79E3F510580F00C944A1532
:102BF0000C9495155F3FE4F3983ED4F38695779552
:102C00006795B795F795E7959F5FC1F7FE2B880FFE
:102C1000911D9695879597F90895AEE0B0E0E3E1B0
:102C2000F6E10C94CE180D891E8986E08C831A83F8
:102C300009838FEF9FE79E838D83AE01475E5F4FD1
:102C40006F89788DCE0101960E942F16EF81F8854D
:102C5000E00FF11F10822E96E4E00C94EA18ABE02E
:102C6000B0E0E5E3F6E10C94C0186C017B018A0149
:102C7000FC0117821682838181FFCCC1CE010196AF
:102C80003C01F6019381F70193FD859193FF8191BA
:102C90007F01882309F4BAC1853239F493FD859107
:102CA00093FF81917F01853229F4B60190E00E9463
:102CB0002618E7CF912C212C312CFFE1F315D8F009
:102CC0008B3279F038F4803279F08332A1F4232DFD
:102CD00020611DC08D3261F0803369F4232D2160A5
:102CE00016C0832D8260382EE32DE4603E2E2AC06C
:102CF000F32DF8601DC037FC2DC020ED280F2A30C1
:102D000040F08E32B9F436FC81C1232D2064322E7E
:102D100019C036FE06C08AE0989E200D1124922E1E
:102D200011C0EAE02E9E200D1124222EF32DF06218
:102D30003F2E08C08C3621F4832D8068382E02C0C7
:102D4000883641F4F70193FD859193FF81917F01CE
:102D50008111B3CF982F9F7D9554933028F40C5F49
:102D60001F4F9FE399830DC0833631F0833771F095
:102D7000833509F059C021C0F801808189830E5F35
:102D80001F4F88248394912C530113C02801F2E033
:102D90004F0E511CF801A080B18036FE03C0692D92
:102DA00070E002C06FEF7FEFC5010E941B184C015D
:102DB0008201F32DFF773F2E16C0280122E0420E3C
:102DC000511CF801A080B18036FE03C0692D70E06F
:102DD00002C06FEF7FEFC5010E9410184C01F32D68
:102DE000F0683F2E820133FC1BC0822D90E08816D4
:102DF0009906B0F4B60180E290E00E9426182A9469
:102E0000F4CFF50137FC859137FE81915F01B60162
:102E100090E00E94261821102A9421E0821A91083D
:102E20008114910471F7E8C0843611F0893641F5B8
:102E3000F80137FE07C060817181828193810C5F48
:102E40001F4F08C060817181072E000C880B990B01
:102E50000E5F1F4FF32DFF763F2E97FF09C0909511
:102E60008095709561957F4F8F4F9F4FF0683F2EF3
:102E70002AE030E0A3010E946218882E861845C01F
:102E8000853731F4232D2F7EB22E2AE030E025C085
:102E9000932D997FB92E8F36C1F018F4883579F0CB
:102EA000B5C0803719F0883721F0B0C0E92FE06154
:102EB000BE2EB4FE0DC0FB2DF460BF2E09C034FE43
:102EC0000AC0292F2660B22E06C028E030E005C0D7
:102ED00020E130E002C020E132E0F801B7FE07C097
:102EE00060817181828193810C5F1F4F06C0608178
:102EF000718180E090E00E5F1F4FA3010E94621875
:102F0000882E8618FB2DFF773F2E36FE0DC0232D11
:102F10002E7FA22E891458F434FE0BC032FC09C057
:102F2000832D8E7EA82E05C0B82CA32C03C0B82CF0
:102F300001C0B92CA4FE0FC0FE01E80DF11D808177
:102F4000803321F49A2D997EA92E09C0A2FE06C0D5
:102F5000B394B39404C08A2D867809F0B394A3FC8B
:102F600011C0A0FE06C0B21488F4280C922C9B1845
:102F70000EC0B21460F4B60180E290E00E94261800
:102F8000B394F7CFB21418F42B1802C0982C212C4C
:102F9000A4FE10C0B60180E390E00E942618A2FEB5
:102FA00017C0A1FC03C088E790E002C088E590E06C
:102FB000B6010CC08A2D867859F0A1FE02C08BE2C2
:102FC00001C080E2A7FC8DE2B60190E00E942618C5
:102FD000891438F4B60180E390E00E9426189A9490
:102FE000F7CF8A94F301E80DF11D8081B60190E0DE
:102FF0000E9426188110F5CF222009F442CEB60196
:1030000080E290E00E9426182A94F6CFF60186818D
:10301000978102C08FEF9FEF2B96E2E10C94DC18B2
:10302000FC010590615070400110D8F78095909593
:103030008E0F9F1F0895FC01615070400190011098
:10304000D8F7809590958E0F9F1F08950F931F932B
:10305000CF93DF93FB01238121FD03C08FEF9FEF0F
:103060002CC022FF16C0468157812481358142172A
:10307000530744F4A081B1819D012F5F3F4F3183FD
:1030800020838C93268137812F5F3F4F37832683A0
:1030900014C08B01EC01FB010084F185E02D099542
:1030A000892BE1F6D80116968D919C911797019680
:1030B00017969C938E931697CE01DF91CF911F9117
:1030C0000F910895FA01AA27283051F1203181F19A
:1030D000E8946F936E7F6E5F7F4F8F4F9F4FAF4F20
:1030E000B1E03ED0B4E03CD0670F781F891F9A1F33
:1030F000A11D680F791F8A1F911DA11D6A0F711DE7
:10310000811D911DA11D20D009F468943F912AE0F2
:10311000269F11243019305D3193DEF6CF010895DA
:10312000462F4770405D4193B3E00FD0C9F7F6CF0B
:10313000462F4F70405D4A3318F0495D31FD4052D3
:10314000419302D0A9F7EACFB4E0A6959795879569
:1031500077956795BA95C9F7009761057105089548
:103160009B01AC010A2E06945795479537952795F4
:10317000BA95C9F7620F731F841F951FA01D08958C
:103180002F923F924F925F926F927F928F929F9277
:10319000AF92BF92CF92DF92EF92FF920F931F9365
:1031A000CF93DF93CDB7DEB7CA1BDB0B0FB6F89416
:1031B000DEBF0FBECDBF09942A88398848885F8456
:1031C0006E847D848C849B84AA84B984C884DF80C7
:1031D000EE80FD800C811B81AA81B981CE0FD11DAB
:1031E0000FB6F894DEBF0FBECDBFED010895F89481
:0231F000FFCF0F
:1031F200050B0000010001033A00370034003100E2
:103202003B003800350032003A003700340031000C
:103212003B00380035003200390036003300300000
:1032220000010007256C75002573256C642E25307E
:043232003464000000
:00000001FF
