:100000000C942A000C943F000C943F000C943F0089
:100010000C943F000C943F000C943F000C943F0064
:100020000C943F000C943F000C943F000C943F0054
:100030000C943F000C943F000C943F000C943F0044
:100040000C943F000C943F000C943F000C943F0034
:100050000C943F0011241FBECFE5D8E0DEBFCDBF1A
:1000600010E0A0E6B0E0E0EEF8E202C005900D92EC
:10007000A23CB107D9F70E947D090C946E140C9430
:100080000000CF93DF9300D000D0CDB7DEB78A83D6
:100090007C836B8319828B819C81892B19F481E08D
:1000A000898319C08A81882F90E0292F2F938F93FD
:1000B0008FEA90E0892F8F938FEA90E08F938C8165
:1000C0008F938B818F930E9484110F900F900F90CC
:1000D0000F900F900F9089810F900F900F900F90BD
:1000E000DF91CF910895CF93DF93CDB7DEB72797F8
:1000F0000FB6F894DEBF0FBECDBF6A837B838C83BF
:100100009D835F834E8319828E819F81892B19F491
:1001100081E089831DC08D818F938C818F938B812A
:100120008F938A818F9383EB90E0892F8F9383EB5A
:1001300090E08F938F818F938E818F930E94841193
:100140008DB79EB708960FB6F894DEBF0FBECDBF31
:10015000898127960FB6F894DEBF0FBECDBFDF9121
:10016000CF910895CF93DF93CDB7DEB78AE390E0C8
:100170002CE0FC01208387E390E027E1FC01208351
:1001800084E390E0FC01108281E390E0FC011082A6
:100190008BE390E0FC01108288E390E0FC01108288
:1001A00085E390E0FC01108282E390E0FC01108284
:1001B0000000DF91CF910895CF93DF9300D000D05E
:1001C0001F92CDB7DEB78C836D8319828C818770C7
:1001D0008A838C818695869586958B838C818032E7
:1001E00018F082E0898359C08D81823018F081E057
:1001F000898353C08D81882F90E0009741F101974A
:1002000009F04BC08B81882F90E0880F991F805A8E
:100210009F4FFC01808191812B81222F30E0220FA2
:10022000331F205A3F4FF90120813181F90120818C
:10023000622F2A81422F50E021E030E002C0220FDD
:10024000331F4A95E2F7262BFC01208326C08B81C1
:10025000882F90E0880F991F805A9F4FFC01808162
:1002600091812B81222F30E0220F331F205A3F4FE4
:10027000F90120813181F9012081622F2A81422FE9
:1002800050E021E030E002C0220F331F4A95E2F730
:1002900020952623FC012083000089810F900F9078
:1002A0000F900F900F90DF91CF910895CF93DF9330
:1002B00000D000D01F92CDB7DEB78C836D8319823A
:1002C0008C8187708A838C818695869586958B83B1
:1002D0008C81803218F082E0898343C18D81843023
:1002E00018F081E089833DC18D81882F90E08130B5
:1002F000910509F457C0823091051CF4892B49F00F
:1003000030C18230910509F497C0039709F4DFC02A
:1003100028C18B81882F90E0880F991F805A9F4FAA
:10032000FC01808191812B81222F30E0220F331F2D
:10033000205A3F4FF90120813181F9012081622F3C
:100340002A81422F50E021E030E002C0220F331F0B
:100350004A95E2F7262BFC0120838B81882F90E0C1
:10036000880F991F88599F4FFC01808191812B81B3
:10037000222F30E0220F331F28593F4FF9012081EF
:100380003181F9012081622F2A81422F50E021E042
:1003900030E002C0220F331F4A95E2F7262BFC0102
:1003A0002083DFC08B81882F90E0880F991F805AAF
:1003B0009F4FFC01808191812B81222F30E0220F01
:1003C000331F205A3F4FF90120813181F9012081EB
:1003D000622F2A81422F50E021E030E002C0220F3C
:1003E000331F4A95E2F7262BFC0120838B81882F4F
:1003F00090E0880F991F88599F4FFC01808191815F
:100400002B81222F30E0220F331F28593F4FF90153
:1004100020813181F9012081622F2A81422F50E011
:1004200021E030E002C0220F331F4A95E2F7209509
:100430002623FC01208395C08B81882F90E0880FB4
:10044000991F805A9F4FFC01808191812B81222F1F
:1004500030E0220F331F205A3F4FF90120813181B4
:10046000F9012081622F2A81422F50E021E030E003
:1004700002C0220F331F4A95E2F720952623FC0184
:1004800020838B81882F90E0880F991F88599F4F78
:10049000FC01808191812B81222F30E0220F331FBC
:1004A00028593F4FF90120813181F9012081622FC4
:1004B0002A81422F50E021E030E002C0220F331F9A
:1004C0004A95E2F720952623FC0120834AC08B81C0
:1004D000882F90E0880F991F805A9F4FFC018081E0
:1004E00091812B81222F30E0220F331F205A3F4F62
:1004F000F90120813181F9012081622F2A81422F67
:1005000050E021E030E002C0220F331F4A95E2F7AD
:1005100020952623FC0120838B81882F90E0880F73
:10052000991F88599F4FFC01808191812B81222F37
:1005300030E0220F331F28593F4FF90120813181CC
:10054000F9012081622F2A81422F50E021E030E022
:1005500002C0220F331F4A95E2F7262BFC012083AD
:10056000000089810F900F900F900F900F90DF91F6
:10057000CF910895CF93DF9300D000D01F92CDB7D5
:10058000DEB78C836D8319828C8187708A838C811E
:100590008695869586958B838C81803218F082E0D3
:1005A00089834EC08B81882F90E0880F991F8059D6
:1005B0009F4FFC0180819181FC018081882F90E018
:1005C0002A81222F30E002C0959587952A95E2F77F
:1005D00081709927892B19F481E0898331C08B813F
:1005E000882F90E0880F991F88589F4FFC018081C9
:1005F00091812B81222F30E0220F331F28583F4F4B
:10060000F90120813181F9012081622F2A81422F55
:1006100050E021E030E002C0220F331F4A95E2F79C
:10062000209562232D81222F30E04A81442F50E013
:1006300002C0220F331F4A95E2F7262BFC012083CC
:1006400089810F900F900F900F900F90DF91CF91B5
:100650000895CF93DF9300D000D000D0CDB7DEB7A0
:100660008C837E836D8319828C8187708A838C81D1
:100670008695869586958B838C81803218F082E0F2
:10068000898340C08B81882F90E0880F991F805903
:100690009F4FFC0180819181FC018081882F90E037
:1006A0002A81222F30E002C0959587952A95E2F79E
:1006B00081709927892B19F081E0898323C08D816E
:1006C0009E81892B19F484E089831CC08B81882F3B
:1006D00090E0880F991F80589F4FFC018081918185
:1006E000FC018081882F90E02A81222F30E002C017
:1006F000959587952A95E2F7282F21708D819E8107
:10070000FC012083898126960FB6F894DEBF0FBEC8
:10071000CDBFDF91CF910895CF93DF9300D01F928B
:10072000CDB7DEB78A836B8319828A81843018F053
:1007300083E089831EC08A81882F90E0880F991FEB
:1007400080599F4FFC0180819181FC0180818F3F06
:1007500019F081E089830DC08A81882F90E0880F8D
:10076000991F88589F4FFC01808191812B81FC014A
:10077000208389810F900F900F90DF91CF91089582
:10078000CF93DF9300D000D0CDB7DEB78A837C83D0
:100790006B8319828A81843018F083E0898328C0B2
:1007A0008A81882F90E0880F991F80599F4FFC0104
:1007B00080819181FC018081882319F081E0898307
:1007C00017C08B819C81892B19F484E0898310C028
:1007D0008A81882F90E0880F991F80589F4FFC01D5
:1007E00080819181FC0120818B819C81FC0120838F
:1007F00089810F900F900F900F90DF91CF91089506
:10080000CF93DF9300D000D0CDB7DEB78C831982B1
:100810008C8187708A838C818695869586958B835B
:100820008C81803218F082E0898341C08B81882FCF
:1008300090E0880F991F80599F4FFC018081918122
:10084000FC018081882F90E02A81222F30E002C0B5
:10085000959587952A95E2F781709927892B19F448
:1008600081E0898324C08A81882F90E0880F991FB6
:1008700088589F4FFC01808191812A81222F30E08E
:10088000220F331F28583F4FF90120813181F90190
:100890002081622F2A81422F50E021E030E002C007
:1008A000220F331F4A95E2F72627FC012083898116
:1008B0000F900F900F900F90DF91CF910895CF93ED
:1008C000DF93CDB7DEB7E1970FB6F894DEBF0FBE6A
:1008D000CDBF99AB88AB198288A999A9892B19F446
:1008E00082E0898397C188A999A968E30E941406C8
:1008F000898380E090E0A0EAB0E48A839B83AC83A4
:10090000BD8320E030E04AEF54E46A817B818C8132
:100910009D810E941711DC01CB018EA39FA3A8A784
:10092000B9A720E030E040E85FE36EA17FA188A591
:1009300099A50E94F70F88232CF481E090E09BA7F3
:100940008AA73FC020E03FEF4FE757E46EA17FA1A9
:1009500088A599A50E94121118164CF520E030E0E8
:1009600040E251E46A817B818C819D810E94171154
:10097000DC01CB01BC01CD010E946E10DC01CB017A
:100980009BA78AA70FC088EC90E09DA78CA78CA599
:100990009DA50197F1F79DA78CA78AA59BA5019717
:1009A0009BA78AA78AA59BA5892B69F714C06EA16E
:1009B0007FA188A599A50E946E10DC01CB019BA7A1
:1009C0008AA78AA59BA59FA78EA78EA59FA50197FD
:1009D000F1F79FA78EA788A999A968E30E9414063A
:1009E000898380E090E0A6E1B3E48E839F83A887AB
:1009F000B9872BEA3AEA4AE250E46E817F81888522
:100A000099850E941711DC01CB018A879B87AC87EF
:100A1000BD878E819F81A885B9859C01AD01BC01F0
:100A2000CD010E948B0FDC01CB018E879F87A88BA5
:100A3000B98B20E030E040E85FE36A857B858C85F8
:100A40009D850E94F70F88231CF481E08A8BB2C039
:100A500020E03FEF4FE757E46E857F8588899989CD
:100A60000E94121118160CF07BC020E030E04AE71B
:100A700054E46E817F81888599850E94FC0FDC019A
:100A8000CB018B8B9C8BAD8BBE8B20E030E04AEF93
:100A900054E46B897C898D899E890E941711DC0141
:100AA000CB018F8B988FA98FBA8F20E030E040E880
:100AB0005FE36F89788D898D9A8D0E94F70F882367
:100AC0002CF481E090E09C8F8B8F3FC020E03FEFC3
:100AD0004FE757E46F89788D898D9A8D0E941211A6
:100AE00018164CF520E030E040E251E46B897C8937
:100AF0008D899E890E941711DC01CB01BC01CD01BB
:100B00000E946E10DC01CB019C8F8B8F0FC088EC94
:100B100090E09E8F8D8F8D8D9E8D0197F1F79E8F2A
:100B20008D8F8B8D9C8D01979C8F8B8F8B8D9C8D4A
:100B3000892B69F73FC06F89788D898D9A8D0E94C6
:100B40006E10DC01CB019C8F8B8F8B8D9C8D98A3BD
:100B50008F8F8F8D98A10197F1F798A38F8F2AC05F
:100B600020E030E04FE753E46A857B858C859D85E6
:100B70000E9412111816ACF46E857F8588899989B8
:100B80000E946E10DC01CB019AA389A389A19AA1CE
:100B90009CA38BA38BA19CA10197F1F79CA38BA392
:100BA0000FC06A857B858C859D850E946E10DC0157
:100BB000CB018A8B8A898DA38DA18A95F1F78DA3AC
:100BC00088A999A968E30E941406898388A999A92C
:100BD00061E00E941406898388A999A962E00E94B5
:100BE0001406898388A999A966E00E94140689835E
:100BF00088A999A96CE00E941406898388A999A9FB
:100C000068E20E941406898388A999A960E80E9475
:100C1000140689838981E1960FB6F894DEBF0FBE72
:100C2000CDBFDF91CF910895CF93DF9300D000D057
:100C30001F92CDB7DEB79C838B836D8319821A8296
:100C40008B819C81892B19F482E0898322C08B815E
:100C50009C81FC01848160E00E94BA028A838D81BC
:100C6000282F22952F708B819C81622F0E94220851
:100C700089838B819C810E94600889838B819C8100
:100C80006D810E94220889838B819C810E9460086B
:100C9000898389810F900F900F900F900F90DF91B3
:100CA000CF910895CF93DF9300D000D0CDB7DEB7BA
:100CB0009B838A836C8319828A819B81892B19F497
:100CC00082E0898322C08A819B81FC01848161E06A
:100CD0000E94BA0289838C81282F22952F708A81E5
:100CE0009B81622F0E94220889838A819B810E94B6
:100CF000600889838A819B816C810E942208898394
:100D00008A819B810E946008898389810F900F905E
:100D10000F900F90DF91CF910895CF93DF9300D084
:100D200000D000D0CDB7DEB79B838A836C834D8320
:100D30002E8319828A819B81892B19F482E0898311
:100D400029C08A819B814E816D810E942A078983F7
:100D50008A819B81FC01848161E00E94BA028983BF
:100D60008C81282F22952F708A819B81622F0E946F
:100D7000220889838A819B810E94600889838A81F5
:100D80009B816C810E94220889838A819B810E94B9
:100D900060088983898126960FB6F894DEBF0FBE5E
:100DA000CDBFDF91CF910895CF93DF93CDB7DEB75D
:100DB00027970FB6F894DEBF0FBECDBF9C838B8301
:100DC0007E836D834F8319821A828B819C81892B4C
:100DD00021F08D819E81892B19F482E0898330C0B6
:100DE0008F81883018F083E089832AC08F81882F13
:100DF00090E00896282F220F220F220F8B819C81D2
:100E0000622F0E94140689831A8211C08A81882F5A
:100E100090E02D813E81820F931FFC0120818B8108
:100E20009C81622F0E9452068A818F5F8A838A8109
:100E3000883060F38B819C8160E80E94140689836E
:100E4000898127960FB6F894DEBF0FBECDBFDF9124
:100E5000CF910895CF93DF9300D000D01F92CDB7EC
:100E6000DEB79B838A836C834D8319828A819B8141
:100E7000892B19F482E0898356C08C81853018F063
:100E800085E0898350C08D81853118F084E08983A5
:100E90004AC08D8181508D838C81882F90E0823073
:100EA0009105C9F0833091051CF4019739F03AC0DF
:100EB00083309105E9F0049741F134C08D8120E839
:100EC000280F8A819B81622F0E941406982F8981A6
:100ED0008923898328C08D8120EC280F8A819B81FA
:100EE000622F0E941406982F8981892389831BC051
:100EF0008D8124E9280F8A819B81622F0E9414062C
:100F0000982F8981892389830EC08D8124ED280F34
:100F10008A819B81622F0E941406982F89818923E0
:100F2000898301C0198289810F900F900F900F90D3
:100F30000F90DF91CF910895CF93DF9300D000D031
:100F400000D0CDB7DEB79C838B837E836D831982FF
:100F50001A828B819C81892B21F08D819E81892B26
:100F6000A9F482E089831DC08A81882F90E02D81B9
:100F70003E81820F931FFC0120818B819C81622F17
:100F80000E94520689838A818F5F8A838A81882F93
:100F900090E02D813E81820F931FFC018081882388
:100FA00019F7898126960FB6F894DEBF0FBECDBF24
:100FB000DF91CF910895CF93DF93CDB7DEB7C956B8
:100FC000D1090FB6F894DEBF0FBECDBF9E012959DF
:100FD0003F4FF90191838083CE0187599F4FFC01D8
:100FE000608319821A82CE0189599F4FFC0180814A
:100FF0009181892B19F482E0898319C09E012D5FAC
:101000003F4FCE0187599F4FB901FC0180810E945B
:1010100041008A839E012D5F3F4FCE0189599F4F2A
:10102000FC0180819181B9010E949C07898389819B
:10103000C759DF4F0FB6F894DEBF0FBECDBFDF91AB
:10104000CF910895CF93DF9300D000D01F92CDB7FA
:10105000DEB79C838B836D8319821A828B819C817E
:10106000892B19F482E0898322C01A821DC08D81E8
:10107000882F90E02A81222F30E002C09595879535
:101080002A95E2F7482F41708A81882F90E02B81C2
:101090003C81820F931FFC018081642F0E94BA0261
:1010A00089838A818F5F8A838A81843000F3898172
:1010B0000F900F900F900F900F90DF91CF910895A8
:1010C000CF93DF93CDB7DEB7A3970FB6F894DEBF0B
:1010D0000FBECDBF9BA38AA319828AA19BA1892B96
:1010E00019F482E08983FFC08AA19BA1FC0185815C
:1010F00061E00E94BA02898380E090E0A0EAB0E457
:101100008A839B83AC83BD832BEA3AEA4AE250E4AC
:101110006A817B818C819D810E941711DC01CB014A
:101120008E839F83A887B9878A819B81AC81BD818B
:101130009C01AD01BC01CD010E948B0FDC01CB01F4
:101140008A879B87AC87BD8720E030E040E85FE37B
:101150006E817F81888599850E94F70F88231CF412
:1011600081E08E87B2C020E03FEF4FE757E46A8509
:101170007B858C859D850E94121118160CF07BC012
:1011800020E030E04AE754E46A817B818C819D81D4
:101190000E94FC0FDC01CB018F87988BA98BBA8B47
:1011A00020E030E04AEF54E46F85788989899A8994
:1011B0000E941711DC01CB018B8B9C8BAD8BBE8BFE
:1011C00020E030E040E85FE36B897C898D899E896F
:1011D0000E94F70F88232CF481E090E0988F8F8B8A
:1011E0003FC020E03FEF4FE757E46B897C898D8952
:1011F0009E890E94121118164CF520E030E040E262
:1012000051E46F85788989899A890E941711DC01D8
:10121000CB01BC01CD010E946E10DC01CB01988F87
:101220008F8B0FC088EC90E09A8F898F898D9A8D73
:101230000197F1F79A8F898F8F89988D0197988FF1
:101240008F8B8F89988D892B69F73FC06B897C893B
:101250008D899E890E946E10DC01CB01988F8F8B47
:101260008F89988D9C8F8B8F8B8D9C8D0197F1F73B
:101270009C8F8B8F2AC020E030E04FE753E46E81D3
:101280007F81888599850E9412111816ACF46A85B1
:101290007B858C859D850E946E10DC01CB019E8F25
:1012A0008D8F8D8D9E8D98A38F8F8F8D98A1019797
:1012B000F1F798A38F8F0FC06E817F818885998504
:1012C0000E946E10DC01CB018E878E8589A389A1D7
:1012D0008A95F1F789A38AA19BA1FC01858160E031
:1012E0000E94BA0289838981A3960FB6F894DEBF63
:1012F0000FBECDBFDF91CF910895CF93DF93CDB7D0
:10130000DEB70E94B20088E890E00E945F0440E0EF
:101310006FE870E088E890E00E94D40641E067E959
:1013200070E088E890E00E94D40642E06FE970E047
:1013300088E890E00E94D40643E067EA70E088E81D
:1013400090E00E94D4060E94B50921E041E060E0EF
:1013500088E890E00E948D060E94DD090E949F0AA5
:101360000E941D0E0E94F30EFFCFCF93DF9300D09B
:10137000CDB7DEB781E0898381E08A8381E089830C
:1013800013C081E08A830AC02A81498161E088E82C
:1013900090E00E948D068A818F5F8A838A818531E1
:1013A00098F389818F5F89838981853050F30000AC
:1013B0000F900F90DF91CF910895CF93DF93CDB72A
:1013C000DEB762970FB6F894DEBF0FBECDBF81E0E7
:1013D000898382E08A8381E08B8381E08C8381E052
:1013E000898391C081E08A8387C02C814B8161E031
:1013F00088E890E00E948D062A81498160E088E8B3
:1014000090E00E948D0689818B838A818C8380E0A5
:1014100090E0A8ECB2E48D839E83AF83B88720E090
:1014200030E04AEF54E46D817E818F8198850E947F
:101430001711DC01CB0189879A87AB87BC8720E035
:1014400030E040E85FE369857A858B859C850E9462
:10145000F70F88232CF481E090E09E878D873FC0B2
:1014600020E03FEF4FE757E469857A858B859C85BF
:101470000E94121118164CF520E030E040E251E4D1
:101480006D817E818F8198850E941711DC01CB01CF
:10149000BC01CD010E946E10DC01CB019E878D87BF
:1014A0000FC088EC90E0988B8F878F859889019783
:1014B000F1F7988B8F878D859E8501979E878D8705
:1014C0008D859E85892B69F714C069857A858B8502
:1014D0009C850E946E10DC01CB019E878D878D85D7
:1014E0009E859A8B898B89899A890197F1F79A8BC6
:1014F000898B8A818F5F8A838A81853108F475CFD1
:1015000089818F5F89838981853008F46BCF21E0E1
:1015100041E060E088E890E00E948D062C814B81DC
:1015200061E088E890E00E948D06000062960FB6A8
:10153000F894DEBF0FBECDBFDF91CF9108950F931A
:101540001F93CF93DF93CDB7DEB7CE54D1090FB63B
:10155000F894DEBF0FBECDBF81E08C8382E089832B
:1015600081E08A8381E08B8381E08D838FE08E83AD
:1015700082E08F838FE088872FE041E060E288E897
:1015800090E00E948D0682E0898387C02B814A818A
:1015900061E088E890E00E948D0629814C8160E03E
:1015A00088E890E00E948D068C818A8389818B83F4
:1015B00080E090E0A8ECB2E4898F9A8FAB8FBC8F6B
:1015C00020E030E04AEF54E4698D7A8D8B8D9C8D5C
:1015D0000E941711DC01CB018D8F9E8FAF8FB8A3B6
:1015E00020E030E040E85FE36D8D7E8D8F8D98A127
:1015F0000E94F70F88232CF481E090E09AA389A33E
:101600003FC020E03FEF4FE757E46D8D7E8D8F8D1B
:1016100098A10E94121118164CF520E030E040E22B
:1016200051E4698D7A8D8B8D9C8D0E941711DC01A0
:10163000CB01BC01CD010E946E10DC01CB019AA34D
:1016400089A30FC088EC90E09CA38BA38BA19CA1E5
:101650000197F1F79CA38BA389A19AA101979AA363
:1016600089A389A19AA1892B69F714C06D8D7E8DFC
:101670008F8D98A10E946E10DC01CB019AA389A3E3
:1016800089A19AA19EA38DA38DA19EA10197F1F797
:101690009EA38DA389818F5F898399818E8189170C
:1016A00008F074CF2B814A8160E288E890E00E94C4
:1016B0008D0628854F8160E088E890E00E948D06C5
:1016C00080E090E0A8ECB2E489879A87AB87BC877A
:1016D00020E030E04AEF54E469857A858B859C856B
:1016E0000E941711DC01CB018FA398A7A9A7BAA765
:1016F00020E030E040E85FE36FA178A589A59AA5D6
:101700000E94F70F88232CF481E090E09CA78BA720
:101710003FC020E03FEF4FE757E46FA178A589A5D0
:101720009AA50E94121118164CF520E030E040E214
:1017300051E469857A858B859C850E941711DC01AF
:10174000CB01BC01CD010E946E10DC01CB019CA736
:101750008BA70FC088EC90E09EA78DA78DA59EA5B6
:101760000197F1F79EA78DA78BA59CA501979CA734
:101770008BA78BA59CA5892B69F714C06FA178A5B1
:1017800089A59AA50E946E10DC01CB019CA78BA7AE
:101790008BA59CA598AB8FA78FA598A90197F1F76A
:1017A00098AB8FA78F818A8388858B838E818F5F8B
:1017B000898385C02B814A8161E088E890E00E949E
:1017C0008D0629814F8160E088E890E00E948D06B7
:1017D00089818B8380E090E0A8ECB2E48D879E87BE
:1017E000AF87B88B20E030E04AEF54E46D857E850A
:1017F0008F8598890E941711DC01CB0189AB9AABC8
:10180000ABABBCAB20E030E040E85FE369A97AA96C
:101810008BA99CA90E94F70F88232CF481E090E00B
:101820009EAB8DAB3FC020E03FEF4FE757E469A987
:101830007AA98BA99CA90E94121118164CF520E0D8
:1018400030E040E251E46D857E858F8598890E9465
:101850001711DC01CB01BC01CD010E946E10DC012F
:10186000CB019EAB8DAB0FC088EC90E098AF8FABF7
:101870008FA998AD0197F1F798AF8FAB8DA99EA96D
:1018800001979EAB8DAB8DA99EA9892B69F714C0DA
:1018900069A97AA98BA99CA90E946E10DC01CB01D1
:1018A0009EAB8DAB8DA99EA99AAF89AF89AD9AAD3C
:1018B0000197F1F79AAF89AF89818F5F8983898119
:1018C000853108F477CF28854F8162E088E890E081
:1018D0000E948D0681E08983B8C02B814A8161E036
:1018E00088E890E00E948D0629814F8160E088E8B9
:1018F00090E00E948D0689818B8380E090E0A8ECC7
:10190000B2E4898B9A8BAB8BBC8B20E030E04AEF42
:1019100054E469897A898B899C890E941711DC01BA
:10192000CB018BAF9CAFADAFBEAF20E030E040E865
:101930005FE36BAD7CAD8DAD9EAD0E94F70F88234C
:1019400044F421E030E0CE01CF96FC0131832083C6
:101950005FC020E03FEF4FE757E46BAD7CAD8DAD4E
:101960009EAD0E94121118160CF044C020E030E029
:1019700040E251E469897A898B899C890E94171118
:10198000DC01CB01BC01CD010E946E10DC01CB015A
:101990009E01215C3F4FF9019183808323C0CE01DA
:1019A0008F5B9F4F28EC30E0FC0131832083CE0118
:1019B0008F5B9F4FFC01808191810197F1F79E0120
:1019C0002F5B3F4FF90191838083CE01CF96FC01BD
:1019D000808191819C0121503109CE01CF96FC017B
:1019E00031832083CE01CF96FC0180819181892BA8
:1019F000B1F628C06BAD7CAD8DAD9EAD0E946E1072
:101A0000DC01CB019E01215C3F4FF9019183808372
:101A1000CE018D5B9F4F9E01215C3F4FF9012081DC
:101A20003181FC0131832083CE018D5B9F4FFC010E
:101A3000808191810197F1F79E012D5B3F4FF90164
:101A40009183808389818F5F8983998188858917B4
:101A500008F043CF8F818A838E818B838E81898327
:101A6000CDC02B814A8161E088E890E00E948D061C
:101A700029814D8160E088E890E00E948D0689818F
:101A80008B838D818A8380E090E0A8ECB2E48D8B1B
:101A90009E8BAF8BB88F8E010B5B1F4F20E030E029
:101AA0004AEF54E46D897E898F89988D0E941711C1
:101AB000DC01CB01F80180839183A283B383CE0143
:101AC0008B5B9F4F20E030E040E85FE3FC016081EA
:101AD0007181828193810E94F70F88234CF4CE019B
:101AE000875B9F4F21E030E0FC013183208369C098
:101AF000CE018B5B9F4F20E03FEF4FE757E4FC01A7
:101B000060817181828193810E94121118160CF0FC
:101B100046C020E030E040E251E46D897E898F8943
:101B2000988D0E941711DC01CB018E01075B1F4FBE
:101B3000BC01CD010E946E10DC01CB01F801918344
:101B4000808324C0CE01855B9F4F28EC30E0FC01F0
:101B500031832083CE01855B9F4FFC018081918181
:101B60000197F1F79E01255B3F4FF9019183808337
:101B7000CE01875B9F4F9E01275B3F4FF90120817C
:101B8000318121503109FC0131832083CE01875BF3
:101B90009F4FFC0180819181892BA1F62CC08E0181
:101BA000075B1F4FCE018B5B9F4FFC0160817181F2
:101BB000828193810E946E10DC01CB01F801918338
:101BC0008083CE01835B9F4F9E01275B3F4FF901CE
:101BD00020813181FC0131832083CE01835B9F4FC3
:101BE000FC01808191810197F1F79E01235B3F4FBA
:101BF000F9019183808389818F5F89838981853110
:101C000008F42FCF21E041E060E088E890E00E94F6
:101C10008D062B814A8161E088E890E00E948D0664
:101C20000000C25BDF4F0FB6F894DEBF0FBECDBF22
:101C3000DF91CF911F910F910895CF93DF93CDB78F
:101C4000DEB764970FB6F894DEBF0FBECDBF81E05C
:101C5000898382E08A8381E08B8381E08C8382E0C8
:101C60008D838AE08E832E814D8163E088E890E049
:101C70000E948D0681E089839DC081E08A8393C0A4
:101C80002C814B8161E088E890E00E948D062A81DA
:101C9000498160E088E890E00E948D0689818B830D
:101CA0008A818C8380E090E0A8ECB2E48F839887EF
:101CB000A987BA8720E030E04AEF54E46F81788545
:101CC00089859A850E941711DC01CB018B879C873F
:101CD000AD87BE8720E030E040E85FE36B857C8520
:101CE0008D859E850E94F70F88232CF481E090E07B
:101CF000988B8F873FC020E03FEF4FE757E46B851D
:101D00007C858D859E850E94121118164CF520E069
:101D100030E040E251E46F81788589859A850E94A0
:101D20001711DC01CB01BC01CD010E946E10DC015A
:101D3000CB01988B8F870FC088EC90E09A8B898BB2
:101D400089899A890197F1F79A8B898B8F85988970
:101D50000197988B8F878F859889892B69F714C095
:101D60006B857C858D859E850E946E10DC01CB0184
:101D7000988B8F878F8598899C8B8B8B8B899C897F
:101D80000197F1F79C8B8B8B99818D81981741F48A
:101D90009A818E81981721F489818150898307C0A7
:101DA0008A818F5F8A838A81853108F469CF89812E
:101DB0008F5F898399818D81981709F05ECF9A8111
:101DC0008E81981709F059CF61E088E890E00E9471
:101DD0001406000064960FB6F894DEBF0FBECDBFA8
:101DE000DF91CF910895CF93DF93CDB7DEB72E97D4
:101DF0000FB6F894DEBF0FBECDBF61E088E890E07B
:101E00000E94140680E090E0A0E4B0E489839A8305
:101E1000AB83BC8320E030E04AEF54E469817A81EF
:101E20008B819C810E941711DC01CB018D839E83E5
:101E3000AF83B88720E030E040E85FE36D817E81CA
:101E40008F8198850E94F70F88232CF481E090E021
:101E50009A8789873FC020E03FEF4FE757E46D81C5
:101E60007E818F8198850E94121118164CF520E012
:101E700030E040E251E469817A818B819C810E944B
:101E80001711DC01CB01BC01CD010E946E10DC01F9
:101E9000CB019A8789870FC088EC90E09C878B875D
:101EA0008B859C850197F1F79C878B8789859A851F
:101EB00001979A87898789859A85892B69F714C044
:101EC0006D817E818F8198850E946E10DC01CB012F
:101ED0009A87898789859A859E878D878D859E8536
:101EE0000197F1F79E878D8745E062E088E890E0F2
:101EF0000E942A0766EB70E088E890E00E949C0749
:101F000000002E960FB6F894DEBF0FBECDBFDF9156
:101F1000CF9108955058BB27AA270E94A20F0C9476
:101F2000D8100E94CA1038F00E94D11020F039F465
:101F30009F3F19F426F40C94C7100EF4E095E7FBCC
:101F40000C94C110E92F0E94E91058F3BA176207E8
:101F500073078407950720F079F4A6F50C940B110C
:101F60000EF4E0950B2EBA2FA02D0B01B9019001B4
:101F70000C01CA01A0011124FF27591B99F0593FF8
:101F800050F4503E68F11A16F040A22F232F342F40
:101F90004427585FF3CF469537952795A795F0408E
:101FA0005395C9F77EF41F16BA0B620B730B840BA3
:101FB000BAF09150A1F0FF0FBB1F661F771F881F5B
:101FC000C2F70EC0BA0F621F731F841F48F48795B3
:101FD00077956795B795F7959E3F08F0B0CF9395A5
:101FE000880F08F09927EE0F9795879508950E941E
:101FF0009D1008F481E008950E9410100C94D810F0
:102000000E94D11058F00E94CA1040F029F45F3F9E
:1020100029F00C94C11051110C940C110C94C710A0
:102020000E94E91068F39923B1F3552391F3951BAE
:10203000550BBB27AA2762177307840738F09F5FE9
:102040005F4F220F331F441FAA1FA9F335D00E2E56
:102050003AF0E0E832D091505040E695001CCAF7C3
:102060002BD0FE2F29D0660F771F881FBB1F261786
:1020700037074807AB07B0E809F0BB0B802DBF015D
:10208000FF2793585F4F3AF09E3F510578F00C942C
:10209000C1100C940C115F3FE4F3983ED4F3869585
:1020A00077956795B795F7959F5FC9F7880F911D4D
:1020B0009695879597F90895E1E0660F771F881F39
:1020C000BB1F621773078407BA0720F0621B730BEC
:1020D000840BBA0BEE1F88F7E09508950E94F1106B
:1020E00088F09F5798F0B92F9927B751B0F0E1F0D9
:1020F000660F771F881F991F1AF0BA95C9F714C089
:10210000B13091F00E940B11B1E008950C940B11C5
:10211000672F782F8827B85F39F0B93FCCF38695C1
:1021200077956795B395D9F73EF49095809570951E
:1021300061957F4F8F4F9F4F0895990F0008550F5E
:10214000AA0BE0E8FEEF16161706E807F907C0F03D
:1021500012161306E407F50798F0621B730B840B45
:10216000950B39F40A2661F0232B242B252B21F41F
:1021700008950A2609F4A140A6958FEF811D811DBF
:10218000089597F99F6780E870E060E008959FEFF9
:1021900080EC089500240A941616170618060906FE
:1021A000089500240A9412161306140605060895CD
:1021B000092E0394000C11F4882352F0BB0F40F455
:1021C000BF2B11F460FF04C06F5F7F4F8F4F9F4F95
:1021D000089557FD9058440F551F59F05F3F71F017
:1021E0004795880F97FB991F61F09F3F79F087957E
:1021F0000895121613061406551FF2CF4695F1DF07
:1022000008C0161617061806991FF1CF8695710596
:10221000610508940895E894BB2766277727CB01CA
:1022200097F908950E949D1008F48FEF08950E9479
:102230002A110C94D8100E94CA1038F00E94D110B4
:1022400020F0952311F00C94C1100C94C7101124A8
:102250000C940C110E94E91070F3959FC1F3950F37
:1022600050E0551F629FF001729FBB27F00DB11D1A
:10227000639FAA27F00DB11DAA1F649F6627B00DAA
:10228000A11D661F829F2227B00DA11D621F739F93
:10229000B00DA11D621F839FA00D611D221F749FA1
:1022A0003327A00D611D231F849F600D211D822FE8
:1022B000762F6A2F11249F5750409AF0F1F088230F
:1022C0004AF0EE0FFF1FBB1F661F771F881F91503C
:1022D0005040A9F79E3F510580F00C94C1100C941A
:1022E0000C115F3FE4F3983ED4F38695779567959C
:1022F000B795F795E7959F5FC1F7FE2B880F911D66
:102300009695879597F90895AEE0B0E0EAE8F1E197
:102310000C9445140D891E8986E08C831A830983E9
:102320008FEF9FE79E838D83AE01475E5F4F6F897E
:10233000788DCE0101960E94A611EF81F885E00FFD
:10234000F11F10822E96E4E00C946114ABE0B0E033
:10235000ECEAF1E10C9437146C017B018A01FC0179
:1023600017821682838181FFCCC1CE0101963C0188
:10237000F6019381F70193FD859193FF81917F0190
:10238000882309F4BAC1853239F493FD859193FF0E
:1023900081917F01853229F4B60190E00E949D135E
:1023A000E7CF912C212C312CFFE1F315D8F08B32A3
:1023B00079F038F4803279F08332A1F4232D206152
:1023C0001DC08D3261F0803369F4232D216016C069
:1023D000832D8260382EE32DE4603E2E2AC0F32D3B
:1023E000F8601DC037FC2DC020ED280F2A3040F0CA
:1023F0008E32B9F436FC81C1232D2064322E19C0EF
:1024000036FE06C08AE0989E200D1124922E11C03F
:10241000EAE02E9E200D1124222EF32DF0623F2E95
:1024200008C08C3621F4832D8068382E02C088368F
:1024300041F4F70193FD859193FF81917F01811113
:10244000B3CF982F9F7D9554933028F40C5F1F4F86
:102450009FE399830DC0833631F0833771F0833564
:1024600009F059C021C0F801808189830E5F1F4F98
:1024700088248394912C530113C02801F2E04F0E5D
:10248000511CF801A080B18036FE03C0692D70E0B8
:1024900002C06FEF7FEFC5010E9492134C018201D1
:1024A000F32DFF773F2E16C0280122E0420E511C6B
:1024B000F801A080B18036FE03C0692D70E002C033
:1024C0006FEF7FEFC5010E9487134C01F32DF06879
:1024D0003F2E820133FC1BC0822D90E088169906A6
:1024E000B0F4B60180E290E00E949D132A94F4CFEC
:1024F000F50137FC859137FE81915F01B60190E0CF
:102500000E949D1321102A9421E0821A91088114BF
:10251000910471F7E8C0843611F0893641F5F8016D
:1025200037FE07C060817181828193810C5F1F4FEC
:1025300008C060817181072E000C880B990B0E5F1B
:102540001F4FF32DFF763F2E97FF09C09095809582
:10255000709561957F4F8F4F9F4FF0683F2E2AE017
:1025600030E0A3010E94D913882E861845C0853714
:1025700031F4232D2F7EB22E2AE030E025C0932D9A
:10258000997FB92E8F36C1F018F4883579F0B5C02F
:10259000803719F0883721F0B0C0E92FE061BE2EF6
:1025A000B4FE0DC0FB2DF460BF2E09C034FE0AC07E
:1025B000292F2660B22E06C028E030E005C020E1B9
:1025C00030E002C020E132E0F801B7FE07C06081D0
:1025D0007181828193810C5F1F4F06C06081718180
:1025E00080E090E00E5F1F4FA3010E94D913882E58
:1025F0008618FB2DFF773F2E36FE0DC0232D2E7F34
:10260000A22E891458F434FE0BC032FC09C0832D6D
:102610008E7EA82E05C0B82CA32C03C0B82C01C0F8
:10262000B92CA4FE0FC0FE01E80DF11D808180339E
:1026300021F49A2D997EA92E09C0A2FE06C0B3945A
:10264000B39404C08A2D867809F0B394A3FC11C01A
:10265000A0FE06C0B21488F4280C922C9B180EC061
:10266000B21460F4B60180E290E00E949D13B3942E
:10267000F7CFB21418F42B1802C0982C212CA4FE0A
:1026800010C0B60180E390E00E949D13A2FE17C027
:10269000A1FC03C088E790E002C088E590E0B601A5
:1026A0000CC08A2D867859F0A1FE02C08BE201C0D1
:1026B00080E2A7FC8DE2B60190E00E949D13891490
:1026C00038F4B60180E390E00E949D139A94F7CF0E
:1026D0008A94F301E80DF11D8081B60190E00E941B
:1026E0009D138110F5CF222009F442CEB60180E27D
:1026F00090E00E949D132A94F6CFF601868197817F
:1027000002C08FEF9FEF2B96E2E10C945314FC0173
:102710000590615070400110D8F7809590958E0F0C
:102720009F1F0895FC016150704001900110D8F77F
:10273000809590958E0F9F1F08950F931F93CF93B1
:10274000DF93FB01238121FD03C08FEF9FEF2CC09E
:1027500022FF16C0468157812481358142175307D5
:1027600044F4A081B1819D012F5F3F4F31832083CD
:102770008C93268137812F5F3F4F3783268314C088
:102780008B01EC01FB010084F185E02D0995892B7B
:10279000E1F6D80116968D919C91179701961796A0
:1027A0009C938E931697CE01DF91CF911F910F913D
:1027B0000895FA01AA27283051F1203181F1E894D7
:1027C0006F936E7F6E5F7F4F8F4F9F4FAF4FB1E024
:1027D0003ED0B4E03CD0670F781F891F9A1FA11D1F
:1027E000680F791F8A1F911DA11D6A0F711D811D20
:1027F000911DA11D20D009F468943F912AE0269FE5
:1028000011243019305D3193DEF6CF010895462F43
:102810004770405D4193B3E00FD0C9F7F6CF462F24
:102820004F70405D4A3318F0495D31FD405241938D
:1028300002D0A9F7EACFB4E0A6959795879577954A
:102840006795BA95C9F700976105710508959B01D1
:10285000AC010A2E06945795479537952795BA955A
:10286000C9F7620F731F841F951FA01D08952F9233
:102870003F924F925F926F927F928F929F92AF9210
:10288000BF92CF92DF92EF92FF920F931F93CF935D
:10289000DF93CDB7DEB7CA1BDB0B0FB6F894DEBFF4
:1028A0000FBECDBF09942A88398848885F846E841A
:1028B0007D848C849B84AA84B984C884DF80EE8064
:1028C000FD800C811B81AA81B981CE0FD11D0FB66D
:1028D000F894DEBF0FBECDBFED010895F894FFCF91
:1028E0003A003700340031003B0038003500320038
:1028F0003A003700340031003B0038003500320028
:10290000390036003300300008090A0C0302001FAA
:10291000151F041F040E1F0000000000001F000010
:102920000001020408100004040404040404042543
:102930006C75002566002047414D45204F56455295
:02294000000095
:00000001FF
