:100000000C9464000C9481000C9481000C94810089
:100010000C9481000C9481000C94FE040C94500507
:100020000C9427050C94CA040C9496060C94BF06F5
:100030000C9498070C947C030C94A7030C94530322
:100040000C9481000C9481000C9481000C9481002C
:100050000C9481006606940666069406940694063F
:100060006606940694067D0666067D069406680676
:100070006606680610138E12FB128E128E128E12F6
:1000800020124D129012BF12F012F512F8121E1229
:100090004A175C173D175C175C175C175D168A16CC
:1000A000CC16FB162C1731175B16661A891AA71A7D
:1000B000C51AED1AF01A1B1B6E1B911BAF1BCD1B33
:1000C000F51BF81BFB1B1D1C11241FBECFE5D8E040
:1000D000DEBFCDBF16E0A0E6B0E0E0E0F6E402C08F
:1000E00005900D92AE3BB107D9F726E0AEEBB6E036
:1000F00001C01D92A63EB207E1F70E94AD1C0C9410
:10010000FE220C94000041155105B1F09F938F938E
:100110007F936F9380E193E09F938F935F934F93CF
:100120000E9414208DB79EB708960FB6F8949EBF14
:100130000FBE8DBF80E0089581E008958F929F9259
:10014000AF92BF92CF92DF92EF92FF920F931F93E5
:10015000CF93DF9300D0CDB7DEB76B017C018A016E
:100160001A821982452B09F440C020E030E0A90131
:100170000E94481E87FF06C0F7FAF094F7F8F09443
:100180008DE28983C701B6010E94BF1EB62EA72E3D
:10019000982E892E0E94F71E9B01AC01C701B60163
:1001A0000E94DB1D20E030E44CE156E40E94A71FD2
:1001B0000E94BF1E9F938F937F936F938F929F9206
:1001C000AF92BF92CE0101969F938F9384E193E00B
:1001D0009F938F931F930F930E9414200FB6F89450
:1001E000DEBF0FBECDBF80E001C081E00F900F9059
:1001F000DF91CF911F910F91FF90EF90DF90CF9003
:10020000BF90AF909F908F9008956F927F928F9242
:100210009F92AF92BF92CF92DF92EF92FF920F9395
:100220001F93CF93DF9361157105B1F10097A1F191
:100230004B01EC0120E030E040E050E060E070E095
:1002400080E090E0712CF401E70DF11D60806620E4
:1002500001F1EAE0AE2EB12CC12CD12CE12CF12C15
:1002600000E010E00E945F1D59016A017B018C01D2
:10027000462D50E040535109952F990F990B9A0143
:10028000492F592F692F792F892F0E94B81D7394F8
:10029000DACF288380E001C081E0DF91CF911F9108
:1002A0000F91FF90EF90DF90CF90BF90AF909F9015
:1002B0008F907F906F9008956F927F928F929F9210
:1002C000AF92BF92CF92DF92EF92FF920F931F9364
:1002D000CF93DF9361157105C1F10097B1F1EB0187
:1002E0004C0120E030E040E050E060E070E080E071
:1002F00090E0712CFE01E70DF11D6080662001F198
:10030000EAE0AE2EB12CC12CD12CE12CF12C00E076
:1003100010E00E945F1D59016A017B018C01462D8E
:1003200050E040535109952F990F990B9A01492F8D
:10033000592F692F792F892F0E94B81D7394DACF16
:10034000F4012083318380E001C081E0DF91CF910F
:100350001F910F91FF90EF90DF90CF90BF90AF90E3
:100360009F908F907F906F9008956F927F928F9261
:100370009F92AF92BF92CF92DF92EF92FF920F9334
:100380001F93CF93DF9361157105D1F10097C1F1F0
:10039000EB014C0120E030E040E050E060E070E034
:1003A00080E090E0712CFE01E70DF11D6080662079
:1003B00001F1EAE0AE2EB12CC12CD12CE12CF12CB4
:1003C00000E010E00E945F1D59016A017B018C0171
:1003D000462D50E040535109952F990F990B9A01E2
:1003E000492F592F692F792F892F0E94B81D739497
:1003F000DACFF401208331834283538380E001C04C
:1004000081E0DF91CF911F910F91FF90EF90DF90EE
:10041000CF90BF90AF909F908F907F906F900895F6
:100420006F927F928F929F92AF92BF92CF92DF9204
:10043000EF92FF920F931F93CF93DF936115710596
:10044000E9F10097D9F14B01EC0120E030E040E008
:1004500050E060E070E080E090E0712CF401E70D86
:10046000F11D6080662001F1EAE0AE2EB12CC12CB6
:10047000D12CE12CF12C00E010E00E945F1D59010D
:100480006A017B018C01462D50E040535109952FA4
:10049000990F990B9A01492F592F692F792F892F7D
:1004A0000E94B81D7394DACF288339834A835B8313
:1004B0006C837D838E839F8380E001C081E0DF9128
:1004C000CF911F910F91FF90EF90DF90CF90BF9051
:1004D000AF909F908F907F906F90089561157105F8
:1004E00061F0982F92959F708F702AE0929F800DF7
:1004F0001124FB01808380E0089581E00895CF936B
:10050000DF934115510569F0EA0120E030E048EC45
:1005100052E40E94A71F0E94C61E7983688380E070
:1005200001C081E0DF91CF910895FC01892B09F48E
:100530004BC0549A539A80B5806880BD90B5808135
:10054000880F8670997F892B80BD8AB190819470C5
:100550008B7F892B8AB920B5938130E1939FC001AD
:100560001124922F9F7C892B80BD20B5928138E089
:10057000939FC0011124922F977F892B80BD20B5B6
:10058000928138E0939FC0011124922F977F892B8D
:1005900080BD818181111AC06481758186819781B6
:1005A0000E94F51E9B01AC0160E074E284E799E4CF
:1005B0000E944D1E20E030E040E85FE30E94DB1D1A
:1005C0000E94C61E69B902C082E0089581E00895C4
:1005D000892B29F05D9BFECF6CB981E0089582E004
:1005E0000895892B61F06115710549F05F9BFECF7D
:1005F0008CB190E0FB019183808381E0089582E0DB
:100600000895EF92FF921F93CF93DF930097A1F08D
:100610006115710589F0EB017C0110E081E0FE01BC
:10062000E10FF11D9081992341F01F5F692F70E068
:10063000C7010E94E802F3CF82E0DF91CF911F91C2
:10064000FF90EF900895579A81E00895579881E0C0
:100650000895009731F09093C3068093C20681E01D
:10066000089582E00895569A81E00895569881E0B1
:100670000895009731F09093C1068093C00681E001
:10068000089582E00895559A81E00895559881E093
:100690000895009731F09093BF068093BE0681E0E5
:1006A000089582E008951F920F920FB60F921124C1
:1006B0002F933F934F935F936F937F938F939F936A
:1006C000AF93BF93EF93FF93E091C006F091C10603
:1006D000309709F00995FF91EF91BF91AF919F91EC
:1006E0008F917F916F915F914F913F912F910F90DB
:1006F0000FBE0F901F9018951F920F920FB60F927A
:1007000011242F933F934F935F936F937F938F9316
:100710009F93AF93BF93EF93FF938CB190E0E091E1
:10072000C206F091C306309709F00995FF91EF9149
:10073000BF91AF919F918F917F916F915F914F91F9
:100740003F912F910F900FBE0F901F9018951F9201
:100750000F920FB60F9211242F933F934F935F93F5
:100760006F937F938F939F93AF93BF93EF93FF9379
:10077000E091BE06F091BF06309709F00995FF9110
:10078000EF91BF91AF919F918F917F916F915F9109
:100790004F913F912F910F900FBE0F901F90189582
:1007A000892B29F08EB5887F8EBD80E0089582E088
:1007B000089589B7846089BF80E0089589B78B7FE9
:1007C00089BF80E0089589B7886089BF80E0089577
:1007D00089B7877F89BF80E0089589B7806189BF25
:1007E00080E0089589B78F7E89BF80E0089589B73A
:1007F000806289BF80E0089589B78F7D89BF80E0DE
:100800000895009731F09093CD068093CC0680E058
:10081000089582E00895009731F09093CB0680937D
:10082000CA0680E0089582E00895009731F0909321
:10083000C9068093C80680E0089582E00895009775
:1008400031F09093C7068093C60680E0089582E059
:1008500008959DBD8F708CBD80E00895CF93DF9388
:10086000009789F1EC018EB5887F8EBD8FB58C7FA6
:100870009981892B8FBD8EB59981990F877E892BA0
:100880008EBD2FB59A8130E4939FC0011124922F21
:100890009F73892B8FBD2FB59B8130E1939FC00142
:1008A0001124922F9F7C892B8FBD8C819D819093E9
:1008B000C5068093C4060E9429049EB5987F2881AE
:1008C000922B9EBD01C082E0DF91CF9108959BBD28
:1008D0008F708ABD80E0089599BD88BD80E008953D
:1008E00097BD86BD80E00895009759F02CB530E0A3
:1008F000FC01318320834DB5342B3183208380E08C
:10090000089582E00895009759F02AB530E0FC017F
:10091000318320834BB5342B3183208380E00895CD
:1009200082E00895009759F028B530E0FC0131834A
:10093000208349B5342B3183208380E0089582E001
:100940000895009759F026B530E0FC0131832083EB
:1009500047B5342B3183208380E0089582E00895E9
:100960008FB588608FBD80E008958FB584608FBD9E
:1009700080E008958EB580648EBD80E008958EB5C8
:100980008F7B8EBD80E008959EB580E489278EBD63
:1009900080E008951F920F920FB60F9211242F93AB
:1009A0003F934F935F936F937F938F939F93AF93F7
:1009B000BF93CF93DF93EF93FF93C091CC06D09179
:1009C000CD06209741F08091C4069091C5060E9403
:1009D0002904FE010995FF91EF91DF91CF91BF911D
:1009E000AF919F918F917F916F915F914F913F91C7
:1009F0002F910F900FBE0F901F9018951F920F927E
:100A00000FB60F9211242F933F934F935F936F93E1
:100A10007F938F939F93AF93BF93EF93FF93E09157
:100A2000C606F091C706309709F00995FF91EF913E
:100A3000BF91AF919F918F917F916F915F914F91F6
:100A40003F912F910F900FBE0F901F9018951F92FE
:100A50000F920FB60F9211242F933F934F935F93F2
:100A60006F937F938F939F93AF93BF93EF93FF9376
:100A7000E091C806F091C906309709F00995FF91F9
:100A8000EF91BF91AF919F918F917F916F915F9106
:100A90004F913F912F910F900FBE0F901F9018957F
:100AA0001F920F920FB60F9211242F933F934F93E3
:100AB0005F936F937F938F939F93AF93BF93EF93C6
:100AC000FF93E091CA06F091CB06309709F00995A3
:100AD000FF91EF91BF91AF919F918F917F916F9116
:100AE0005F914F913F912F910F900FBE0F901F90EC
:100AF0001895892B29F083B7887F83BF81E00895FB
:100B000082E00895009761F0FC018181811103C0AA
:100B100089B7816002C089B7826089BF81E008958A
:100B200082E00895009761F0FC018181811103C08A
:100B300089B78E7F02C089B78D7F89BF81E0089514
:100B400082E00895009749F0FC018181811102C083
:100B500062BF01C06CBF81E0089582E00895CF9329
:100B6000DF93009709F447C0EC0183B7887F83BF08
:100B700083B79981E92FE170F0E096E0EE0FFF1F57
:100B80009A95E1F78F7BE82BE3BF83B7998191FBBF
:100B9000662760F970E023E0660F771F2A95E1F77A
:100BA000877F682B63BF83B7998192FB442740F905
:100BB00050E034E0440F551F3A95E1F78F7E482B03
:100BC00043BF83B7998193FB222720F930E045E0AA
:100BD000220F331F4A95E1F78F7D282B23BF6A81AF
:100BE0006093CE06CE010E94A20593B7987F28811C
:100BF000922B93BF01C082E0DF91CF910895892BA2
:100C000039F082B790E0FB019183808381E0089501
:100C100082E00895892B11F482E0089581E008951F
:100C2000009779F0FC018181811105C07093D20693
:100C30006093D10604C07093D0066093CF0681E024
:100C4000089582E0089589B7816089BF81E00895A1
:100C500089B7826089BF81E00895009731F0909351
:100C6000D2068093D10681E0089582E0089500972E
:100C700031F09093D0068093CF0681E0089582E012
:100C8000089589B78E7F89BF81E0089589B78D7FE8
:100C900089BF81E00895892B29F083B7806883BFDD
:100CA00081E0089582E008950097E1F1653608F04B
:100CB00064E6DC011196EC918E2F90E08031910575
:100CC00098F5FC01E65DFF4F0C94511D80E00895FE
:100CD00070E080E090E00E94F51E20E030E048ECFB
:100CE00052E40E944D1E20E030E04FE753E40E94A2
:100CF000A71F0E94C61E609513C070E080E090E0C0
:100D00000E94F51E20E030E048EC52E40E944D1EA7
:100D100020E030E04FE753E40E94A71F0E94C61E68
:100D20006CBF02C082E0089581E008951F920F9287
:100D30000FB60F9211242F933F934F935F936F93AE
:100D40007F938F939F93AF93BF93EF93FF93E09124
:100D5000CF06F091D006309709F00995FF91EF91F9
:100D6000BF91AF919F918F917F916F915F914F91C3
:100D70003F912F910F900FBE0F901F9018951F92CB
:100D80000F920FB60F9211242F933F934F935F93BF
:100D90006F937F938F939F93AF93BF93EF93FF9343
:100DA0008091D1069091D206892B41F08091CE0698
:100DB00082BFE091D106F091D2060995FF91EF91A3
:100DC000BF91AF919F918F917F916F915F914F9163
:100DD0003F912F910F900FBE0F901F901895FC011F
:100DE000892BC9F16E982DB1908130E1939FC0019C
:100DF0001124922F9F7E892B8DB92DB1918130E2E4
:100E0000939FC0011124922F9F7D892B8DB92DB105
:100E1000928138E0939FC0011124922F977F892BF4
:100E20008DB92DB1938134E0939FC0011124922F8D
:100E30009B7F892B8DB98DB1948193708C7F892B89
:100E40008DB98EB19481969596958E7F892B8EB9AA
:100E50006E9A81E0089582E008956E9881E0089589
:100E60006F9A81E008956F9881E00895009731F0BE
:100E70009093D5068093D40681E0089582E008958A
:100E80006E989DB19C7F282F2370922B9DB99EB1A7
:100E90009E7F86958695892B8EB96E9A81E00895FE
:100EA000FC01892B39F09EB196FB992790F990832C
:100EB00081E0089582E00895009741F06FB9779B33
:100EC000FECF2FB1FC01208381E0089582E00895D8
:100ED0000F931F93CF93DF934115510591F08A0132
:100EE000D62FC82F60E00E944009DFB9779BFECF64
:100EF0008FB1F801808361E08C2F0E94400981E06E
:100F000001C082E0DF91CF911F910F910895CF939F
:100F1000DF93C82FD62F60E00E944009C093D3060C
:100F2000DFB981E0DF91CF9108958FB981E0089515
:100F30001F920F920FB60F9211242F933F934F934E
:100F40005F936F937F938F939F93AF93BF93EF9331
:100F5000FF93E091D406F091D506309711F08FB150
:100F60000995FF91EF91BF91AF919F918F917F91E3
:100F70006F915F914F913F912F910F900FBE0F9006
:100F80001F9018958FEF8ABB8FEB87BB83EC84BBD8
:100F90008EE381BB1BBA80E188BB8CEF85BB8DE8FB
:100FA00082BB0895803200F5623000F5382F37702B
:100FB00086958695869590E0880F991FFC01E95DDE
:100FC000FC4F0190F081E02D208181E090E001C094
:100FD000880F3A95EAF7613011F4822B02C08095B0
:100FE0008223808380E0089582E0089581E008955F
:100FF000803208F046C0643008F045C0482F477082
:1010000086958695869590E0880F991FFC01E95D8D
:10101000FC4F0190F081E02D508121E030E001C0D3
:10102000220F4A95EAF7623081F06330D9F0352F0C
:10103000322B3083FC01E15EFC4F0190F081E02D0A
:1010400080816130D1F420950BC02095352F32235B
:101050003083FC01E15EFC4F0190F081E02D808146
:1010600028230CC0322F309535233083FC01E15EFC
:10107000FC4F0190F081E02D8081282B208380E0BF
:10108000089582E0089581E008958F929F92AF9233
:10109000BF92CF92DF92EF92FF92CF93DF93EC015A
:1010A000892B09F441C086B78B7F86BF8C8181B9BB
:1010B00088809980AA80BB80A0EFBFEFA501940132
:1010C0000E945A1D6B017C0124E2D20E24EFE21E25
:1010D000F11C8C8190E0880F991F0196A1E0B0E08F
:1010E00002C0AA0FBB1F8A95E2F7A50194010E94D6
:1010F000571D9B01AC01C701B6010E942F1D20B9ED
:101100008D819E818F3F2FEF920731F022B12170A8
:10111000880F991F822B82B986B7846086BF86B7F5
:10112000806886BF81E001C084E0DF91CF91FF90AD
:10113000EF90DF90CF90BF90AF909F908F900895E9
:10114000892B29F086B78B7F86BF81E0089584E0E4
:10115000089586B7816086BF81E0089586B78E7F47
:1011600086BF81E00895892B11F081E0089584E025
:101170000895FC01892B39F096B793FB992790F9D4
:10118000908381E0089584E0089584E886BF84E92F
:1011900086BF81E0089584EA86BF06B607FEFDCFCC
:1011A00081E008950C94CB08672B51F0880F816083
:1011B00083B984E886BF06B607FEFDCF81E00895B7
:1011C00084E00895672B49F0880F83B984E886BFCF
:1011D00006B607FEFDCF81E0089584E00895FC0186
:1011E000962F309791F084E886BF06B607FEFDCFB4
:1011F00083B1808366B7862F8F7B20E4929FB001F6
:101200001124682B66BF81E0089584E00895672B60
:1012100041F083B984E886BF06B607FEFDCF81E0C2
:10122000089584E008950C940709009751F024E88C
:1012300026BF06B607FEFDCF23B1FC01208381E067
:10124000089584E008958FB780688FBF80E0089587
:101250008FB78F778FBF80E008959FB780FB97F996
:101260009FBF80E008956115710541F08FB7881F19
:101270008827881FFB01808380E0089582E008951D
:10128000803288F5282F26952695269530E0220F66
:10129000331FF901E15CFC4F0190F081E02D4081AA
:1012A000877050E0082E02C0559547950A94E2F7E2
:1012B00040FF1BC0F901E95CFC4F0190F081E02D7B
:1012C000208141E050E0082E01C0440F0A94EAF763
:1012D000942F9095922301C0660F8A95EAF7692BA7
:1012E000608380E0089582E0089581E0089580326F
:1012F00080F5282F26952695269530E0220F331F5E
:10130000F901E15CFC4F0190F081E02D9081482FC4
:101310004770892F90E0042E02C0959587950A9416
:10132000E2F780FD18C061157105B9F0F901E15DC2
:10133000FC4F0190F081E02D9081892F90E002C058
:10134000959587954A95E2F78170FB01808380E04F
:10135000089582E0089581E0089584E0089584303E
:10136000A8F490E0880F991FFC01E15CFC4F01900C
:10137000F081E02D20812F3F59F4FC01E95CFC4F06
:101380000190F081E02D608380E0089583E008956E
:1013900081E008958430D0F490E0880F991FFC011B
:1013A000E15CFC4F0190F081E02D2081211110C003
:1013B0006115710579F0FC01E15DFC4F0190F08150
:1013C000E02D8081FB01808380E0089583E0089513
:1013D00081E0089584E00895803260F5282F2695F5
:1013E0002695269530E0220F331FF901E15CFC4F72
:1013F0000190F081E02D4081877050E0082E02C0FE
:10140000559547950A94E2F740FF16C0F901E95C4B
:10141000FC4F0190F081E02D408121E030E0B901E6
:1014200002C0660F771F8A95E2F7CB01842780837D
:1014300080E0089582E0089581E0089587E790E0D4
:101440000E942E0487E391E00E94700480E090E007
:101450000E946C0480E00895853B08F084EB99E1DC
:10146000899FB0011124072E000C880B990B0E9454
:10147000F71E20E030E040E953E40E944D1E20E0DA
:1014800030E04AE751E40E94DC1D0E94C61ECB01F9
:101490000E946C0480E008950F931F93CF93DF9315
:1014A00000D0CDB7DEB7009751F18C010E94D20871
:1014B000BE016E5F7F4F88E60E94E208BE016E5F4C
:1014C0007F4F80E00E9413090E94D208BE016E5F28
:1014D0007F4F88E60E94D40860E0CE0101960E940A
:1014E000EF080E94C508B80189810E946E028FE949
:1014F0009FE00197F1F700C0000080E001C081E0AB
:101500000F900F90DF91CF911F910F9108950F933E
:101510001F93CF93DF9300D0CDB7DEB7009751F183
:101520008C010E94D208BE016E5F7F4F88E60E9448
:10153000E208BE016E5F7F4F81E00E9413090E94A6
:10154000D208BE016E5F7F4F88E60E94D40860E03B
:10155000CE0101960E94EF080E94C508B80189815A
:101560000E946E028FE99FE00197F1F700C0000032
:1015700080E001C081E00F900F90DF91CF911F912B
:101580000F9108950F931F93CF93DF9300D0CDB7A2
:10159000DEB7009751F18C010E94D208BE016E5F48
:1015A0007F4F88E60E94E208BE016E5F7F4F82E0B7
:1015B0000E9413090E94D208BE016E5F7F4F88E629
:1015C0000E94D40860E0CE0101960E94EF080E94BC
:1015D000C508B80189810E946E028FE99FE00197DA
:1015E000F1F700C0000080E001C081E00F900F9093
:1015F000DF91CF911F910F9108950F931F93CF9378
:10160000DF9300D0CDB7DEB7009751F18C010E9477
:10161000D208BE016E5F7F4F88E60E94E208BE01DD
:101620006E5F7F4F84E00E9413090E94D208BE01C2
:101630006E5F7F4F88E60E94D40860E0CE0101967D
:101640000E94EF080E94C508B80189810E946E02BD
:101650008FE99FE00197F1F700C0000080E001C032
:1016600081E00F900F90DF91CF911F910F9108951E
:101670000F931F93CF93DF9300D0CDB7DEB70097C2
:1016800051F18C010E94D208BE016E5F7F4F88E647
:101690000E94E208BE016E5F7F4F85E00E94130941
:1016A0000E94D208BE016E5F7F4F88E60E94D40878
:1016B00060E0CE0101960E94EF080E94C508B801C3
:1016C00089810E946E028FE99FE00197F1F700C0C7
:1016D000000080E001C081E00F900F90DF91CF917A
:1016E0001F910F9108950F931F93CF93DF9300D015
:1016F000CDB7DEB7009751F18C010E94D208BE0130
:101700006E5F7F4F88E60E94E208BE016E5F7F4FEA
:1017100086E00E9413090E94D208BE016E5F7F4FCF
:1017200088E60E94D40860E0CE0101960E94EF088E
:101730000E94C508B80189810E946E028FE99FE06E
:101740000197F1F700C0000080E001C081E00F9038
:101750000F90DF91CF911F910F910895EF92FF921B
:101760000F931F93CF93DF930097C1F0EC01E12C0F
:10177000F12C062F10E0B8010E2C02C0759567956C
:101780000A94E2F7617089910E9440099FEFE91A7B
:10179000F90A94E0E916F10471F701C082E0DF91E3
:1017A000CF911F910F91FF90EF900895CF93DF930A
:1017B000009779F0EC0161E08D810E9440098AE197
:1017C0008A95F1F700C060E08D81DF91CF910C9494
:1017D000400982E0DF91CF9108951F93CF93DF936B
:1017E0000097C9F0162FEC0160E08C810E9440093F
:1017F000612F62956F70CE010E94AE0BCE010E94E8
:10180000D60B612FCE010E94AE0BCE01DF91CF919E
:101810001F910C94D60B82E0DF91CF911F91089518
:10182000CF93DF930097D9F1EC0168E30E94ED0BB1
:101830008FE19EE40197F1F700C0000068E3CE015C
:101840000E94ED0BE7E5F2E03197F1F700C00000F0
:1018500068E3CE010E94ED0B61E0CE010E94ED0B2A
:1018600062E0CE010E94ED0B66E0CE010E94ED0B1E
:101870006CE0CE010E94ED0B68E2CE010E94ED0B00
:1018800060E8CE010E94ED0B61E0CE010E94ED0BFD
:10189000EFE1FEE43197F1F700C0000001C082E003
:1018A000DF91CF9108951F93CF93DF930097C9F0F5
:1018B000162FEC0161E08C810E944009612F629536
:1018C0006F70CE010E94AE0BCE010E94D60B612F2D
:1018D000CE010E94AE0BCE01DF91CF911F910C94EF
:1018E000D60B82E0DF91CF911F910895EF92FF9286
:1018F0000F931F93CF93DF93009719F16115710533
:1019000001F1483000F5EB018C01642F660F660F82
:10191000660F605C0E94ED0B7E0188E0E80EF11C12
:101920006991C8010E94530CCE15DF05C9F760E824
:10193000C801DF91CF911F910F91FF90EF900C9410
:10194000ED0B82E001C083E0DF91CF911F910F91F9
:10195000FF90EF9008950097C1F06530C0F44531D5
:10196000C0F4623059F020F46130A9F46FE709C087
:10197000633031F0643079F463ED03C06FEB01C084
:1019800063E9640F0E94ED0B06C082E0089585E0D4
:10199000089584E0089580E008951F93CF93DF9326
:1019A000162F642F0097D9F0422FEC010E94AB0C48
:1019B00061E08C810E944009612F62956F70CE01B9
:1019C0000E94AE0BCE010E94D60B612FCE010E9469
:1019D000AE0BCE01DF91CF911F910C94D60B82E01C
:1019E000DF91CF911F910895FF920F931F93CF9393
:1019F000DF93EC01942F2097A9F06115710591F008
:101A0000422F8B01692FCE010E94AB0CF12CF80103
:101A1000EF0DF11D6081662331F0CE010E94530C61
:101A2000F394F5CF82E0DF91CF911F910F91FF905A
:101A30000895EF92FF921F93CF93DF93009791F059
:101A40006115710579F07B01EC0110E080E0F70190
:101A5000E10FF11D6081662331F0CE010E94530C2D
:101A60001F5FF5CF82E0DF91CF911F91FF90EF9044
:101A700008950F931F93CF93DF93CDB7DEB7C4566E
:101A8000D1090FB6F894DEBF0FBECDBF9C01892BE4
:101A900079F0CB01BA018901AE014F5F5F4F0E941F
:101AA0008300BE016F5F7F4FC8010E94190D01C006
:101AB00082E0CC59DF4F0FB6F894DEBF0FBECDBF2A
:101AC000DF91CF911F910F910895EF92FF920F93A5
:101AD0001F93CF93DF93CDB7DEB7C456D1090FB6AE
:101AE000F894DEBF0FBECDBFFC01892BA9F0122FE9
:101AF000CB01BA017F01AE014F5F5F4F0E948300AF
:101B0000402F612FC7010E94AB0CBE016F5F7F4F5A
:101B1000C7010E94190D01C082E0CC59DF4F0FB6FA
:101B2000F894DEBF0FBECDBFDF91CF911F910F9113
:101B3000FF90EF9008950F931F93CF93DF93CDB74E
:101B4000DEB7C456D1090FB6F894DEBF0FBECDBFC5
:101B50009C01892B79F0CB01BA018901AE014F5F5D
:101B60005F4F0E949E00BE016F5F7F4FC8010E94C1
:101B7000190D01C082E0CC59DF4F0FB6F894DEBFDB
:101B80000FBECDBFDF91CF911F910F9108952F927E
:101B90003F924F925F926F927F928F929F92AF92FD
:101BA000BF92CF92DF92EF92FF920F931F93CF934A
:101BB000DF9300D000D0CDB7DEB7FC0121852983AB
:101BC000009709F4BEC06115710509F4BDC01B0181
:101BD0008C018085882359F0813029F57F0184E0CC
:101BE000E80EF11C6F01E8E0CE0ED11C11C07F01A0
:101BF0006F01F4E0CF0ED11CF8016185F7018191EE
:101C00007F010E944009CE14DF04B1F7F3E00CC05D
:101C1000F8016185F70181917F010E944009EC1470
:101C2000FD04B1F7F3CFF1E0FA83F8018085882352
:101C300089F0813009F08BC0380184E0680E711C96
:101C400087E4C82E83E0D82E2801E8E04E0E511C10
:101C500073016EC0780197E4C92E93E0D92E580124
:101C6000F4E0AF0EB11C270161E0F801818581111C
:101C700060E0F70180810E9440093501812C912CA0
:101C8000BE016F5F7F4FF30181913F010E94770991
:101C9000F80191858981981739F0F601E80DF91D51
:101CA0008081F10180831A82FFEF8F1A9F0A84E0FE
:101CB0008816910429F7EFEFEE1AFE0AF801618504
:101CC000F20180810E944009F4E0CF0ED11CAE14D5
:101CD000BF0449F63EC0F70180810E9440095801C7
:101CE0004601BE016F5F7F4FF50181915F010E9448
:101CF0007709F80191858981981721F0F401808195
:101D0000F1018083F4E08F0E911CA614B70449F70B
:101D10008FEFE81AF80AF8016185EB81FC81808178
:101D20000E944009FFEFCF1ADF0AE414F50489F09E
:101D3000FC82EB8261E0F8018185882361F260E03A
:101D4000CACF82E08A8305C0E2E0EA8302C0F1E004
:101D5000FA838A810F900F900F900F90DF91CF91AF
:101D60001F910F91FF90EF90DF90CF90BF90AF90B9
:101D70009F908F907F906F905F904F903F902F90AB
:101D80000895FF920F931F93CF93DF931F92CDB7C8
:101D9000DEB7F82E062F142F0E94D208BE016F5F07
:101DA0007F4F8F2D0E94E208BE016F5F7F4F802F13
:101DB0000E941309BE016F5F7F4F812F0E9413099C
:101DC0000E94C50880E00F90DF91CF911F910F9185
:101DD000FF900895EF92FF920F931F93CF93DF939D
:101DE0001F92CDB7DEB7182F062F7A010E94D208B6
:101DF000BE016F5F7F4F812F0E94E208BE016F5FBF
:101E00007F4F802F0E9413090E94D208BE016F5F8E
:101E10007F4F812F0E94D4088FE99FE00197F1F74F
:101E200000C0000060E0C7010E94EF080E94C508E2
:101E30008FE99FE00197F1F700C0000080E00F906C
:101E4000DF91CF911F910F91FF90EF900895DF9256
:101E5000EF92FF920F931F93CF93DF931F92CDB713
:101E6000DEB7082F162FD42EE52EF22E0E94D208B0
:101E7000BE016F5F7F4F802F0E94E208BE016F5F3F
:101E80007F4F812F0E9413090D2D1E2DC8018F0D2C
:101E9000911D7C010E151F0549F0BE016F5F7F4F3C
:101EA000F80181918F010E941309F4CF0E94C508A7
:101EB0008FE99FE00197F1F700C0000080E00F90EC
:101EC000DF91CF911F910F91FF90EF90DF900895D8
:101ED0001092E10683E080930F031092E2060E94C5
:101EE00023030E94230661E08DE790E00E94ED0B42
:101EF0008FE79EE30197F1F700C0000027E041E083
:101F000067E573E08DE790E00E94F40C21E042E089
:101F100064E673E08DE790E00E94F40C21E043E07A
:101F200065E773E08DE790E00E94F40C65E873E0EC
:101F300080E690E00E94010365EA73E080E690E0AD
:101F40000E94010366EB73E080E690E00E940103CB
:101F50008091E10681111DC080910F03811108C09D
:101F60008091E5068133A1F08091E506823381F00E
:101F70008091E206813081F78091E306813321F080
:101F80008091E306823341F71092E20682E001C0BD
:101F900081E08093E10608951F93CF93DF9383E060
:101FA00080930F0361E08DE790E00E94ED0B8FE7D7
:101FB0009EE30197F1F700C0000067EC73E08DE746
:101FC00090E00E94190D81E08823F1F090910F03B9
:101FD0009111FACF8091E5068033A0F08091E5065B
:101FE0008A3380F44091E506C0EDC40F4C2F50E0D9
:101FF00060E070E08DE790E00E94390D83E080930F
:102000000F0302C081E0E2CF21E042E06AED73E01D
:102010008DE790E00E94F40C41E063E08DE790E0F2
:102020000E94AB0CD0E013E080910F03811118C027
:102030008091E5068033A0F08091E5068A3380F434
:102040008091E50680539AE0D99F800D1124D82F06
:102050006AE28DE790E00E94530C10930F03E4CFE7
:1020600080910F038111E0CF8091E5068D33E1F679
:102070004D2F6C2F80E50E94C10E61E08DE790E04E
:102080000E94ED0B2FEF89EF90E0215080409040AF
:10209000E1F700C0000023E042E06CE175E08DE76D
:1020A00090E00E94F40C4C2F50E060E070E08DE76F
:1020B00090E00E94390D6BEE73E08DE790E00E9496
:1020C000190D83E080930F032FEF8FE097E22150EB
:1020D00080409040E1F700C00000DF91CF911F9158
:1020E0000895EF92FF920F93CF93DF9300D000D02B
:1020F00000D0CDB7DEB71E821D821C821B821A82E1
:10210000198261E08DE790E00E94ED0B8FE79EE37E
:102110000197F1F700C0000021E043E069E975E0B4
:102120008DE790E00E94F40C9FEF21EE84E0915047
:1021300020408040E1F700C00000CE0103960E94DD
:10214000FD0A4B8150E060E070E08DE790E00E9476
:10215000390D6AE38DE790E00E94530C9FEF21EE6A
:1021600084E0915020408040E1F700C00000CE01A3
:1021700002960E94380B4A8150E060E070E08DE7E3
:1021800090E00E94390D6AE38DE790E00E94530CC5
:102190009FEF21EE84E0915020408040E1F700C0A5
:1021A0000000CE0101960E94730B498150E060E06F
:1021B00070E08DE790E00E94390D21E041E062EA95
:1021C00075E08DE790E00E94F40CCE0104960E9429
:1021D000C20A4C8150E060E070E00AE021E08DE747
:1021E00090E00E94650D2CE041E06AE38DE790E00D
:1021F0000E94CD0C9FEF21EE84E091502040804062
:10220000E1F700C00000CE0105960E94870A4D81CB
:1022100050E060E070E00DE021E08DE790E00E948A
:10222000650D2FE041E06AE38DE790E00E94CD0C60
:102230009FEF21EE84E0915020408040E1F700C004
:102240000000E12CF12CCE0106960E944C0A20E100
:1022500041E06EE975E08DE790E00E94F40C4E815C
:1022600050E060E070E000E121E08DE790E00E9446
:10227000650D9FEF29E688E1915020408040E1F70D
:1022800000C000009FEFE91AF90A25E0E216F10408
:10229000D1F626960FB6F894DEBF0FBECDBFDF9104
:1022A000CF910F91FF90EF900895CF9383E08093AB
:1022B0000F0361E08DE790E00E94ED0B8FE79EE356
:1022C0000197F1F700C0000067EC73E08DE790E044
:1022D0000E94190DC9E081E08823E9F090910F0375
:1022E0009111FACF8091E506803398F08091E50650
:1022F0008A3378F4C091E506C0534C2F50E060E07B
:1023000070E08DE790E00E94390D83E080930F0329
:1023100002C081E0E3CF61E08DE790E00E94ED0B29
:102320008FE79EE30197F1F700C0000023E042E051
:102330006CE175E08DE790E00E94F40C4C2F50E0CA
:1023400060E070E08DE790E00E94390D66EF73E089
:102350008DE790E00E94190D4FEF6C2F80E50E94F1
:10236000C10E9FEF2FE087E2915020408040E1F7BF
:1023700000C00000CF910895BF92CF92DF92EF92FC
:10238000FF920F931F93CF93DF931F92CDB7DEB7CA
:10239000198261E08DE790E00E94ED0B8FE79EE3EC
:1023A0000197F1F700C0000024E141E06FEF8DE7F5
:1023B00090E00E94CD0CE8EDCE2EE6E0DE2EF2E0BD
:1023C000EF2EF12C10E004E11F5FF60181916F0107
:1023D0009701281B3109029FB001039F700D112442
:1023E00066547E4F21E0412F8DE790E00E94F40C6F
:1023F00032E0E30EF11C143039F711E001E0FF2464
:10240000F39463E0D62EEE24E39474E1C72E1123F7
:1024100009F44DC180910F038111F9CFD0920F03C0
:10242000E091E5068E2F90E0FC01BB97EE30F105C0
:1024300008F074C0E65CFF4F0C94511D10E005C11C
:102440000E94410661E08DE790E00E94ED0B8FE76E
:102450009EE30197F1F700C000008091D80681113A
:102460000EC084EB0E942C0A24E042E063E074E09A
:102470008DE790E00E94F40CE092D80644C080E022
:102480000E942C0A24E042E060E174E08DE790E0D5
:102490000E94F40C1092D80636C00E94410661E0FA
:1024A0008DE790E00E94ED0B8FE79EE30197F1F737
:1024B00000C000009091D9068091E00691110EC0F5
:1024C00081608093E00624E042E06FE174E08DE7F4
:1024D00090E00E94F40CE092D9060DC08E7F8093AC
:1024E000E00624E042E06BE274E08DE790E00E94B9
:1024F000F40C1092D906AE014F5F5F4F6091E00679
:102500008CE00E9468079FEFE9E6F8E19150E04017
:10251000F040E1F700C000000E94230611E095C0E2
:102520000E94410661E08DE790E00E94ED0B8FE78D
:102530009EE30197F1F700C000009091DA068091C8
:10254000E00691110EC082608093E00624E042E034
:1025500068E374E08DE790E00E94F40CE092DA0604
:10256000CACF8D7F8093E00624E042E064E474E00B
:102570008DE790E00E94F40C1092DA06BCCF0E9426
:10258000410661E08DE790E00E94ED0B8FE79EE34E
:102590000197F1F700C000008091DB06811110C0A7
:1025A0008091E00684608093E00624E042E061E5EB
:1025B00074E08DE790E00E94F40CE092DB069BCF84
:1025C00024E042E06DE574E08DE790E00E94F40CB9
:1025D0001092DB068091E0068B7F8093E0068BCF24
:1025E0000E9441060E94711097CF0E94CC0F96CF97
:1025F0000E94551193CF8F2D90E0029714F0FA941A
:1026000002C0FF24F394802F90E002973CF0015029
:10261000033009F083CF11E002E017C001E07ECF64
:102620008F2D90E0049714F4F39402C054E0F52E3B
:10263000802F90E005973CF40F5F033009F06ECFD8
:1026400011E004E002C005E069CF61E08DE790E0B1
:102650000E94ED0B8FE79EE30197F1F700C00000A9
:1026600024E14F2D6FEF8DE790E00E94CD0CB12C4F
:10267000802F8B0DB39490E09C01220F331FFC013F
:10268000E952F94F8081F901E81BF109CE9EB001B2
:10269000CF9E700D112466547E4F21E04B2D8DE7A7
:1026A00090E00E94F40CF4E0BF12E2CFB0CE0F90A5
:1026B000DF91CF911F910F91FF90EF90DF90CF901E
:1026C000BF9008950F931F93CF93DF931F92CDB7C1
:1026D000DEB761E08DE790E00E94ED0B8FE79EE3AF
:1026E0000197F1F700C0000083E080930F03809111
:1026F0000E03813009F052C010920E0321E041E038
:102700006AE674E08DE790E00E94F40C41E062E03C
:102710008DE790E00E94AB0C81E010E003E088239D
:1027200009F4C6C090910F039111F9CF8091E5068D
:102730008D3379F08091E50680539AE0199F800DE2
:102740001124182F6AE28DE790E00E94530C81E07B
:1027500022C0412F60E080E50E94C10E61E08DE75C
:1027600090E00E94ED0B8FE79EE30197F1F700C028
:10277000000022E042E06DE774E08DE790E00E9407
:10278000F40C9FEF23ED80E3915020408040E1F76F
:1027900000C0000080E000930F03C1CF21E041E0C2
:1027A00061E974E08DE790E00E94F40CAE014F5FA8
:1027B0005F4F60E080E50E94EA0E81E090E003E078
:1027C000882309F475C020910F032111F9CF80915E
:1027D000E5068D3371F01091E50610532AE0929FC3
:1027E000100D11246AE28DE790E00E94530C81E005
:1027F0005BC0198161E019131FC08DE790E00E9452
:10280000ED0B8FE79EE30197F1F700C0000022E097
:1028100042E066EA74E08DE790E00E94F40C9FEFDE
:1028200029E688E1915020408040E1F700C0000097
:102830000E94BC1180E038C08DE790E00E94ED0B53
:102840008FE79EE30197F1F700C0000022E042E02D
:1028500068EB74E08DE790E00E94F40C26E044E021
:102860006CEC74E08DE790E00E94F40C9FEF29E699
:1028700088E1915020408040E1F700C0000061E015
:102880008DE790E00E94ED0B8FE79EE30197F1F753
:1028900000C0000021E041E061E974E08DE790E0D4
:1028A0000E94F40C81E010E000930F03912F88CF79
:1028B0000F90DF91CF911F910F9108950F931F9368
:1028C000CF93DF93182F062F61E08DE790E00E94F1
:1028D000ED0B2FEF89EF90E0215080409040E1F721
:1028E00000C0000021E042E06EE375E08DE790E07B
:1028F0000E94F40C41E063E08DE790E00E94AB0C95
:10290000C0E0D3E080910F03811118C08091E506EB
:102910008033A0F08091E5068A3380F48091E5064B
:1029200080532AE0C29F800D1124C82F6AE28DE7F0
:1029300090E00E94530CD0930F03E4CF80910F03DB
:102940008111E0CF8091E5068D33E1F661E08DE7FE
:1029500090E00E94ED0B8FEF99EF20E081509040C6
:102960002040E1F700C000000C17C1F124E042E074
:1029700064E575E08DE790E00E94F40C24E044E00B
:102980006AEC74E08DE790E00E94F40C8FEF9FE01A
:1029900027E2815090402040E1F700C0000061E054
:1029A0008DE790E00E94ED0B8FEF99EF20E08150D2
:1029B00090402040E1F700C0000021E042E06EE3DB
:1029C00075E08DE790E00E94F40C41E063E08DE754
:1029D00090E00E94AB0CC0E081E001C080E0D093A9
:1029E0000F0381118FCF21E042E061E775E08DE7B1
:1029F00090E00E94F40C41E063E08DE790E00E94DB
:102A0000AB0CC0E0D3E080910F03811118C080911E
:102A1000E5068033A0F08091E5068A3380F480914A
:102A2000E50680539AE0C99F800D1124C82F6AE201
:102A30008DE790E00E94530CD0930F03E4CF809178
:102A40000F038111E0CF8091E5068D33E1F64C2F25
:102A5000612F80E50E94C10E61E08DE790E00E9449
:102A6000ED0B2FEF89EF90E0215080409040E1F78F
:102A700000C0000023E042E067ED74E08DE790E0E5
:102A80000E94F40C83E080930F032FEF8FE097E216
:102A9000215080409040E1F700C00000DF91CF91CD
:102AA0001F910F910895AF92BF92CF92DF92EF9254
:102AB000FF920F931F93CF93DF9300D0CDB7DEB774
:102AC0001A8283E080930F03E12C13E0198261E006
:102AD0008DE790E00E94ED0B8FE79EE30197F1F701
:102AE00000C0000067EC73E08DE790E00E94190DD4
:102AF00081E08823F1F090910F03E12C9111F9CF3F
:102B00008091E5068033A0F38091E5068A3380F753
:102B10008091E506A0EDEA2EE80E4E2D50E060E033
:102B200070E08DE790E00E94390D10930F0380E074
:102B3000E0CF21E042E06AED73E08DE790E00E9493
:102B4000F40C41E063E08DE790E00E94AB0C00E004
:102B500080910F03811118C08091E5068033A0F0A9
:102B60008091E5068A3380F48091E50680539AE0EF
:102B7000099F800D1124082F6AE28DE790E00E94E2
:102B8000530C10930F03E4CF80910F038111E0CF1A
:102B90008091E5068D33E1F6AE014F5F5F4F6E2DFC
:102BA00080E50E94EA0E61E08DE790E00E94ED0B67
:102BB000EFEFF9EF20E0E150F0402040E1F700C0F6
:102BC0000000898124E042E0801308C067EE74E0D1
:102BD0008DE790E00E94F40C80E007C064E575E0AA
:102BE0008DE790E00E94F40C81E03FEF4FE057E268
:102BF000315040405040E1F700C0000010930F03F7
:102C0000813009F463CF61E08DE790E00E94ED0B25
:102C10008FEF99EFE0E081509040E040E1F700C095
:102C2000000024E141E06FEF8DE790E00E94CD0CC1
:102C3000E8EDAE2EE6E0BE2EF2E0CF2ED12C10E075
:102C400004E11F5FF50181915F019601281B3109A5
:102C5000029FB001039F700D112462577F4F21E046
:102C6000412F8DE790E00E94F40C32E0C30ED11C9E
:102C7000143039F7FF24F39401E011E063E0C62E2D
:102C8000DD24D39474E1B72E112309F448C1809157
:102C90000F038111F9CFC0920F03E091E5068E2F4B
:102CA00090E0FC01BB97ED30F10508F005C1E85B51
:102CB000FF4F0C94511D10E000C10E94410661E0DD
:102CC0008DE790E00E94ED0B8FE79EE30197F1F70F
:102CD00000C000008091D80681110EC084EB0E94D4
:102CE0002C0A24E042E063E074E08DE790E00E946B
:102CF000F40CD092D80644C080E00E942C0A24E054
:102D000042E060E174E08DE790E00E94F40C1092E4
:102D1000D80636C00E94410661E08DE790E00E942F
:102D2000ED0B8FE79EE30197F1F700C00000909153
:102D3000D9068091E00691110EC081608093E00673
:102D400024E042E06FE174E08DE790E00E94F40C33
:102D5000D092D9060DC08E7F8093E00624E042E039
:102D60006BE274E08DE790E00E94F40C1092D906BB
:102D7000AE014E5F5F4F6091E0068CE00E946807F5
:102D80009FEFE9E6F8E19150E040F040E1F700C044
:102D900000000E94230690C00E94410661E08DE77A
:102DA00090E00E94ED0B8FE79EE30197F1F700C0E2
:102DB00000009091DA068091E00691110EC08260C9
:102DC0008093E00624E042E068E374E08DE790E061
:102DD0000E94F40CD092DA06CBCF8D7F8093E00670
:102DE00024E042E064E474E08DE790E00E94F40C9B
:102DF0001092DA06BDCF0E94410661E08DE790E0B7
:102E00000E94ED0B8FE79EE30197F1F700C00000F1
:102E10008091DB06811110C08091E0068460809370
:102E2000E00624E042E061E574E08DE790E00E9476
:102E3000F40CD092DB069CCF24E042E06DE574E018
:102E40008DE790E00E94F40C1092DB068091E00682
:102E50008B7F8093E0068CCF0E9441060E94711008
:102E600098CF69818E2D0E945E14AE014F5F5F4F37
:102E70006E2D80E50E94EA0E1FC0802F90E0029721
:102E800014F0015001C001E08F2D90E002977CF01A
:102E9000FA9412C0802F90E0049714F40F5F01C0E1
:102EA00004E08F2D90E004972CF4F39405C0FF24E8
:102EB000F39402C054E0F52E11E061E08DE790E05C
:102EC0000E94ED0B8FE79EE30197F1F700C0000031
:102ED00024E1402F6FEF8DE790E00E94CD0CA12CF4
:102EE0008F2D8A0DA39490E09C01220F331FFC01CB
:102EF000E952F94F8081F901E81BF109BE9EB0014A
:102F0000BF9E700D112462577F4F21E04A2D8DE73F
:102F100090E00E94F40CF4E0AF12E2CFB5CE0F9037
:102F20000F90DF91CF911F910F91FF90EF90DF9065
:102F3000CF90BF90AF900895CF93DF931092E206A9
:102F400064EF74E080E690E00E94010381E0882352
:102F5000A9F09091E2069130D1F78091E306803399
:102F600058F08091E3068A3338F46091E306C0EDAF
:102F7000C60F1092E20602C081E0EBCF69E075E077
:102F800080E690E00E940103D0E08091E20681306B
:102F9000C9F48091E3068033A8F08091E3068A3378
:102FA00088F48091E30680539AE0D99F800D112424
:102FB000D82F6AE270E080E690E00E94E80210926A
:102FC000E206E3CF8091E2068130F9F68091E306D4
:102FD0008D30D9F64D2F6C2F80E50E94C10E6BE12C
:102FE00075E080E690E00E9401036C2F70E0605D68
:102FF0007F4F80E690E00E94E80262E275E080E6A2
:1030000090E00E9401031092E206DF91CF910895B3
:10301000CF931092E20664EF74E080E690E00E94A5
:103020000103C9E081E08823E9F09091E206913044
:10303000D1F78091E306803398F08091E3068A33DC
:1030400078F4C091E306C0534091E30650E060E09D
:1030500070E08DE790E00E94390D1092E20602C008
:1030600081E0E3CF6BE175E080E690E00E94010330
:103070006C2F70E0605D7F4F80E690E00E94E80278
:103080006FE275E080E690E00E9401034FEF6C2F45
:1030900080E5CF910C94C10ECF93DF93C82FD62F2C
:1030A0001092E2066DE375E080E690E00E94010375
:1030B00080E09091E206913099F49091E30690338C
:1030C00078F09091E3069A3358F49091E306905388
:1030D0002AE0829F900D1124892F1092E206E9CFF9
:1030E0009091E206913029F79091E3069D3009F71F
:1030F000D817A9F063E575E080E690E00E9401032F
:1031000064E675E080E690E00E9401036DE375E0FF
:1031100080E690E00E94010380E091E001C090E031
:103120001092E2069111C5CF60E775E080E690E06D
:103130000E94010340E08091E206813099F4809181
:10314000E306803378F08091E3068A3358F4809167
:10315000E30680539AE0499F800D1124482F109276
:10316000E206E9CF8091E206813029F78091E306FB
:103170008D3009F76C2F80E50E94C10E66E875E07E
:1031800080E690E00E9401031092E206DF91CF9169
:103190000895CF93DF93CDB7DEB7A4970FB6F89419
:1031A000DEBF0FBECDBF1CA21BA21AA219A218A27D
:1031B0001F8E68E975E080E690E00E940103CE0171
:1031C00081960E94FD0A69A170E080E090E0AE0166
:1031D000465E5F4F0E948300BE01665E7F4F80E6C1
:1031E00090E00E9401036AE370E080E690E00E94B4
:1031F000E8022FEF82E597E0215080409040E1F710
:1032000000C00000CE0180960E94380B68A170E0DB
:1032100080E090E0AE014B5E5F4F0E948300BE01F4
:103220006B5E7F4F80E690E00E9401036AE370E0EE
:1032300080E690E00E94E8022FEF82E597E02150BF
:1032400080409040E1F700C00000CE014F960E9400
:10325000730B6F8D70E080E090E0AE01405F5F4FD8
:103260000E948300BE01605F7F4F80E690E00E9475
:1032700001032FEF82E597E0215080409040E1F775
:1032800000C0000061EA75E080E690E00E94010362
:10329000CE0182960E94C20A6AA170E080E090E0AE
:1032A000AE014F5F5F4F0E948300BE016F5F7F4F93
:1032B00080E690E00E9401036AE370E080E690E01F
:1032C0000E94E8022FEF82E597E021508040904075
:1032D000E1F700C00000CE0183960E94870A6BA12F
:1032E00070E080E090E0AE014A5F5F4F0E94830093
:1032F000BE016A5F7F4F80E690E00E9401036AE3AF
:1033000070E080E690E00E94E8022FEF82E597E00F
:10331000215080409040E1F700C00000CE0184962B
:103320000E944C0A6CA170E080E090E0AE01455F25
:103330005F4F0E948300BE01655F7F4F80E690E093
:103340000E9401036DE070E080E690E00E94E802D8
:10335000A4960FB6F894DEBF0FBECDBFDF91CF911C
:103360000895AF92BF92CF92DF92FF920F931F9377
:10337000CF93DF9300D0CDB7DEB71A821092E2066A
:1033800010E0198264EF74E080E690E00E9401038F
:1033900081E08823D9F09091E20610E09130C9F7DE
:1033A0008091E3068033A0F38091E3068A3380F7AF
:1033B0001091E30610536091E30670E080E690E020
:1033C0000E94E8021092E20680E0E3CF69E075E037
:1033D00080E690E00E94010300E08091E2068130E7
:1033E00099F48091E306803378F08091E3068A3384
:1033F00058F48091E30680532AE0029F800D112447
:10340000082F1092E206E9CF8091E206813029F779
:103410008091E3068D3009F7AE014F5F5F4F612F5A
:1034200080E50E94EA0E8981801308C06BEA75E08E
:1034300080E690E00E94010380E007C06AEB75E03F
:1034400080E690E00E94010381E01092E206813064
:1034500009F497CF38EDA32E36E0B32E42E0C42E08
:10346000D12C04E1F50181915F019601281B3109FE
:10347000029FB001039F700D112462577F4F80E6B9
:1034800090E00E9401036DE070E080E690E00E9411
:10349000E80232E0C30ED11C80E1C816D10411F756
:1034A00001E024E1F22E8091E2068130E1F71092F2
:1034B000E206E091E3068E2F90E0FC01F197E73001
:1034C000F105F8F4EB5AFF4F0C94511D8091D8068A
:1034D00081110CC084EB0E942C0A6DEC75E080E633
:1034E00090E00E9401030093D8060BC080E00E9488
:1034F0002C0A6CED75E080E690E00E9401031092CA
:10350000D80688EDA82E86E0B82E92E0C92ED12CE0
:1035100073C09091D9068091E00691110CC0816032
:103520008093E0066DEE75E080E690E00E94010376
:103530000093D90649C08E7F8093E0066BEF75E05B
:1035400080E690E00E9401031092D9063DC0909160
:10355000DA068091E00691110CC082608093E0064B
:103560006AE076E080E690E00E9401030093DA06CC
:103570002BC08D7F8093E00668E176E080E690E0E6
:103580000E9401031092DA061FC08091DB068111B0
:103590000EC08091E00684608093E00667E276E0EA
:1035A00080E690E00E9401030093DB060DC065E316
:1035B00076E080E690E00E9401031092DB068091A5
:1035C000E0068B7F8093E006AE014E5F5F4F609117
:1035D000E0068CE00E94680794CF0E94C91891CF42
:1035E0006981812F0E944C18AE014F5F5F4F612FA0
:1035F00080E50E94EA0E85CFF50181915F01960179
:10360000281B3109F29EB001F39E700D1124625700
:103610007F4F80E690E00E9401036DE070E080E65D
:1036200090E00E94E80232E0C30ED11C80E1C8168F
:10363000D10411F738CF0F900F90DF91CF911F91E8
:103640000F91FF90DF90CF90BF90AF900895CF92F1
:10365000DF92EF92FF920F931F93CF93DF931F920E
:10366000CDB7DEB719821092E20628EDE22E26E0F1
:10367000F22E02E010E034E1D32EF70181917F01B8
:103680009801281B3109D29EB001D39E700D1124E0
:1036900066547E4F80E690E00E9401036DE070E08A
:1036A00080E690E00E94E8020E5F1F4F0231110594
:1036B00021F711E004E18091E2068130E1F71092F8
:1036C000E206E091E3068E2F90E0FC01F197E830EE
:1036D000F105F8F4E45AFF4F0C94511D8091D8067F
:1036E00081110CC084EB0E942C0A6DEC75E080E621
:1036F00090E00E9401031093D8060BC080E00E9466
:103700002C0A6CED75E080E690E00E9401031092B7
:10371000D80688EDC82E86E0D82E92E0E92EF12C4E
:103720006DC09091D9068091E00691110CC0816026
:103730008093E0066DEE75E080E690E00E94010364
:103740001093D90649C08E7F8093E0066BEF75E039
:1037500080E690E00E9401031092D9063DC090914E
:10376000DA068091E00691110CC082608093E00639
:103770006AE076E080E690E00E9401031093DA06AA
:103780002BC08D7F8093E00668E176E080E690E0D4
:103790000E9401031092DA061FC08091DB0681119E
:1037A0000EC08091E00684608093E00667E276E0D8
:1037B00080E690E00E9401031093DB060DC065E3F4
:1037C00076E080E690E00E9401031092DB06809193
:1037D000E0068B7F8093E006AE014F5F5F4F609104
:1037E000E0068CE00E94680794CF0E94C91891CF30
:1037F0000E949C178ECF0E9408188BCFF6018191F2
:103800006F019701281B3109029FB001039F700DC2
:10381000112466547E4F80E690E00E9401036DE023
:1038200070E080E690E00E94E80232E0E30EF11CD6
:1038300082E1E816F10411F73ECF0F90DF91CF91AE
:103840001F910F91FF90EF90DF90CF9008951F93FD
:10385000CF93DF931F92CDB7DEB71092E20680912F
:103860000E03813071F510920E0364E476E080E679
:1038700090E00E94010381E010E0882309F468C011
:103880009091E2069130C9F78091E3068D3051F0B6
:103890008091E30680539AE0199F800D1124182F20
:1038A00081E00CC0412F60E080E50E94C10E69E517
:1038B00076E080E690E00E94010380E01092E2064C
:1038C000DCCF6FE676E080E690E00E940103AE0177
:1038D0004F5F5F4F60E080E50E94EA0E81E090E07C
:1038E0008823B1F12091E2062130D1F78091E306DF
:1038F0008D3049F01091E30610538AE0989F100D27
:10390000112481E021C0198119130AC066E876E00C
:1039100080E690E00E9401030E94271B80E014C013
:103920006AE976E080E690E00E9401036FEA76E0C3
:1039300080E690E00E9401036FE676E080E690E08A
:103940000E94010381E010E01092E206912FC8CF9F
:103950000F90DF91CF911F9108950E94001D0E944A
:10396000680F8091E106823071F48091E306813323
:1039700019F40E94271CF3CF8091E306823379F774
:103980000E94B119ECCF813051F78091E506813367
:1039900019F40E946213E3CF8091E5068233F9F6B1
:1039A0000E945315DCCF8093E30681E08093E2060A
:1039B0000895CF93DF931F92CDB7DEB78091D606DF
:1039C0008F5F8093D6068091D6068231A9F480E07D
:1039D0000E94EC09BE016F5F7F4F84E890E00E9477
:1039E000C70D80930F0380910F03811103C089815C
:1039F0008093E5061092D6060F90DF91CF9108953F
:103A00000E94C20780E690E00E9495020E94230374
:103A100083ED9CE10E94290388E690E00E94AF05B7
:103A200069ED7CE188E690E00E94100688E690E06F
:103A30000E9482058BE690E00E94EF0680E790E00E
:103A40000E9445088DE790E00E94100C0E941E0A1B
:103A500080E00E942C0A0E94230980E00895A1E2E0
:103A60001A2EAA1BBB1BFD010DC0AA1FBB1FEE1FF8
:103A7000FF1FA217B307E407F50720F0A21BB30B43
:103A8000E40BF50B661F771F881F991F1A9469F7BF
:103A900060957095809590959B01AC01BD01CF011B
:103AA0000895EE0FFF1F0590F491E02D0994B7FFE4
:103AB0000C94D01D0E94D01D821B930B0895DF93A0
:103AC000CF931F930F939A9DF02D219FF00D8B9D07
:103AD000F00D8A9DE02DF10D039FF00D029FE00D8A
:103AE000F11D4E9DE00DF11D5E9DF00D4F9DF00D01
:103AF0007F936F93BF92AF925F934F93D5010E94D4
:103B0000C11D8B01AC01D7010E94C11DEB01E80F63
:103B1000F91FD6010E94AF1D2F913F91D6010E943F
:103B2000C11DC60FD71FE81FF91FAF91BF910E949B
:103B3000AF1D2F913F910E94C11DC60FD71FE81FD7
:103B4000F91FD6010E94C11DE60FF71F9801BE01A3
:103B5000CF0111240F911F91CF91DF9108950E9401
:103B6000C11D460F571FC81FD91F08F4319608956D
:103B70002A0D3B1D4C1D5D1D6E1D7F1D801F911F5D
:103B80000895A29FB001B39FC001A39F700D811D36
:103B90001124911DB29F700D811D1124911D089556
:103BA0000E94C11DA59F900DB49F900DA49F800DF4
:103BB000911D112408955058BB27AA270E94F31D78
:103BC0000C946D1F0E945F1F38F00E94661F20F04A
:103BD00039F49F3F19F426F40C945C1F0EF4E09521
:103BE000E7FB0C94561FE92F0E947E1F58F3BA176B
:103BF000620773078407950720F079F4A6F50C9403
:103C0000A01F0EF4E0950B2EBA2FA02D0B01B901C9
:103C100090010C01CA01A0011124FF27591B99F042
:103C2000593F50F4503E68F11A16F040A22F232F4E
:103C3000342F4427585FF3CF469537952795A7959E
:103C4000F0405395C9F77EF41F16BA0B620B730B45
:103C5000840BBAF09150A1F0FF0FBB1F661F771FB6
:103C6000881FC2F70EC0BA0F621F731F841F48F46B
:103C7000879577956795B795F7959E3F08F0B0CFF4
:103C80009395880F08F09927EE0F979587950895DB
:103C90000E94321F08F481E008950E94611E0C9476
:103CA0006D1F0E94661F58F00E945F1F40F029F4AC
:103CB0005F3F29F00C94561F51110C94A11F0C94D6
:103CC0005C1F0E947E1F68F39923B1F3552391F383
:103CD000951B550BBB27AA2762177307840738F07B
:103CE0009F5F5F4F220F331F441FAA1FA9F335D0D8
:103CF0000E2E3AF0E0E832D091505040E695001C8C
:103D0000CAF72BD0FE2F29D0660F771F881FBB1F45
:103D1000261737074807AB07B0E809F0BB0B802D23
:103D2000BF01FF2793585F4F3AF09E3F510578F04F
:103D30000C94561F0C94A11F5F3FE4F3983ED4F3FC
:103D4000869577956795B795F7959F5FC9F7880F23
:103D5000911D9695879597F90895E1E0660F771F75
:103D6000881FBB1F621773078407BA0720F0621B06
:103D7000730B840BBA0BEE1F88F7E09508950E9431
:103D8000C61E6894B1110C94A11F08950E94861F4D
:103D900088F09F5798F0B92F9927B751B0F0E1F00C
:103DA000660F771F881F991F1AF0BA95C9F714C0BC
:103DB000B13091F00E94A01FB1E008950C94A01FB3
:103DC000672F782F8827B85F39F0B93FCCF38695F5
:103DD00077956795B395D9F73EF490958095709552
:103DE00061957F4F8F4F9F4F0895E89409C097FBCF
:103DF0003EF490958095709561957F4F8F4F9F4FC2
:103E00009923A9F0F92F96E9BB279395F695879505
:103E100077956795B795F111F8CFFAF4BB0F11F4C8
:103E200060FF1BC06F5F7F4F8F4F9F4F16C088236F
:103E300011F096E911C0772321F09EE8872F762FA5
:103E400005C0662371F096E8862F70E060E02AF0E6
:103E50009A95660F771F881FDAF7880F96958795D2
:103E600097F90895990F0008550FAA0BE0E8FEEFA7
:103E700016161706E807F907C0F012161306E4072E
:103E8000F50798F0621B730B840B950B39F40A2627
:103E900061F0232B242B252B21F408950A2609F405
:103EA000A140A6958FEF811D811D089597F99F6709
:103EB00080E870E060E008959FEF80EC08950024B2
:103EC0000A941616170618060906089500240A947F
:103ED00012161306140605060895092E0394000C05
:103EE00011F4882352F0BB0F40F4BF2B11F460FF94
:103EF00004C06F5F7F4F8F4F9F4F089557FD9058BD
:103F0000440F551F59F05F3F71F04795880F97FB9D
:103F1000991F61F09F3F79F0879508951216130657
:103F20001406551FF2CF4695F1DF08C01616170686
:103F30001806991FF1CF86957105610508940895BB
:103F4000E894BB2766277727CB0197F908950E944D
:103F5000BA1F0C946D1F0E945F1F38F00E94661FED
:103F600020F0952311F00C94561F0C945C1F112423
:103F70000C94A11F0E947E1F70F3959FC1F3950FB3
:103F800050E0551F629FF001729FBB27F00DB11DDD
:103F9000639FAA27F00DB11DAA1F649F6627B00D6D
:103FA000A11D661F829F2227B00DA11D621F739F56
:103FB000B00DA11D621F839FA00D611D221F749F64
:103FC0003327A00D611D231F849F600D211D822FAB
:103FD000762F6A2F11249F5750409AF0F1F08823D2
:103FE0004AF0EE0FFF1FBB1F661F771F881F9150FF
:103FF0005040A9F79E3F510580F00C94561F0C9439
:10400000A11F5F3FE4F3983ED4F3869577956795BB
:10401000B795F795E7959F5FC1F7FE2B880F911D28
:104020009695879597F90895AEE0B0E0EAE1F0E261
:104030000C94D5220D891E8986E08C831A8309830E
:104040008FEF9FE79E838D83AE01475E5F4F6F8941
:10405000788DCE0101960E943620EF81F885E00F21
:10406000F11F10822E96E4E00C94F122ABE0B0E058
:10407000ECE3F0E20C94C7226C017B018A01FC01A5
:1040800017821682838181FFCCC1CE0101963C014B
:10409000F6019381F70193FD859193FF81917F0153
:1040A000882309F4BAC1853239F493FD859193FFD1
:1040B00081917F01853229F4B60190E00E942D2282
:1040C000E7CF912C212C312CFFE1F315D8F08B3266
:1040D00079F038F4803279F08332A1F4232D206115
:1040E0001DC08D3261F0803369F4232D216016C02C
:1040F000832D8260382EE32DE4603E2E2AC0F32DFE
:10410000F8601DC037FC2DC020ED280F2A3040F08C
:104110008E32B9F436FC81C1232D2064322E19C0B1
:1041200036FE06C08AE0989E200D1124922E11C002
:10413000EAE02E9E200D1124222EF32DF0623F2E58
:1041400008C08C3621F4832D8068382E02C0883652
:1041500041F4F70193FD859193FF81917F018111D6
:10416000B3CF982F9F7D9554933028F40C5F1F4F49
:104170009FE399830DC0833631F0833771F0833527
:1041800009F059C021C0F801808189830E5F1F4F5B
:1041900088248394912C530113C02801F2E04F0E20
:1041A000511CF801A080B18036FE03C0692D70E07B
:1041B00002C06FEF7FEFC5010E9422224C018201F5
:1041C000F32DFF773F2E16C0280122E0420E511C2E
:1041D000F801A080B18036FE03C0692D70E002C0F6
:1041E0006FEF7FEFC5010E9417224C01F32DF0689D
:1041F0003F2E820133FC1BC0822D90E08816990669
:10420000B0F4B60180E290E00E942D222A94F4CF0F
:10421000F50137FC859137FE81915F01B60190E091
:104220000E942D2221102A9421E0821A91088114E3
:10423000910471F7E8C0843611F0893641F5F80130
:1042400037FE07C060817181828193810C5F1F4FAF
:1042500008C060817181072E000C880B990B0E5FDE
:104260001F4FF32DFF763F2E97FF09C09095809545
:10427000709561957F4F8F4F9F4FF0683F2E2AE0DA
:1042800030E0A3010E946922882E861845C0853738
:1042900031F4232D2F7EB22E2AE030E025C0932D5D
:1042A000997FB92E8F36C1F018F4883579F0B5C0F2
:1042B000803719F0883721F0B0C0E92FE061BE2EB9
:1042C000B4FE0DC0FB2DF460BF2E09C034FE0AC041
:1042D000292F2660B22E06C028E030E005C020E17C
:1042E00030E002C020E132E0F801B7FE07C0608193
:1042F0007181828193810C5F1F4F06C06081718143
:1043000080E090E00E5F1F4FA3010E946922882E7B
:104310008618FB2DFF773F2E36FE0DC0232D2E7FF6
:10432000A22E891458F434FE0BC032FC09C0832D30
:104330008E7EA82E05C0B82CA32C03C0B82C01C0BB
:10434000B92CA4FE0FC0FE01E80DF11D8081803361
:1043500021F49A2D997EA92E09C0A2FE06C0B3941D
:10436000B39404C08A2D867809F0B394A3FC11C0DD
:10437000A0FE06C0B21488F4280C922C9B180EC024
:10438000B21460F4B60180E290E00E942D22B39452
:10439000F7CFB21418F42B1802C0982C212CA4FECD
:1043A00010C0B60180E390E00E942D22A2FE17C04B
:1043B000A1FC03C088E790E002C088E590E0B60168
:1043C0000CC08A2D867859F0A1FE02C08BE201C094
:1043D00080E2A7FC8DE2B60190E00E942D228914B4
:1043E00038F4B60180E390E00E942D229A94F7CF32
:1043F0008A94F301E80DF11D8081B60190E00E94DE
:104400002D228110F5CF222009F442CEB60180E2A0
:1044100090E00E942D222A94F6CFF60186819781A2
:1044200002C08FEF9FEF2B96E2E10C94E322FC0198
:104430000590615070400110D8F7809590958E0FCF
:104440009F1F0895FC016150704001900110D8F742
:10445000809590958E0F9F1F08950F931F93CF9374
:10446000DF93FB01238121FD03C08FEF9FEF2CC061
:1044700022FF16C046815781248135814217530798
:1044800044F4A081B1819D012F5F3F4F3183208390
:104490008C93268137812F5F3F4F3783268314C04B
:1044A0008B01EC01FB010084F185E02D0995892B3E
:1044B000E1F6D80116968D919C9117970196179663
:1044C0009C938E931697CE01DF91CF911F910F9100
:1044D0000895FA01AA27283051F1203181F1E8949A
:1044E0006F936E7F6E5F7F4F8F4F9F4FAF4FB1E0E7
:1044F0003ED0B4E03CD0670F781F891F9A1FA11DE2
:10450000680F791F8A1F911DA11D6A0F711D811DE2
:10451000911DA11D20D009F468943F912AE0269FA7
:1045200011243019305D3193DEF6CF010895462F06
:104530004770405D4193B3E00FD0C9F7F6CF462FE7
:104540004F70405D4A3318F0495D31FD4052419350
:1045500002D0A9F7EACFB4E0A6959795879577950D
:104560006795BA95C9F700976105710508959B0194
:10457000AC010A2E06945795479537952795BA951D
:10458000C9F7620F731F841F951FA01D08952F92F6
:104590003F924F925F926F927F928F929F92AF92D3
:1045A000BF92CF92DF92EF92FF920F931F93CF9320
:1045B000DF93CDB7DEB7CA1BDB0B0FB6F894DEBFB7
:1045C0000FBECDBF09942A88398848885F846E84DD
:1045D0007D848C849B84AA84B984C884DF80EE8027
:1045E000FD800C811B81AA81B981CE0FD11D0FB630
:1045F000F894DEBF0FBECDBFED010895F894FFCF54
:1046000003000000802500000500000101000103F7
:10461000801A060000FFFF050E00020000020304DE
:104620000507060016171A1B1213141500012000A7
:10463000000000000000000000000000000000007A
:104640000000312D20436C6F736520546865204451
:104650006F6F72000000312D204F70656E2054681E
:104660006520446F6F7200000000322D2054757277
:104670006E204F666620526F6F6D31000000322D44
:10468000205475726E204F6E20526F6F6D31000096
:104690000000332D205475726E204F666620526FD5
:1046A0006F6D32000000332D205475726E204F6EF6
:1046B00020526F6F6D3200000000342D205475724F
:1046C0006E204F666620526F6F6D33000000342DF0
:1046D000205475726E204F6E20526F6F6D33000044
:1046E0000000352D2053686F772054686520546989
:1046F0006D6500000000352D2053686F77205468E9
:10470000652054696D6500000000362D2043686106
:104710006E67652050617373776F72640000362D89
:10472000204368616E67652050617373776F7264B0
:104730000000372D204261636B20546F204D656E61
:10474000750000000000372D204261636B20546F1C
:10475000204D656E75000000000020000000000084
:104760000000000000000000000000000000312DEB
:1047700020436C6F73652054686520446F6F72002E
:104780000000312D204F70656E2054686520446F05
:104790006F7200000000322D205475726E204F663B
:1047A0006620526F6F6D31000000322D20547572FB
:1047B0006E204F6E20526F6F6D3100000000332D60
:1047C000205475726E204F666620526F6F6D3200F6
:1047D0000000332D205475726E204F6E20526F6F83
:1047E0006D3200000000342D205475726E204F662B
:1047F0006620526F6F6D33000000342D20547572A7
:104800006E204F6E20526F6F6D3300000000352D0B
:104810002053686F77205468652054696D650000E7
:104820000000352D2053686F772054686520546947
:104830006D6500000000362D2041646420557365CD
:1048400072000000000000000000362D204164646A
:104850002055736572000000000000000000372D35
:104860002044656C65746520557365720000000016
:104870000000372D2044656C6574652055736572A2
:10488000000000000000382D204261636B20546F4F
:10489000204D656E750000000000382D20426163D8
:1048A0006B20546F204D656E750000000000010301
:1048B000256C75002573256C642E25303464003B0F
:1048C000003800350032003A00370034003100393A
:1048D000003600330030003B003800350032003A2B
:1048E000003700340031003738392F3435362A315B
:1048F00032332D63303D2B57656C636F6D652048F7
:104900006F6D6500312D2053656C656374204164C3
:104910006D696E2000322D2053656C6563742055DF
:1049200073657220002020202020202020202020BD
:104930002020202020202057656C636F6D65204863
:104940006F6D650D00312D2053656C6563742041DA
:10495000646D696E0D00322D2053656C65637420A3
:1049600055736572200D00456E7465722055736530
:10497000726E616D652049443A00456E746572201F
:1049800050617373776F72643A200020497320413D
:104990006464656420002049732044656C65746517
:1049A000642000446F6F72204973204F70656E0061
:1049B000446F6F7220497320436C6F7365640052BB
:1049C0006F6F6D31204973204F6E00526F6F6D31E4
:1049D000204973204F666600526F6F6D3220497315
:1049E000204F6E00526F6F6D32204973204F666604
:1049F00000526F6F6D33204973204F6E00526F6FFE
:104A00006D33204973204F66660041646D696E20E6
:104A10004E65772050617373776F72640041646DE7
:104A2000696E2050617373776F726420446F6E6596
:104A300000456E7465722041646D696E205061732B
:104A400073776F72640050617373776F726420497B
:104A5000732052696768740050617373776F726472
:104A60002049732057524F4E47002020547279201E
:104A7000416761696E20004368616E6765206973F4
:104A800020646F6E65200020204C6F6767696E6739
:104A900020496E000D456E74657220557365726E07
:104AA000616D652049443A20000D456E74657220A1
:104AB00050617373776F72643A0D000D55736572B0
:104AC0002000204973204164646564200D0D00209E
:104AD00049732044656C65746564200D000D456E56
:104AE000746572204F6C642050617373776F7264C9
:104AF0003A20000D2057726F6E67205061737377F4
:104B00006F7264000D54727920416761696E0D0007
:104B10000D456E746572204E657720506173737712
:104B20006F72643A20000D4368616E676520697397
:104B300020646F6E650D20000D446174653A20207D
:104B4000000D436C6F636B3A2020000D0D4C6F67B6
:104B500067696E6720496E0D0D000D0D57726F6EFF
:104B6000672050617373776F72640D0D000D446F91
:104B70006F72204973204F70656E0D000D446F6F8A
:104B80007220497320436C6F7365640D000D526F82
:104B90006F6D31204973204F6E0D000D526F6F6D98
:104BA00031204973204F66660D000D526F6F6D32D4
:104BB000204973204F6E0D000D526F6F6D322049EA
:104BC00073204F66660D000D526F6F6D3320497371
:104BD000204F6E0D000D526F6F6D33204973204FC3
:104BE00066660D000D41646D696E204E657720503C
:104BF000617373776F72640D000D41646D696E208F
:104C000050617373776F726420446F6E650D000D91
:104C1000456E7465722041646D696E2050617373D6
:104C2000776F72640D000D50617373776F7264203B
:104C300049732052696768740D000D0D50617373DC
:104C4000776F72642049732057524F4E470D000D05
:0E4C50000D54727920416761696E200D0000DD
:00000001FF
